{
  "_format": "hh-sol-artifact-1",
  "contractName": "FDSReverseRegistrar",
  "sourceName": "contracts/FDSReverseRegistrar.sol",
  "abi": [
    {
      "inputs": [
        {
          "internalType": "contract ENSRegistry",
          "name": "ensAddr",
          "type": "address"
        }
      ],
      "stateMutability": "nonpayable",
      "type": "constructor"
    },
    {
      "anonymous": false,
      "inputs": [
        {
          "indexed": true,
          "internalType": "address",
          "name": "controller",
          "type": "address"
        },
        {
          "indexed": false,
          "internalType": "bool",
          "name": "enabled",
          "type": "bool"
        }
      ],
      "name": "ControllerChanged",
      "type": "event"
    },
    {
      "anonymous": false,
      "inputs": [
        {
          "indexed": true,
          "internalType": "contract FDSNameResolver",
          "name": "resolver",
          "type": "address"
        }
      ],
      "name": "DefaultResolverChanged",
      "type": "event"
    },
    {
      "anonymous": false,
      "inputs": [
        {
          "indexed": true,
          "internalType": "address",
          "name": "previousOwner",
          "type": "address"
        },
        {
          "indexed": true,
          "internalType": "address",
          "name": "newOwner",
          "type": "address"
        }
      ],
      "name": "OwnershipTransferred",
      "type": "event"
    },
    {
      "anonymous": false,
      "inputs": [
        {
          "indexed": true,
          "internalType": "address",
          "name": "addr",
          "type": "address"
        },
        {
          "indexed": true,
          "internalType": "bytes32",
          "name": "node",
          "type": "bytes32"
        }
      ],
      "name": "ReverseClaimed",
      "type": "event"
    },
    {
      "inputs": [
        {
          "internalType": "address",
          "name": "owner",
          "type": "address"
        }
      ],
      "name": "claim",
      "outputs": [
        {
          "internalType": "bytes32",
          "name": "",
          "type": "bytes32"
        }
      ],
      "stateMutability": "nonpayable",
      "type": "function"
    },
    {
      "inputs": [
        {
          "internalType": "address",
          "name": "addr",
          "type": "address"
        },
        {
          "internalType": "address",
          "name": "owner",
          "type": "address"
        },
        {
          "internalType": "address",
          "name": "resolver",
          "type": "address"
        }
      ],
      "name": "claimForAddr",
      "outputs": [
        {
          "internalType": "bytes32",
          "name": "",
          "type": "bytes32"
        }
      ],
      "stateMutability": "nonpayable",
      "type": "function"
    },
    {
      "inputs": [
        {
          "internalType": "address",
          "name": "owner",
          "type": "address"
        },
        {
          "internalType": "address",
          "name": "resolver",
          "type": "address"
        }
      ],
      "name": "claimWithResolver",
      "outputs": [
        {
          "internalType": "bytes32",
          "name": "",
          "type": "bytes32"
        }
      ],
      "stateMutability": "nonpayable",
      "type": "function"
    },
    {
      "inputs": [
        {
          "internalType": "address",
          "name": "",
          "type": "address"
        }
      ],
      "name": "controllers",
      "outputs": [
        {
          "internalType": "bool",
          "name": "",
          "type": "bool"
        }
      ],
      "stateMutability": "view",
      "type": "function"
    },
    {
      "inputs": [],
      "name": "defaultResolver",
      "outputs": [
        {
          "internalType": "contract FDSNameResolver",
          "name": "",
          "type": "address"
        }
      ],
      "stateMutability": "view",
      "type": "function"
    },
    {
      "inputs": [],
      "name": "ens",
      "outputs": [
        {
          "internalType": "contract ENSRegistry",
          "name": "",
          "type": "address"
        }
      ],
      "stateMutability": "view",
      "type": "function"
    },
    {
      "inputs": [
        {
          "internalType": "address",
          "name": "addr",
          "type": "address"
        }
      ],
      "name": "node",
      "outputs": [
        {
          "internalType": "bytes32",
          "name": "",
          "type": "bytes32"
        }
      ],
      "stateMutability": "pure",
      "type": "function"
    },
    {
      "inputs": [],
      "name": "owner",
      "outputs": [
        {
          "internalType": "address",
          "name": "",
          "type": "address"
        }
      ],
      "stateMutability": "view",
      "type": "function"
    },
    {
      "inputs": [],
      "name": "renounceOwnership",
      "outputs": [],
      "stateMutability": "nonpayable",
      "type": "function"
    },
    {
      "inputs": [
        {
          "internalType": "address",
          "name": "controller",
          "type": "address"
        },
        {
          "internalType": "bool",
          "name": "enabled",
          "type": "bool"
        }
      ],
      "name": "setController",
      "outputs": [],
      "stateMutability": "nonpayable",
      "type": "function"
    },
    {
      "inputs": [
        {
          "internalType": "address",
          "name": "resolver",
          "type": "address"
        }
      ],
      "name": "setDefaultResolver",
      "outputs": [],
      "stateMutability": "nonpayable",
      "type": "function"
    },
    {
      "inputs": [
        {
          "internalType": "string",
          "name": "name",
          "type": "string"
        }
      ],
      "name": "setName",
      "outputs": [
        {
          "internalType": "bytes32",
          "name": "",
          "type": "bytes32"
        }
      ],
      "stateMutability": "nonpayable",
      "type": "function"
    },
    {
      "inputs": [
        {
          "internalType": "address",
          "name": "addr",
          "type": "address"
        },
        {
          "internalType": "address",
          "name": "owner",
          "type": "address"
        },
        {
          "internalType": "address",
          "name": "resolver",
          "type": "address"
        },
        {
          "internalType": "string",
          "name": "name",
          "type": "string"
        }
      ],
      "name": "setNameForAddr",
      "outputs": [
        {
          "internalType": "bytes32",
          "name": "",
          "type": "bytes32"
        }
      ],
      "stateMutability": "nonpayable",
      "type": "function"
    },
    {
      "inputs": [
        {
          "internalType": "address",
          "name": "newOwner",
          "type": "address"
        }
      ],
      "name": "transferOwnership",
      "outputs": [],
      "stateMutability": "nonpayable",
      "type": "function"
    }
  ],
  "bytecode": "0x60a06040523480156200001157600080fd5b5060405162001bc438038062001bc483398181016040528101906200003791906200037d565b620000576200004b6200021460201b60201c565b6200021c60201b60201c565b8073ffffffffffffffffffffffffffffffffffffffff1660808173ffffffffffffffffffffffffffffffffffffffff1660601b8152505060008173ffffffffffffffffffffffffffffffffffffffff166302571be37f91d1777781884d03a6757a803996e38de2a42967fb37eeaca72729271025a9e260001b6040518263ffffffff1660e01b8152600401620000ee9190620003e8565b60206040518083038186803b1580156200010757600080fd5b505afa1580156200011c573d6000803e3d6000fd5b505050506040513d601f19601f8201168201806040525081019062000142919062000325565b9050600073ffffffffffffffffffffffffffffffffffffffff168173ffffffffffffffffffffffffffffffffffffffff16146200020c578073ffffffffffffffffffffffffffffffffffffffff16631e83409a336040518263ffffffff1660e01b8152600401620001b49190620003cb565b602060405180830381600087803b158015620001cf57600080fd5b505af1158015620001e4573d6000803e3d6000fd5b505050506040513d601f19601f820116820180604052508101906200020a919062000351565b505b5050620004a5565b600033905090565b60008060009054906101000a900473ffffffffffffffffffffffffffffffffffffffff169050816000806101000a81548173ffffffffffffffffffffffffffffffffffffffff021916908373ffffffffffffffffffffffffffffffffffffffff1602179055508173ffffffffffffffffffffffffffffffffffffffff168173ffffffffffffffffffffffffffffffffffffffff167f8be0079c531659141344cd1fd0a4f28419497f9722a3daafe3b4186f6b6457e060405160405180910390a35050565b600081519050620002f18162000457565b92915050565b600081519050620003088162000471565b92915050565b6000815190506200031f816200048b565b92915050565b6000602082840312156200033857600080fd5b60006200034884828501620002e0565b91505092915050565b6000602082840312156200036457600080fd5b60006200037484828501620002f7565b91505092915050565b6000602082840312156200039057600080fd5b6000620003a0848285016200030e565b91505092915050565b620003b48162000405565b82525050565b620003c58162000419565b82525050565b6000602082019050620003e26000830184620003a9565b92915050565b6000602082019050620003ff6000830184620003ba565b92915050565b6000620004128262000437565b9050919050565b6000819050919050565b6000620004308262000405565b9050919050565b600073ffffffffffffffffffffffffffffffffffffffff82169050919050565b620004628162000405565b81146200046e57600080fd5b50565b6200047c8162000419565b81146200048857600080fd5b50565b620004968162000423565b8114620004a257600080fd5b50565b60805160601c6116f2620004d260003960008181610344015281816103f4015261061e01526116f26000f3fe608060405234801561001057600080fd5b50600436106100ea5760003560e01c80638da5cb5b1161008c578063c66485b211610066578063c66485b214610273578063da8c229e1461028f578063e0dba60f146102bf578063f2fde38b146102db576100ea565b80638da5cb5b146101f5578063bffbe61c14610213578063c47f002714610243576100ea565b806365669631116100c8578063656696311461016d578063715018a61461019d5780637a806d6b146101a7578063828eab0e146101d7576100ea565b80630f5a5466146100ef5780631e83409a1461011f5780633f15457f1461014f575b600080fd5b61010960048036038101906101049190610ec0565b6102f7565b6040516101169190611265565b60405180910390f35b61013960048036038101906101349190610e6e565b61030c565b6040516101469190611265565b60405180910390f35b610157610342565b60405161016491906112a9565b60405180910390f35b61018760048036038101906101829190610efc565b610366565b6040516101949190611265565b60405180910390f35b6101a561059a565b005b6101c160048036038101906101bc9190610f4b565b6105ae565b6040516101ce9190611265565b60405180910390f35b6101df6107c5565b6040516101ec91906112c4565b60405180910390f35b6101fd6107eb565b60405161020a9190611206565b60405180910390f35b61022d60048036038101906102289190610e6e565b610814565b60405161023a9190611265565b60405180910390f35b61025d6004803603810190610258919061102b565b610871565b60405161026a9190611265565b60405180910390f35b61028d60048036038101906102889190610e6e565b6108a8565b005b6102a960048036038101906102a49190610e6e565b6109a7565b6040516102b6919061124a565b60405180910390f35b6102d960048036038101906102d49190610fc6565b6109c7565b005b6102f560048036038101906102f09190610e6e565b610a78565b005b6000610304338484610366565b905092915050565b600061033b3383600260009054906101000a900473ffffffffffffffffffffffffffffffffffffffff16610366565b9050919050565b7f000000000000000000000000000000000000000000000000000000000000000081565b6000833373ffffffffffffffffffffffffffffffffffffffff168173ffffffffffffffffffffffffffffffffffffffff1614806103ec5750600160003373ffffffffffffffffffffffffffffffffffffffff1673ffffffffffffffffffffffffffffffffffffffff16815260200190815260200160002060009054906101000a900460ff165b8061049e57507f000000000000000000000000000000000000000000000000000000000000000073ffffffffffffffffffffffffffffffffffffffff1663e985e9c582336040518363ffffffff1660e01b815260040161044d929190611221565b60206040518083038186803b15801561046557600080fd5b505afa158015610479573d6000803e3d6000fd5b505050506040513d601f19601f8201168201806040525081019061049d9190611002565b5b806104ad57506104ac610afc565b5b6104ec576040517f08c379a00000000000000000000000000000000000000000000000000000000081526004016104e39061133f565b60405180910390fd5b60006104f786610b39565b905060007f91d1777781884d03a6757a803996e38de2a42967fb37eeaca72729271025a9e260001b826040516020016105319291906111ae565b604051602081830303815290604052805190602001209050808773ffffffffffffffffffffffffffffffffffffffff167f6ada868dd3058cf77a48a74489fd7963688e5464b2b0fa957ace976243270e9260405160405180910390a38093505050509392505050565b6105a2610bc1565b6105ac6000610c3f565b565b60008482600160003373ffffffffffffffffffffffffffffffffffffffff1673ffffffffffffffffffffffffffffffffffffffff16815260200190815260200160002060009054906101000a900460ff16806106e557508173ffffffffffffffffffffffffffffffffffffffff167f000000000000000000000000000000000000000000000000000000000000000073ffffffffffffffffffffffffffffffffffffffff166302571be361066184610d03565b6040518263ffffffff1660e01b815260040161067d9190611265565b60206040518083038186803b15801561069557600080fd5b505afa1580156106a9573d6000803e3d6000fd5b505050506040513d601f19601f820116820180604052508101906106cd9190610e97565b73ffffffffffffffffffffffffffffffffffffffff16145b806106f457506106f3610afc565b5b610733576040517f08c379a000000000000000000000000000000000000000000000000000000000815260040161072a9061133f565b60405180910390fd5b6000610740888888610366565b90508573ffffffffffffffffffffffffffffffffffffffff1663f95bb91e8261076888610d03565b6040518363ffffffff1660e01b8152600401610785929190611280565b600060405180830381600087803b15801561079f57600080fd5b505af11580156107b3573d6000803e3d6000fd5b50505050809350505050949350505050565b600260009054906101000a900473ffffffffffffffffffffffffffffffffffffffff1681565b60008060009054906101000a900473ffffffffffffffffffffffffffffffffffffffff16905090565b60007f91d1777781884d03a6757a803996e38de2a42967fb37eeaca72729271025a9e260001b61084383610b39565b6040516020016108549291906111ae565b604051602081830303815290604052805190602001209050919050565b60006108a13333600260009054906101000a900473ffffffffffffffffffffffffffffffffffffffff16856105ae565b9050919050565b6108b0610bc1565b600073ffffffffffffffffffffffffffffffffffffffff168173ffffffffffffffffffffffffffffffffffffffff161415610920576040517f08c379a00000000000000000000000000000000000000000000000000000000081526004016109179061131f565b60405180910390fd5b80600260006101000a81548173ffffffffffffffffffffffffffffffffffffffff021916908373ffffffffffffffffffffffffffffffffffffffff1602179055508073ffffffffffffffffffffffffffffffffffffffff167feae17a84d9eb83d8c8eb317f9e7d64857bc363fa51674d996c023f4340c577cf60405160405180910390a250565b60016020528060005260406000206000915054906101000a900460ff1681565b6109cf610bc1565b80600160008473ffffffffffffffffffffffffffffffffffffffff1673ffffffffffffffffffffffffffffffffffffffff16815260200190815260200160002060006101000a81548160ff0219169083151502179055508173ffffffffffffffffffffffffffffffffffffffff167f4c97694570a07277810af7e5669ffd5f6a2d6b74b6e9a274b8b870fd5114cf8782604051610a6c919061124a565b60405180910390a25050565b610a80610bc1565b600073ffffffffffffffffffffffffffffffffffffffff168173ffffffffffffffffffffffffffffffffffffffff161415610af0576040517f08c379a0000000000000000000000000000000000000000000000000000000008152600401610ae7906112df565b60405180910390fd5b610af981610c3f565b50565b60003373ffffffffffffffffffffffffffffffffffffffff16610b1d6107eb565b73ffffffffffffffffffffffffffffffffffffffff1614905090565b600060285b6000811115610bb4576001810390507f3031323334353637383961626364656600000000000000000000000000000000600f84161a81536010830492506001810390507f3031323334353637383961626364656600000000000000000000000000000000600f84161a8153601083049250610b3e565b5060286000209050919050565b610bc9610daa565b73ffffffffffffffffffffffffffffffffffffffff16610be76107eb565b73ffffffffffffffffffffffffffffffffffffffff1614610c3d576040517f08c379a0000000000000000000000000000000000000000000000000000000008152600401610c34906112ff565b60405180910390fd5b565b60008060009054906101000a900473ffffffffffffffffffffffffffffffffffffffff169050816000806101000a81548173ffffffffffffffffffffffffffffffffffffffff021916908373ffffffffffffffffffffffffffffffffffffffff1602179055508173ffffffffffffffffffffffffffffffffffffffff168173ffffffffffffffffffffffffffffffffffffffff167f8be0079c531659141344cd1fd0a4f28419497f9722a3daafe3b4186f6b6457e060405160405180910390a35050565b60008060001b604051602001610d18906111f1565b60405160208183030381529060405280519060200120604051602001610d3f9291906111ae565b6040516020818303038152906040528051906020012082604051602001610d6691906111da565b60405160208183030381529060405280519060200120604051602001610d8d9291906111ae565b604051602081830303815290604052805190602001209050919050565b600033905090565b6000610dc5610dc084611384565b61135f565b905082815260208101848484011115610ddd57600080fd5b610de884828561146c565b509392505050565b600081359050610dff8161168e565b92915050565b600081519050610e148161168e565b92915050565b600081359050610e29816116a5565b92915050565b600081519050610e3e816116a5565b92915050565b600082601f830112610e5557600080fd5b8135610e65848260208601610db2565b91505092915050565b600060208284031215610e8057600080fd5b6000610e8e84828501610df0565b91505092915050565b600060208284031215610ea957600080fd5b6000610eb784828501610e05565b91505092915050565b60008060408385031215610ed357600080fd5b6000610ee185828601610df0565b9250506020610ef285828601610df0565b9150509250929050565b600080600060608486031215610f1157600080fd5b6000610f1f86828701610df0565b9350506020610f3086828701610df0565b9250506040610f4186828701610df0565b9150509250925092565b60008060008060808587031215610f6157600080fd5b6000610f6f87828801610df0565b9450506020610f8087828801610df0565b9350506040610f9187828801610df0565b925050606085013567ffffffffffffffff811115610fae57600080fd5b610fba87828801610e44565b91505092959194509250565b60008060408385031215610fd957600080fd5b6000610fe785828601610df0565b9250506020610ff885828601610e1a565b9150509250929050565b60006020828403121561101457600080fd5b600061102284828501610e2f565b91505092915050565b60006020828403121561103d57600080fd5b600082013567ffffffffffffffff81111561105757600080fd5b61106384828501610e44565b91505092915050565b611075816113dc565b82525050565b611084816113ee565b82525050565b611093816113fa565b82525050565b6110aa6110a5826113fa565b6114df565b82525050565b6110b981611424565b82525050565b6110c881611448565b82525050565b60006110d9826113b5565b6110e381856113d1565b93506110f381856020860161147b565b80840191505092915050565b600061110c6003836113d1565b915061111782611529565b600382019050919050565b600061112f6026836113c0565b915061113a82611552565b604082019050919050565b60006111526020836113c0565b915061115d826115a1565b602082019050919050565b60006111756030836113c0565b9150611180826115ca565b604082019050919050565b6000611198605b836113c0565b91506111a382611619565b606082019050919050565b60006111ba8285611099565b6020820191506111ca8284611099565b6020820191508190509392505050565b60006111e682846110ce565b915081905092915050565b60006111fc826110ff565b9150819050919050565b600060208201905061121b600083018461106c565b92915050565b6000604082019050611236600083018561106c565b611243602083018461106c565b9392505050565b600060208201905061125f600083018461107b565b92915050565b600060208201905061127a600083018461108a565b92915050565b6000604082019050611295600083018561108a565b6112a2602083018461108a565b9392505050565b60006020820190506112be60008301846110b0565b92915050565b60006020820190506112d960008301846110bf565b92915050565b600060208201905081810360008301526112f881611122565b9050919050565b6000602082019050818103600083015261131881611145565b9050919050565b6000602082019050818103600083015261133881611168565b9050919050565b600060208201905081810360008301526113588161118b565b9050919050565b600061136961137a565b905061137582826114ae565b919050565b6000604051905090565b600067ffffffffffffffff82111561139f5761139e6114e9565b5b6113a882611518565b9050602081019050919050565b600081519050919050565b600082825260208201905092915050565b600081905092915050565b60006113e782611404565b9050919050565b60008115159050919050565b6000819050919050565b600073ffffffffffffffffffffffffffffffffffffffff82169050919050565b600061142f82611436565b9050919050565b600061144182611404565b9050919050565b60006114538261145a565b9050919050565b600061146582611404565b9050919050565b82818337600083830152505050565b60005b8381101561149957808201518184015260208101905061147e565b838111156114a8576000848401525b50505050565b6114b782611518565b810181811067ffffffffffffffff821117156114d6576114d56114e9565b5b80604052505050565b6000819050919050565b7f4e487b7100000000000000000000000000000000000000000000000000000000600052604160045260246000fd5b6000601f19601f8301169050919050565b7f6664730000000000000000000000000000000000000000000000000000000000600082015250565b7f4f776e61626c653a206e6577206f776e657220697320746865207a65726f206160008201527f6464726573730000000000000000000000000000000000000000000000000000602082015250565b7f4f776e61626c653a2063616c6c6572206973206e6f7420746865206f776e6572600082015250565b7f526576657273655265676973747261723a205265736f6c76657220616464726560008201527f7373206d757374206e6f74206265203000000000000000000000000000000000602082015250565b7f526576657273655265676973747261723a2043616c6c6572206973206e6f742060008201527f6120636f6e74726f6c6c6572206f7220617574686f726973656420627920616460208201527f6472657373206f7220746865206164647265737320697473656c660000000000604082015250565b611697816113dc565b81146116a257600080fd5b50565b6116ae816113ee565b81146116b957600080fd5b5056fea2646970667358221220af95c90350ee4eb300ba70dcc6f66e0175ec65275c4b2cbd5c78e8e8952a2dfd64736f6c63430008040033",
  "linkReferences": {},
  "deployedLinkReferences": {}
}