{
  "_format": "hh-sol-artifact-1",
  "contractName": "FDSReverseRegistrar",
  "sourceName": "contracts/FDSReverseRegistrar.sol",
  "abi": [
    {
      "inputs": [
        {
          "internalType": "contract ENSRegistry",
          "name": "ensAddr",
          "type": "address"
        }
      ],
      "stateMutability": "nonpayable",
      "type": "constructor"
    },
    {
      "anonymous": false,
      "inputs": [
        {
          "indexed": true,
          "internalType": "address",
          "name": "controller",
          "type": "address"
        },
        {
          "indexed": false,
          "internalType": "bool",
          "name": "enabled",
          "type": "bool"
        }
      ],
      "name": "ControllerChanged",
      "type": "event"
    },
    {
      "anonymous": false,
      "inputs": [
        {
          "indexed": true,
          "internalType": "contract FDSNameResolver",
          "name": "resolver",
          "type": "address"
        }
      ],
      "name": "DefaultResolverChanged",
      "type": "event"
    },
    {
      "anonymous": false,
      "inputs": [
        {
          "indexed": true,
          "internalType": "address",
          "name": "previousOwner",
          "type": "address"
        },
        {
          "indexed": true,
          "internalType": "address",
          "name": "newOwner",
          "type": "address"
        }
      ],
      "name": "OwnershipTransferred",
      "type": "event"
    },
    {
      "anonymous": false,
      "inputs": [
        {
          "indexed": true,
          "internalType": "address",
          "name": "addr",
          "type": "address"
        },
        {
          "indexed": true,
          "internalType": "bytes32",
          "name": "node",
          "type": "bytes32"
        }
      ],
      "name": "ReverseClaimed",
      "type": "event"
    },
    {
      "inputs": [
        {
          "internalType": "address",
          "name": "owner",
          "type": "address"
        }
      ],
      "name": "claim",
      "outputs": [
        {
          "internalType": "bytes32",
          "name": "",
          "type": "bytes32"
        }
      ],
      "stateMutability": "nonpayable",
      "type": "function"
    },
    {
      "inputs": [
        {
          "internalType": "address",
          "name": "addr",
          "type": "address"
        },
        {
          "internalType": "address",
          "name": "owner",
          "type": "address"
        },
        {
          "internalType": "address",
          "name": "resolver",
          "type": "address"
        }
      ],
      "name": "claimForAddr",
      "outputs": [
        {
          "internalType": "bytes32",
          "name": "",
          "type": "bytes32"
        }
      ],
      "stateMutability": "nonpayable",
      "type": "function"
    },
    {
      "inputs": [
        {
          "internalType": "address",
          "name": "owner",
          "type": "address"
        },
        {
          "internalType": "address",
          "name": "resolver",
          "type": "address"
        }
      ],
      "name": "claimWithResolver",
      "outputs": [
        {
          "internalType": "bytes32",
          "name": "",
          "type": "bytes32"
        }
      ],
      "stateMutability": "nonpayable",
      "type": "function"
    },
    {
      "inputs": [
        {
          "internalType": "address",
          "name": "",
          "type": "address"
        }
      ],
      "name": "controllers",
      "outputs": [
        {
          "internalType": "bool",
          "name": "",
          "type": "bool"
        }
      ],
      "stateMutability": "view",
      "type": "function"
    },
    {
      "inputs": [],
      "name": "defaultResolver",
      "outputs": [
        {
          "internalType": "contract FDSNameResolver",
          "name": "",
          "type": "address"
        }
      ],
      "stateMutability": "view",
      "type": "function"
    },
    {
      "inputs": [],
      "name": "ens",
      "outputs": [
        {
          "internalType": "contract ENSRegistry",
          "name": "",
          "type": "address"
        }
      ],
      "stateMutability": "view",
      "type": "function"
    },
    {
      "inputs": [
        {
          "internalType": "address",
          "name": "addr",
          "type": "address"
        }
      ],
      "name": "node",
      "outputs": [
        {
          "internalType": "bytes32",
          "name": "",
          "type": "bytes32"
        }
      ],
      "stateMutability": "pure",
      "type": "function"
    },
    {
      "inputs": [],
      "name": "owner",
      "outputs": [
        {
          "internalType": "address",
          "name": "",
          "type": "address"
        }
      ],
      "stateMutability": "view",
      "type": "function"
    },
    {
      "inputs": [],
      "name": "renounceOwnership",
      "outputs": [],
      "stateMutability": "nonpayable",
      "type": "function"
    },
    {
      "inputs": [
        {
          "internalType": "address",
          "name": "controller",
          "type": "address"
        },
        {
          "internalType": "bool",
          "name": "enabled",
          "type": "bool"
        }
      ],
      "name": "setController",
      "outputs": [],
      "stateMutability": "nonpayable",
      "type": "function"
    },
    {
      "inputs": [
        {
          "internalType": "address",
          "name": "resolver",
          "type": "address"
        }
      ],
      "name": "setDefaultResolver",
      "outputs": [],
      "stateMutability": "nonpayable",
      "type": "function"
    },
    {
      "inputs": [
        {
          "internalType": "string",
          "name": "name",
          "type": "string"
        }
      ],
      "name": "setName",
      "outputs": [
        {
          "internalType": "bytes32",
          "name": "",
          "type": "bytes32"
        }
      ],
      "stateMutability": "nonpayable",
      "type": "function"
    },
    {
      "inputs": [
        {
          "internalType": "address",
          "name": "addr",
          "type": "address"
        },
        {
          "internalType": "address",
          "name": "owner",
          "type": "address"
        },
        {
          "internalType": "address",
          "name": "resolver",
          "type": "address"
        },
        {
          "internalType": "string",
          "name": "name",
          "type": "string"
        }
      ],
      "name": "setNameForAddr",
      "outputs": [
        {
          "internalType": "bytes32",
          "name": "",
          "type": "bytes32"
        }
      ],
      "stateMutability": "nonpayable",
      "type": "function"
    },
    {
      "inputs": [
        {
          "internalType": "address",
          "name": "newOwner",
          "type": "address"
        }
      ],
      "name": "transferOwnership",
      "outputs": [],
      "stateMutability": "nonpayable",
      "type": "function"
    }
  ],
  "bytecode": "0x60a06040523480156200001157600080fd5b5060405162000f6638038062000f668339810160408190526200003491620001d8565b6200003f3362000188565b606081901b6001600160601b0319166080526040516302571be360e01b81527f91d1777781884d03a6757a803996e38de2a42967fb37eeaca72729271025a9e260048201526000906001600160a01b038316906302571be39060240160206040518083038186803b158015620000b457600080fd5b505afa158015620000c9573d6000803e3d6000fd5b505050506040513d601f19601f82011682018060405250810190620000ef9190620001d8565b90506001600160a01b038116156200018057604051630f41a04d60e11b81523360048201526001600160a01b03821690631e83409a90602401602060405180830381600087803b1580156200014357600080fd5b505af115801562000158573d6000803e3d6000fd5b505050506040513d601f19601f820116820180604052508101906200017e9190620001fe565b505b505062000230565b600080546001600160a01b038381166001600160a01b0319831681178455604051919092169283917f8be0079c531659141344cd1fd0a4f28419497f9722a3daafe3b4186f6b6457e09190a35050565b600060208284031215620001ea578081fd5b8151620001f78162000217565b9392505050565b60006020828403121562000210578081fd5b5051919050565b6001600160a01b03811681146200022d57600080fd5b50565b60805160601c610d096200025d6000396000818161012d015281816102d701526104570152610d096000f3fe608060405234801561001057600080fd5b50600436106100ea5760003560e01c80638da5cb5b1161008c578063c66485b211610066578063c66485b2146101e1578063da8c229e146101f4578063e0dba60f14610227578063f2fde38b1461023a57600080fd5b80638da5cb5b146101aa578063bffbe61c146101bb578063c47f0027146101ce57600080fd5b806365669631116100c85780636566963114610167578063715018a61461017a5780637a806d6b14610184578063828eab0e1461019757600080fd5b80630f5a5466146100ef5780631e83409a146101155780633f15457f14610128575b600080fd5b6101026100fd366004610a65565b61024d565b6040519081526020015b60405180910390f35b610102610123366004610a2d565b610261565b61014f7f000000000000000000000000000000000000000000000000000000000000000081565b6040516001600160a01b03909116815260200161010c565b610102610175366004610a9d565b610283565b61018261041a565b005b610102610192366004610ae7565b61042e565b60025461014f906001600160a01b031681565b6000546001600160a01b031661014f565b6101026101c9366004610a2d565b6105ba565b6101026101dc366004610ba3565b610616565b6101826101ef366004610a2d565b610633565b610217610202366004610a2d565b60016020526000908152604090205460ff1681565b604051901515815260200161010c565b610182610235366004610b5a565b6106f4565b610182610248366004610a2d565b61075b565b600061025a338484610283565b9392505050565b60025460009061027d90339084906001600160a01b0316610283565b92915050565b6000836001600160a01b0381163314806102ac57503360009081526001602052604090205460ff165b80610351575060405163e985e9c560e01b81526001600160a01b0382811660048301523360248301527f0000000000000000000000000000000000000000000000000000000000000000169063e985e9c59060440160206040518083038186803b15801561031957600080fd5b505afa15801561032d573d6000803e3d6000fd5b505050506040513d601f19601f820116820180604052508101906103519190610b87565b8061035f575061035f6107d4565b6103845760405162461bcd60e51b815260040161037b90610c17565b60405180910390fd5b600061038f866107f8565b604080517f91d1777781884d03a6757a803996e38de2a42967fb37eeaca72729271025a9e2602080830191909152818301849052825180830384018152606090920192839052815191012091925081906001600160a01b038916907f6ada868dd3058cf77a48a74489fd7963688e5464b2b0fa957ace976243270e9290600090a39695505050505050565b61042261085e565b61042c60006108b8565b565b336000908152600160205260408120548590839060ff16806105065750816001600160a01b03167f00000000000000000000000000000000000000000000000000000000000000006001600160a01b03166302571be361048d84610908565b6040518263ffffffff1660e01b81526004016104ab91815260200190565b60206040518083038186803b1580156104c357600080fd5b505afa1580156104d7573d6000803e3d6000fd5b505050506040513d601f19601f820116820180604052508101906104fb9190610a49565b6001600160a01b0316145b8061051457506105146107d4565b6105305760405162461bcd60e51b815260040161037b90610c17565b600061053d888888610283565b9050856001600160a01b031663f95bb91e8261055888610908565b6040516001600160e01b031960e085901b16815260048101929092526024820152604401600060405180830381600087803b15801561059657600080fd5b505af11580156105aa573d6000803e3d6000fd5b50929a9950505050505050505050565b60007f91d1777781884d03a6757a803996e38de2a42967fb37eeaca72729271025a9e26105e6836107f8565b6040805160208101939093528201526060015b604051602081830303815290604052805190602001209050919050565b60025460009061027d90339081906001600160a01b03168561042e565b61063b61085e565b6001600160a01b0381166106aa5760405162461bcd60e51b815260206004820152603060248201527f526576657273655265676973747261723a205265736f6c76657220616464726560448201526f07373206d757374206e6f7420626520360841b606482015260840161037b565b600280546001600160a01b0319166001600160a01b0383169081179091556040517feae17a84d9eb83d8c8eb317f9e7d64857bc363fa51674d996c023f4340c577cf90600090a250565b6106fc61085e565b6001600160a01b038216600081815260016020908152604091829020805460ff191685151590811790915591519182527f4c97694570a07277810af7e5669ffd5f6a2d6b74b6e9a274b8b870fd5114cf87910160405180910390a25050565b61076361085e565b6001600160a01b0381166107c85760405162461bcd60e51b815260206004820152602660248201527f4f776e61626c653a206e6577206f776e657220697320746865207a65726f206160448201526564647265737360d01b606482015260840161037b565b6107d1816108b8565b50565b6000336107e96000546001600160a01b031690565b6001600160a01b031614905090565b600060285b801561085257600019016f181899199a1a9b1b9c1cb0b131b232b360811b600f84161a8153601090920491600019016f181899199a1a9b1b9c1cb0b131b232b360811b600f84161a81536010830492506107fd565b50506028600020919050565b6000546001600160a01b0316331461042c5760405162461bcd60e51b815260206004820181905260248201527f4f776e61626c653a2063616c6c6572206973206e6f7420746865206f776e6572604482015260640161037b565b600080546001600160a01b038381166001600160a01b0319831681178455604051919092169283917f8be0079c531659141344cd1fd0a4f28419497f9722a3daafe3b4186f6b6457e09190a35050565b6040516266647360e81b602082015260009081906023016040516020818303038152906040528051906020012060405160200161094f929190918252602082015260400190565b60405160208183030381529060405280519060200120826040516020016109769190610bde565b604051602081830303815290604052805190602001206040516020016105f9929190918252602082015260400190565b600082601f8301126109b6578081fd5b813567ffffffffffffffff808211156109d1576109d1610c9a565b604051601f8301601f19908116603f011681019082821181831017156109f9576109f9610c9a565b81604052838152866020858801011115610a11578485fd5b8360208701602083013792830160200193909352509392505050565b600060208284031215610a3e578081fd5b813561025a81610cb0565b600060208284031215610a5a578081fd5b815161025a81610cb0565b60008060408385031215610a77578081fd5b8235610a8281610cb0565b91506020830135610a9281610cb0565b809150509250929050565b600080600060608486031215610ab1578081fd5b8335610abc81610cb0565b92506020840135610acc81610cb0565b91506040840135610adc81610cb0565b809150509250925092565b60008060008060808587031215610afc578081fd5b8435610b0781610cb0565b93506020850135610b1781610cb0565b92506040850135610b2781610cb0565b9150606085013567ffffffffffffffff811115610b42578182fd5b610b4e878288016109a6565b91505092959194509250565b60008060408385031215610b6c578182fd5b8235610b7781610cb0565b91506020830135610a9281610cc5565b600060208284031215610b98578081fd5b815161025a81610cc5565b600060208284031215610bb4578081fd5b813567ffffffffffffffff811115610bca578182fd5b610bd6848285016109a6565b949350505050565b60008251815b81811015610bfe5760208186018101518583015201610be4565b81811115610c0c5782828501525b509190910192915050565b6020808252605b908201527f526576657273655265676973747261723a2043616c6c6572206973206e6f742060408201527f6120636f6e74726f6c6c6572206f7220617574686f726973656420627920616460608201527f6472657373206f7220746865206164647265737320697473656c660000000000608082015260a00190565b634e487b7160e01b600052604160045260246000fd5b6001600160a01b03811681146107d157600080fd5b80151581146107d157600080fdfea264697066735822122016555bb418a441e89ffad820f54f1049ee8a2abb831d892d8e17afb9bc04ce8f64736f6c63430008040033",
  "linkReferences": {},
  "deployedLinkReferences": {}
}