{
  "_format": "hh-sol-artifact-1",
  "contractName": "FDSRegistrar",
  "sourceName": "contracts/FDSRegistrar.sol",
  "abi": [
    {
      "inputs": [
        {
          "internalType": "contract ENS",
          "name": "_registry",
          "type": "address"
        }
      ],
      "stateMutability": "nonpayable",
      "type": "constructor"
    },
    {
      "anonymous": false,
      "inputs": [
        {
          "indexed": true,
          "internalType": "address",
          "name": "owner",
          "type": "address"
        },
        {
          "indexed": true,
          "internalType": "address",
          "name": "approved",
          "type": "address"
        },
        {
          "indexed": true,
          "internalType": "uint256",
          "name": "tokenId",
          "type": "uint256"
        }
      ],
      "name": "Approval",
      "type": "event"
    },
    {
      "anonymous": false,
      "inputs": [
        {
          "indexed": true,
          "internalType": "address",
          "name": "owner",
          "type": "address"
        },
        {
          "indexed": true,
          "internalType": "address",
          "name": "operator",
          "type": "address"
        },
        {
          "indexed": false,
          "internalType": "bool",
          "name": "approved",
          "type": "bool"
        }
      ],
      "name": "ApprovalForAll",
      "type": "event"
    },
    {
      "anonymous": false,
      "inputs": [
        {
          "indexed": true,
          "internalType": "address",
          "name": "controller",
          "type": "address"
        }
      ],
      "name": "ControllerAdded",
      "type": "event"
    },
    {
      "anonymous": false,
      "inputs": [
        {
          "indexed": true,
          "internalType": "address",
          "name": "controller",
          "type": "address"
        }
      ],
      "name": "ControllerRemoved",
      "type": "event"
    },
    {
      "anonymous": false,
      "inputs": [
        {
          "indexed": true,
          "internalType": "uint256",
          "name": "id",
          "type": "uint256"
        },
        {
          "indexed": true,
          "internalType": "address",
          "name": "owner",
          "type": "address"
        },
        {
          "indexed": false,
          "internalType": "uint256",
          "name": "expires",
          "type": "uint256"
        }
      ],
      "name": "NameMigrated",
      "type": "event"
    },
    {
      "anonymous": false,
      "inputs": [
        {
          "indexed": true,
          "internalType": "uint256",
          "name": "id",
          "type": "uint256"
        },
        {
          "indexed": true,
          "internalType": "address",
          "name": "owner",
          "type": "address"
        },
        {
          "indexed": false,
          "internalType": "uint256",
          "name": "expires",
          "type": "uint256"
        }
      ],
      "name": "NameRegistered",
      "type": "event"
    },
    {
      "anonymous": false,
      "inputs": [
        {
          "indexed": true,
          "internalType": "uint256",
          "name": "id",
          "type": "uint256"
        },
        {
          "indexed": false,
          "internalType": "uint256",
          "name": "expires",
          "type": "uint256"
        }
      ],
      "name": "NameRenewed",
      "type": "event"
    },
    {
      "anonymous": false,
      "inputs": [
        {
          "indexed": true,
          "internalType": "address",
          "name": "previousOwner",
          "type": "address"
        },
        {
          "indexed": true,
          "internalType": "address",
          "name": "newOwner",
          "type": "address"
        }
      ],
      "name": "OwnershipTransferred",
      "type": "event"
    },
    {
      "anonymous": false,
      "inputs": [
        {
          "indexed": true,
          "internalType": "address",
          "name": "from",
          "type": "address"
        },
        {
          "indexed": true,
          "internalType": "address",
          "name": "to",
          "type": "address"
        },
        {
          "indexed": true,
          "internalType": "uint256",
          "name": "tokenId",
          "type": "uint256"
        }
      ],
      "name": "Transfer",
      "type": "event"
    },
    {
      "inputs": [],
      "name": "GRACE_PERIOD",
      "outputs": [
        {
          "internalType": "uint256",
          "name": "",
          "type": "uint256"
        }
      ],
      "stateMutability": "view",
      "type": "function"
    },
    {
      "inputs": [
        {
          "internalType": "address",
          "name": "controller",
          "type": "address"
        }
      ],
      "name": "addController",
      "outputs": [],
      "stateMutability": "nonpayable",
      "type": "function"
    },
    {
      "inputs": [
        {
          "internalType": "address",
          "name": "to",
          "type": "address"
        },
        {
          "internalType": "uint256",
          "name": "tokenId",
          "type": "uint256"
        }
      ],
      "name": "approve",
      "outputs": [],
      "stateMutability": "nonpayable",
      "type": "function"
    },
    {
      "inputs": [
        {
          "internalType": "uint256",
          "name": "id",
          "type": "uint256"
        }
      ],
      "name": "available",
      "outputs": [
        {
          "internalType": "bool",
          "name": "",
          "type": "bool"
        }
      ],
      "stateMutability": "view",
      "type": "function"
    },
    {
      "inputs": [
        {
          "internalType": "address",
          "name": "owner",
          "type": "address"
        }
      ],
      "name": "balanceOf",
      "outputs": [
        {
          "internalType": "uint256",
          "name": "",
          "type": "uint256"
        }
      ],
      "stateMutability": "view",
      "type": "function"
    },
    {
      "inputs": [],
      "name": "baseNode",
      "outputs": [
        {
          "internalType": "bytes32",
          "name": "",
          "type": "bytes32"
        }
      ],
      "stateMutability": "view",
      "type": "function"
    },
    {
      "inputs": [
        {
          "internalType": "address",
          "name": "",
          "type": "address"
        }
      ],
      "name": "controllers",
      "outputs": [
        {
          "internalType": "bool",
          "name": "",
          "type": "bool"
        }
      ],
      "stateMutability": "view",
      "type": "function"
    },
    {
      "inputs": [],
      "name": "ens",
      "outputs": [
        {
          "internalType": "contract ENS",
          "name": "",
          "type": "address"
        }
      ],
      "stateMutability": "view",
      "type": "function"
    },
    {
      "inputs": [
        {
          "internalType": "uint256",
          "name": "tokenId",
          "type": "uint256"
        }
      ],
      "name": "getApproved",
      "outputs": [
        {
          "internalType": "address",
          "name": "",
          "type": "address"
        }
      ],
      "stateMutability": "view",
      "type": "function"
    },
    {
      "inputs": [
        {
          "internalType": "address",
          "name": "owner",
          "type": "address"
        },
        {
          "internalType": "address",
          "name": "operator",
          "type": "address"
        }
      ],
      "name": "isApprovedForAll",
      "outputs": [
        {
          "internalType": "bool",
          "name": "",
          "type": "bool"
        }
      ],
      "stateMutability": "view",
      "type": "function"
    },
    {
      "inputs": [],
      "name": "name",
      "outputs": [
        {
          "internalType": "string",
          "name": "",
          "type": "string"
        }
      ],
      "stateMutability": "view",
      "type": "function"
    },
    {
      "inputs": [
        {
          "internalType": "uint256",
          "name": "id",
          "type": "uint256"
        }
      ],
      "name": "nameExpires",
      "outputs": [
        {
          "internalType": "uint256",
          "name": "",
          "type": "uint256"
        }
      ],
      "stateMutability": "view",
      "type": "function"
    },
    {
      "inputs": [],
      "name": "owner",
      "outputs": [
        {
          "internalType": "address",
          "name": "",
          "type": "address"
        }
      ],
      "stateMutability": "view",
      "type": "function"
    },
    {
      "inputs": [
        {
          "internalType": "uint256",
          "name": "tokenId",
          "type": "uint256"
        }
      ],
      "name": "ownerOf",
      "outputs": [
        {
          "internalType": "address",
          "name": "",
          "type": "address"
        }
      ],
      "stateMutability": "view",
      "type": "function"
    },
    {
      "inputs": [
        {
          "internalType": "uint256",
          "name": "id",
          "type": "uint256"
        },
        {
          "internalType": "address",
          "name": "owner",
          "type": "address"
        }
      ],
      "name": "reclaim",
      "outputs": [],
      "stateMutability": "nonpayable",
      "type": "function"
    },
    {
      "inputs": [
        {
          "internalType": "uint256",
          "name": "id",
          "type": "uint256"
        },
        {
          "internalType": "address",
          "name": "owner",
          "type": "address"
        },
        {
          "internalType": "uint256",
          "name": "duration",
          "type": "uint256"
        }
      ],
      "name": "register",
      "outputs": [
        {
          "internalType": "uint256",
          "name": "",
          "type": "uint256"
        }
      ],
      "stateMutability": "nonpayable",
      "type": "function"
    },
    {
      "inputs": [
        {
          "internalType": "uint256",
          "name": "id",
          "type": "uint256"
        },
        {
          "internalType": "address",
          "name": "owner",
          "type": "address"
        },
        {
          "internalType": "uint256",
          "name": "duration",
          "type": "uint256"
        }
      ],
      "name": "registerOnly",
      "outputs": [
        {
          "internalType": "uint256",
          "name": "",
          "type": "uint256"
        }
      ],
      "stateMutability": "nonpayable",
      "type": "function"
    },
    {
      "inputs": [
        {
          "internalType": "address",
          "name": "controller",
          "type": "address"
        }
      ],
      "name": "removeController",
      "outputs": [],
      "stateMutability": "nonpayable",
      "type": "function"
    },
    {
      "inputs": [
        {
          "internalType": "uint256",
          "name": "id",
          "type": "uint256"
        },
        {
          "internalType": "uint256",
          "name": "duration",
          "type": "uint256"
        }
      ],
      "name": "renew",
      "outputs": [
        {
          "internalType": "uint256",
          "name": "",
          "type": "uint256"
        }
      ],
      "stateMutability": "nonpayable",
      "type": "function"
    },
    {
      "inputs": [],
      "name": "renounceOwnership",
      "outputs": [],
      "stateMutability": "nonpayable",
      "type": "function"
    },
    {
      "inputs": [
        {
          "internalType": "address",
          "name": "from",
          "type": "address"
        },
        {
          "internalType": "address",
          "name": "to",
          "type": "address"
        },
        {
          "internalType": "uint256",
          "name": "tokenId",
          "type": "uint256"
        }
      ],
      "name": "safeTransferFrom",
      "outputs": [],
      "stateMutability": "nonpayable",
      "type": "function"
    },
    {
      "inputs": [
        {
          "internalType": "address",
          "name": "from",
          "type": "address"
        },
        {
          "internalType": "address",
          "name": "to",
          "type": "address"
        },
        {
          "internalType": "uint256",
          "name": "tokenId",
          "type": "uint256"
        },
        {
          "internalType": "bytes",
          "name": "_data",
          "type": "bytes"
        }
      ],
      "name": "safeTransferFrom",
      "outputs": [],
      "stateMutability": "nonpayable",
      "type": "function"
    },
    {
      "inputs": [
        {
          "internalType": "address",
          "name": "operator",
          "type": "address"
        },
        {
          "internalType": "bool",
          "name": "approved",
          "type": "bool"
        }
      ],
      "name": "setApprovalForAll",
      "outputs": [],
      "stateMutability": "nonpayable",
      "type": "function"
    },
    {
      "inputs": [
        {
          "internalType": "address",
          "name": "resolver",
          "type": "address"
        }
      ],
      "name": "setResolver",
      "outputs": [],
      "stateMutability": "nonpayable",
      "type": "function"
    },
    {
      "inputs": [
        {
          "internalType": "bytes4",
          "name": "interfaceID",
          "type": "bytes4"
        }
      ],
      "name": "supportsInterface",
      "outputs": [
        {
          "internalType": "bool",
          "name": "",
          "type": "bool"
        }
      ],
      "stateMutability": "view",
      "type": "function"
    },
    {
      "inputs": [],
      "name": "symbol",
      "outputs": [
        {
          "internalType": "string",
          "name": "",
          "type": "string"
        }
      ],
      "stateMutability": "view",
      "type": "function"
    },
    {
      "inputs": [
        {
          "internalType": "uint256",
          "name": "tokenId",
          "type": "uint256"
        }
      ],
      "name": "tokenURI",
      "outputs": [
        {
          "internalType": "string",
          "name": "",
          "type": "string"
        }
      ],
      "stateMutability": "view",
      "type": "function"
    },
    {
      "inputs": [
        {
          "internalType": "address",
          "name": "from",
          "type": "address"
        },
        {
          "internalType": "address",
          "name": "to",
          "type": "address"
        },
        {
          "internalType": "uint256",
          "name": "tokenId",
          "type": "uint256"
        }
      ],
      "name": "transferFrom",
      "outputs": [],
      "stateMutability": "nonpayable",
      "type": "function"
    },
    {
      "inputs": [
        {
          "internalType": "address",
          "name": "newOwner",
          "type": "address"
        }
      ],
      "name": "transferOwnership",
      "outputs": [],
      "stateMutability": "nonpayable",
      "type": "function"
    }
  ],
  "bytecode": "0x60806040523480156200001157600080fd5b506040516200406f3803806200406f8339818101604052810190620000379190620002e4565b806000801b6040516020016200004d9062000382565b604051602081830303815290604052805190602001206040516020016200007692919062000352565b604051602081830303815290604052805190602001206040518060200160405280600081525060405180602001604052806000815250620000cc620000c06200015160201b60201c565b6200015960201b60201c565b8160019080519060200190620000e49291906200021d565b508060029080519060200190620000fd9291906200021d565b50505081600760006101000a81548173ffffffffffffffffffffffffffffffffffffffff021916908373ffffffffffffffffffffffffffffffffffffffff16021790555080600881905550505050620004a8565b600033905090565b60008060009054906101000a900473ffffffffffffffffffffffffffffffffffffffff169050816000806101000a81548173ffffffffffffffffffffffffffffffffffffffff021916908373ffffffffffffffffffffffffffffffffffffffff1602179055508173ffffffffffffffffffffffffffffffffffffffff168173ffffffffffffffffffffffffffffffffffffffff167f8be0079c531659141344cd1fd0a4f28419497f9722a3daafe3b4186f6b6457e060405160405180910390a35050565b8280546200022b90620003f6565b90600052602060002090601f0160209004810192826200024f57600085556200029b565b82601f106200026a57805160ff19168380011785556200029b565b828001600101855582156200029b579182015b828111156200029a5782518255916020019190600101906200027d565b5b509050620002aa9190620002ae565b5090565b5b80821115620002c9576000816000905550600101620002af565b5090565b600081519050620002de816200048e565b92915050565b600060208284031215620002f757600080fd5b60006200030784828501620002cd565b91505092915050565b620003256200031f82620003b8565b6200042c565b82525050565b60006200033a60038362000399565b9150620003478262000465565b600382019050919050565b600062000360828562000310565b60208201915062000372828462000310565b6020820191508190509392505050565b60006200038f826200032b565b9150819050919050565b600081905092915050565b6000620003b182620003d6565b9050919050565b6000819050919050565b6000620003cf82620003a4565b9050919050565b600073ffffffffffffffffffffffffffffffffffffffff82169050919050565b600060028204905060018216806200040f57607f821691505b6020821081141562000426576200042562000436565b5b50919050565b6000819050919050565b7f4e487b7100000000000000000000000000000000000000000000000000000000600052602260045260246000fd5b7f6664730000000000000000000000000000000000000000000000000000000000600082015250565b6200049981620003c2565b8114620004a557600080fd5b50565b613bb780620004b86000396000f3fe608060405234801561001057600080fd5b50600436106101cf5760003560e01c806395d89b4111610104578063c87b56dd116100a2578063e985e9c511610071578063e985e9c514610552578063f2fde38b14610582578063f6a74ed71461059e578063fca247ac146105ba576101cf565b8063c87b56dd146104a4578063d6e4fa86146104d4578063da8c229e14610504578063ddf7fcb014610534576101cf565b8063a7fc7a07116100de578063a7fc7a071461041e578063b88d4fde1461043a578063c1a287e214610456578063c475abff14610474576101cf565b806395d89b41146103b457806396e494e8146103d2578063a22cb46514610402576101cf565b80633f15457f116101715780636352211e1161014b5780636352211e1461032c57806370a082311461035c578063715018a61461038c5780638da5cb5b14610396576101cf565b80633f15457f146102d657806342842e0e146102f45780634e543b2614610310576101cf565b8063095ea7b3116101ad578063095ea7b3146102525780630e297b451461026e57806323b872dd1461029e57806328ed4f6c146102ba576101cf565b806301ffc9a7146101d457806306fdde0314610204578063081812fc14610222575b600080fd5b6101ee60048036038101906101e99190612b8d565b6105ea565b6040516101fb9190613055565b60405180910390f35b61020c610834565b6040516102199190613106565b60405180910390f35b61023c60048036038101906102379190612bdf565b6108c6565b6040516102499190612fee565b60405180910390f35b61026c60048036038101906102679190612b28565b61094b565b005b61028860048036038101906102839190612c44565b610a63565b6040516102959190613308565b60405180910390f35b6102b860048036038101906102b39190612a22565b610a7b565b005b6102d460048036038101906102cf9190612c08565b610adb565b005b6102de610c8d565b6040516102eb91906130eb565b60405180910390f35b61030e60048036038101906103099190612a22565b610cb3565b005b61032a60048036038101906103259190612994565b610cd3565b005b61034660048036038101906103419190612bdf565b610de3565b6040516103539190612fee565b60405180910390f35b61037660048036038101906103719190612994565b610e14565b6040516103839190613308565b60405180910390f35b610394610ecc565b005b61039e610f54565b6040516103ab9190612fee565b60405180910390f35b6103bc610f7d565b6040516103c99190613106565b60405180910390f35b6103ec60048036038101906103e79190612bdf565b61100f565b6040516103f99190613055565b60405180910390f35b61041c60048036038101906104179190612aec565b61103c565b005b61043860048036038101906104339190612994565b611052565b005b610454600480360381019061044f9190612a71565b61116c565b005b61045e6111ce565b60405161046b9190613308565b60405180910390f35b61048e60048036038101906104899190612c93565b6111d5565b60405161049b9190613308565b60405180910390f35b6104be60048036038101906104b99190612bdf565b611416565b6040516104cb9190613106565b60405180910390f35b6104ee60048036038101906104e99190612bdf565b6114bd565b6040516104fb9190613308565b60405180910390f35b61051e60048036038101906105199190612994565b6114da565b60405161052b9190613055565b60405180910390f35b61053c6114fa565b6040516105499190613070565b60405180910390f35b61056c600480360381019061056791906129e6565b611500565b6040516105799190613055565b60405180910390f35b61059c60048036038101906105979190612994565b611594565b005b6105b860048036038101906105b39190612994565b61168c565b005b6105d460048036038101906105cf9190612c44565b6117a6565b6040516105e19190613308565b60405180910390f35b60007f01ffc9a7a5cef8baa21ed3c5c0d7e23accb804b619e9333b597f47a0d84076e27bffffffffffffffffffffffffffffffffffffffffffffffffffffffff1916827bffffffffffffffffffffffffffffffffffffffffffffffffffffffff191614806107c557507fb88d4fde60196325a28bb7f99a2582e0b46de55b18761e960c14ad7a320994657f42842e0eb38857a7775b4e7364b2775df7325074d088e7fb39590cd6281184ed7f23b872dd7302113369cda2901243429419bec145408fa8b352b3dd92b66c680b7fe985e9c5c6636c6879256001057b28ccac7718ef0ac56553ff9b926452cab8a37fa22cb4651ab9570f89bb516380c40ce76762284fb1f21337ceaf6adab99e7d4a7f081812fc55e34fdc7cf5d8b5cf4e3621fa6423fde952ec6ab24afdc0d85c0b2e7f095ea7b334ae44009aa867bfb386f5c3b4b443ac6f0ee573fa91c4608fbadfba7f6352211e6566aa027e75ac9dbf2423197fbd9b82b9d981a3ab367d355866aa1c7f70a08231b98ef4ca268c9cc3f6b4590e4bfec28280db06bb5d45e689f2a360be18181818181818187bffffffffffffffffffffffffffffffffffffffffffffffffffffffff1916827bffffffffffffffffffffffffffffffffffffffffffffffffffffffff1916145b8061082d57507f28ed4f6c74b219a5819055dfbcd2f1837c046c364cf01fabb6799e4f440d6f137bffffffffffffffffffffffffffffffffffffffffffffffffffffffff1916827bffffffffffffffffffffffffffffffffffffffffffffffffffffffff1916145b9050919050565b6060600180546108439061355b565b80601f016020809104026020016040519081016040528092919081815260200182805461086f9061355b565b80156108bc5780601f10610891576101008083540402835291602001916108bc565b820191906000526020600020905b81548152906001019060200180831161089f57829003601f168201915b5050505050905090565b60006108d1826117be565b610910576040517f08c379a000000000000000000000000000000000000000000000000000000000815260040161090790613268565b60405180910390fd5b6005600083815260200190815260200160002060009054906101000a900473ffffffffffffffffffffffffffffffffffffffff169050919050565b60006109568261182a565b90508073ffffffffffffffffffffffffffffffffffffffff168373ffffffffffffffffffffffffffffffffffffffff1614156109c7576040517f08c379a00000000000000000000000000000000000000000000000000000000081526004016109be906132c8565b60405180910390fd5b8073ffffffffffffffffffffffffffffffffffffffff166109e66118dc565b73ffffffffffffffffffffffffffffffffffffffff161480610a155750610a1481610a0f6118dc565b611500565b5b610a54576040517f08c379a0000000000000000000000000000000000000000000000000000000008152600401610a4b906131e8565b60405180910390fd5b610a5e83836118e4565b505050565b6000610a72848484600061199d565b90509392505050565b610a8c610a866118dc565b82611c91565b610acb576040517f08c379a0000000000000000000000000000000000000000000000000000000008152600401610ac2906132e8565b60405180910390fd5b610ad6838383611d26565b505050565b3073ffffffffffffffffffffffffffffffffffffffff16600760009054906101000a900473ffffffffffffffffffffffffffffffffffffffff1673ffffffffffffffffffffffffffffffffffffffff166302571be36008546040518263ffffffff1660e01b8152600401610b4f9190613070565b60206040518083038186803b158015610b6757600080fd5b505afa158015610b7b573d6000803e3d6000fd5b505050506040513d601f19601f82011682018060405250810190610b9f91906129bd565b73ffffffffffffffffffffffffffffffffffffffff1614610bbf57600080fd5b610bc93383611c91565b610bd257600080fd5b600760009054906101000a900473ffffffffffffffffffffffffffffffffffffffff1673ffffffffffffffffffffffffffffffffffffffff166306ab59236008548460001b846040518463ffffffff1660e01b8152600401610c36939291906130b4565b602060405180830381600087803b158015610c5057600080fd5b505af1158015610c64573d6000803e3d6000fd5b505050506040513d601f19601f82011682018060405250810190610c889190612b64565b505050565b600760009054906101000a900473ffffffffffffffffffffffffffffffffffffffff1681565b610cce8383836040518060200160405280600081525061116c565b505050565b610cdb6118dc565b73ffffffffffffffffffffffffffffffffffffffff16610cf9610f54565b73ffffffffffffffffffffffffffffffffffffffff1614610d4f576040517f08c379a0000000000000000000000000000000000000000000000000000000008152600401610d4690613288565b60405180910390fd5b600760009054906101000a900473ffffffffffffffffffffffffffffffffffffffff1673ffffffffffffffffffffffffffffffffffffffff16631896f70a600854836040518363ffffffff1660e01b8152600401610dae92919061308b565b600060405180830381600087803b158015610dc857600080fd5b505af1158015610ddc573d6000803e3d6000fd5b5050505050565b600042600a60008481526020019081526020016000205411610e0457600080fd5b610e0d8261182a565b9050919050565b60008073ffffffffffffffffffffffffffffffffffffffff168273ffffffffffffffffffffffffffffffffffffffff161415610e85576040517f08c379a0000000000000000000000000000000000000000000000000000000008152600401610e7c90613208565b60405180910390fd5b600460008373ffffffffffffffffffffffffffffffffffffffff1673ffffffffffffffffffffffffffffffffffffffff168152602001908152602001600020549050919050565b610ed46118dc565b73ffffffffffffffffffffffffffffffffffffffff16610ef2610f54565b73ffffffffffffffffffffffffffffffffffffffff1614610f48576040517f08c379a0000000000000000000000000000000000000000000000000000000008152600401610f3f90613288565b60405180910390fd5b610f526000611f8d565b565b60008060009054906101000a900473ffffffffffffffffffffffffffffffffffffffff16905090565b606060028054610f8c9061355b565b80601f0160208091040260200160405190810160405280929190818152602001828054610fb89061355b565b80156110055780601f10610fda57610100808354040283529160200191611005565b820191906000526020600020905b815481529060010190602001808311610fe857829003601f168201915b5050505050905090565b6000426276a700600a60008581526020019081526020016000205461103491906133bc565b109050919050565b61104e6110476118dc565b8383612051565b5050565b61105a6118dc565b73ffffffffffffffffffffffffffffffffffffffff16611078610f54565b73ffffffffffffffffffffffffffffffffffffffff16146110ce576040517f08c379a00000000000000000000000000000000000000000000000000000000081526004016110c590613288565b60405180910390fd5b6001600960008373ffffffffffffffffffffffffffffffffffffffff1673ffffffffffffffffffffffffffffffffffffffff16815260200190815260200160002060006101000a81548160ff0219169083151502179055508073ffffffffffffffffffffffffffffffffffffffff167f0a8bb31534c0ed46f380cb867bd5c803a189ced9a764e30b3a4991a9901d747460405160405180910390a250565b61117d6111776118dc565b83611c91565b6111bc576040517f08c379a00000000000000000000000000000000000000000000000000000000081526004016111b3906132e8565b60405180910390fd5b6111c8848484846121be565b50505050565b6276a70081565b60003073ffffffffffffffffffffffffffffffffffffffff16600760009054906101000a900473ffffffffffffffffffffffffffffffffffffffff1673ffffffffffffffffffffffffffffffffffffffff166302571be36008546040518263ffffffff1660e01b815260040161124b9190613070565b60206040518083038186803b15801561126357600080fd5b505afa158015611277573d6000803e3d6000fd5b505050506040513d601f19601f8201168201806040525081019061129b91906129bd565b73ffffffffffffffffffffffffffffffffffffffff16146112bb57600080fd5b600960003373ffffffffffffffffffffffffffffffffffffffff1673ffffffffffffffffffffffffffffffffffffffff16815260200190815260200160002060009054906101000a900460ff1661131157600080fd5b426276a700600a60008681526020019081526020016000205461133491906133bc565b101561133f57600080fd5b6276a7008261134e91906133bc565b6276a70083600a60008781526020019081526020016000205461137191906133bc565b61137b91906133bc565b1161138557600080fd5b81600a600085815260200190815260200160002060008282546113a891906133bc565b92505081905550827f9b87a00e30f1ac65d898f070f8a3488fe60517182d0a2098e1b4b93a54aa9bd6600a6000868152602001908152602001600020546040516113f29190613308565b60405180910390a2600a600084815260200190815260200160002054905092915050565b6060611421826117be565b611460576040517f08c379a0000000000000000000000000000000000000000000000000000000008152600401611457906132a8565b60405180910390fd5b600061146a61221a565b9050600081511161148a57604051806020016040528060008152506114b5565b8061149484612231565b6040516020016114a5929190612fca565b6040516020818303038152906040525b915050919050565b6000600a6000838152602001908152602001600020549050919050565b60096020528060005260406000206000915054906101000a900460ff1681565b60085481565b6000600660008473ffffffffffffffffffffffffffffffffffffffff1673ffffffffffffffffffffffffffffffffffffffff16815260200190815260200160002060008373ffffffffffffffffffffffffffffffffffffffff1673ffffffffffffffffffffffffffffffffffffffff16815260200190815260200160002060009054906101000a900460ff16905092915050565b61159c6118dc565b73ffffffffffffffffffffffffffffffffffffffff166115ba610f54565b73ffffffffffffffffffffffffffffffffffffffff1614611610576040517f08c379a000000000000000000000000000000000000000000000000000000000815260040161160790613288565b60405180910390fd5b600073ffffffffffffffffffffffffffffffffffffffff168173ffffffffffffffffffffffffffffffffffffffff161415611680576040517f08c379a000000000000000000000000000000000000000000000000000000000815260040161167790613148565b60405180910390fd5b61168981611f8d565b50565b6116946118dc565b73ffffffffffffffffffffffffffffffffffffffff166116b2610f54565b73ffffffffffffffffffffffffffffffffffffffff1614611708576040517f08c379a00000000000000000000000000000000000000000000000000000000081526004016116ff90613288565b60405180910390fd5b6000600960008373ffffffffffffffffffffffffffffffffffffffff1673ffffffffffffffffffffffffffffffffffffffff16815260200190815260200160002060006101000a81548160ff0219169083151502179055508073ffffffffffffffffffffffffffffffffffffffff167f33d83959be2573f5453b12eb9d43b3499bc57d96bd2f067ba44803c859e8111360405160405180910390a250565b60006117b5848484600161199d565b90509392505050565b60008073ffffffffffffffffffffffffffffffffffffffff166003600084815260200190815260200160002060009054906101000a900473ffffffffffffffffffffffffffffffffffffffff1673ffffffffffffffffffffffffffffffffffffffff1614159050919050565b6000806003600084815260200190815260200160002060009054906101000a900473ffffffffffffffffffffffffffffffffffffffff169050600073ffffffffffffffffffffffffffffffffffffffff168173ffffffffffffffffffffffffffffffffffffffff1614156118d3576040517f08c379a00000000000000000000000000000000000000000000000000000000081526004016118ca90613228565b60405180910390fd5b80915050919050565b600033905090565b816005600083815260200190815260200160002060006101000a81548173ffffffffffffffffffffffffffffffffffffffff021916908373ffffffffffffffffffffffffffffffffffffffff160217905550808273ffffffffffffffffffffffffffffffffffffffff166119578361182a565b73ffffffffffffffffffffffffffffffffffffffff167f8c5be1e5ebec7d5bd14f71427d1e84f3dd0314c0f7b2291e5b200ac8c7c3b92560405160405180910390a45050565b60003073ffffffffffffffffffffffffffffffffffffffff16600760009054906101000a900473ffffffffffffffffffffffffffffffffffffffff1673ffffffffffffffffffffffffffffffffffffffff166302571be36008546040518263ffffffff1660e01b8152600401611a139190613070565b60206040518083038186803b158015611a2b57600080fd5b505afa158015611a3f573d6000803e3d6000fd5b505050506040513d601f19601f82011682018060405250810190611a6391906129bd565b73ffffffffffffffffffffffffffffffffffffffff1614611a8357600080fd5b600960003373ffffffffffffffffffffffffffffffffffffffff1673ffffffffffffffffffffffffffffffffffffffff16815260200190815260200160002060009054906101000a900460ff16611ad957600080fd5b611ae28561100f565b611aeb57600080fd5b6276a70042611afa91906133bc565b6276a7008442611b0a91906133bc565b611b1491906133bc565b11611b1e57600080fd5b8242611b2a91906133bc565b600a600087815260200190815260200160002081905550611b4a856117be565b15611b5957611b58856123de565b5b611b6384866124fb565b8115611c2157600760009054906101000a900473ffffffffffffffffffffffffffffffffffffffff1673ffffffffffffffffffffffffffffffffffffffff166306ab59236008548760001b876040518463ffffffff1660e01b8152600401611bcd939291906130b4565b602060405180830381600087803b158015611be757600080fd5b505af1158015611bfb573d6000803e3d6000fd5b505050506040513d601f19601f82011682018060405250810190611c1f9190612b64565b505b8373ffffffffffffffffffffffffffffffffffffffff16857fb3d987963d01b2f68493b4bdb130988f157ea43070d4ad840fee0466ed9370d98542611c6691906133bc565b604051611c739190613308565b60405180910390a38242611c8791906133bc565b9050949350505050565b600080611c9d83610de3565b90508073ffffffffffffffffffffffffffffffffffffffff168473ffffffffffffffffffffffffffffffffffffffff161480611d0c57508373ffffffffffffffffffffffffffffffffffffffff16611cf4846108c6565b73ffffffffffffffffffffffffffffffffffffffff16145b80611d1d5750611d1c8185611500565b5b91505092915050565b8273ffffffffffffffffffffffffffffffffffffffff16611d468261182a565b73ffffffffffffffffffffffffffffffffffffffff1614611d9c576040517f08c379a0000000000000000000000000000000000000000000000000000000008152600401611d9390613168565b60405180910390fd5b600073ffffffffffffffffffffffffffffffffffffffff168273ffffffffffffffffffffffffffffffffffffffff161415611e0c576040517f08c379a0000000000000000000000000000000000000000000000000000000008152600401611e03906131a8565b60405180910390fd5b611e178383836126d5565b611e226000826118e4565b6001600460008573ffffffffffffffffffffffffffffffffffffffff1673ffffffffffffffffffffffffffffffffffffffff1681526020019081526020016000206000828254611e729190613443565b925050819055506001600460008473ffffffffffffffffffffffffffffffffffffffff1673ffffffffffffffffffffffffffffffffffffffff1681526020019081526020016000206000828254611ec991906133bc565b92505081905550816003600083815260200190815260200160002060006101000a81548173ffffffffffffffffffffffffffffffffffffffff021916908373ffffffffffffffffffffffffffffffffffffffff160217905550808273ffffffffffffffffffffffffffffffffffffffff168473ffffffffffffffffffffffffffffffffffffffff167fddf252ad1be2c89b69c2b068fc378daa952ba7f163c4a11628f55a4df523b3ef60405160405180910390a4611f888383836126da565b505050565b60008060009054906101000a900473ffffffffffffffffffffffffffffffffffffffff169050816000806101000a81548173ffffffffffffffffffffffffffffffffffffffff021916908373ffffffffffffffffffffffffffffffffffffffff1602179055508173ffffffffffffffffffffffffffffffffffffffff168173ffffffffffffffffffffffffffffffffffffffff167f8be0079c531659141344cd1fd0a4f28419497f9722a3daafe3b4186f6b6457e060405160405180910390a35050565b8173ffffffffffffffffffffffffffffffffffffffff168373ffffffffffffffffffffffffffffffffffffffff1614156120c0576040517f08c379a00000000000000000000000000000000000000000000000000000000081526004016120b7906131c8565b60405180910390fd5b80600660008573ffffffffffffffffffffffffffffffffffffffff1673ffffffffffffffffffffffffffffffffffffffff16815260200190815260200160002060008473ffffffffffffffffffffffffffffffffffffffff1673ffffffffffffffffffffffffffffffffffffffff16815260200190815260200160002060006101000a81548160ff0219169083151502179055508173ffffffffffffffffffffffffffffffffffffffff168373ffffffffffffffffffffffffffffffffffffffff167f17307eab39ab6107e8899845ad3d59bd9653f200f220920489ca2b5937696c31836040516121b19190613055565b60405180910390a3505050565b6121c9848484611d26565b6121d5848484846126df565b612214576040517f08c379a000000000000000000000000000000000000000000000000000000000815260040161220b90613128565b60405180910390fd5b50505050565b606060405180602001604052806000815250905090565b60606000821415612279576040518060400160405280600181526020017f300000000000000000000000000000000000000000000000000000000000000081525090506123d9565b600082905060005b600082146122ab578080612294906135be565b915050600a826122a49190613412565b9150612281565b60008167ffffffffffffffff8111156122ed577f4e487b7100000000000000000000000000000000000000000000000000000000600052604160045260246000fd5b6040519080825280601f01601f19166020018201604052801561231f5781602001600182028036833780820191505090505b5090505b600085146123d2576001826123389190613443565b9150600a856123479190613607565b603061235391906133bc565b60f81b81838151811061238f577f4e487b7100000000000000000000000000000000000000000000000000000000600052603260045260246000fd5b60200101907effffffffffffffffffffffffffffffffffffffffffffffffffffffffffffff1916908160001a905350600a856123cb9190613412565b9450612323565b8093505050505b919050565b60006123e98261182a565b90506123f7816000846126d5565b6124026000836118e4565b6001600460008373ffffffffffffffffffffffffffffffffffffffff1673ffffffffffffffffffffffffffffffffffffffff16815260200190815260200160002060008282546124529190613443565b925050819055506003600083815260200190815260200160002060006101000a81549073ffffffffffffffffffffffffffffffffffffffff021916905581600073ffffffffffffffffffffffffffffffffffffffff168273ffffffffffffffffffffffffffffffffffffffff167fddf252ad1be2c89b69c2b068fc378daa952ba7f163c4a11628f55a4df523b3ef60405160405180910390a46124f7816000846126da565b5050565b600073ffffffffffffffffffffffffffffffffffffffff168273ffffffffffffffffffffffffffffffffffffffff16141561256b576040517f08c379a000000000000000000000000000000000000000000000000000000000815260040161256290613248565b60405180910390fd5b612574816117be565b156125b4576040517f08c379a00000000000000000000000000000000000000000000000000000000081526004016125ab90613188565b60405180910390fd5b6125c0600083836126d5565b6001600460008473ffffffffffffffffffffffffffffffffffffffff1673ffffffffffffffffffffffffffffffffffffffff168152602001908152602001600020600082825461261091906133bc565b92505081905550816003600083815260200190815260200160002060006101000a81548173ffffffffffffffffffffffffffffffffffffffff021916908373ffffffffffffffffffffffffffffffffffffffff160217905550808273ffffffffffffffffffffffffffffffffffffffff16600073ffffffffffffffffffffffffffffffffffffffff167fddf252ad1be2c89b69c2b068fc378daa952ba7f163c4a11628f55a4df523b3ef60405160405180910390a46126d1600083836126da565b5050565b505050565b505050565b60006127008473ffffffffffffffffffffffffffffffffffffffff16612876565b15612869578373ffffffffffffffffffffffffffffffffffffffff1663150b7a026127296118dc565b8786866040518563ffffffff1660e01b815260040161274b9493929190613009565b602060405180830381600087803b15801561276557600080fd5b505af192505050801561279657506040513d601f19601f820116820180604052508101906127939190612bb6565b60015b612819573d80600081146127c6576040519150601f19603f3d011682016040523d82523d6000602084013e6127cb565b606091505b50600081511415612811576040517f08c379a000000000000000000000000000000000000000000000000000000000815260040161280890613128565b60405180910390fd5b805181602001fd5b63150b7a0260e01b7bffffffffffffffffffffffffffffffffffffffffffffffffffffffff1916817bffffffffffffffffffffffffffffffffffffffffffffffffffffffff19161491505061286e565b600190505b949350505050565b6000808273ffffffffffffffffffffffffffffffffffffffff163b119050919050565b60006128ac6128a784613348565b613323565b9050828152602081018484840111156128c457600080fd5b6128cf848285613519565b509392505050565b6000813590506128e681613b0e565b92915050565b6000815190506128fb81613b0e565b92915050565b60008135905061291081613b25565b92915050565b60008151905061292581613b3c565b92915050565b60008135905061293a81613b53565b92915050565b60008151905061294f81613b53565b92915050565b600082601f83011261296657600080fd5b8135612976848260208601612899565b91505092915050565b60008135905061298e81613b6a565b92915050565b6000602082840312156129a657600080fd5b60006129b4848285016128d7565b91505092915050565b6000602082840312156129cf57600080fd5b60006129dd848285016128ec565b91505092915050565b600080604083850312156129f957600080fd5b6000612a07858286016128d7565b9250506020612a18858286016128d7565b9150509250929050565b600080600060608486031215612a3757600080fd5b6000612a45868287016128d7565b9350506020612a56868287016128d7565b9250506040612a678682870161297f565b9150509250925092565b60008060008060808587031215612a8757600080fd5b6000612a95878288016128d7565b9450506020612aa6878288016128d7565b9350506040612ab78782880161297f565b925050606085013567ffffffffffffffff811115612ad457600080fd5b612ae087828801612955565b91505092959194509250565b60008060408385031215612aff57600080fd5b6000612b0d858286016128d7565b9250506020612b1e85828601612901565b9150509250929050565b60008060408385031215612b3b57600080fd5b6000612b49858286016128d7565b9250506020612b5a8582860161297f565b9150509250929050565b600060208284031215612b7657600080fd5b6000612b8484828501612916565b91505092915050565b600060208284031215612b9f57600080fd5b6000612bad8482850161292b565b91505092915050565b600060208284031215612bc857600080fd5b6000612bd684828501612940565b91505092915050565b600060208284031215612bf157600080fd5b6000612bff8482850161297f565b91505092915050565b60008060408385031215612c1b57600080fd5b6000612c298582860161297f565b9250506020612c3a858286016128d7565b9150509250929050565b600080600060608486031215612c5957600080fd5b6000612c678682870161297f565b9350506020612c78868287016128d7565b9250506040612c898682870161297f565b9150509250925092565b60008060408385031215612ca657600080fd5b6000612cb48582860161297f565b9250506020612cc58582860161297f565b9150509250929050565b612cd881613477565b82525050565b612ce781613489565b82525050565b612cf681613495565b82525050565b6000612d0782613379565b612d11818561338f565b9350612d21818560208601613528565b612d2a816136f4565b840191505092915050565b612d3e816134f5565b82525050565b6000612d4f82613384565b612d5981856133a0565b9350612d69818560208601613528565b612d72816136f4565b840191505092915050565b6000612d8882613384565b612d9281856133b1565b9350612da2818560208601613528565b80840191505092915050565b6000612dbb6032836133a0565b9150612dc682613705565b604082019050919050565b6000612dde6026836133a0565b9150612de982613754565b604082019050919050565b6000612e016025836133a0565b9150612e0c826137a3565b604082019050919050565b6000612e24601c836133a0565b9150612e2f826137f2565b602082019050919050565b6000612e476024836133a0565b9150612e528261381b565b604082019050919050565b6000612e6a6019836133a0565b9150612e758261386a565b602082019050919050565b6000612e8d6038836133a0565b9150612e9882613893565b604082019050919050565b6000612eb0602a836133a0565b9150612ebb826138e2565b604082019050919050565b6000612ed36029836133a0565b9150612ede82613931565b604082019050919050565b6000612ef66020836133a0565b9150612f0182613980565b602082019050919050565b6000612f19602c836133a0565b9150612f24826139a9565b604082019050919050565b6000612f3c6020836133a0565b9150612f47826139f8565b602082019050919050565b6000612f5f602f836133a0565b9150612f6a82613a21565b604082019050919050565b6000612f826021836133a0565b9150612f8d82613a70565b604082019050919050565b6000612fa56031836133a0565b9150612fb082613abf565b604082019050919050565b612fc4816134eb565b82525050565b6000612fd68285612d7d565b9150612fe28284612d7d565b91508190509392505050565b60006020820190506130036000830184612ccf565b92915050565b600060808201905061301e6000830187612ccf565b61302b6020830186612ccf565b6130386040830185612fbb565b818103606083015261304a8184612cfc565b905095945050505050565b600060208201905061306a6000830184612cde565b92915050565b60006020820190506130856000830184612ced565b92915050565b60006040820190506130a06000830185612ced565b6130ad6020830184612ccf565b9392505050565b60006060820190506130c96000830186612ced565b6130d66020830185612ced565b6130e36040830184612ccf565b949350505050565b60006020820190506131006000830184612d35565b92915050565b600060208201905081810360008301526131208184612d44565b905092915050565b6000602082019050818103600083015261314181612dae565b9050919050565b6000602082019050818103600083015261316181612dd1565b9050919050565b6000602082019050818103600083015261318181612df4565b9050919050565b600060208201905081810360008301526131a181612e17565b9050919050565b600060208201905081810360008301526131c181612e3a565b9050919050565b600060208201905081810360008301526131e181612e5d565b9050919050565b6000602082019050818103600083015261320181612e80565b9050919050565b6000602082019050818103600083015261322181612ea3565b9050919050565b6000602082019050818103600083015261324181612ec6565b9050919050565b6000602082019050818103600083015261326181612ee9565b9050919050565b6000602082019050818103600083015261328181612f0c565b9050919050565b600060208201905081810360008301526132a181612f2f565b9050919050565b600060208201905081810360008301526132c181612f52565b9050919050565b600060208201905081810360008301526132e181612f75565b9050919050565b6000602082019050818103600083015261330181612f98565b9050919050565b600060208201905061331d6000830184612fbb565b92915050565b600061332d61333e565b9050613339828261358d565b919050565b6000604051905090565b600067ffffffffffffffff821115613363576133626136c5565b5b61336c826136f4565b9050602081019050919050565b600081519050919050565b600081519050919050565b600082825260208201905092915050565b600082825260208201905092915050565b600081905092915050565b60006133c7826134eb565b91506133d2836134eb565b9250827fffffffffffffffffffffffffffffffffffffffffffffffffffffffffffffffff0382111561340757613406613638565b5b828201905092915050565b600061341d826134eb565b9150613428836134eb565b92508261343857613437613667565b5b828204905092915050565b600061344e826134eb565b9150613459836134eb565b92508282101561346c5761346b613638565b5b828203905092915050565b6000613482826134cb565b9050919050565b60008115159050919050565b6000819050919050565b60007fffffffff0000000000000000000000000000000000000000000000000000000082169050919050565b600073ffffffffffffffffffffffffffffffffffffffff82169050919050565b6000819050919050565b600061350082613507565b9050919050565b6000613512826134cb565b9050919050565b82818337600083830152505050565b60005b8381101561354657808201518184015260208101905061352b565b83811115613555576000848401525b50505050565b6000600282049050600182168061357357607f821691505b6020821081141561358757613586613696565b5b50919050565b613596826136f4565b810181811067ffffffffffffffff821117156135b5576135b46136c5565b5b80604052505050565b60006135c9826134eb565b91507fffffffffffffffffffffffffffffffffffffffffffffffffffffffffffffffff8214156135fc576135fb613638565b5b600182019050919050565b6000613612826134eb565b915061361d836134eb565b92508261362d5761362c613667565b5b828206905092915050565b7f4e487b7100000000000000000000000000000000000000000000000000000000600052601160045260246000fd5b7f4e487b7100000000000000000000000000000000000000000000000000000000600052601260045260246000fd5b7f4e487b7100000000000000000000000000000000000000000000000000000000600052602260045260246000fd5b7f4e487b7100000000000000000000000000000000000000000000000000000000600052604160045260246000fd5b6000601f19601f8301169050919050565b7f4552433732313a207472616e7366657220746f206e6f6e20455243373231526560008201527f63656976657220696d706c656d656e7465720000000000000000000000000000602082015250565b7f4f776e61626c653a206e6577206f776e657220697320746865207a65726f206160008201527f6464726573730000000000000000000000000000000000000000000000000000602082015250565b7f4552433732313a207472616e736665722066726f6d20696e636f72726563742060008201527f6f776e6572000000000000000000000000000000000000000000000000000000602082015250565b7f4552433732313a20746f6b656e20616c7265616479206d696e74656400000000600082015250565b7f4552433732313a207472616e7366657220746f20746865207a65726f2061646460008201527f7265737300000000000000000000000000000000000000000000000000000000602082015250565b7f4552433732313a20617070726f766520746f2063616c6c657200000000000000600082015250565b7f4552433732313a20617070726f76652063616c6c6572206973206e6f74206f7760008201527f6e6572206e6f7220617070726f76656420666f7220616c6c0000000000000000602082015250565b7f4552433732313a2062616c616e636520717565727920666f7220746865207a6560008201527f726f206164647265737300000000000000000000000000000000000000000000602082015250565b7f4552433732313a206f776e657220717565727920666f72206e6f6e657869737460008201527f656e7420746f6b656e0000000000000000000000000000000000000000000000602082015250565b7f4552433732313a206d696e7420746f20746865207a65726f2061646472657373600082015250565b7f4552433732313a20617070726f76656420717565727920666f72206e6f6e657860008201527f697374656e7420746f6b656e0000000000000000000000000000000000000000602082015250565b7f4f776e61626c653a2063616c6c6572206973206e6f7420746865206f776e6572600082015250565b7f4552433732314d657461646174613a2055524920717565727920666f72206e6f60008201527f6e6578697374656e7420746f6b656e0000000000000000000000000000000000602082015250565b7f4552433732313a20617070726f76616c20746f2063757272656e74206f776e6560008201527f7200000000000000000000000000000000000000000000000000000000000000602082015250565b7f4552433732313a207472616e736665722063616c6c6572206973206e6f74206f60008201527f776e6572206e6f7220617070726f766564000000000000000000000000000000602082015250565b613b1781613477565b8114613b2257600080fd5b50565b613b2e81613489565b8114613b3957600080fd5b50565b613b4581613495565b8114613b5057600080fd5b50565b613b5c8161349f565b8114613b6757600080fd5b50565b613b73816134eb565b8114613b7e57600080fd5b5056fea264697066735822122097823cd679c6b5d5302c8d6676ed94dda23af642a5911692eb101db8b508d09764736f6c63430008040033",
  "linkReferences": {},
  "deployedLinkReferences": {}
}