{
  "_format": "hh-sol-artifact-1",
  "contractName": "FDSRegistrar",
  "sourceName": "contracts/FDSRegistrar.sol",
  "abi": [
    {
      "inputs": [
        {
          "internalType": "contract ENS",
          "name": "_ens",
          "type": "address"
        }
      ],
      "stateMutability": "nonpayable",
      "type": "constructor"
    },
    {
      "anonymous": false,
      "inputs": [
        {
          "indexed": true,
          "internalType": "address",
          "name": "owner",
          "type": "address"
        },
        {
          "indexed": true,
          "internalType": "address",
          "name": "approved",
          "type": "address"
        },
        {
          "indexed": true,
          "internalType": "uint256",
          "name": "tokenId",
          "type": "uint256"
        }
      ],
      "name": "Approval",
      "type": "event"
    },
    {
      "anonymous": false,
      "inputs": [
        {
          "indexed": true,
          "internalType": "address",
          "name": "owner",
          "type": "address"
        },
        {
          "indexed": true,
          "internalType": "address",
          "name": "operator",
          "type": "address"
        },
        {
          "indexed": false,
          "internalType": "bool",
          "name": "approved",
          "type": "bool"
        }
      ],
      "name": "ApprovalForAll",
      "type": "event"
    },
    {
      "anonymous": false,
      "inputs": [
        {
          "indexed": true,
          "internalType": "address",
          "name": "controller",
          "type": "address"
        }
      ],
      "name": "ControllerAdded",
      "type": "event"
    },
    {
      "anonymous": false,
      "inputs": [
        {
          "indexed": true,
          "internalType": "address",
          "name": "controller",
          "type": "address"
        }
      ],
      "name": "ControllerRemoved",
      "type": "event"
    },
    {
      "anonymous": false,
      "inputs": [
        {
          "indexed": true,
          "internalType": "uint256",
          "name": "id",
          "type": "uint256"
        },
        {
          "indexed": true,
          "internalType": "address",
          "name": "owner",
          "type": "address"
        },
        {
          "indexed": false,
          "internalType": "uint256",
          "name": "expires",
          "type": "uint256"
        }
      ],
      "name": "NameMigrated",
      "type": "event"
    },
    {
      "anonymous": false,
      "inputs": [
        {
          "indexed": true,
          "internalType": "uint256",
          "name": "id",
          "type": "uint256"
        },
        {
          "indexed": true,
          "internalType": "address",
          "name": "owner",
          "type": "address"
        },
        {
          "indexed": false,
          "internalType": "uint256",
          "name": "expires",
          "type": "uint256"
        }
      ],
      "name": "NameRegistered",
      "type": "event"
    },
    {
      "anonymous": false,
      "inputs": [
        {
          "indexed": true,
          "internalType": "uint256",
          "name": "id",
          "type": "uint256"
        },
        {
          "indexed": false,
          "internalType": "uint256",
          "name": "expires",
          "type": "uint256"
        }
      ],
      "name": "NameRenewed",
      "type": "event"
    },
    {
      "anonymous": false,
      "inputs": [
        {
          "indexed": true,
          "internalType": "address",
          "name": "previousOwner",
          "type": "address"
        },
        {
          "indexed": true,
          "internalType": "address",
          "name": "newOwner",
          "type": "address"
        }
      ],
      "name": "OwnershipTransferred",
      "type": "event"
    },
    {
      "anonymous": false,
      "inputs": [
        {
          "indexed": true,
          "internalType": "address",
          "name": "from",
          "type": "address"
        },
        {
          "indexed": true,
          "internalType": "address",
          "name": "to",
          "type": "address"
        },
        {
          "indexed": true,
          "internalType": "uint256",
          "name": "tokenId",
          "type": "uint256"
        }
      ],
      "name": "Transfer",
      "type": "event"
    },
    {
      "inputs": [],
      "name": "GRACE_PERIOD",
      "outputs": [
        {
          "internalType": "uint256",
          "name": "",
          "type": "uint256"
        }
      ],
      "stateMutability": "view",
      "type": "function"
    },
    {
      "inputs": [
        {
          "internalType": "address",
          "name": "controller",
          "type": "address"
        }
      ],
      "name": "addController",
      "outputs": [],
      "stateMutability": "nonpayable",
      "type": "function"
    },
    {
      "inputs": [
        {
          "internalType": "address",
          "name": "to",
          "type": "address"
        },
        {
          "internalType": "uint256",
          "name": "tokenId",
          "type": "uint256"
        }
      ],
      "name": "approve",
      "outputs": [],
      "stateMutability": "nonpayable",
      "type": "function"
    },
    {
      "inputs": [
        {
          "internalType": "uint256",
          "name": "id",
          "type": "uint256"
        }
      ],
      "name": "available",
      "outputs": [
        {
          "internalType": "bool",
          "name": "",
          "type": "bool"
        }
      ],
      "stateMutability": "view",
      "type": "function"
    },
    {
      "inputs": [
        {
          "internalType": "address",
          "name": "owner",
          "type": "address"
        }
      ],
      "name": "balanceOf",
      "outputs": [
        {
          "internalType": "uint256",
          "name": "",
          "type": "uint256"
        }
      ],
      "stateMutability": "view",
      "type": "function"
    },
    {
      "inputs": [],
      "name": "baseNode",
      "outputs": [
        {
          "internalType": "bytes32",
          "name": "",
          "type": "bytes32"
        }
      ],
      "stateMutability": "view",
      "type": "function"
    },
    {
      "inputs": [
        {
          "internalType": "address",
          "name": "",
          "type": "address"
        }
      ],
      "name": "controllers",
      "outputs": [
        {
          "internalType": "bool",
          "name": "",
          "type": "bool"
        }
      ],
      "stateMutability": "view",
      "type": "function"
    },
    {
      "inputs": [],
      "name": "ens",
      "outputs": [
        {
          "internalType": "contract ENS",
          "name": "",
          "type": "address"
        }
      ],
      "stateMutability": "view",
      "type": "function"
    },
    {
      "inputs": [
        {
          "internalType": "uint256",
          "name": "tokenId",
          "type": "uint256"
        }
      ],
      "name": "getApproved",
      "outputs": [
        {
          "internalType": "address",
          "name": "",
          "type": "address"
        }
      ],
      "stateMutability": "view",
      "type": "function"
    },
    {
      "inputs": [
        {
          "internalType": "address",
          "name": "owner",
          "type": "address"
        },
        {
          "internalType": "address",
          "name": "operator",
          "type": "address"
        }
      ],
      "name": "isApprovedForAll",
      "outputs": [
        {
          "internalType": "bool",
          "name": "",
          "type": "bool"
        }
      ],
      "stateMutability": "view",
      "type": "function"
    },
    {
      "inputs": [],
      "name": "name",
      "outputs": [
        {
          "internalType": "string",
          "name": "",
          "type": "string"
        }
      ],
      "stateMutability": "view",
      "type": "function"
    },
    {
      "inputs": [
        {
          "internalType": "uint256",
          "name": "id",
          "type": "uint256"
        }
      ],
      "name": "nameExpires",
      "outputs": [
        {
          "internalType": "uint256",
          "name": "",
          "type": "uint256"
        }
      ],
      "stateMutability": "view",
      "type": "function"
    },
    {
      "inputs": [],
      "name": "owner",
      "outputs": [
        {
          "internalType": "address",
          "name": "",
          "type": "address"
        }
      ],
      "stateMutability": "view",
      "type": "function"
    },
    {
      "inputs": [
        {
          "internalType": "uint256",
          "name": "tokenId",
          "type": "uint256"
        }
      ],
      "name": "ownerOf",
      "outputs": [
        {
          "internalType": "address",
          "name": "",
          "type": "address"
        }
      ],
      "stateMutability": "view",
      "type": "function"
    },
    {
      "inputs": [
        {
          "internalType": "uint256",
          "name": "id",
          "type": "uint256"
        },
        {
          "internalType": "address",
          "name": "owner",
          "type": "address"
        }
      ],
      "name": "reclaim",
      "outputs": [],
      "stateMutability": "nonpayable",
      "type": "function"
    },
    {
      "inputs": [
        {
          "internalType": "uint256",
          "name": "id",
          "type": "uint256"
        },
        {
          "internalType": "address",
          "name": "owner",
          "type": "address"
        },
        {
          "internalType": "uint256",
          "name": "duration",
          "type": "uint256"
        }
      ],
      "name": "register",
      "outputs": [
        {
          "internalType": "uint256",
          "name": "",
          "type": "uint256"
        }
      ],
      "stateMutability": "nonpayable",
      "type": "function"
    },
    {
      "inputs": [
        {
          "internalType": "uint256",
          "name": "id",
          "type": "uint256"
        },
        {
          "internalType": "address",
          "name": "owner",
          "type": "address"
        },
        {
          "internalType": "uint256",
          "name": "duration",
          "type": "uint256"
        }
      ],
      "name": "registerOnly",
      "outputs": [
        {
          "internalType": "uint256",
          "name": "",
          "type": "uint256"
        }
      ],
      "stateMutability": "nonpayable",
      "type": "function"
    },
    {
      "inputs": [
        {
          "internalType": "address",
          "name": "controller",
          "type": "address"
        }
      ],
      "name": "removeController",
      "outputs": [],
      "stateMutability": "nonpayable",
      "type": "function"
    },
    {
      "inputs": [
        {
          "internalType": "uint256",
          "name": "id",
          "type": "uint256"
        },
        {
          "internalType": "uint256",
          "name": "duration",
          "type": "uint256"
        }
      ],
      "name": "renew",
      "outputs": [
        {
          "internalType": "uint256",
          "name": "",
          "type": "uint256"
        }
      ],
      "stateMutability": "nonpayable",
      "type": "function"
    },
    {
      "inputs": [],
      "name": "renounceOwnership",
      "outputs": [],
      "stateMutability": "nonpayable",
      "type": "function"
    },
    {
      "inputs": [
        {
          "internalType": "address",
          "name": "from",
          "type": "address"
        },
        {
          "internalType": "address",
          "name": "to",
          "type": "address"
        },
        {
          "internalType": "uint256",
          "name": "tokenId",
          "type": "uint256"
        }
      ],
      "name": "safeTransferFrom",
      "outputs": [],
      "stateMutability": "nonpayable",
      "type": "function"
    },
    {
      "inputs": [
        {
          "internalType": "address",
          "name": "from",
          "type": "address"
        },
        {
          "internalType": "address",
          "name": "to",
          "type": "address"
        },
        {
          "internalType": "uint256",
          "name": "tokenId",
          "type": "uint256"
        },
        {
          "internalType": "bytes",
          "name": "_data",
          "type": "bytes"
        }
      ],
      "name": "safeTransferFrom",
      "outputs": [],
      "stateMutability": "nonpayable",
      "type": "function"
    },
    {
      "inputs": [
        {
          "internalType": "address",
          "name": "operator",
          "type": "address"
        },
        {
          "internalType": "bool",
          "name": "approved",
          "type": "bool"
        }
      ],
      "name": "setApprovalForAll",
      "outputs": [],
      "stateMutability": "nonpayable",
      "type": "function"
    },
    {
      "inputs": [
        {
          "internalType": "address",
          "name": "resolver",
          "type": "address"
        }
      ],
      "name": "setResolver",
      "outputs": [],
      "stateMutability": "nonpayable",
      "type": "function"
    },
    {
      "inputs": [
        {
          "internalType": "bytes4",
          "name": "interfaceID",
          "type": "bytes4"
        }
      ],
      "name": "supportsInterface",
      "outputs": [
        {
          "internalType": "bool",
          "name": "",
          "type": "bool"
        }
      ],
      "stateMutability": "view",
      "type": "function"
    },
    {
      "inputs": [],
      "name": "symbol",
      "outputs": [
        {
          "internalType": "string",
          "name": "",
          "type": "string"
        }
      ],
      "stateMutability": "view",
      "type": "function"
    },
    {
      "inputs": [
        {
          "internalType": "uint256",
          "name": "tokenId",
          "type": "uint256"
        }
      ],
      "name": "tokenURI",
      "outputs": [
        {
          "internalType": "string",
          "name": "",
          "type": "string"
        }
      ],
      "stateMutability": "view",
      "type": "function"
    },
    {
      "inputs": [
        {
          "internalType": "address",
          "name": "from",
          "type": "address"
        },
        {
          "internalType": "address",
          "name": "to",
          "type": "address"
        },
        {
          "internalType": "uint256",
          "name": "tokenId",
          "type": "uint256"
        }
      ],
      "name": "transferFrom",
      "outputs": [],
      "stateMutability": "nonpayable",
      "type": "function"
    },
    {
      "inputs": [
        {
          "internalType": "address",
          "name": "newOwner",
          "type": "address"
        }
      ],
      "name": "transferOwnership",
      "outputs": [],
      "stateMutability": "nonpayable",
      "type": "function"
    }
  ],
  "bytecode": "0x60806040523480156200001157600080fd5b5060405162003cc338038062003cc38339818101604052810190620000379190620002e0565b6040518060200160405280600081525060405180602001604052806000815250620000776200006b6200014d60201b60201c565b6200015560201b60201c565b81600190805190602001906200008f92919062000219565b508060029080519060200190620000a892919062000219565b50505080600760006101000a81548173ffffffffffffffffffffffffffffffffffffffff021916908373ffffffffffffffffffffffffffffffffffffffff1602179055506000801b60405160200162000101906200037e565b604051602081830303815290604052805190602001206040516020016200012a9291906200034e565b6040516020818303038152906040528051906020012060088190555050620004a4565b600033905090565b60008060009054906101000a900473ffffffffffffffffffffffffffffffffffffffff169050816000806101000a81548173ffffffffffffffffffffffffffffffffffffffff021916908373ffffffffffffffffffffffffffffffffffffffff1602179055508173ffffffffffffffffffffffffffffffffffffffff168173ffffffffffffffffffffffffffffffffffffffff167f8be0079c531659141344cd1fd0a4f28419497f9722a3daafe3b4186f6b6457e060405160405180910390a35050565b8280546200022790620003f2565b90600052602060002090601f0160209004810192826200024b576000855562000297565b82601f106200026657805160ff191683800117855562000297565b8280016001018555821562000297579182015b828111156200029657825182559160200191906001019062000279565b5b509050620002a69190620002aa565b5090565b5b80821115620002c5576000816000905550600101620002ab565b5090565b600081519050620002da816200048a565b92915050565b600060208284031215620002f357600080fd5b60006200030384828501620002c9565b91505092915050565b620003216200031b82620003b4565b62000428565b82525050565b60006200033660038362000395565b9150620003438262000461565b600382019050919050565b60006200035c82856200030c565b6020820191506200036e82846200030c565b6020820191508190509392505050565b60006200038b8262000327565b9150819050919050565b600081905092915050565b6000620003ad82620003d2565b9050919050565b6000819050919050565b6000620003cb82620003a0565b9050919050565b600073ffffffffffffffffffffffffffffffffffffffff82169050919050565b600060028204905060018216806200040b57607f821691505b6020821081141562000422576200042162000432565b5b50919050565b6000819050919050565b7f4e487b7100000000000000000000000000000000000000000000000000000000600052602260045260246000fd5b7f6664730000000000000000000000000000000000000000000000000000000000600082015250565b6200049581620003be565b8114620004a157600080fd5b50565b61380f80620004b46000396000f3fe608060405234801561001057600080fd5b50600436106101cf5760003560e01c806395d89b4111610104578063c87b56dd116100a2578063e985e9c511610071578063e985e9c514610552578063f2fde38b14610582578063f6a74ed71461059e578063fca247ac146105ba576101cf565b8063c87b56dd146104a4578063d6e4fa86146104d4578063da8c229e14610504578063ddf7fcb014610534576101cf565b8063a7fc7a07116100de578063a7fc7a071461041e578063b88d4fde1461043a578063c1a287e214610456578063c475abff14610474576101cf565b806395d89b41146103b457806396e494e8146103d2578063a22cb46514610402576101cf565b80633f15457f116101715780636352211e1161014b5780636352211e1461032c57806370a082311461035c578063715018a61461038c5780638da5cb5b14610396576101cf565b80633f15457f146102d657806342842e0e146102f45780634e543b2614610310576101cf565b8063095ea7b3116101ad578063095ea7b3146102525780630e297b451461026e57806323b872dd1461029e57806328ed4f6c146102ba576101cf565b806301ffc9a7146101d457806306fdde0314610204578063081812fc14610222575b600080fd5b6101ee60048036038101906101e991906127e5565b6105ea565b6040516101fb9190612cad565b60405180910390f35b61020c610834565b6040516102199190612d5e565b60405180910390f35b61023c60048036038101906102379190612837565b6108c6565b6040516102499190612c46565b60405180910390f35b61026c60048036038101906102679190612780565b61094b565b005b6102886004803603810190610283919061289c565b610a63565b6040516102959190612f60565b60405180910390f35b6102b860048036038101906102b3919061267a565b610a7b565b005b6102d460048036038101906102cf9190612860565b610adb565b005b6102de610ba9565b6040516102eb9190612d43565b60405180910390f35b61030e6004803603810190610309919061267a565b610bcf565b005b61032a60048036038101906103259190612615565b610bef565b005b61034660048036038101906103419190612837565b610cff565b6040516103539190612c46565b60405180910390f35b61037660048036038101906103719190612615565b610d30565b6040516103839190612f60565b60405180910390f35b610394610de8565b005b61039e610e70565b6040516103ab9190612c46565b60405180910390f35b6103bc610e99565b6040516103c99190612d5e565b60405180910390f35b6103ec60048036038101906103e79190612837565b610f2b565b6040516103f99190612cad565b60405180910390f35b61041c60048036038101906104179190612744565b610f58565b005b61043860048036038101906104339190612615565b610f6e565b005b610454600480360381019061044f91906126c9565b611088565b005b61045e6110ea565b60405161046b9190612f60565b60405180910390f35b61048e600480360381019061048991906128eb565b6110f1565b60405161049b9190612f60565b60405180910390f35b6104be60048036038101906104b99190612837565b6111f8565b6040516104cb9190612d5e565b60405180910390f35b6104ee60048036038101906104e99190612837565b61129f565b6040516104fb9190612f60565b60405180910390f35b61051e60048036038101906105199190612615565b6112bc565b60405161052b9190612cad565b60405180910390f35b61053c6112dc565b6040516105499190612cc8565b60405180910390f35b61056c6004803603810190610567919061263e565b6112e2565b6040516105799190612cad565b60405180910390f35b61059c60048036038101906105979190612615565b611376565b005b6105b860048036038101906105b39190612615565b61146e565b005b6105d460048036038101906105cf919061289c565b611588565b6040516105e19190612f60565b60405180910390f35b60007f01ffc9a7a5cef8baa21ed3c5c0d7e23accb804b619e9333b597f47a0d84076e27bffffffffffffffffffffffffffffffffffffffffffffffffffffffff1916827bffffffffffffffffffffffffffffffffffffffffffffffffffffffff191614806107c557507fb88d4fde60196325a28bb7f99a2582e0b46de55b18761e960c14ad7a320994657f42842e0eb38857a7775b4e7364b2775df7325074d088e7fb39590cd6281184ed7f23b872dd7302113369cda2901243429419bec145408fa8b352b3dd92b66c680b7fe985e9c5c6636c6879256001057b28ccac7718ef0ac56553ff9b926452cab8a37fa22cb4651ab9570f89bb516380c40ce76762284fb1f21337ceaf6adab99e7d4a7f081812fc55e34fdc7cf5d8b5cf4e3621fa6423fde952ec6ab24afdc0d85c0b2e7f095ea7b334ae44009aa867bfb386f5c3b4b443ac6f0ee573fa91c4608fbadfba7f6352211e6566aa027e75ac9dbf2423197fbd9b82b9d981a3ab367d355866aa1c7f70a08231b98ef4ca268c9cc3f6b4590e4bfec28280db06bb5d45e689f2a360be18181818181818187bffffffffffffffffffffffffffffffffffffffffffffffffffffffff1916827bffffffffffffffffffffffffffffffffffffffffffffffffffffffff1916145b8061082d57507f28ed4f6c74b219a5819055dfbcd2f1837c046c364cf01fabb6799e4f440d6f137bffffffffffffffffffffffffffffffffffffffffffffffffffffffff1916827bffffffffffffffffffffffffffffffffffffffffffffffffffffffff1916145b9050919050565b606060018054610843906131b3565b80601f016020809104026020016040519081016040528092919081815260200182805461086f906131b3565b80156108bc5780601f10610891576101008083540402835291602001916108bc565b820191906000526020600020905b81548152906001019060200180831161089f57829003601f168201915b5050505050905090565b60006108d1826115a0565b610910576040517f08c379a000000000000000000000000000000000000000000000000000000000815260040161090790612ec0565b60405180910390fd5b6005600083815260200190815260200160002060009054906101000a900473ffffffffffffffffffffffffffffffffffffffff169050919050565b60006109568261160c565b90508073ffffffffffffffffffffffffffffffffffffffff168373ffffffffffffffffffffffffffffffffffffffff1614156109c7576040517f08c379a00000000000000000000000000000000000000000000000000000000081526004016109be90612f20565b60405180910390fd5b8073ffffffffffffffffffffffffffffffffffffffff166109e66116be565b73ffffffffffffffffffffffffffffffffffffffff161480610a155750610a1481610a0f6116be565b6112e2565b5b610a54576040517f08c379a0000000000000000000000000000000000000000000000000000000008152600401610a4b90612e40565b60405180910390fd5b610a5e83836116c6565b505050565b6000610a72848484600061177f565b90509392505050565b610a8c610a866116be565b82611927565b610acb576040517f08c379a0000000000000000000000000000000000000000000000000000000008152600401610ac290612f40565b60405180910390fd5b610ad68383836119bc565b505050565b610ae53383611927565b610aee57600080fd5b600760009054906101000a900473ffffffffffffffffffffffffffffffffffffffff1673ffffffffffffffffffffffffffffffffffffffff166306ab59236008548460001b846040518463ffffffff1660e01b8152600401610b5293929190612d0c565b602060405180830381600087803b158015610b6c57600080fd5b505af1158015610b80573d6000803e3d6000fd5b505050506040513d601f19601f82011682018060405250810190610ba491906127bc565b505050565b600760009054906101000a900473ffffffffffffffffffffffffffffffffffffffff1681565b610bea83838360405180602001604052806000815250611088565b505050565b610bf76116be565b73ffffffffffffffffffffffffffffffffffffffff16610c15610e70565b73ffffffffffffffffffffffffffffffffffffffff1614610c6b576040517f08c379a0000000000000000000000000000000000000000000000000000000008152600401610c6290612ee0565b60405180910390fd5b600760009054906101000a900473ffffffffffffffffffffffffffffffffffffffff1673ffffffffffffffffffffffffffffffffffffffff16631896f70a600854836040518363ffffffff1660e01b8152600401610cca929190612ce3565b600060405180830381600087803b158015610ce457600080fd5b505af1158015610cf8573d6000803e3d6000fd5b5050505050565b600042600a60008481526020019081526020016000205411610d2057600080fd5b610d298261160c565b9050919050565b60008073ffffffffffffffffffffffffffffffffffffffff168273ffffffffffffffffffffffffffffffffffffffff161415610da1576040517f08c379a0000000000000000000000000000000000000000000000000000000008152600401610d9890612e60565b60405180910390fd5b600460008373ffffffffffffffffffffffffffffffffffffffff1673ffffffffffffffffffffffffffffffffffffffff168152602001908152602001600020549050919050565b610df06116be565b73ffffffffffffffffffffffffffffffffffffffff16610e0e610e70565b73ffffffffffffffffffffffffffffffffffffffff1614610e64576040517f08c379a0000000000000000000000000000000000000000000000000000000008152600401610e5b90612ee0565b60405180910390fd5b610e6e6000611c23565b565b60008060009054906101000a900473ffffffffffffffffffffffffffffffffffffffff16905090565b606060028054610ea8906131b3565b80601f0160208091040260200160405190810160405280929190818152602001828054610ed4906131b3565b8015610f215780601f10610ef657610100808354040283529160200191610f21565b820191906000526020600020905b815481529060010190602001808311610f0457829003601f168201915b5050505050905090565b6000426276a700600a600085815260200190815260200160002054610f509190613014565b109050919050565b610f6a610f636116be565b8383611ce7565b5050565b610f766116be565b73ffffffffffffffffffffffffffffffffffffffff16610f94610e70565b73ffffffffffffffffffffffffffffffffffffffff1614610fea576040517f08c379a0000000000000000000000000000000000000000000000000000000008152600401610fe190612ee0565b60405180910390fd5b6001600960008373ffffffffffffffffffffffffffffffffffffffff1673ffffffffffffffffffffffffffffffffffffffff16815260200190815260200160002060006101000a81548160ff0219169083151502179055508073ffffffffffffffffffffffffffffffffffffffff167f0a8bb31534c0ed46f380cb867bd5c803a189ced9a764e30b3a4991a9901d747460405160405180910390a250565b6110996110936116be565b83611927565b6110d8576040517f08c379a00000000000000000000000000000000000000000000000000000000081526004016110cf90612f40565b60405180910390fd5b6110e484848484611e54565b50505050565b6276a70081565b6000426276a700600a6000868152602001908152602001600020546111169190613014565b101561112157600080fd5b6276a700826111309190613014565b6276a70083600a6000878152602001908152602001600020546111539190613014565b61115d9190613014565b1161116757600080fd5b81600a6000858152602001908152602001600020600082825461118a9190613014565b92505081905550827f9b87a00e30f1ac65d898f070f8a3488fe60517182d0a2098e1b4b93a54aa9bd6600a6000868152602001908152602001600020546040516111d49190612f60565b60405180910390a2600a600084815260200190815260200160002054905092915050565b6060611203826115a0565b611242576040517f08c379a000000000000000000000000000000000000000000000000000000000815260040161123990612f00565b60405180910390fd5b600061124c611eb0565b9050600081511161126c5760405180602001604052806000815250611297565b8061127684611ec7565b604051602001611287929190612c22565b6040516020818303038152906040525b915050919050565b6000600a6000838152602001908152602001600020549050919050565b60096020528060005260406000206000915054906101000a900460ff1681565b60085481565b6000600660008473ffffffffffffffffffffffffffffffffffffffff1673ffffffffffffffffffffffffffffffffffffffff16815260200190815260200160002060008373ffffffffffffffffffffffffffffffffffffffff1673ffffffffffffffffffffffffffffffffffffffff16815260200190815260200160002060009054906101000a900460ff16905092915050565b61137e6116be565b73ffffffffffffffffffffffffffffffffffffffff1661139c610e70565b73ffffffffffffffffffffffffffffffffffffffff16146113f2576040517f08c379a00000000000000000000000000000000000000000000000000000000081526004016113e990612ee0565b60405180910390fd5b600073ffffffffffffffffffffffffffffffffffffffff168173ffffffffffffffffffffffffffffffffffffffff161415611462576040517f08c379a000000000000000000000000000000000000000000000000000000000815260040161145990612da0565b60405180910390fd5b61146b81611c23565b50565b6114766116be565b73ffffffffffffffffffffffffffffffffffffffff16611494610e70565b73ffffffffffffffffffffffffffffffffffffffff16146114ea576040517f08c379a00000000000000000000000000000000000000000000000000000000081526004016114e190612ee0565b60405180910390fd5b6000600960008373ffffffffffffffffffffffffffffffffffffffff1673ffffffffffffffffffffffffffffffffffffffff16815260200190815260200160002060006101000a81548160ff0219169083151502179055508073ffffffffffffffffffffffffffffffffffffffff167f33d83959be2573f5453b12eb9d43b3499bc57d96bd2f067ba44803c859e8111360405160405180910390a250565b6000611597848484600161177f565b90509392505050565b60008073ffffffffffffffffffffffffffffffffffffffff166003600084815260200190815260200160002060009054906101000a900473ffffffffffffffffffffffffffffffffffffffff1673ffffffffffffffffffffffffffffffffffffffff1614159050919050565b6000806003600084815260200190815260200160002060009054906101000a900473ffffffffffffffffffffffffffffffffffffffff169050600073ffffffffffffffffffffffffffffffffffffffff168173ffffffffffffffffffffffffffffffffffffffff1614156116b5576040517f08c379a00000000000000000000000000000000000000000000000000000000081526004016116ac90612e80565b60405180910390fd5b80915050919050565b600033905090565b816005600083815260200190815260200160002060006101000a81548173ffffffffffffffffffffffffffffffffffffffff021916908373ffffffffffffffffffffffffffffffffffffffff160217905550808273ffffffffffffffffffffffffffffffffffffffff166117398361160c565b73ffffffffffffffffffffffffffffffffffffffff167f8c5be1e5ebec7d5bd14f71427d1e84f3dd0314c0f7b2291e5b200ac8c7c3b92560405160405180910390a45050565b60006276a700426117909190613014565b6276a70084426117a09190613014565b6117aa9190613014565b116117b457600080fd5b82426117c09190613014565b600a6000878152602001908152602001600020819055506117e0856115a0565b156117ef576117ee85612074565b5b6117f98486612191565b81156118b757600760009054906101000a900473ffffffffffffffffffffffffffffffffffffffff1673ffffffffffffffffffffffffffffffffffffffff166306ab59236008548760001b876040518463ffffffff1660e01b815260040161186393929190612d0c565b602060405180830381600087803b15801561187d57600080fd5b505af1158015611891573d6000803e3d6000fd5b505050506040513d601f19601f820116820180604052508101906118b591906127bc565b505b8373ffffffffffffffffffffffffffffffffffffffff16857fb3d987963d01b2f68493b4bdb130988f157ea43070d4ad840fee0466ed9370d985426118fc9190613014565b6040516119099190612f60565b60405180910390a3824261191d9190613014565b9050949350505050565b60008061193383610cff565b90508073ffffffffffffffffffffffffffffffffffffffff168473ffffffffffffffffffffffffffffffffffffffff1614806119a257508373ffffffffffffffffffffffffffffffffffffffff1661198a846108c6565b73ffffffffffffffffffffffffffffffffffffffff16145b806119b357506119b281856112e2565b5b91505092915050565b8273ffffffffffffffffffffffffffffffffffffffff166119dc8261160c565b73ffffffffffffffffffffffffffffffffffffffff1614611a32576040517f08c379a0000000000000000000000000000000000000000000000000000000008152600401611a2990612dc0565b60405180910390fd5b600073ffffffffffffffffffffffffffffffffffffffff168273ffffffffffffffffffffffffffffffffffffffff161415611aa2576040517f08c379a0000000000000000000000000000000000000000000000000000000008152600401611a9990612e00565b60405180910390fd5b611aad83838361236b565b611ab86000826116c6565b6001600460008573ffffffffffffffffffffffffffffffffffffffff1673ffffffffffffffffffffffffffffffffffffffff1681526020019081526020016000206000828254611b08919061309b565b925050819055506001600460008473ffffffffffffffffffffffffffffffffffffffff1673ffffffffffffffffffffffffffffffffffffffff1681526020019081526020016000206000828254611b5f9190613014565b92505081905550816003600083815260200190815260200160002060006101000a81548173ffffffffffffffffffffffffffffffffffffffff021916908373ffffffffffffffffffffffffffffffffffffffff160217905550808273ffffffffffffffffffffffffffffffffffffffff168473ffffffffffffffffffffffffffffffffffffffff167fddf252ad1be2c89b69c2b068fc378daa952ba7f163c4a11628f55a4df523b3ef60405160405180910390a4611c1e838383612370565b505050565b60008060009054906101000a900473ffffffffffffffffffffffffffffffffffffffff169050816000806101000a81548173ffffffffffffffffffffffffffffffffffffffff021916908373ffffffffffffffffffffffffffffffffffffffff1602179055508173ffffffffffffffffffffffffffffffffffffffff168173ffffffffffffffffffffffffffffffffffffffff167f8be0079c531659141344cd1fd0a4f28419497f9722a3daafe3b4186f6b6457e060405160405180910390a35050565b8173ffffffffffffffffffffffffffffffffffffffff168373ffffffffffffffffffffffffffffffffffffffff161415611d56576040517f08c379a0000000000000000000000000000000000000000000000000000000008152600401611d4d90612e20565b60405180910390fd5b80600660008573ffffffffffffffffffffffffffffffffffffffff1673ffffffffffffffffffffffffffffffffffffffff16815260200190815260200160002060008473ffffffffffffffffffffffffffffffffffffffff1673ffffffffffffffffffffffffffffffffffffffff16815260200190815260200160002060006101000a81548160ff0219169083151502179055508173ffffffffffffffffffffffffffffffffffffffff168373ffffffffffffffffffffffffffffffffffffffff167f17307eab39ab6107e8899845ad3d59bd9653f200f220920489ca2b5937696c3183604051611e479190612cad565b60405180910390a3505050565b611e5f8484846119bc565b611e6b84848484612375565b611eaa576040517f08c379a0000000000000000000000000000000000000000000000000000000008152600401611ea190612d80565b60405180910390fd5b50505050565b606060405180602001604052806000815250905090565b60606000821415611f0f576040518060400160405280600181526020017f3000000000000000000000000000000000000000000000000000000000000000815250905061206f565b600082905060005b60008214611f41578080611f2a90613216565b915050600a82611f3a919061306a565b9150611f17565b60008167ffffffffffffffff811115611f83577f4e487b7100000000000000000000000000000000000000000000000000000000600052604160045260246000fd5b6040519080825280601f01601f191660200182016040528015611fb55781602001600182028036833780820191505090505b5090505b6000851461206857600182611fce919061309b565b9150600a85611fdd919061325f565b6030611fe99190613014565b60f81b818381518110612025577f4e487b7100000000000000000000000000000000000000000000000000000000600052603260045260246000fd5b60200101907effffffffffffffffffffffffffffffffffffffffffffffffffffffffffffff1916908160001a905350600a85612061919061306a565b9450611fb9565b8093505050505b919050565b600061207f8261160c565b905061208d8160008461236b565b6120986000836116c6565b6001600460008373ffffffffffffffffffffffffffffffffffffffff1673ffffffffffffffffffffffffffffffffffffffff16815260200190815260200160002060008282546120e8919061309b565b925050819055506003600083815260200190815260200160002060006101000a81549073ffffffffffffffffffffffffffffffffffffffff021916905581600073ffffffffffffffffffffffffffffffffffffffff168273ffffffffffffffffffffffffffffffffffffffff167fddf252ad1be2c89b69c2b068fc378daa952ba7f163c4a11628f55a4df523b3ef60405160405180910390a461218d81600084612370565b5050565b600073ffffffffffffffffffffffffffffffffffffffff168273ffffffffffffffffffffffffffffffffffffffff161415612201576040517f08c379a00000000000000000000000000000000000000000000000000000000081526004016121f890612ea0565b60405180910390fd5b61220a816115a0565b1561224a576040517f08c379a000000000000000000000000000000000000000000000000000000000815260040161224190612de0565b60405180910390fd5b6122566000838361236b565b6001600460008473ffffffffffffffffffffffffffffffffffffffff1673ffffffffffffffffffffffffffffffffffffffff16815260200190815260200160002060008282546122a69190613014565b92505081905550816003600083815260200190815260200160002060006101000a81548173ffffffffffffffffffffffffffffffffffffffff021916908373ffffffffffffffffffffffffffffffffffffffff160217905550808273ffffffffffffffffffffffffffffffffffffffff16600073ffffffffffffffffffffffffffffffffffffffff167fddf252ad1be2c89b69c2b068fc378daa952ba7f163c4a11628f55a4df523b3ef60405160405180910390a461236760008383612370565b5050565b505050565b505050565b60006123968473ffffffffffffffffffffffffffffffffffffffff1661250c565b156124ff578373ffffffffffffffffffffffffffffffffffffffff1663150b7a026123bf6116be565b8786866040518563ffffffff1660e01b81526004016123e19493929190612c61565b602060405180830381600087803b1580156123fb57600080fd5b505af192505050801561242c57506040513d601f19601f82011682018060405250810190612429919061280e565b60015b6124af573d806000811461245c576040519150601f19603f3d011682016040523d82523d6000602084013e612461565b606091505b506000815114156124a7576040517f08c379a000000000000000000000000000000000000000000000000000000000815260040161249e90612d80565b60405180910390fd5b805181602001fd5b63150b7a0260e01b7bffffffffffffffffffffffffffffffffffffffffffffffffffffffff1916817bffffffffffffffffffffffffffffffffffffffffffffffffffffffff191614915050612504565b600190505b949350505050565b6000808273ffffffffffffffffffffffffffffffffffffffff163b119050919050565b600061254261253d84612fa0565b612f7b565b90508281526020810184848401111561255a57600080fd5b612565848285613171565b509392505050565b60008135905061257c81613766565b92915050565b6000813590506125918161377d565b92915050565b6000815190506125a681613794565b92915050565b6000813590506125bb816137ab565b92915050565b6000815190506125d0816137ab565b92915050565b600082601f8301126125e757600080fd5b81356125f784826020860161252f565b91505092915050565b60008135905061260f816137c2565b92915050565b60006020828403121561262757600080fd5b60006126358482850161256d565b91505092915050565b6000806040838503121561265157600080fd5b600061265f8582860161256d565b92505060206126708582860161256d565b9150509250929050565b60008060006060848603121561268f57600080fd5b600061269d8682870161256d565b93505060206126ae8682870161256d565b92505060406126bf86828701612600565b9150509250925092565b600080600080608085870312156126df57600080fd5b60006126ed8782880161256d565b94505060206126fe8782880161256d565b935050604061270f87828801612600565b925050606085013567ffffffffffffffff81111561272c57600080fd5b612738878288016125d6565b91505092959194509250565b6000806040838503121561275757600080fd5b60006127658582860161256d565b925050602061277685828601612582565b9150509250929050565b6000806040838503121561279357600080fd5b60006127a18582860161256d565b92505060206127b285828601612600565b9150509250929050565b6000602082840312156127ce57600080fd5b60006127dc84828501612597565b91505092915050565b6000602082840312156127f757600080fd5b6000612805848285016125ac565b91505092915050565b60006020828403121561282057600080fd5b600061282e848285016125c1565b91505092915050565b60006020828403121561284957600080fd5b600061285784828501612600565b91505092915050565b6000806040838503121561287357600080fd5b600061288185828601612600565b92505060206128928582860161256d565b9150509250929050565b6000806000606084860312156128b157600080fd5b60006128bf86828701612600565b93505060206128d08682870161256d565b92505060406128e186828701612600565b9150509250925092565b600080604083850312156128fe57600080fd5b600061290c85828601612600565b925050602061291d85828601612600565b9150509250929050565b612930816130cf565b82525050565b61293f816130e1565b82525050565b61294e816130ed565b82525050565b600061295f82612fd1565b6129698185612fe7565b9350612979818560208601613180565b6129828161334c565b840191505092915050565b6129968161314d565b82525050565b60006129a782612fdc565b6129b18185612ff8565b93506129c1818560208601613180565b6129ca8161334c565b840191505092915050565b60006129e082612fdc565b6129ea8185613009565b93506129fa818560208601613180565b80840191505092915050565b6000612a13603283612ff8565b9150612a1e8261335d565b604082019050919050565b6000612a36602683612ff8565b9150612a41826133ac565b604082019050919050565b6000612a59602583612ff8565b9150612a64826133fb565b604082019050919050565b6000612a7c601c83612ff8565b9150612a878261344a565b602082019050919050565b6000612a9f602483612ff8565b9150612aaa82613473565b604082019050919050565b6000612ac2601983612ff8565b9150612acd826134c2565b602082019050919050565b6000612ae5603883612ff8565b9150612af0826134eb565b604082019050919050565b6000612b08602a83612ff8565b9150612b138261353a565b604082019050919050565b6000612b2b602983612ff8565b9150612b3682613589565b604082019050919050565b6000612b4e602083612ff8565b9150612b59826135d8565b602082019050919050565b6000612b71602c83612ff8565b9150612b7c82613601565b604082019050919050565b6000612b94602083612ff8565b9150612b9f82613650565b602082019050919050565b6000612bb7602f83612ff8565b9150612bc282613679565b604082019050919050565b6000612bda602183612ff8565b9150612be5826136c8565b604082019050919050565b6000612bfd603183612ff8565b9150612c0882613717565b604082019050919050565b612c1c81613143565b82525050565b6000612c2e82856129d5565b9150612c3a82846129d5565b91508190509392505050565b6000602082019050612c5b6000830184612927565b92915050565b6000608082019050612c766000830187612927565b612c836020830186612927565b612c906040830185612c13565b8181036060830152612ca28184612954565b905095945050505050565b6000602082019050612cc26000830184612936565b92915050565b6000602082019050612cdd6000830184612945565b92915050565b6000604082019050612cf86000830185612945565b612d056020830184612927565b9392505050565b6000606082019050612d216000830186612945565b612d2e6020830185612945565b612d3b6040830184612927565b949350505050565b6000602082019050612d58600083018461298d565b92915050565b60006020820190508181036000830152612d78818461299c565b905092915050565b60006020820190508181036000830152612d9981612a06565b9050919050565b60006020820190508181036000830152612db981612a29565b9050919050565b60006020820190508181036000830152612dd981612a4c565b9050919050565b60006020820190508181036000830152612df981612a6f565b9050919050565b60006020820190508181036000830152612e1981612a92565b9050919050565b60006020820190508181036000830152612e3981612ab5565b9050919050565b60006020820190508181036000830152612e5981612ad8565b9050919050565b60006020820190508181036000830152612e7981612afb565b9050919050565b60006020820190508181036000830152612e9981612b1e565b9050919050565b60006020820190508181036000830152612eb981612b41565b9050919050565b60006020820190508181036000830152612ed981612b64565b9050919050565b60006020820190508181036000830152612ef981612b87565b9050919050565b60006020820190508181036000830152612f1981612baa565b9050919050565b60006020820190508181036000830152612f3981612bcd565b9050919050565b60006020820190508181036000830152612f5981612bf0565b9050919050565b6000602082019050612f756000830184612c13565b92915050565b6000612f85612f96565b9050612f9182826131e5565b919050565b6000604051905090565b600067ffffffffffffffff821115612fbb57612fba61331d565b5b612fc48261334c565b9050602081019050919050565b600081519050919050565b600081519050919050565b600082825260208201905092915050565b600082825260208201905092915050565b600081905092915050565b600061301f82613143565b915061302a83613143565b9250827fffffffffffffffffffffffffffffffffffffffffffffffffffffffffffffffff0382111561305f5761305e613290565b5b828201905092915050565b600061307582613143565b915061308083613143565b9250826130905761308f6132bf565b5b828204905092915050565b60006130a682613143565b91506130b183613143565b9250828210156130c4576130c3613290565b5b828203905092915050565b60006130da82613123565b9050919050565b60008115159050919050565b6000819050919050565b60007fffffffff0000000000000000000000000000000000000000000000000000000082169050919050565b600073ffffffffffffffffffffffffffffffffffffffff82169050919050565b6000819050919050565b60006131588261315f565b9050919050565b600061316a82613123565b9050919050565b82818337600083830152505050565b60005b8381101561319e578082015181840152602081019050613183565b838111156131ad576000848401525b50505050565b600060028204905060018216806131cb57607f821691505b602082108114156131df576131de6132ee565b5b50919050565b6131ee8261334c565b810181811067ffffffffffffffff8211171561320d5761320c61331d565b5b80604052505050565b600061322182613143565b91507fffffffffffffffffffffffffffffffffffffffffffffffffffffffffffffffff82141561325457613253613290565b5b600182019050919050565b600061326a82613143565b915061327583613143565b925082613285576132846132bf565b5b828206905092915050565b7f4e487b7100000000000000000000000000000000000000000000000000000000600052601160045260246000fd5b7f4e487b7100000000000000000000000000000000000000000000000000000000600052601260045260246000fd5b7f4e487b7100000000000000000000000000000000000000000000000000000000600052602260045260246000fd5b7f4e487b7100000000000000000000000000000000000000000000000000000000600052604160045260246000fd5b6000601f19601f8301169050919050565b7f4552433732313a207472616e7366657220746f206e6f6e20455243373231526560008201527f63656976657220696d706c656d656e7465720000000000000000000000000000602082015250565b7f4f776e61626c653a206e6577206f776e657220697320746865207a65726f206160008201527f6464726573730000000000000000000000000000000000000000000000000000602082015250565b7f4552433732313a207472616e736665722066726f6d20696e636f72726563742060008201527f6f776e6572000000000000000000000000000000000000000000000000000000602082015250565b7f4552433732313a20746f6b656e20616c7265616479206d696e74656400000000600082015250565b7f4552433732313a207472616e7366657220746f20746865207a65726f2061646460008201527f7265737300000000000000000000000000000000000000000000000000000000602082015250565b7f4552433732313a20617070726f766520746f2063616c6c657200000000000000600082015250565b7f4552433732313a20617070726f76652063616c6c6572206973206e6f74206f7760008201527f6e6572206e6f7220617070726f76656420666f7220616c6c0000000000000000602082015250565b7f4552433732313a2062616c616e636520717565727920666f7220746865207a6560008201527f726f206164647265737300000000000000000000000000000000000000000000602082015250565b7f4552433732313a206f776e657220717565727920666f72206e6f6e657869737460008201527f656e7420746f6b656e0000000000000000000000000000000000000000000000602082015250565b7f4552433732313a206d696e7420746f20746865207a65726f2061646472657373600082015250565b7f4552433732313a20617070726f76656420717565727920666f72206e6f6e657860008201527f697374656e7420746f6b656e0000000000000000000000000000000000000000602082015250565b7f4f776e61626c653a2063616c6c6572206973206e6f7420746865206f776e6572600082015250565b7f4552433732314d657461646174613a2055524920717565727920666f72206e6f60008201527f6e6578697374656e7420746f6b656e0000000000000000000000000000000000602082015250565b7f4552433732313a20617070726f76616c20746f2063757272656e74206f776e6560008201527f7200000000000000000000000000000000000000000000000000000000000000602082015250565b7f4552433732313a207472616e736665722063616c6c6572206973206e6f74206f60008201527f776e6572206e6f7220617070726f766564000000000000000000000000000000602082015250565b61376f816130cf565b811461377a57600080fd5b50565b613786816130e1565b811461379157600080fd5b50565b61379d816130ed565b81146137a857600080fd5b50565b6137b4816130f7565b81146137bf57600080fd5b50565b6137cb81613143565b81146137d657600080fd5b5056fea2646970667358221220f8e7fe4d30c3cb98ad255fce9c3654bb8066f72eede0631bdf79673a4a561f2c64736f6c63430008040033",
  "linkReferences": {},
  "deployedLinkReferences": {}
}