{
  "_format": "hh-sol-artifact-1",
  "contractName": "FDSRegistrar",
  "sourceName": "contracts/FDSRegistrar.sol",
  "abi": [
    {
      "inputs": [
        {
          "internalType": "contract ENS",
          "name": "_registry",
          "type": "address"
        }
      ],
      "stateMutability": "nonpayable",
      "type": "constructor"
    },
    {
      "anonymous": false,
      "inputs": [
        {
          "indexed": true,
          "internalType": "address",
          "name": "owner",
          "type": "address"
        },
        {
          "indexed": true,
          "internalType": "address",
          "name": "approved",
          "type": "address"
        },
        {
          "indexed": true,
          "internalType": "uint256",
          "name": "tokenId",
          "type": "uint256"
        }
      ],
      "name": "Approval",
      "type": "event"
    },
    {
      "anonymous": false,
      "inputs": [
        {
          "indexed": true,
          "internalType": "address",
          "name": "owner",
          "type": "address"
        },
        {
          "indexed": true,
          "internalType": "address",
          "name": "operator",
          "type": "address"
        },
        {
          "indexed": false,
          "internalType": "bool",
          "name": "approved",
          "type": "bool"
        }
      ],
      "name": "ApprovalForAll",
      "type": "event"
    },
    {
      "anonymous": false,
      "inputs": [
        {
          "indexed": true,
          "internalType": "address",
          "name": "controller",
          "type": "address"
        }
      ],
      "name": "ControllerAdded",
      "type": "event"
    },
    {
      "anonymous": false,
      "inputs": [
        {
          "indexed": true,
          "internalType": "address",
          "name": "controller",
          "type": "address"
        }
      ],
      "name": "ControllerRemoved",
      "type": "event"
    },
    {
      "anonymous": false,
      "inputs": [
        {
          "indexed": true,
          "internalType": "uint256",
          "name": "id",
          "type": "uint256"
        },
        {
          "indexed": true,
          "internalType": "address",
          "name": "owner",
          "type": "address"
        },
        {
          "indexed": false,
          "internalType": "uint256",
          "name": "expires",
          "type": "uint256"
        }
      ],
      "name": "NameMigrated",
      "type": "event"
    },
    {
      "anonymous": false,
      "inputs": [
        {
          "indexed": true,
          "internalType": "uint256",
          "name": "id",
          "type": "uint256"
        },
        {
          "indexed": true,
          "internalType": "address",
          "name": "owner",
          "type": "address"
        },
        {
          "indexed": false,
          "internalType": "uint256",
          "name": "expires",
          "type": "uint256"
        }
      ],
      "name": "NameRegistered",
      "type": "event"
    },
    {
      "anonymous": false,
      "inputs": [
        {
          "indexed": true,
          "internalType": "uint256",
          "name": "id",
          "type": "uint256"
        },
        {
          "indexed": false,
          "internalType": "uint256",
          "name": "expires",
          "type": "uint256"
        }
      ],
      "name": "NameRenewed",
      "type": "event"
    },
    {
      "anonymous": false,
      "inputs": [
        {
          "indexed": true,
          "internalType": "address",
          "name": "previousOwner",
          "type": "address"
        },
        {
          "indexed": true,
          "internalType": "address",
          "name": "newOwner",
          "type": "address"
        }
      ],
      "name": "OwnershipTransferred",
      "type": "event"
    },
    {
      "anonymous": false,
      "inputs": [
        {
          "indexed": true,
          "internalType": "address",
          "name": "from",
          "type": "address"
        },
        {
          "indexed": true,
          "internalType": "address",
          "name": "to",
          "type": "address"
        },
        {
          "indexed": true,
          "internalType": "uint256",
          "name": "tokenId",
          "type": "uint256"
        }
      ],
      "name": "Transfer",
      "type": "event"
    },
    {
      "inputs": [],
      "name": "GRACE_PERIOD",
      "outputs": [
        {
          "internalType": "uint256",
          "name": "",
          "type": "uint256"
        }
      ],
      "stateMutability": "view",
      "type": "function"
    },
    {
      "inputs": [
        {
          "internalType": "address",
          "name": "controller",
          "type": "address"
        }
      ],
      "name": "addController",
      "outputs": [],
      "stateMutability": "nonpayable",
      "type": "function"
    },
    {
      "inputs": [
        {
          "internalType": "address",
          "name": "to",
          "type": "address"
        },
        {
          "internalType": "uint256",
          "name": "tokenId",
          "type": "uint256"
        }
      ],
      "name": "approve",
      "outputs": [],
      "stateMutability": "nonpayable",
      "type": "function"
    },
    {
      "inputs": [
        {
          "internalType": "uint256",
          "name": "id",
          "type": "uint256"
        }
      ],
      "name": "available",
      "outputs": [
        {
          "internalType": "bool",
          "name": "",
          "type": "bool"
        }
      ],
      "stateMutability": "view",
      "type": "function"
    },
    {
      "inputs": [
        {
          "internalType": "address",
          "name": "owner",
          "type": "address"
        }
      ],
      "name": "balanceOf",
      "outputs": [
        {
          "internalType": "uint256",
          "name": "",
          "type": "uint256"
        }
      ],
      "stateMutability": "view",
      "type": "function"
    },
    {
      "inputs": [],
      "name": "baseNode",
      "outputs": [
        {
          "internalType": "bytes32",
          "name": "",
          "type": "bytes32"
        }
      ],
      "stateMutability": "view",
      "type": "function"
    },
    {
      "inputs": [
        {
          "internalType": "address",
          "name": "",
          "type": "address"
        }
      ],
      "name": "controllers",
      "outputs": [
        {
          "internalType": "bool",
          "name": "",
          "type": "bool"
        }
      ],
      "stateMutability": "view",
      "type": "function"
    },
    {
      "inputs": [],
      "name": "ens",
      "outputs": [
        {
          "internalType": "contract ENS",
          "name": "",
          "type": "address"
        }
      ],
      "stateMutability": "view",
      "type": "function"
    },
    {
      "inputs": [
        {
          "internalType": "uint256",
          "name": "tokenId",
          "type": "uint256"
        }
      ],
      "name": "getApproved",
      "outputs": [
        {
          "internalType": "address",
          "name": "",
          "type": "address"
        }
      ],
      "stateMutability": "view",
      "type": "function"
    },
    {
      "inputs": [
        {
          "internalType": "address",
          "name": "owner",
          "type": "address"
        },
        {
          "internalType": "address",
          "name": "operator",
          "type": "address"
        }
      ],
      "name": "isApprovedForAll",
      "outputs": [
        {
          "internalType": "bool",
          "name": "",
          "type": "bool"
        }
      ],
      "stateMutability": "view",
      "type": "function"
    },
    {
      "inputs": [],
      "name": "name",
      "outputs": [
        {
          "internalType": "string",
          "name": "",
          "type": "string"
        }
      ],
      "stateMutability": "view",
      "type": "function"
    },
    {
      "inputs": [
        {
          "internalType": "uint256",
          "name": "id",
          "type": "uint256"
        }
      ],
      "name": "nameExpires",
      "outputs": [
        {
          "internalType": "uint256",
          "name": "",
          "type": "uint256"
        }
      ],
      "stateMutability": "view",
      "type": "function"
    },
    {
      "inputs": [],
      "name": "owner",
      "outputs": [
        {
          "internalType": "address",
          "name": "",
          "type": "address"
        }
      ],
      "stateMutability": "view",
      "type": "function"
    },
    {
      "inputs": [
        {
          "internalType": "uint256",
          "name": "tokenId",
          "type": "uint256"
        }
      ],
      "name": "ownerOf",
      "outputs": [
        {
          "internalType": "address",
          "name": "",
          "type": "address"
        }
      ],
      "stateMutability": "view",
      "type": "function"
    },
    {
      "inputs": [
        {
          "internalType": "uint256",
          "name": "id",
          "type": "uint256"
        },
        {
          "internalType": "address",
          "name": "owner",
          "type": "address"
        }
      ],
      "name": "reclaim",
      "outputs": [],
      "stateMutability": "nonpayable",
      "type": "function"
    },
    {
      "inputs": [
        {
          "internalType": "uint256",
          "name": "id",
          "type": "uint256"
        },
        {
          "internalType": "address",
          "name": "owner",
          "type": "address"
        },
        {
          "internalType": "uint256",
          "name": "duration",
          "type": "uint256"
        }
      ],
      "name": "register",
      "outputs": [
        {
          "internalType": "uint256",
          "name": "",
          "type": "uint256"
        }
      ],
      "stateMutability": "nonpayable",
      "type": "function"
    },
    {
      "inputs": [
        {
          "internalType": "uint256",
          "name": "id",
          "type": "uint256"
        },
        {
          "internalType": "address",
          "name": "owner",
          "type": "address"
        },
        {
          "internalType": "uint256",
          "name": "duration",
          "type": "uint256"
        }
      ],
      "name": "registerOnly",
      "outputs": [
        {
          "internalType": "uint256",
          "name": "",
          "type": "uint256"
        }
      ],
      "stateMutability": "nonpayable",
      "type": "function"
    },
    {
      "inputs": [
        {
          "internalType": "address",
          "name": "controller",
          "type": "address"
        }
      ],
      "name": "removeController",
      "outputs": [],
      "stateMutability": "nonpayable",
      "type": "function"
    },
    {
      "inputs": [
        {
          "internalType": "uint256",
          "name": "id",
          "type": "uint256"
        },
        {
          "internalType": "uint256",
          "name": "duration",
          "type": "uint256"
        }
      ],
      "name": "renew",
      "outputs": [
        {
          "internalType": "uint256",
          "name": "",
          "type": "uint256"
        }
      ],
      "stateMutability": "nonpayable",
      "type": "function"
    },
    {
      "inputs": [],
      "name": "renounceOwnership",
      "outputs": [],
      "stateMutability": "nonpayable",
      "type": "function"
    },
    {
      "inputs": [
        {
          "internalType": "address",
          "name": "from",
          "type": "address"
        },
        {
          "internalType": "address",
          "name": "to",
          "type": "address"
        },
        {
          "internalType": "uint256",
          "name": "tokenId",
          "type": "uint256"
        }
      ],
      "name": "safeTransferFrom",
      "outputs": [],
      "stateMutability": "nonpayable",
      "type": "function"
    },
    {
      "inputs": [
        {
          "internalType": "address",
          "name": "from",
          "type": "address"
        },
        {
          "internalType": "address",
          "name": "to",
          "type": "address"
        },
        {
          "internalType": "uint256",
          "name": "tokenId",
          "type": "uint256"
        },
        {
          "internalType": "bytes",
          "name": "_data",
          "type": "bytes"
        }
      ],
      "name": "safeTransferFrom",
      "outputs": [],
      "stateMutability": "nonpayable",
      "type": "function"
    },
    {
      "inputs": [
        {
          "internalType": "address",
          "name": "operator",
          "type": "address"
        },
        {
          "internalType": "bool",
          "name": "approved",
          "type": "bool"
        }
      ],
      "name": "setApprovalForAll",
      "outputs": [],
      "stateMutability": "nonpayable",
      "type": "function"
    },
    {
      "inputs": [
        {
          "internalType": "address",
          "name": "resolver",
          "type": "address"
        }
      ],
      "name": "setResolver",
      "outputs": [],
      "stateMutability": "nonpayable",
      "type": "function"
    },
    {
      "inputs": [
        {
          "internalType": "bytes32",
          "name": "_label",
          "type": "bytes32"
        },
        {
          "internalType": "address",
          "name": "_owner",
          "type": "address"
        }
      ],
      "name": "setSubnodeOwner",
      "outputs": [
        {
          "internalType": "bytes32",
          "name": "",
          "type": "bytes32"
        }
      ],
      "stateMutability": "nonpayable",
      "type": "function"
    },
    {
      "inputs": [
        {
          "internalType": "bytes4",
          "name": "interfaceID",
          "type": "bytes4"
        }
      ],
      "name": "supportsInterface",
      "outputs": [
        {
          "internalType": "bool",
          "name": "",
          "type": "bool"
        }
      ],
      "stateMutability": "view",
      "type": "function"
    },
    {
      "inputs": [],
      "name": "symbol",
      "outputs": [
        {
          "internalType": "string",
          "name": "",
          "type": "string"
        }
      ],
      "stateMutability": "view",
      "type": "function"
    },
    {
      "inputs": [
        {
          "internalType": "uint256",
          "name": "tokenId",
          "type": "uint256"
        }
      ],
      "name": "tokenURI",
      "outputs": [
        {
          "internalType": "string",
          "name": "",
          "type": "string"
        }
      ],
      "stateMutability": "view",
      "type": "function"
    },
    {
      "inputs": [
        {
          "internalType": "address",
          "name": "from",
          "type": "address"
        },
        {
          "internalType": "address",
          "name": "to",
          "type": "address"
        },
        {
          "internalType": "uint256",
          "name": "tokenId",
          "type": "uint256"
        }
      ],
      "name": "transferFrom",
      "outputs": [],
      "stateMutability": "nonpayable",
      "type": "function"
    },
    {
      "inputs": [
        {
          "internalType": "address",
          "name": "newOwner",
          "type": "address"
        }
      ],
      "name": "transferOwnership",
      "outputs": [],
      "stateMutability": "nonpayable",
      "type": "function"
    }
  ],
  "bytecode": "0x60806040523480156200001157600080fd5b50604051620042b3380380620042b38339818101604052810190620000379190620002e4565b806000801b6040516020016200004d9062000382565b604051602081830303815290604052805190602001206040516020016200007692919062000352565b604051602081830303815290604052805190602001206040518060200160405280600081525060405180602001604052806000815250620000cc620000c06200015160201b60201c565b6200015960201b60201c565b8160019080519060200190620000e49291906200021d565b508060029080519060200190620000fd9291906200021d565b50505081600760006101000a81548173ffffffffffffffffffffffffffffffffffffffff021916908373ffffffffffffffffffffffffffffffffffffffff16021790555080600881905550505050620004a8565b600033905090565b60008060009054906101000a900473ffffffffffffffffffffffffffffffffffffffff169050816000806101000a81548173ffffffffffffffffffffffffffffffffffffffff021916908373ffffffffffffffffffffffffffffffffffffffff1602179055508173ffffffffffffffffffffffffffffffffffffffff168173ffffffffffffffffffffffffffffffffffffffff167f8be0079c531659141344cd1fd0a4f28419497f9722a3daafe3b4186f6b6457e060405160405180910390a35050565b8280546200022b90620003f6565b90600052602060002090601f0160209004810192826200024f57600085556200029b565b82601f106200026a57805160ff19168380011785556200029b565b828001600101855582156200029b579182015b828111156200029a5782518255916020019190600101906200027d565b5b509050620002aa9190620002ae565b5090565b5b80821115620002c9576000816000905550600101620002af565b5090565b600081519050620002de816200048e565b92915050565b600060208284031215620002f757600080fd5b60006200030784828501620002cd565b91505092915050565b620003256200031f82620003b8565b6200042c565b82525050565b60006200033a60038362000399565b9150620003478262000465565b600382019050919050565b600062000360828562000310565b60208201915062000372828462000310565b6020820191508190509392505050565b60006200038f826200032b565b9150819050919050565b600081905092915050565b6000620003b182620003d6565b9050919050565b6000819050919050565b6000620003cf82620003a4565b9050919050565b600073ffffffffffffffffffffffffffffffffffffffff82169050919050565b600060028204905060018216806200040f57607f821691505b6020821081141562000426576200042562000436565b5b50919050565b6000819050919050565b7f4e487b7100000000000000000000000000000000000000000000000000000000600052602260045260246000fd5b7f6664730000000000000000000000000000000000000000000000000000000000600082015250565b6200049981620003c2565b8114620004a557600080fd5b50565b613dfb80620004b86000396000f3fe608060405234801561001057600080fd5b50600436106101da5760003560e01c806395d89b4111610104578063c87b56dd116100a2578063e985e9c511610071578063e985e9c51461058d578063f2fde38b146105bd578063f6a74ed7146105d9578063fca247ac146105f5576101da565b8063c87b56dd146104df578063d6e4fa861461050f578063da8c229e1461053f578063ddf7fcb01461056f576101da565b8063a7fc7a07116100de578063a7fc7a0714610459578063b88d4fde14610475578063c1a287e214610491578063c475abff146104af576101da565b806395d89b41146103ef57806396e494e81461040d578063a22cb4651461043d576101da565b80633f15457f1161017c57806370a082311161014b57806370a0823114610367578063715018a6146103975780638cb8ecec146103a15780638da5cb5b146103d1576101da565b80633f15457f146102e157806342842e0e146102ff5780634e543b261461031b5780636352211e14610337576101da565b8063095ea7b3116101b8578063095ea7b31461025d5780630e297b451461027957806323b872dd146102a957806328ed4f6c146102c5576101da565b806301ffc9a7146101df57806306fdde031461020f578063081812fc1461022d575b600080fd5b6101f960048036038101906101f49190612d23565b610625565b6040516102069190613266565b60405180910390f35b61021761086f565b6040516102249190613317565b60405180910390f35b61024760048036038101906102429190612d75565b610901565b60405161025491906131ff565b60405180910390f35b61027760048036038101906102729190612c82565b610986565b005b610293600480360381019061028e9190612dda565b610a9e565b6040516102a09190613519565b60405180910390f35b6102c360048036038101906102be9190612b7c565b610ab6565b005b6102df60048036038101906102da9190612d9e565b610b16565b005b6102e9610cc8565b6040516102f691906132fc565b60405180910390f35b61031960048036038101906103149190612b7c565b610cee565b005b61033560048036038101906103309190612aee565b610d0e565b005b610351600480360381019061034c9190612d75565b610e1e565b60405161035e91906131ff565b60405180910390f35b610381600480360381019061037c9190612aee565b610e4f565b60405161038e9190613519565b60405180910390f35b61039f610f07565b005b6103bb60048036038101906103b69190612ce7565b610f8f565b6040516103c89190613281565b60405180910390f35b6103d9611099565b6040516103e691906131ff565b60405180910390f35b6103f76110c2565b6040516104049190613317565b60405180910390f35b61042760048036038101906104229190612d75565b611154565b6040516104349190613266565b60405180910390f35b61045760048036038101906104529190612c46565b611181565b005b610473600480360381019061046e9190612aee565b611197565b005b61048f600480360381019061048a9190612bcb565b6112b1565b005b610499611313565b6040516104a69190613519565b60405180910390f35b6104c960048036038101906104c49190612e29565b61131a565b6040516104d69190613519565b60405180910390f35b6104f960048036038101906104f49190612d75565b61155b565b6040516105069190613317565b60405180910390f35b61052960048036038101906105249190612d75565b611602565b6040516105369190613519565b60405180910390f35b61055960048036038101906105549190612aee565b61161f565b6040516105669190613266565b60405180910390f35b61057761163f565b6040516105849190613281565b60405180910390f35b6105a760048036038101906105a29190612b40565b611645565b6040516105b49190613266565b60405180910390f35b6105d760048036038101906105d29190612aee565b6116d9565b005b6105f360048036038101906105ee9190612aee565b6117d1565b005b61060f600480360381019061060a9190612dda565b6118eb565b60405161061c9190613519565b60405180910390f35b60007f01ffc9a7a5cef8baa21ed3c5c0d7e23accb804b619e9333b597f47a0d84076e27bffffffffffffffffffffffffffffffffffffffffffffffffffffffff1916827bffffffffffffffffffffffffffffffffffffffffffffffffffffffff1916148061080057507fb88d4fde60196325a28bb7f99a2582e0b46de55b18761e960c14ad7a320994657f42842e0eb38857a7775b4e7364b2775df7325074d088e7fb39590cd6281184ed7f23b872dd7302113369cda2901243429419bec145408fa8b352b3dd92b66c680b7fe985e9c5c6636c6879256001057b28ccac7718ef0ac56553ff9b926452cab8a37fa22cb4651ab9570f89bb516380c40ce76762284fb1f21337ceaf6adab99e7d4a7f081812fc55e34fdc7cf5d8b5cf4e3621fa6423fde952ec6ab24afdc0d85c0b2e7f095ea7b334ae44009aa867bfb386f5c3b4b443ac6f0ee573fa91c4608fbadfba7f6352211e6566aa027e75ac9dbf2423197fbd9b82b9d981a3ab367d355866aa1c7f70a08231b98ef4ca268c9cc3f6b4590e4bfec28280db06bb5d45e689f2a360be18181818181818187bffffffffffffffffffffffffffffffffffffffffffffffffffffffff1916827bffffffffffffffffffffffffffffffffffffffffffffffffffffffff1916145b8061086857507f28ed4f6c74b219a5819055dfbcd2f1837c046c364cf01fabb6799e4f440d6f137bffffffffffffffffffffffffffffffffffffffffffffffffffffffff1916827bffffffffffffffffffffffffffffffffffffffffffffffffffffffff1916145b9050919050565b60606001805461087e9061376c565b80601f01602080910402602001604051908101604052809291908181526020018280546108aa9061376c565b80156108f75780601f106108cc576101008083540402835291602001916108f7565b820191906000526020600020905b8154815290600101906020018083116108da57829003601f168201915b5050505050905090565b600061090c82611903565b61094b576040517f08c379a000000000000000000000000000000000000000000000000000000000815260040161094290613479565b60405180910390fd5b6005600083815260200190815260200160002060009054906101000a900473ffffffffffffffffffffffffffffffffffffffff169050919050565b60006109918261196f565b90508073ffffffffffffffffffffffffffffffffffffffff168373ffffffffffffffffffffffffffffffffffffffff161415610a02576040517f08c379a00000000000000000000000000000000000000000000000000000000081526004016109f9906134d9565b60405180910390fd5b8073ffffffffffffffffffffffffffffffffffffffff16610a21611a21565b73ffffffffffffffffffffffffffffffffffffffff161480610a505750610a4f81610a4a611a21565b611645565b5b610a8f576040517f08c379a0000000000000000000000000000000000000000000000000000000008152600401610a86906133f9565b60405180910390fd5b610a998383611a29565b505050565b6000610aad8484846000611ae2565b90509392505050565b610ac7610ac1611a21565b82611dd6565b610b06576040517f08c379a0000000000000000000000000000000000000000000000000000000008152600401610afd906134f9565b60405180910390fd5b610b11838383611e6b565b505050565b3073ffffffffffffffffffffffffffffffffffffffff16600760009054906101000a900473ffffffffffffffffffffffffffffffffffffffff1673ffffffffffffffffffffffffffffffffffffffff166302571be36008546040518263ffffffff1660e01b8152600401610b8a9190613281565b60206040518083038186803b158015610ba257600080fd5b505afa158015610bb6573d6000803e3d6000fd5b505050506040513d601f19601f82011682018060405250810190610bda9190612b17565b73ffffffffffffffffffffffffffffffffffffffff1614610bfa57600080fd5b610c043383611dd6565b610c0d57600080fd5b600760009054906101000a900473ffffffffffffffffffffffffffffffffffffffff1673ffffffffffffffffffffffffffffffffffffffff166306ab59236008548460001b846040518463ffffffff1660e01b8152600401610c71939291906132c5565b602060405180830381600087803b158015610c8b57600080fd5b505af1158015610c9f573d6000803e3d6000fd5b505050506040513d601f19601f82011682018060405250810190610cc39190612cbe565b505050565b600760009054906101000a900473ffffffffffffffffffffffffffffffffffffffff1681565b610d09838383604051806020016040528060008152506112b1565b505050565b610d16611a21565b73ffffffffffffffffffffffffffffffffffffffff16610d34611099565b73ffffffffffffffffffffffffffffffffffffffff1614610d8a576040517f08c379a0000000000000000000000000000000000000000000000000000000008152600401610d8190613499565b60405180910390fd5b600760009054906101000a900473ffffffffffffffffffffffffffffffffffffffff1673ffffffffffffffffffffffffffffffffffffffff16631896f70a600854836040518363ffffffff1660e01b8152600401610de992919061329c565b600060405180830381600087803b158015610e0357600080fd5b505af1158015610e17573d6000803e3d6000fd5b5050505050565b600042600a60008481526020019081526020016000205411610e3f57600080fd5b610e488261196f565b9050919050565b60008073ffffffffffffffffffffffffffffffffffffffff168273ffffffffffffffffffffffffffffffffffffffff161415610ec0576040517f08c379a0000000000000000000000000000000000000000000000000000000008152600401610eb790613419565b60405180910390fd5b600460008373ffffffffffffffffffffffffffffffffffffffff1673ffffffffffffffffffffffffffffffffffffffff168152602001908152602001600020549050919050565b610f0f611a21565b73ffffffffffffffffffffffffffffffffffffffff16610f2d611099565b73ffffffffffffffffffffffffffffffffffffffff1614610f83576040517f08c379a0000000000000000000000000000000000000000000000000000000008152600401610f7a90613499565b60405180910390fd5b610f8d60006120d2565b565b6000600760009054906101000a900473ffffffffffffffffffffffffffffffffffffffff1673ffffffffffffffffffffffffffffffffffffffff166306ab59236000801b604051602001610fe2906131ea565b6040516020818303038152906040528051906020012060405160200161100992919061319a565b6040516020818303038152906040528051906020012085856040518463ffffffff1660e01b815260040161103f939291906132c5565b602060405180830381600087803b15801561105957600080fd5b505af115801561106d573d6000803e3d6000fd5b505050506040513d601f19601f820116820180604052508101906110919190612cbe565b905092915050565b60008060009054906101000a900473ffffffffffffffffffffffffffffffffffffffff16905090565b6060600280546110d19061376c565b80601f01602080910402602001604051908101604052809291908181526020018280546110fd9061376c565b801561114a5780601f1061111f5761010080835404028352916020019161114a565b820191906000526020600020905b81548152906001019060200180831161112d57829003601f168201915b5050505050905090565b6000426276a700600a60008581526020019081526020016000205461117991906135cd565b109050919050565b61119361118c611a21565b8383612196565b5050565b61119f611a21565b73ffffffffffffffffffffffffffffffffffffffff166111bd611099565b73ffffffffffffffffffffffffffffffffffffffff1614611213576040517f08c379a000000000000000000000000000000000000000000000000000000000815260040161120a90613499565b60405180910390fd5b6001600960008373ffffffffffffffffffffffffffffffffffffffff1673ffffffffffffffffffffffffffffffffffffffff16815260200190815260200160002060006101000a81548160ff0219169083151502179055508073ffffffffffffffffffffffffffffffffffffffff167f0a8bb31534c0ed46f380cb867bd5c803a189ced9a764e30b3a4991a9901d747460405160405180910390a250565b6112c26112bc611a21565b83611dd6565b611301576040517f08c379a00000000000000000000000000000000000000000000000000000000081526004016112f8906134f9565b60405180910390fd5b61130d84848484612303565b50505050565b6276a70081565b60003073ffffffffffffffffffffffffffffffffffffffff16600760009054906101000a900473ffffffffffffffffffffffffffffffffffffffff1673ffffffffffffffffffffffffffffffffffffffff166302571be36008546040518263ffffffff1660e01b81526004016113909190613281565b60206040518083038186803b1580156113a857600080fd5b505afa1580156113bc573d6000803e3d6000fd5b505050506040513d601f19601f820116820180604052508101906113e09190612b17565b73ffffffffffffffffffffffffffffffffffffffff161461140057600080fd5b600960003373ffffffffffffffffffffffffffffffffffffffff1673ffffffffffffffffffffffffffffffffffffffff16815260200190815260200160002060009054906101000a900460ff1661145657600080fd5b426276a700600a60008681526020019081526020016000205461147991906135cd565b101561148457600080fd5b6276a7008261149391906135cd565b6276a70083600a6000878152602001908152602001600020546114b691906135cd565b6114c091906135cd565b116114ca57600080fd5b81600a600085815260200190815260200160002060008282546114ed91906135cd565b92505081905550827f9b87a00e30f1ac65d898f070f8a3488fe60517182d0a2098e1b4b93a54aa9bd6600a6000868152602001908152602001600020546040516115379190613519565b60405180910390a2600a600084815260200190815260200160002054905092915050565b606061156682611903565b6115a5576040517f08c379a000000000000000000000000000000000000000000000000000000000815260040161159c906134b9565b60405180910390fd5b60006115af61235f565b905060008151116115cf57604051806020016040528060008152506115fa565b806115d984612376565b6040516020016115ea9291906131c6565b6040516020818303038152906040525b915050919050565b6000600a6000838152602001908152602001600020549050919050565b60096020528060005260406000206000915054906101000a900460ff1681565b60085481565b6000600660008473ffffffffffffffffffffffffffffffffffffffff1673ffffffffffffffffffffffffffffffffffffffff16815260200190815260200160002060008373ffffffffffffffffffffffffffffffffffffffff1673ffffffffffffffffffffffffffffffffffffffff16815260200190815260200160002060009054906101000a900460ff16905092915050565b6116e1611a21565b73ffffffffffffffffffffffffffffffffffffffff166116ff611099565b73ffffffffffffffffffffffffffffffffffffffff1614611755576040517f08c379a000000000000000000000000000000000000000000000000000000000815260040161174c90613499565b60405180910390fd5b600073ffffffffffffffffffffffffffffffffffffffff168173ffffffffffffffffffffffffffffffffffffffff1614156117c5576040517f08c379a00000000000000000000000000000000000000000000000000000000081526004016117bc90613359565b60405180910390fd5b6117ce816120d2565b50565b6117d9611a21565b73ffffffffffffffffffffffffffffffffffffffff166117f7611099565b73ffffffffffffffffffffffffffffffffffffffff161461184d576040517f08c379a000000000000000000000000000000000000000000000000000000000815260040161184490613499565b60405180910390fd5b6000600960008373ffffffffffffffffffffffffffffffffffffffff1673ffffffffffffffffffffffffffffffffffffffff16815260200190815260200160002060006101000a81548160ff0219169083151502179055508073ffffffffffffffffffffffffffffffffffffffff167f33d83959be2573f5453b12eb9d43b3499bc57d96bd2f067ba44803c859e8111360405160405180910390a250565b60006118fa8484846001611ae2565b90509392505050565b60008073ffffffffffffffffffffffffffffffffffffffff166003600084815260200190815260200160002060009054906101000a900473ffffffffffffffffffffffffffffffffffffffff1673ffffffffffffffffffffffffffffffffffffffff1614159050919050565b6000806003600084815260200190815260200160002060009054906101000a900473ffffffffffffffffffffffffffffffffffffffff169050600073ffffffffffffffffffffffffffffffffffffffff168173ffffffffffffffffffffffffffffffffffffffff161415611a18576040517f08c379a0000000000000000000000000000000000000000000000000000000008152600401611a0f90613439565b60405180910390fd5b80915050919050565b600033905090565b816005600083815260200190815260200160002060006101000a81548173ffffffffffffffffffffffffffffffffffffffff021916908373ffffffffffffffffffffffffffffffffffffffff160217905550808273ffffffffffffffffffffffffffffffffffffffff16611a9c8361196f565b73ffffffffffffffffffffffffffffffffffffffff167f8c5be1e5ebec7d5bd14f71427d1e84f3dd0314c0f7b2291e5b200ac8c7c3b92560405160405180910390a45050565b60003073ffffffffffffffffffffffffffffffffffffffff16600760009054906101000a900473ffffffffffffffffffffffffffffffffffffffff1673ffffffffffffffffffffffffffffffffffffffff166302571be36008546040518263ffffffff1660e01b8152600401611b589190613281565b60206040518083038186803b158015611b7057600080fd5b505afa158015611b84573d6000803e3d6000fd5b505050506040513d601f19601f82011682018060405250810190611ba89190612b17565b73ffffffffffffffffffffffffffffffffffffffff1614611bc857600080fd5b600960003373ffffffffffffffffffffffffffffffffffffffff1673ffffffffffffffffffffffffffffffffffffffff16815260200190815260200160002060009054906101000a900460ff16611c1e57600080fd5b611c2785611154565b611c3057600080fd5b6276a70042611c3f91906135cd565b6276a7008442611c4f91906135cd565b611c5991906135cd565b11611c6357600080fd5b8242611c6f91906135cd565b600a600087815260200190815260200160002081905550611c8f85611903565b15611c9e57611c9d85612523565b5b611ca88486612640565b8115611d6657600760009054906101000a900473ffffffffffffffffffffffffffffffffffffffff1673ffffffffffffffffffffffffffffffffffffffff166306ab59236008548760001b876040518463ffffffff1660e01b8152600401611d12939291906132c5565b602060405180830381600087803b158015611d2c57600080fd5b505af1158015611d40573d6000803e3d6000fd5b505050506040513d601f19601f82011682018060405250810190611d649190612cbe565b505b8373ffffffffffffffffffffffffffffffffffffffff16857fb3d987963d01b2f68493b4bdb130988f157ea43070d4ad840fee0466ed9370d98542611dab91906135cd565b604051611db89190613519565b60405180910390a38242611dcc91906135cd565b9050949350505050565b600080611de283610e1e565b90508073ffffffffffffffffffffffffffffffffffffffff168473ffffffffffffffffffffffffffffffffffffffff161480611e5157508373ffffffffffffffffffffffffffffffffffffffff16611e3984610901565b73ffffffffffffffffffffffffffffffffffffffff16145b80611e625750611e618185611645565b5b91505092915050565b8273ffffffffffffffffffffffffffffffffffffffff16611e8b8261196f565b73ffffffffffffffffffffffffffffffffffffffff1614611ee1576040517f08c379a0000000000000000000000000000000000000000000000000000000008152600401611ed890613379565b60405180910390fd5b600073ffffffffffffffffffffffffffffffffffffffff168273ffffffffffffffffffffffffffffffffffffffff161415611f51576040517f08c379a0000000000000000000000000000000000000000000000000000000008152600401611f48906133b9565b60405180910390fd5b611f5c83838361281a565b611f67600082611a29565b6001600460008573ffffffffffffffffffffffffffffffffffffffff1673ffffffffffffffffffffffffffffffffffffffff1681526020019081526020016000206000828254611fb79190613654565b925050819055506001600460008473ffffffffffffffffffffffffffffffffffffffff1673ffffffffffffffffffffffffffffffffffffffff168152602001908152602001600020600082825461200e91906135cd565b92505081905550816003600083815260200190815260200160002060006101000a81548173ffffffffffffffffffffffffffffffffffffffff021916908373ffffffffffffffffffffffffffffffffffffffff160217905550808273ffffffffffffffffffffffffffffffffffffffff168473ffffffffffffffffffffffffffffffffffffffff167fddf252ad1be2c89b69c2b068fc378daa952ba7f163c4a11628f55a4df523b3ef60405160405180910390a46120cd83838361281f565b505050565b60008060009054906101000a900473ffffffffffffffffffffffffffffffffffffffff169050816000806101000a81548173ffffffffffffffffffffffffffffffffffffffff021916908373ffffffffffffffffffffffffffffffffffffffff1602179055508173ffffffffffffffffffffffffffffffffffffffff168173ffffffffffffffffffffffffffffffffffffffff167f8be0079c531659141344cd1fd0a4f28419497f9722a3daafe3b4186f6b6457e060405160405180910390a35050565b8173ffffffffffffffffffffffffffffffffffffffff168373ffffffffffffffffffffffffffffffffffffffff161415612205576040517f08c379a00000000000000000000000000000000000000000000000000000000081526004016121fc906133d9565b60405180910390fd5b80600660008573ffffffffffffffffffffffffffffffffffffffff1673ffffffffffffffffffffffffffffffffffffffff16815260200190815260200160002060008473ffffffffffffffffffffffffffffffffffffffff1673ffffffffffffffffffffffffffffffffffffffff16815260200190815260200160002060006101000a81548160ff0219169083151502179055508173ffffffffffffffffffffffffffffffffffffffff168373ffffffffffffffffffffffffffffffffffffffff167f17307eab39ab6107e8899845ad3d59bd9653f200f220920489ca2b5937696c31836040516122f69190613266565b60405180910390a3505050565b61230e848484611e6b565b61231a84848484612824565b612359576040517f08c379a000000000000000000000000000000000000000000000000000000000815260040161235090613339565b60405180910390fd5b50505050565b606060405180602001604052806000815250905090565b606060008214156123be576040518060400160405280600181526020017f3000000000000000000000000000000000000000000000000000000000000000815250905061251e565b600082905060005b600082146123f05780806123d9906137cf565b915050600a826123e99190613623565b91506123c6565b60008167ffffffffffffffff811115612432577f4e487b7100000000000000000000000000000000000000000000000000000000600052604160045260246000fd5b6040519080825280601f01601f1916602001820160405280156124645781602001600182028036833780820191505090505b5090505b600085146125175760018261247d9190613654565b9150600a8561248c9190613822565b603061249891906135cd565b60f81b8183815181106124d4577f4e487b7100000000000000000000000000000000000000000000000000000000600052603260045260246000fd5b60200101907effffffffffffffffffffffffffffffffffffffffffffffffffffffffffffff1916908160001a905350600a856125109190613623565b9450612468565b8093505050505b919050565b600061252e8261196f565b905061253c8160008461281a565b612547600083611a29565b6001600460008373ffffffffffffffffffffffffffffffffffffffff1673ffffffffffffffffffffffffffffffffffffffff16815260200190815260200160002060008282546125979190613654565b925050819055506003600083815260200190815260200160002060006101000a81549073ffffffffffffffffffffffffffffffffffffffff021916905581600073ffffffffffffffffffffffffffffffffffffffff168273ffffffffffffffffffffffffffffffffffffffff167fddf252ad1be2c89b69c2b068fc378daa952ba7f163c4a11628f55a4df523b3ef60405160405180910390a461263c8160008461281f565b5050565b600073ffffffffffffffffffffffffffffffffffffffff168273ffffffffffffffffffffffffffffffffffffffff1614156126b0576040517f08c379a00000000000000000000000000000000000000000000000000000000081526004016126a790613459565b60405180910390fd5b6126b981611903565b156126f9576040517f08c379a00000000000000000000000000000000000000000000000000000000081526004016126f090613399565b60405180910390fd5b6127056000838361281a565b6001600460008473ffffffffffffffffffffffffffffffffffffffff1673ffffffffffffffffffffffffffffffffffffffff168152602001908152602001600020600082825461275591906135cd565b92505081905550816003600083815260200190815260200160002060006101000a81548173ffffffffffffffffffffffffffffffffffffffff021916908373ffffffffffffffffffffffffffffffffffffffff160217905550808273ffffffffffffffffffffffffffffffffffffffff16600073ffffffffffffffffffffffffffffffffffffffff167fddf252ad1be2c89b69c2b068fc378daa952ba7f163c4a11628f55a4df523b3ef60405160405180910390a46128166000838361281f565b5050565b505050565b505050565b60006128458473ffffffffffffffffffffffffffffffffffffffff166129bb565b156129ae578373ffffffffffffffffffffffffffffffffffffffff1663150b7a0261286e611a21565b8786866040518563ffffffff1660e01b8152600401612890949392919061321a565b602060405180830381600087803b1580156128aa57600080fd5b505af19250505080156128db57506040513d601f19601f820116820180604052508101906128d89190612d4c565b60015b61295e573d806000811461290b576040519150601f19603f3d011682016040523d82523d6000602084013e612910565b606091505b50600081511415612956576040517f08c379a000000000000000000000000000000000000000000000000000000000815260040161294d90613339565b60405180910390fd5b805181602001fd5b63150b7a0260e01b7bffffffffffffffffffffffffffffffffffffffffffffffffffffffff1916817bffffffffffffffffffffffffffffffffffffffffffffffffffffffff1916149150506129b3565b600190505b949350505050565b6000808273ffffffffffffffffffffffffffffffffffffffff163b119050919050565b60006129f16129ec84613559565b613534565b905082815260208101848484011115612a0957600080fd5b612a1484828561372a565b509392505050565b600081359050612a2b81613d52565b92915050565b600081519050612a4081613d52565b92915050565b600081359050612a5581613d69565b92915050565b600081359050612a6a81613d80565b92915050565b600081519050612a7f81613d80565b92915050565b600081359050612a9481613d97565b92915050565b600081519050612aa981613d97565b92915050565b600082601f830112612ac057600080fd5b8135612ad08482602086016129de565b91505092915050565b600081359050612ae881613dae565b92915050565b600060208284031215612b0057600080fd5b6000612b0e84828501612a1c565b91505092915050565b600060208284031215612b2957600080fd5b6000612b3784828501612a31565b91505092915050565b60008060408385031215612b5357600080fd5b6000612b6185828601612a1c565b9250506020612b7285828601612a1c565b9150509250929050565b600080600060608486031215612b9157600080fd5b6000612b9f86828701612a1c565b9350506020612bb086828701612a1c565b9250506040612bc186828701612ad9565b9150509250925092565b60008060008060808587031215612be157600080fd5b6000612bef87828801612a1c565b9450506020612c0087828801612a1c565b9350506040612c1187828801612ad9565b925050606085013567ffffffffffffffff811115612c2e57600080fd5b612c3a87828801612aaf565b91505092959194509250565b60008060408385031215612c5957600080fd5b6000612c6785828601612a1c565b9250506020612c7885828601612a46565b9150509250929050565b60008060408385031215612c9557600080fd5b6000612ca385828601612a1c565b9250506020612cb485828601612ad9565b9150509250929050565b600060208284031215612cd057600080fd5b6000612cde84828501612a70565b91505092915050565b60008060408385031215612cfa57600080fd5b6000612d0885828601612a5b565b9250506020612d1985828601612a1c565b9150509250929050565b600060208284031215612d3557600080fd5b6000612d4384828501612a85565b91505092915050565b600060208284031215612d5e57600080fd5b6000612d6c84828501612a9a565b91505092915050565b600060208284031215612d8757600080fd5b6000612d9584828501612ad9565b91505092915050565b60008060408385031215612db157600080fd5b6000612dbf85828601612ad9565b9250506020612dd085828601612a1c565b9150509250929050565b600080600060608486031215612def57600080fd5b6000612dfd86828701612ad9565b9350506020612e0e86828701612a1c565b9250506040612e1f86828701612ad9565b9150509250925092565b60008060408385031215612e3c57600080fd5b6000612e4a85828601612ad9565b9250506020612e5b85828601612ad9565b9150509250929050565b612e6e81613688565b82525050565b612e7d8161369a565b82525050565b612e8c816136a6565b82525050565b612ea3612e9e826136a6565b613818565b82525050565b6000612eb48261358a565b612ebe81856135a0565b9350612ece818560208601613739565b612ed78161390f565b840191505092915050565b612eeb81613706565b82525050565b6000612efc82613595565b612f0681856135b1565b9350612f16818560208601613739565b612f1f8161390f565b840191505092915050565b6000612f3582613595565b612f3f81856135c2565b9350612f4f818560208601613739565b80840191505092915050565b6000612f686003836135c2565b9150612f7382613920565b600382019050919050565b6000612f8b6032836135b1565b9150612f9682613949565b604082019050919050565b6000612fae6026836135b1565b9150612fb982613998565b604082019050919050565b6000612fd16025836135b1565b9150612fdc826139e7565b604082019050919050565b6000612ff4601c836135b1565b9150612fff82613a36565b602082019050919050565b60006130176024836135b1565b915061302282613a5f565b604082019050919050565b600061303a6019836135b1565b915061304582613aae565b602082019050919050565b600061305d6038836135b1565b915061306882613ad7565b604082019050919050565b6000613080602a836135b1565b915061308b82613b26565b604082019050919050565b60006130a36029836135b1565b91506130ae82613b75565b604082019050919050565b60006130c66020836135b1565b91506130d182613bc4565b602082019050919050565b60006130e9602c836135b1565b91506130f482613bed565b604082019050919050565b600061310c6020836135b1565b915061311782613c3c565b602082019050919050565b600061312f602f836135b1565b915061313a82613c65565b604082019050919050565b60006131526021836135b1565b915061315d82613cb4565b604082019050919050565b60006131756031836135b1565b915061318082613d03565b604082019050919050565b613194816136fc565b82525050565b60006131a68285612e92565b6020820191506131b68284612e92565b6020820191508190509392505050565b60006131d28285612f2a565b91506131de8284612f2a565b91508190509392505050565b60006131f582612f5b565b9150819050919050565b60006020820190506132146000830184612e65565b92915050565b600060808201905061322f6000830187612e65565b61323c6020830186612e65565b613249604083018561318b565b818103606083015261325b8184612ea9565b905095945050505050565b600060208201905061327b6000830184612e74565b92915050565b60006020820190506132966000830184612e83565b92915050565b60006040820190506132b16000830185612e83565b6132be6020830184612e65565b9392505050565b60006060820190506132da6000830186612e83565b6132e76020830185612e83565b6132f46040830184612e65565b949350505050565b60006020820190506133116000830184612ee2565b92915050565b600060208201905081810360008301526133318184612ef1565b905092915050565b6000602082019050818103600083015261335281612f7e565b9050919050565b6000602082019050818103600083015261337281612fa1565b9050919050565b6000602082019050818103600083015261339281612fc4565b9050919050565b600060208201905081810360008301526133b281612fe7565b9050919050565b600060208201905081810360008301526133d28161300a565b9050919050565b600060208201905081810360008301526133f28161302d565b9050919050565b6000602082019050818103600083015261341281613050565b9050919050565b6000602082019050818103600083015261343281613073565b9050919050565b6000602082019050818103600083015261345281613096565b9050919050565b60006020820190508181036000830152613472816130b9565b9050919050565b60006020820190508181036000830152613492816130dc565b9050919050565b600060208201905081810360008301526134b2816130ff565b9050919050565b600060208201905081810360008301526134d281613122565b9050919050565b600060208201905081810360008301526134f281613145565b9050919050565b6000602082019050818103600083015261351281613168565b9050919050565b600060208201905061352e600083018461318b565b92915050565b600061353e61354f565b905061354a828261379e565b919050565b6000604051905090565b600067ffffffffffffffff821115613574576135736138e0565b5b61357d8261390f565b9050602081019050919050565b600081519050919050565b600081519050919050565b600082825260208201905092915050565b600082825260208201905092915050565b600081905092915050565b60006135d8826136fc565b91506135e3836136fc565b9250827fffffffffffffffffffffffffffffffffffffffffffffffffffffffffffffffff0382111561361857613617613853565b5b828201905092915050565b600061362e826136fc565b9150613639836136fc565b92508261364957613648613882565b5b828204905092915050565b600061365f826136fc565b915061366a836136fc565b92508282101561367d5761367c613853565b5b828203905092915050565b6000613693826136dc565b9050919050565b60008115159050919050565b6000819050919050565b60007fffffffff0000000000000000000000000000000000000000000000000000000082169050919050565b600073ffffffffffffffffffffffffffffffffffffffff82169050919050565b6000819050919050565b600061371182613718565b9050919050565b6000613723826136dc565b9050919050565b82818337600083830152505050565b60005b8381101561375757808201518184015260208101905061373c565b83811115613766576000848401525b50505050565b6000600282049050600182168061378457607f821691505b60208210811415613798576137976138b1565b5b50919050565b6137a78261390f565b810181811067ffffffffffffffff821117156137c6576137c56138e0565b5b80604052505050565b60006137da826136fc565b91507fffffffffffffffffffffffffffffffffffffffffffffffffffffffffffffffff82141561380d5761380c613853565b5b600182019050919050565b6000819050919050565b600061382d826136fc565b9150613838836136fc565b92508261384857613847613882565b5b828206905092915050565b7f4e487b7100000000000000000000000000000000000000000000000000000000600052601160045260246000fd5b7f4e487b7100000000000000000000000000000000000000000000000000000000600052601260045260246000fd5b7f4e487b7100000000000000000000000000000000000000000000000000000000600052602260045260246000fd5b7f4e487b7100000000000000000000000000000000000000000000000000000000600052604160045260246000fd5b6000601f19601f8301169050919050565b7f6664730000000000000000000000000000000000000000000000000000000000600082015250565b7f4552433732313a207472616e7366657220746f206e6f6e20455243373231526560008201527f63656976657220696d706c656d656e7465720000000000000000000000000000602082015250565b7f4f776e61626c653a206e6577206f776e657220697320746865207a65726f206160008201527f6464726573730000000000000000000000000000000000000000000000000000602082015250565b7f4552433732313a207472616e736665722066726f6d20696e636f72726563742060008201527f6f776e6572000000000000000000000000000000000000000000000000000000602082015250565b7f4552433732313a20746f6b656e20616c7265616479206d696e74656400000000600082015250565b7f4552433732313a207472616e7366657220746f20746865207a65726f2061646460008201527f7265737300000000000000000000000000000000000000000000000000000000602082015250565b7f4552433732313a20617070726f766520746f2063616c6c657200000000000000600082015250565b7f4552433732313a20617070726f76652063616c6c6572206973206e6f74206f7760008201527f6e6572206e6f7220617070726f76656420666f7220616c6c0000000000000000602082015250565b7f4552433732313a2062616c616e636520717565727920666f7220746865207a6560008201527f726f206164647265737300000000000000000000000000000000000000000000602082015250565b7f4552433732313a206f776e657220717565727920666f72206e6f6e657869737460008201527f656e7420746f6b656e0000000000000000000000000000000000000000000000602082015250565b7f4552433732313a206d696e7420746f20746865207a65726f2061646472657373600082015250565b7f4552433732313a20617070726f76656420717565727920666f72206e6f6e657860008201527f697374656e7420746f6b656e0000000000000000000000000000000000000000602082015250565b7f4f776e61626c653a2063616c6c6572206973206e6f7420746865206f776e6572600082015250565b7f4552433732314d657461646174613a2055524920717565727920666f72206e6f60008201527f6e6578697374656e7420746f6b656e0000000000000000000000000000000000602082015250565b7f4552433732313a20617070726f76616c20746f2063757272656e74206f776e6560008201527f7200000000000000000000000000000000000000000000000000000000000000602082015250565b7f4552433732313a207472616e736665722063616c6c6572206973206e6f74206f60008201527f776e6572206e6f7220617070726f766564000000000000000000000000000000602082015250565b613d5b81613688565b8114613d6657600080fd5b50565b613d728161369a565b8114613d7d57600080fd5b50565b613d89816136a6565b8114613d9457600080fd5b50565b613da0816136b0565b8114613dab57600080fd5b50565b613db7816136fc565b8114613dc257600080fd5b5056fea26469706673582212204bc9ff5d49289a8b0c3575aba60ca7a82adbe9572cfcf6b2965140eb596d3acf64736f6c63430008040033",
  "linkReferences": {},
  "deployedLinkReferences": {}
}