{
  "_format": "hh-sol-artifact-1",
  "contractName": "FDSNameResolver",
  "sourceName": "contracts/FDSNameResolver.sol",
  "abi": [
    {
      "inputs": [
        {
          "internalType": "address",
          "name": "_reverseRegistrarAddress",
          "type": "address"
        }
      ],
      "stateMutability": "nonpayable",
      "type": "constructor"
    },
    {
      "inputs": [
        {
          "internalType": "bytes32",
          "name": "node",
          "type": "bytes32"
        }
      ],
      "name": "name",
      "outputs": [
        {
          "internalType": "bytes32",
          "name": "",
          "type": "bytes32"
        }
      ],
      "stateMutability": "view",
      "type": "function"
    },
    {
      "inputs": [
        {
          "internalType": "bytes32",
          "name": "node",
          "type": "bytes32"
        },
        {
          "internalType": "bytes32",
          "name": "ensNode",
          "type": "bytes32"
        }
      ],
      "name": "setName",
      "outputs": [],
      "stateMutability": "nonpayable",
      "type": "function"
    }
  ],
  "bytecode": "0x608060405234801561001057600080fd5b506040516103213803806103218339818101604052810190610032919061008d565b806000806101000a81548173ffffffffffffffffffffffffffffffffffffffff021916908373ffffffffffffffffffffffffffffffffffffffff160217905550506100ff565b600081519050610087816100e8565b92915050565b60006020828403121561009f57600080fd5b60006100ad84828501610078565b91505092915050565b60006100c1826100c8565b9050919050565b600073ffffffffffffffffffffffffffffffffffffffff82169050919050565b6100f1816100b6565b81146100fc57600080fd5b50565b6102138061010e6000396000f3fe608060405234801561001057600080fd5b50600436106100365760003560e01c8063691f34311461003b578063f95bb91e1461006b575b600080fd5b6100556004803603810190610050919061012d565b610087565b60405161006291906101a1565b60405180910390f35b61008560048036038101906100809190610156565b6100a4565b005b600060016000838152602001908152602001600020549050919050565b60008054906101000a900473ffffffffffffffffffffffffffffffffffffffff1673ffffffffffffffffffffffffffffffffffffffff163373ffffffffffffffffffffffffffffffffffffffff16146100fc57600080fd5b8060016000848152602001908152602001600020819055505050565b600081359050610127816101c6565b92915050565b60006020828403121561013f57600080fd5b600061014d84828501610118565b91505092915050565b6000806040838503121561016957600080fd5b600061017785828601610118565b925050602061018885828601610118565b9150509250929050565b61019b816101bc565b82525050565b60006020820190506101b66000830184610192565b92915050565b6000819050919050565b6101cf816101bc565b81146101da57600080fd5b5056fea264697066735822122017c6c53d182de6fd489cb5ddd77e39f05b3fb949b59446a40ca5070291a3bea164736f6c63430008040033",
  "linkReferences": {},
  "deployedLinkReferences": {}
}