{
  "_format": "hh-sol-artifact-1",
  "contractName": "FDSNameResolver",
  "sourceName": "contracts/FDSNameResolver.sol",
  "abi": [
    {
      "inputs": [
        {
          "internalType": "address",
          "name": "_reverseRegistrarAddress",
          "type": "address"
        }
      ],
      "stateMutability": "nonpayable",
      "type": "constructor"
    },
    {
      "inputs": [
        {
          "internalType": "bytes32",
          "name": "node",
          "type": "bytes32"
        }
      ],
      "name": "name",
      "outputs": [
        {
          "internalType": "bytes32",
          "name": "",
          "type": "bytes32"
        }
      ],
      "stateMutability": "view",
      "type": "function"
    },
    {
      "inputs": [
        {
          "internalType": "bytes32",
          "name": "node",
          "type": "bytes32"
        },
        {
          "internalType": "bytes32",
          "name": "ensNode",
          "type": "bytes32"
        }
      ],
      "name": "setName",
      "outputs": [],
      "stateMutability": "nonpayable",
      "type": "function"
    }
  ],
  "bytecode": "0x608060405234801561001057600080fd5b5060405161019d38038061019d83398101604081905261002f91610054565b600080546001600160a01b0319166001600160a01b0392909216919091179055610082565b600060208284031215610065578081fd5b81516001600160a01b038116811461007b578182fd5b9392505050565b61010c806100916000396000f3fe6080604052348015600f57600080fd5b506004361060325760003560e01c8063691f3431146037578063f95bb91e146066575b600080fd5b60546042366004609f565b60009081526001602052604090205490565b60405190815260200160405180910390f35b6075607136600460b6565b6077565b005b6000546001600160a01b03163314608d57600080fd5b60009182526001602052604090912055565b60006020828403121560af578081fd5b5035919050565b6000806040838503121560c7578081fd5b5050803592602090910135915056fea264697066735822122033e79f8cb4e6aba9be77c43501a6dc86c36e8e6e4567f76da6c48e64f9703bfc64736f6c63430008040033",
  "linkReferences": {},
  "deployedLinkReferences": {}
}