{
    "contractName": "BMTFile",
    "abi": [
        {
            "inputs": [
                {
                    "internalType": "uint256",
                    "name": "x",
                    "type": "uint256"
                }
            ],
            "name": "PRBMathUD60x18__LogInputTooSmall",
            "type": "error"
        },
        {
            "inputs": [],
            "name": "MAX_CHUNK_PAYLOAD_SIZE",
            "outputs": [
                {
                    "internalType": "uint256",
                    "name": "",
                    "type": "uint256"
                }
            ],
            "stateMutability": "view",
            "type": "function"
        },
        {
            "inputs": [],
            "name": "SEGMENT_SIZE",
            "outputs": [
                {
                    "internalType": "uint256",
                    "name": "",
                    "type": "uint256"
                }
            ],
            "stateMutability": "view",
            "type": "function"
        },
        {
            "inputs": [
                {
                    "components": [
                        {
                            "internalType": "bytes",
                            "name": "span",
                            "type": "bytes"
                        },
                        {
                            "internalType": "bytes32[]",
                            "name": "sisterSegments",
                            "type": "bytes32[]"
                        }
                    ],
                    "internalType": "struct BMTChunk.ChunkInclusionProof[]",
                    "name": "_proveChunks",
                    "type": "tuple[]"
                },
                {
                    "internalType": "bytes32",
                    "name": "_proveSegment",
                    "type": "bytes32"
                },
                {
                    "internalType": "uint256",
                    "name": "_proveSegmentIndex",
                    "type": "uint256"
                },
                {
                    "internalType": "uint256",
                    "name": "_maxChunkPayloadByteLength",
                    "type": "uint256"
                }
            ],
            "name": "fileAddressFromInclusionProof",
            "outputs": [
                {
                    "internalType": "bytes32",
                    "name": "_calculatedHash",
                    "type": "bytes32"
                }
            ],
            "stateMutability": "pure",
            "type": "function"
        },
        {
            "inputs": [
                {
                    "internalType": "uint256",
                    "name": "segmentIndex",
                    "type": "uint256"
                },
                {
                    "internalType": "uint256",
                    "name": "lastChunkIndex",
                    "type": "uint256"
                },
                {
                    "internalType": "uint256",
                    "name": "maxChunkPayloadByteLength",
                    "type": "uint256"
                }
            ],
            "name": "getBmtIndexOfSegment",
            "outputs": [
                {
                    "internalType": "uint256",
                    "name": "level",
                    "type": "uint256"
                },
                {
                    "internalType": "uint256",
                    "name": "chunkIndex",
                    "type": "uint256"
                }
            ],
            "stateMutability": "pure",
            "type": "function"
        },
        {
            "inputs": [
                {
                    "internalType": "bytes32",
                    "name": "_calculatedHash",
                    "type": "bytes32"
                },
                {
                    "internalType": "bytes32",
                    "name": "_proofSegment",
                    "type": "bytes32"
                },
                {
                    "internalType": "bool",
                    "name": "mergeFromRight",
                    "type": "bool"
                }
            ],
            "name": "mergeSegmentFromRight",
            "outputs": [
                {
                    "internalType": "bytes32",
                    "name": "res",
                    "type": "bytes32"
                }
            ],
            "stateMutability": "pure",
            "type": "function"
        },
        {
            "inputs": [
                {
                    "internalType": "bytes32[]",
                    "name": "_proofSegments",
                    "type": "bytes32[]"
                },
                {
                    "internalType": "bytes32",
                    "name": "_proveSegment",
                    "type": "bytes32"
                },
                {
                    "internalType": "uint256",
                    "name": "_proveSegmentIndex",
                    "type": "uint256"
                }
            ],
            "name": "rootHashFromInclusionProof",
            "outputs": [
                {
                    "internalType": "bytes32",
                    "name": "_calculatedHash",
                    "type": "bytes32"
                }
            ],
            "stateMutability": "pure",
            "type": "function"
        }
    ],
    "bytecode": "608060405234801561001057600080fd5b50610b3f806100206000396000f3fe608060405234801561001057600080fd5b50600436106100625760003560e01c80634d10905a146100675780635c390cad1461008d57806380e829c814610096578063a2c76f9e146100be578063a984f0f8146100c6578063b702336c146100d9575b600080fd5b61007a6100753660046107f6565b6100ec565b6040519081526020015b60405180910390f35b61007a61100081565b6100a96100a4366004610980565b6102f8565b60408051928352602083019190915201610084565b61007a602081565b61007a6100d43660046109ac565b610390565b61007a6100e73660046109fa565b6103f6565b6000816000036100fc5761100091505b600061012061010c602085610a64565b670de0b6b3a7640000810680151502900390565b9050600061012d82610475565b9050600061016f60008960018b516101459190610a78565b8151811061015557610155610a8f565b60200260200101516000015161053090919063ffffffff16565b9050600061018c86610182600185610a78565b61010c9190610a64565b905087945060005b89518110156102eb576000806101ab8a858b6102f8565b9150915060005b8c84815181106101c4576101c4610a8f565b6020026020010151602001515181101561025d5760006101e560028d610aa5565b156101f15760006101f4565b60015b90506102378a8f878151811061020c5761020c610a8f565b602002602001015160200151848151811061022957610229610a8f565b6020026020010151836103f6565b995061024761010c60028e610a64565b9b5050808061025590610ab9565b9150506101b2565b506102af8860405160200161027491815260200190565b6040516020818303038152906040528d858151811061029557610295610a8f565b60200260200101516000015161058e90919063ffffffff16565b80519060200120975081995085816102c79190610ad2565b6102d19087610af1565b84901c9350505080806102e390610ab9565b915050610194565b5050505050949350505050565b6000808061030a61010c602086610a64565b9050600061031782610475565b90508561032761010c848a610a64565b14801561033b57506103398287610aa5565b155b801561034657508515155b1561037e5795861c955b61035b602088610aa5565b600003610379578361036c81610ab9565b97821c9794506103509050565b610383565b95861c955b5094959194509092505050565b8160005b84518110156103ee5760006103aa600285610aa5565b156103b65760006103b9565b60015b90506103d18387848151811061022957610229610a8f565b9250600184901c93505080806103e690610ab9565b915050610394565b509392505050565b6000808460405160200161040c91815260200190565b60408051601f1981840301815282825260208301879052925060009101604051602081830303815290604052905083156104585761044a828261058e565b80519060200120925061046c565b610462818361058e565b8051906020012092505b50509392505050565b6000670de0b6b3a76400008210156104a857604051633621413760e21b8152600481018390526024015b60405180910390fd5b60006104bd670de0b6b3a7640000840461060b565b670de0b6b3a764000081029250905082811c670de0b6b3a763ffff1981016104e6575050919050565b6706f05b59d3b200005b801561052857670de0b6b3a7640000828002049150671bc16d674ec800008210610520579283019260019190911c905b60011c6104f0565b505050919050565b600061053d826020610af1565b835110156105855760405162461bcd60e51b8152602060048201526015602482015274746f55696e743235365f6f75744f66426f756e647360581b604482015260640161049f565b50016020015190565b6060806040519050835180825260208201818101602087015b818310156105bf5780518352602092830192016105a7565b50855184518101855292509050808201602086015b818310156105ec5780518352602092830192016105d4565b508651929092011591909101601f01601f191660405250905092915050565b6000600160801b821061062b57608091821c916106289082610af1565b90505b68010000000000000000821061064e57604091821c9161064b9082610af1565b90505b640100000000821061066d57602091821c9161066a9082610af1565b90505b62010000821061068a57601091821c916106879082610af1565b90505b61010082106106a657600891821c916106a39082610af1565b90505b601082106106c157600491821c916106be9082610af1565b90505b600482106106dc57600291821c916106d99082610af1565b90505b600282106106f2576106ef600182610af1565b90505b919050565b634e487b7160e01b600052604160045260246000fd5b6040805190810167ffffffffffffffff81118282101715610730576107306106f7565b60405290565b604051601f8201601f1916810167ffffffffffffffff8111828210171561075f5761075f6106f7565b604052919050565b600067ffffffffffffffff821115610781576107816106f7565b5060051b60200190565b600082601f83011261079c57600080fd5b813560206107b16107ac83610767565b610736565b82815260059290921b840181019181810190868411156107d057600080fd5b8286015b848110156107eb57803583529183019183016107d4565b509695505050505050565b6000806000806080858703121561080c57600080fd5b67ffffffffffffffff808635111561082357600080fd5b8535860187601f82011261083657600080fd5b6108436107ac8235610767565b81358082526020808301929160051b8401018a101561086157600080fd5b602083015b6020843560051b85010181101561096257848135111561088557600080fd5b80358401601f196040828e038201121561089e57600080fd5b6108a661070d565b87602084013511156108b757600080fd5b602083013583018e603f8201126108cd57600080fd5b6020810135898111156108e2576108e26106f7565b6108f3602085601f84011601610736565b93508084528f604082840101111561090a57600080fd5b806040830160208601376000602082860101525050818152876040840135111561093357600080fd5b6109468e6020604086013586010161078b565b6020820152808652505050602083019250602081019050610866565b50996020890135995060408901359860600135975095505050505050565b60008060006060848603121561099557600080fd5b505081359360208301359350604090920135919050565b6000806000606084860312156109c157600080fd5b833567ffffffffffffffff8111156109d857600080fd5b6109e48682870161078b565b9660208601359650604090950135949350505050565b600080600060608486031215610a0f57600080fd5b833592506020840135915060408401358015158114610a2d57600080fd5b809150509250925092565b634e487b7160e01b600052601260045260246000fd5b634e487b7160e01b600052601160045260246000fd5b600082610a7357610a73610a38565b500490565b600082821015610a8a57610a8a610a4e565b500390565b634e487b7160e01b600052603260045260246000fd5b600082610ab457610ab4610a38565b500690565b600060018201610acb57610acb610a4e565b5060010190565b6000816000190483118215151615610aec57610aec610a4e565b500290565b60008219821115610b0457610b04610a4e565b50019056fea2646970667358221220bfc7835b746f99d47206c53a543926a2d124e77b666db9aca8c83b9fabd6832d64736f6c634300080d0033",
    "sourcePath": "/home/rush/Code/fds/fdp-contracts/contracts/BMTFile.sol",
    "compiler": {
        "name": "solc",
        "version": "0.8.13+commit.abaa5c0e"
    },
    "functionHashes": {
        "MAX_CHUNK_PAYLOAD_SIZE()": "5c390cad",
        "SEGMENT_SIZE()": "a2c76f9e",
        "fileAddressFromInclusionProof((bytes,bytes32[])[],bytes32,uint256,uint256)": "4d10905a",
        "getBmtIndexOfSegment(uint256,uint256,uint256)": "80e829c8",
        "mergeSegmentFromRight(bytes32,bytes32,bool)": "b702336c",
        "rootHashFromInclusionProof(bytes32[],bytes32,uint256)": "a984f0f8"
    },
    "gasEstimates": {
        "creation": {
            "codeDepositCost": "575800",
            "executionCost": "606",
            "totalCost": "576406"
        },
        "external": {
            "MAX_CHUNK_PAYLOAD_SIZE()": "184",
            "SEGMENT_SIZE()": "228",
            "fileAddressFromInclusionProof((bytes,bytes32[])[],bytes32,uint256,uint256)": "infinite",
            "getBmtIndexOfSegment(uint256,uint256,uint256)": "infinite",
            "mergeSegmentFromRight(bytes32,bytes32,bool)": "infinite",
            "rootHashFromInclusionProof(bytes32[],bytes32,uint256)": "infinite"
        }
    }
}