{
  "_format": "hh-sol-artifact-1",
  "contractName": "SubdomainRegistrar",
  "sourceName": "contracts/SubdomainRegistrar.sol",
  "abi": [
    {
      "inputs": [
        {
          "internalType": "contract ENS",
          "name": "_ensAddr",
          "type": "address"
        },
        {
          "internalType": "bytes32",
          "name": "_node",
          "type": "bytes32"
        }
      ],
      "stateMutability": "nonpayable",
      "type": "constructor"
    },
    {
      "anonymous": false,
      "inputs": [
        {
          "indexed": false,
          "internalType": "address",
          "name": "owner",
          "type": "address"
        },
        {
          "indexed": false,
          "internalType": "bytes32",
          "name": "label",
          "type": "bytes32"
        }
      ],
      "name": "Log",
      "type": "event"
    },
    {
      "inputs": [],
      "name": "ens",
      "outputs": [
        {
          "internalType": "contract ENS",
          "name": "",
          "type": "address"
        }
      ],
      "stateMutability": "view",
      "type": "function"
    },
    {
      "inputs": [
        {
          "internalType": "bytes32",
          "name": "",
          "type": "bytes32"
        }
      ],
      "name": "expiryTimes",
      "outputs": [
        {
          "internalType": "uint256",
          "name": "",
          "type": "uint256"
        }
      ],
      "stateMutability": "view",
      "type": "function"
    },
    {
      "inputs": [
        {
          "internalType": "bytes32",
          "name": "_label",
          "type": "bytes32"
        },
        {
          "internalType": "address",
          "name": "_owner",
          "type": "address"
        }
      ],
      "name": "register",
      "outputs": [],
      "stateMutability": "nonpayable",
      "type": "function"
    },
    {
      "inputs": [],
      "name": "rootNode",
      "outputs": [
        {
          "internalType": "bytes32",
          "name": "",
          "type": "bytes32"
        }
      ],
      "stateMutability": "view",
      "type": "function"
    }
  ],
  "bytecode": "0x608060405234801561001057600080fd5b506040516106c03803806106c0833981810160405281019061003291906100aa565b816000806101000a81548173ffffffffffffffffffffffffffffffffffffffff021916908373ffffffffffffffffffffffffffffffffffffffff160217905550806001819055505050610162565b60008151905061008f81610134565b92915050565b6000815190506100a48161014b565b92915050565b600080604083850312156100bd57600080fd5b60006100cb85828601610095565b92505060206100dc85828601610080565b9150509250929050565b60006100f182610114565b9050919050565b6000819050919050565b600061010d826100e6565b9050919050565b600073ffffffffffffffffffffffffffffffffffffffff82169050919050565b61013d816100f8565b811461014857600080fd5b50565b61015481610102565b811461015f57600080fd5b50565b61054f806101716000396000f3fe608060405234801561001057600080fd5b506004361061004c5760003560e01c80633f15457f14610051578063af9f26e41461006f578063d22057a91461009f578063faff50a8146100bb575b600080fd5b6100596100d9565b604051610066919061036c565b60405180910390f35b61008960048036038101906100849190610256565b6100fd565b60405161009691906103a7565b60405180910390f35b6100b960048036038101906100b4919061027f565b610115565b005b6100c3610226565b6040516100d0919061031a565b60405180910390f35b60008054906101000a900473ffffffffffffffffffffffffffffffffffffffff1681565b60026020528060005260406000206000915090505481565b4260026000848152602001908152602001600020541061016a576040517f08c379a000000000000000000000000000000000000000000000000000000000815260040161016190610387565b60405180910390fd5b6312bed4004261017a91906103d3565b600260008481526020019081526020016000208190555060008054906101000a900473ffffffffffffffffffffffffffffffffffffffff1673ffffffffffffffffffffffffffffffffffffffff166306ab592360015484846040518463ffffffff1660e01b81526004016101f093929190610335565b600060405180830381600087803b15801561020a57600080fd5b505af115801561021e573d6000803e3d6000fd5b505050505050565b60015481565b60008135905061023b816104eb565b92915050565b60008135905061025081610502565b92915050565b60006020828403121561026857600080fd5b600061027684828501610241565b91505092915050565b6000806040838503121561029257600080fd5b60006102a085828601610241565b92505060206102b18582860161022c565b9150509250929050565b6102c481610429565b82525050565b6102d38161043b565b82525050565b6102e28161046f565b82525050565b60006102f5600d836103c2565b9150610300826104c2565b602082019050919050565b61031481610465565b82525050565b600060208201905061032f60008301846102ca565b92915050565b600060608201905061034a60008301866102ca565b61035760208301856102ca565b61036460408301846102bb565b949350505050565b600060208201905061038160008301846102d9565b92915050565b600060208201905081810360008301526103a0816102e8565b9050919050565b60006020820190506103bc600083018461030b565b92915050565b600082825260208201905092915050565b60006103de82610465565b91506103e983610465565b9250827fffffffffffffffffffffffffffffffffffffffffffffffffffffffffffffffff0382111561041e5761041d610493565b5b828201905092915050565b600061043482610445565b9050919050565b6000819050919050565b600073ffffffffffffffffffffffffffffffffffffffff82169050919050565b6000819050919050565b600061047a82610481565b9050919050565b600061048c82610445565b9050919050565b7f4e487b7100000000000000000000000000000000000000000000000000000000600052601160045260246000fd5b7f426c6f636b206578706972656400000000000000000000000000000000000000600082015250565b6104f481610429565b81146104ff57600080fd5b50565b61050b8161043b565b811461051657600080fd5b5056fea26469706673582212203e93f77aff0fac8d1e6c2fca6b138c3132f1e6cdf34f137c7c0e2c9665a21e1264736f6c63430008040033",
  "linkReferences": {},
  "deployedLinkReferences": {}
}