{
  "_format": "hh-sol-artifact-1",
  "contractName": "BMTChunk",
  "sourceName": "contracts/BMTChunk.sol",
  "abi": [
    {
      "inputs": [],
      "name": "MAX_CHUNK_PAYLOAD_SIZE",
      "outputs": [
        {
          "internalType": "uint256",
          "name": "",
          "type": "uint256"
        }
      ],
      "stateMutability": "view",
      "type": "function"
    },
    {
      "inputs": [],
      "name": "SEGMENT_SIZE",
      "outputs": [
        {
          "internalType": "uint256",
          "name": "",
          "type": "uint256"
        }
      ],
      "stateMutability": "view",
      "type": "function"
    },
    {
      "inputs": [
        {
          "internalType": "bytes32[]",
          "name": "_proofSegments",
          "type": "bytes32[]"
        },
        {
          "internalType": "bytes32",
          "name": "_proveSegment",
          "type": "bytes32"
        },
        {
          "internalType": "uint256",
          "name": "_proveSegmentIndex",
          "type": "uint256"
        },
        {
          "internalType": "uint64",
          "name": "_chunkSpan",
          "type": "uint64"
        }
      ],
      "name": "chunkAddressFromInclusionProof",
      "outputs": [
        {
          "internalType": "bytes32",
          "name": "",
          "type": "bytes32"
        }
      ],
      "stateMutability": "pure",
      "type": "function"
    },
    {
      "inputs": [
        {
          "internalType": "bytes32[]",
          "name": "_proofSegments",
          "type": "bytes32[]"
        },
        {
          "internalType": "bytes32",
          "name": "_proveSegment",
          "type": "bytes32"
        },
        {
          "internalType": "uint256",
          "name": "_proveSegmentIndex",
          "type": "uint256"
        }
      ],
      "name": "rootHashFromInclusionProof",
      "outputs": [
        {
          "internalType": "bytes32",
          "name": "_calculatedHash",
          "type": "bytes32"
        }
      ],
      "stateMutability": "pure",
      "type": "function"
    }
  ],
  "bytecode": "0x608060405234801561001057600080fd5b506103bc806100206000396000f3fe608060405234801561001057600080fd5b506004361061004c5760003560e01c80635c390cad146100515780638ce1b6381461006c578063a2c76f9e1461007f578063a984f0f814610087575b600080fd5b61005a61100081565b60405190815260200160405180910390f35b61005a61007a3660046102c1565b61009a565b61005a602081565b61005a610095366004610275565b6100ed565b6000806100a88686866100ed565b6040516001600160c01b031960c086901b1660208201526028810182905290915060480160405160208183030381529060405280519060200120915050949350505050565b8160005b8451811015610167576000610107600285610350565b15610113576000610116565b60015b905061014a8387848151811061013c57634e487b7160e01b600052603260045260246000fd5b602002602001015183610170565b9250600184901c935050808061015f90610329565b9150506100f1565b505b9392505050565b600081156101a9576040805160208101869052908101849052606001604051602081830303815290604052805190602001209050610169565b5050604080516020808201939093528082019390935280518084038201815260609093019052815191012090565b600082601f8301126101e7578081fd5b8135602067ffffffffffffffff8083111561020457610204610370565b8260051b604051601f19603f8301168101818110848211171561022957610229610370565b60405284815283810192508684018288018501891015610247578687fd5b8692505b8583101561026957803584529284019260019290920191840161024b565b50979650505050505050565b600080600060608486031215610289578283fd5b833567ffffffffffffffff81111561029f578384fd5b6102ab868287016101d7565b9660208601359650604090950135949350505050565b600080600080608085870312156102d6578081fd5b843567ffffffffffffffff808211156102ed578283fd5b6102f9888389016101d7565b9550602087013594506040870135935060608701359150808216821461031d578283fd5b50939692955090935050565b600060001982141561034957634e487b7160e01b81526011600452602481fd5b5060010190565b60008261036b57634e487b7160e01b81526012600452602481fd5b500690565b634e487b7160e01b600052604160045260246000fdfea2646970667358221220244e8809143daea8e5a79f7728b685af1c32305513ce5e7e7707edc47751f22064736f6c63430008040033",
  "linkReferences": {},
  "deployedLinkReferences": {}
}