{
  "_format": "hh-sol-artifact-1",
  "contractName": "BMTChunk",
  "sourceName": "contracts/BMTChunk.sol",
  "abi": [
    {
      "inputs": [],
      "name": "MAX_CHUNK_PAYLOAD_SIZE",
      "outputs": [
        {
          "internalType": "uint256",
          "name": "",
          "type": "uint256"
        }
      ],
      "stateMutability": "view",
      "type": "function"
    },
    {
      "inputs": [],
      "name": "SEGMENT_SIZE",
      "outputs": [
        {
          "internalType": "uint256",
          "name": "",
          "type": "uint256"
        }
      ],
      "stateMutability": "view",
      "type": "function"
    },
    {
      "inputs": [
        {
          "internalType": "bytes32[]",
          "name": "_proofSegments",
          "type": "bytes32[]"
        },
        {
          "internalType": "bytes32",
          "name": "_proveSegment",
          "type": "bytes32"
        },
        {
          "internalType": "uint256",
          "name": "_proveSegmentIndex",
          "type": "uint256"
        },
        {
          "internalType": "uint64",
          "name": "_chunkSpan",
          "type": "uint64"
        }
      ],
      "name": "chunkAddressFromInclusionProof",
      "outputs": [
        {
          "internalType": "bytes32",
          "name": "",
          "type": "bytes32"
        }
      ],
      "stateMutability": "pure",
      "type": "function"
    },
    {
      "inputs": [
        {
          "internalType": "bytes32[]",
          "name": "_proofSegments",
          "type": "bytes32[]"
        },
        {
          "internalType": "bytes32",
          "name": "_proveSegment",
          "type": "bytes32"
        },
        {
          "internalType": "uint256",
          "name": "_proveSegmentIndex",
          "type": "uint256"
        }
      ],
      "name": "rootHashFromInclusionProof",
      "outputs": [
        {
          "internalType": "bytes32",
          "name": "_calculatedHash",
          "type": "bytes32"
        }
      ],
      "stateMutability": "pure",
      "type": "function"
    }
  ],
  "bytecode": "0x608060405234801561001057600080fd5b5061073d806100206000396000f3fe608060405234801561001057600080fd5b506004361061004c5760003560e01c80635c390cad146100515780638ce1b6381461006f578063a2c76f9e1461009f578063a984f0f8146100bd575b600080fd5b6100596100ed565b60405161006691906104bc565b60405180910390f35b61008960048036038101906100849190610385565b6100f3565b6040516100969190610478565b60405180910390f35b6100a7610137565b6040516100b491906104bc565b60405180910390f35b6100d760048036038101906100d2919061031e565b61013c565b6040516100e49190610478565b60405180910390f35b61100081565b60008061010186868661013c565b9050828160405160200161011692919061044c565b60405160208183030381529060405280519060200120915050949350505050565b602081565b600082905060005b84518110156101d65760008060028561015d91906105e6565b1461016957600061016c565b60015b90506101b9838784815181106101ab577f4e487b7100000000000000000000000000000000000000000000000000000000600052603260045260246000fd5b6020026020010151836101de565b9250600184901c93505080806101ce90610581565b915050610144565b509392505050565b600081156102165783836040516020016101f9929190610493565b604051602081830303815290604052805190602001209050610242565b8284604051602001610229929190610493565b6040516020818303038152906040528051906020012090505b9392505050565b600061025c610257846104fc565b6104d7565b9050808382526020820190508285602086028201111561027b57600080fd5b60005b858110156102ab578161029188826102df565b84526020840193506020830192505060018101905061027e565b5050509392505050565b600082601f8301126102c657600080fd5b81356102d6848260208601610249565b91505092915050565b6000813590506102ee816106c2565b92915050565b600081359050610303816106d9565b92915050565b600081359050610318816106f0565b92915050565b60008060006060848603121561033357600080fd5b600084013567ffffffffffffffff81111561034d57600080fd5b610359868287016102b5565b935050602061036a868287016102df565b925050604061037b868287016102f4565b9150509250925092565b6000806000806080858703121561039b57600080fd5b600085013567ffffffffffffffff8111156103b557600080fd5b6103c1878288016102b5565b94505060206103d2878288016102df565b93505060406103e3878288016102f4565b92505060606103f487828801610309565b91505092959194509250565b61040981610528565b82525050565b61042061041b82610528565b6105ca565b82525050565b61042f81610532565b82525050565b6104466104418261053c565b6105d4565b82525050565b60006104588285610435565b600882019150610468828461040f565b6020820191508190509392505050565b600060208201905061048d6000830184610400565b92915050565b60006040820190506104a86000830185610400565b6104b56020830184610400565b9392505050565b60006020820190506104d16000830184610426565b92915050565b60006104e16104f2565b90506104ed8282610550565b919050565b6000604051905090565b600067ffffffffffffffff82111561051757610516610675565b5b602082029050602081019050919050565b6000819050919050565b6000819050919050565b600067ffffffffffffffff82169050919050565b610559826106a4565b810181811067ffffffffffffffff8211171561057857610577610675565b5b80604052505050565b600061058c82610532565b91507fffffffffffffffffffffffffffffffffffffffffffffffffffffffffffffffff8214156105bf576105be610617565b5b600182019050919050565b6000819050919050565b60006105df826106b5565b9050919050565b60006105f182610532565b91506105fc83610532565b92508261060c5761060b610646565b5b828206905092915050565b7f4e487b7100000000000000000000000000000000000000000000000000000000600052601160045260246000fd5b7f4e487b7100000000000000000000000000000000000000000000000000000000600052601260045260246000fd5b7f4e487b7100000000000000000000000000000000000000000000000000000000600052604160045260246000fd5b6000601f19601f8301169050919050565b60008160c01b9050919050565b6106cb81610528565b81146106d657600080fd5b50565b6106e281610532565b81146106ed57600080fd5b50565b6106f98161053c565b811461070457600080fd5b5056fea26469706673582212208843114d5228a2409752d66d7b0beee2a4ce0ff7a980939797a8833087d0ecdc64736f6c63430008040033",
  "linkReferences": {},
  "deployedLinkReferences": {}
}