{
  "_format": "hh-sol-artifact-1",
  "contractName": "BMTFile",
  "sourceName": "contracts/BMTFile.sol",
  "abi": [
    {
      "inputs": [],
      "name": "CHUNK_BMT_LEVELS",
      "outputs": [
        {
          "internalType": "uint16",
          "name": "",
          "type": "uint16"
        }
      ],
      "stateMutability": "view",
      "type": "function"
    },
    {
      "inputs": [],
      "name": "MAX_CHUNK_PAYLOAD_SIZE",
      "outputs": [
        {
          "internalType": "uint256",
          "name": "",
          "type": "uint256"
        }
      ],
      "stateMutability": "view",
      "type": "function"
    },
    {
      "inputs": [],
      "name": "MAX_SEGMENT_COUNT",
      "outputs": [
        {
          "internalType": "uint16",
          "name": "",
          "type": "uint16"
        }
      ],
      "stateMutability": "view",
      "type": "function"
    },
    {
      "inputs": [],
      "name": "SEGMENT_SIZE",
      "outputs": [
        {
          "internalType": "uint256",
          "name": "",
          "type": "uint256"
        }
      ],
      "stateMutability": "view",
      "type": "function"
    },
    {
      "inputs": [
        {
          "internalType": "bytes32[]",
          "name": "_proofSegments",
          "type": "bytes32[]"
        },
        {
          "internalType": "bytes32",
          "name": "_proveSegment",
          "type": "bytes32"
        },
        {
          "internalType": "uint256",
          "name": "_proveSegmentIndex",
          "type": "uint256"
        },
        {
          "internalType": "uint64",
          "name": "_chunkSpan",
          "type": "uint64"
        }
      ],
      "name": "chunkAddressFromInclusionProof",
      "outputs": [
        {
          "internalType": "bytes32",
          "name": "",
          "type": "bytes32"
        }
      ],
      "stateMutability": "pure",
      "type": "function"
    },
    {
      "inputs": [
        {
          "components": [
            {
              "internalType": "uint64",
              "name": "span",
              "type": "uint64"
            },
            {
              "internalType": "bytes32[]",
              "name": "sisterSegments",
              "type": "bytes32[]"
            }
          ],
          "internalType": "struct BMTFile.ChunkInclusionProof[]",
          "name": "_proveChunks",
          "type": "tuple[]"
        },
        {
          "internalType": "bytes32",
          "name": "_proveSegment",
          "type": "bytes32"
        },
        {
          "internalType": "uint64",
          "name": "_proveSegmentIndex",
          "type": "uint64"
        }
      ],
      "name": "fileAddressFromInclusionProof",
      "outputs": [
        {
          "internalType": "bytes32",
          "name": "_calculatedHash",
          "type": "bytes32"
        }
      ],
      "stateMutability": "pure",
      "type": "function"
    },
    {
      "inputs": [
        {
          "internalType": "uint64",
          "name": "_segmentIndex",
          "type": "uint64"
        },
        {
          "internalType": "uint64",
          "name": "_lastChunkIndex",
          "type": "uint64"
        }
      ],
      "name": "getBmtIndexOfSegment",
      "outputs": [
        {
          "internalType": "uint64",
          "name": "",
          "type": "uint64"
        },
        {
          "internalType": "uint64",
          "name": "",
          "type": "uint64"
        }
      ],
      "stateMutability": "pure",
      "type": "function"
    },
    {
      "inputs": [
        {
          "internalType": "uint64",
          "name": "_b",
          "type": "uint64"
        }
      ],
      "name": "reverseUint64",
      "outputs": [
        {
          "internalType": "uint64",
          "name": "",
          "type": "uint64"
        }
      ],
      "stateMutability": "pure",
      "type": "function"
    },
    {
      "inputs": [
        {
          "internalType": "bytes32[]",
          "name": "_proofSegments",
          "type": "bytes32[]"
        },
        {
          "internalType": "bytes32",
          "name": "_proveSegment",
          "type": "bytes32"
        },
        {
          "internalType": "uint256",
          "name": "_proveSegmentIndex",
          "type": "uint256"
        }
      ],
      "name": "rootHashFromInclusionProof",
      "outputs": [
        {
          "internalType": "bytes32",
          "name": "_calculatedHash",
          "type": "bytes32"
        }
      ],
      "stateMutability": "pure",
      "type": "function"
    }
  ],
  "bytecode": "0x608060405234801561001057600080fd5b50610b60806100206000396000f3fe608060405234801561001057600080fd5b50600436106100935760003560e01c80638ce1b638116100665780638ce1b638146101155780639188ec8414610128578063a2c76f9e14610130578063a984f0f814610138578063defad6941461014b57600080fd5b806310f1b9ec1461009857806358b4c862146100d05780635c390cad146100eb5780636d8a13d414610102575b600080fd5b6100ab6100a6366004610908565b610176565b604080516001600160401b039384168152929091166020830152015b60405180910390f35b6100d8600781565b60405161ffff90911681526020016100c7565b6100f461100081565b6040519081526020016100c7565b6100f46101103660046107da565b610253565b6100f461012336600461077c565b61047b565b6100d8608081565b6100f4602081565b6100f4610146366004610731565b6104ce565b61015e6101593660046108ee565b610542565b6040516001600160401b0390911681526020016100c7565b6000808060076001600160401b0385166101916080886109e0565b6001600160401b03161480156101b857506101ad608086610ac2565b6001600160401b0316155b80156101cc57506001600160401b03851615155b1561023157806001600160401b0316866001600160401b0316901c95505b6101fe60206001600160401b038816610aae565b61022c578161020c81610a67565b925050806001600160401b0316866001600160401b0316901c95506101ea565b61024a565b806001600160401b0316866001600160401b0316901c95505b50939492505050565b60008290506000600c61029d866001885161026e9190610a35565b8151811061028c57634e487b7160e01b600052603260045260246000fd5b602002602001015160000151610542565b6001600160401b0316901c905060005b85518160ff161015610471576000806102c68685610176565b9150915060005b888460ff16815181106102f057634e487b7160e01b600052603260045260246000fd5b602002602001015160200151518160ff1610156103b4576000610314600289610ac2565b6001600160401b03161561032957600061032c565b60015b9050610391878b8760ff168151811061035557634e487b7160e01b600052603260045260246000fd5b6020026020010151602001518460ff168151811061038357634e487b7160e01b600052603260045260246000fd5b60200260200101518361063f565b965061039e6002896109e0565b97505080806103ac90610a8e565b9150506102cd565b50878360ff16815181106103d857634e487b7160e01b600052603260045260246000fd5b6020026020010151600001518560405160200161040e92919060c09290921b6001600160c01b0319168252600882015260280190565b604051602081830303815290604052805190602001209450819550600761ffff168161043a9190610a06565b6104459060076109b5565b6001600160401b0316846001600160401b0316901c93505050808061046990610a8e565b9150506102ad565b50505b9392505050565b6000806104898686866104ce565b6040516001600160c01b031960c086901b1660208201526028810182905290915060480160405160208183030381529060405280519060200120915050949350505050565b8160005b845181101561053a5760006104e8600285610aae565b156104f45760006104f7565b60015b905061051d8387848151811061038357634e487b7160e01b600052603260045260246000fd5b9250600184901c935050808061053290610a4c565b9150506104d2565b509392505050565b600080826001600160401b031690506008817eff00ff00ff00ff00ff00ff00ff00ff00ff00ff00ff00ff00ff00ff00ff00ff16901b600882901c7eff00ff00ff00ff00ff00ff00ff00ff00ff00ff00ff00ff00ff00ff00ff00ff161790506010817dffff0000ffff0000ffff0000ffff0000ffff0000ffff0000ffff0000ffff16901b601082901c7dffff0000ffff0000ffff0000ffff0000ffff0000ffff0000ffff0000ffff161790506020817bffffffff00000000ffffffff00000000ffffffff00000000ffffffff16901b602082901c7bffffffff00000000ffffffff00000000ffffffff00000000ffffffff1617905080915050919050565b60008115610678576040805160208101869052908101849052606001604051602081830303815290604052805190602001209050610474565b5050604080516020808201939093528082019390935280518084038201815260609093019052815191012090565b600082601f8301126106b6578081fd5b813560206106cb6106c683610992565b610962565b80838252828201915082860187848660051b89010111156106ea578586fd5b855b85811015610708578135845292840192908401906001016106ec565b5090979650505050505050565b80356001600160401b038116811461072c57600080fd5b919050565b600080600060608486031215610745578283fd5b83356001600160401b0381111561075a578384fd5b610766868287016106a6565b9660208601359650604090950135949350505050565b60008060008060808587031215610791578081fd5b84356001600160401b038111156107a6578182fd5b6107b2878288016106a6565b94505060208501359250604085013591506107cf60608601610715565b905092959194509250565b6000806000606084860312156107ee578283fd5b6001600160401b038085351115610803578384fd5b8435850186601f820112610815578485fd5b80356108236106c682610992565b80828252602082019150602084018a60208560051b8701011115610845578889fd5b885b848110156108c857868235111561085c57898afd5b813586016040818e03601f19011215610873578a8bfd5b61087b61093a565b61088760208301610715565b815260408201358981111561089a578c8dfd5b6108a98f6020838601016106a6565b6020838101919091529187525094850194929092019150600101610847565b50508097505050505050602084013591506108e560408501610715565b90509250925092565b6000602082840312156108ff578081fd5b61047482610715565b6000806040838503121561091a578182fd5b61092383610715565b915061093160208401610715565b90509250929050565b604080519081016001600160401b038111828210171561095c5761095c610b14565b60405290565b604051601f8201601f191681016001600160401b038111828210171561098a5761098a610b14565b604052919050565b60006001600160401b038211156109ab576109ab610b14565b5060051b60200190565b60006001600160401b038083168185168083038211156109d7576109d7610ae8565b01949350505050565b60006001600160401b03808416806109fa576109fa610afe565b92169190910492915050565b60006001600160401b0380831681851681830481118215151615610a2c57610a2c610ae8565b02949350505050565b600082821015610a4757610a47610ae8565b500390565b6000600019821415610a6057610a60610ae8565b5060010190565b60006001600160401b0380831681811415610a8457610a84610ae8565b6001019392505050565b600060ff821660ff811415610aa557610aa5610ae8565b60010192915050565b600082610abd57610abd610afe565b500690565b60006001600160401b0380841680610adc57610adc610afe565b92169190910692915050565b634e487b7160e01b600052601160045260246000fd5b634e487b7160e01b600052601260045260246000fd5b634e487b7160e01b600052604160045260246000fdfea2646970667358221220bf1f6db859a151a87c1d24cfde333544deebc7135b8c5927265e09b249faa7a864736f6c63430008040033",
  "linkReferences": {},
  "deployedLinkReferences": {}
}