{
  "_format": "hh-sol-artifact-1",
  "contractName": "BMTFile",
  "sourceName": "contracts/BMTFile.sol",
  "abi": [
    {
      "inputs": [],
      "name": "CHUNK_BMT_LEVELS",
      "outputs": [
        {
          "internalType": "uint16",
          "name": "",
          "type": "uint16"
        }
      ],
      "stateMutability": "view",
      "type": "function"
    },
    {
      "inputs": [],
      "name": "MAX_CHUNK_PAYLOAD_SIZE",
      "outputs": [
        {
          "internalType": "uint256",
          "name": "",
          "type": "uint256"
        }
      ],
      "stateMutability": "view",
      "type": "function"
    },
    {
      "inputs": [],
      "name": "MAX_SEGMENT_COUNT",
      "outputs": [
        {
          "internalType": "uint16",
          "name": "",
          "type": "uint16"
        }
      ],
      "stateMutability": "view",
      "type": "function"
    },
    {
      "inputs": [],
      "name": "SEGMENT_SIZE",
      "outputs": [
        {
          "internalType": "uint256",
          "name": "",
          "type": "uint256"
        }
      ],
      "stateMutability": "view",
      "type": "function"
    },
    {
      "inputs": [
        {
          "internalType": "bytes32[]",
          "name": "_proofSegments",
          "type": "bytes32[]"
        },
        {
          "internalType": "bytes32",
          "name": "_proveSegment",
          "type": "bytes32"
        },
        {
          "internalType": "uint256",
          "name": "_proveSegmentIndex",
          "type": "uint256"
        },
        {
          "internalType": "uint64",
          "name": "_chunkSpan",
          "type": "uint64"
        }
      ],
      "name": "chunkAddressFromInclusionProof",
      "outputs": [
        {
          "internalType": "bytes32",
          "name": "",
          "type": "bytes32"
        }
      ],
      "stateMutability": "pure",
      "type": "function"
    },
    {
      "inputs": [
        {
          "components": [
            {
              "internalType": "uint64",
              "name": "span",
              "type": "uint64"
            },
            {
              "internalType": "bytes32[]",
              "name": "sisterSegments",
              "type": "bytes32[]"
            }
          ],
          "internalType": "struct BMTFile.ChunkInclusionProof[]",
          "name": "_proveChunks",
          "type": "tuple[]"
        },
        {
          "internalType": "bytes32",
          "name": "_proveSegment",
          "type": "bytes32"
        },
        {
          "internalType": "uint64",
          "name": "_proveSegmentIndex",
          "type": "uint64"
        }
      ],
      "name": "fileAddressFromInclusionProof",
      "outputs": [
        {
          "internalType": "bytes32",
          "name": "_calculatedHash",
          "type": "bytes32"
        }
      ],
      "stateMutability": "pure",
      "type": "function"
    },
    {
      "inputs": [
        {
          "internalType": "uint64",
          "name": "_segmentIndex",
          "type": "uint64"
        },
        {
          "internalType": "uint64",
          "name": "_lastChunkIndex",
          "type": "uint64"
        }
      ],
      "name": "getBmtIndexOfSegment",
      "outputs": [
        {
          "internalType": "uint64",
          "name": "",
          "type": "uint64"
        },
        {
          "internalType": "uint64",
          "name": "",
          "type": "uint64"
        }
      ],
      "stateMutability": "pure",
      "type": "function"
    },
    {
      "inputs": [
        {
          "internalType": "uint64",
          "name": "_b",
          "type": "uint64"
        }
      ],
      "name": "reverseUint64",
      "outputs": [
        {
          "internalType": "uint64",
          "name": "",
          "type": "uint64"
        }
      ],
      "stateMutability": "pure",
      "type": "function"
    },
    {
      "inputs": [
        {
          "internalType": "bytes32[]",
          "name": "_proofSegments",
          "type": "bytes32[]"
        },
        {
          "internalType": "bytes32",
          "name": "_proveSegment",
          "type": "bytes32"
        },
        {
          "internalType": "uint256",
          "name": "_proveSegmentIndex",
          "type": "uint256"
        }
      ],
      "name": "rootHashFromInclusionProof",
      "outputs": [
        {
          "internalType": "bytes32",
          "name": "_calculatedHash",
          "type": "bytes32"
        }
      ],
      "stateMutability": "pure",
      "type": "function"
    }
  ],
  "bytecode": "0x608060405234801561001057600080fd5b50611115806100206000396000f3fe608060405234801561001057600080fd5b50600436106100935760003560e01c80638ce1b638116100665780638ce1b638146101355780639188ec8414610165578063a2c76f9e14610183578063a984f0f8146101a1578063defad694146101d157610093565b806310f1b9ec1461009857806358b4c862146100c95780635c390cad146100e75780636d8a13d414610105575b600080fd5b6100b260048036038101906100ad9190610b67565b610201565b6040516100c0929190610cce565b60405180910390f35b6100d161030e565b6040516100de9190610c7d565b60405180910390f35b6100ef610313565b6040516100fc9190610c98565b60405180910390f35b61011f600480360381019061011a9190610ad7565b610319565b60405161012c9190610c39565b60405180910390f35b61014f600480360381019061014a9190610a5c565b6105b3565b60405161015c9190610c39565b60405180910390f35b61016d6105f7565b60405161017a9190610c7d565b60405180910390f35b61018b6105fc565b6040516101989190610c98565b60405180910390f35b6101bb60048036038101906101b691906109f5565b610601565b6040516101c89190610c39565b60405180910390f35b6101eb60048036038101906101e69190610b3e565b6106a3565b6040516101f89190610cb3565b60405180910390f35b600080600080600761ffff1690508467ffffffffffffffff16608061ffff168761022b9190610db2565b67ffffffffffffffff1614801561025c57506000608061ffff16866102509190610fbe565b67ffffffffffffffff16145b8015610273575060008567ffffffffffffffff1614155b156102e4578067ffffffffffffffff168667ffffffffffffffff16901c95505b600060208767ffffffffffffffff166102ac9190610f8d565b14156102df5781806102bd90610f16565b9250508067ffffffffffffffff168667ffffffffffffffff16901c9550610293565b6102ff565b8067ffffffffffffffff168667ffffffffffffffff16901c95505b85829350935050509250929050565b600781565b61100081565b60008290506000600c61037c86600188516103349190610e25565b8151811061036b577f4e487b7100000000000000000000000000000000000000000000000000000000600052603260045260246000fd5b6020026020010151600001516106a3565b67ffffffffffffffff16901c905060005b85518160ff1610156105aa576000806103a68685610201565b9150915060005b888460ff16815181106103e9577f4e487b7100000000000000000000000000000000000000000000000000000000600052603260045260246000fd5b602002602001015160200151518160ff1610156104e5576000806002896104109190610fbe565b67ffffffffffffffff1614610426576000610429565b60015b90506104c0878b8760ff168151811061046b577f4e487b7100000000000000000000000000000000000000000000000000000000600052603260045260246000fd5b6020026020010151602001518460ff16815181106104b2577f4e487b7100000000000000000000000000000000000000000000000000000000600052603260045260246000fd5b6020026020010151836107a1565b96506002886104cf9190610db2565b97505080806104dd90610f47565b9150506103ad565b50878360ff1681518110610522577f4e487b7100000000000000000000000000000000000000000000000000000000600052603260045260246000fd5b60200260200101516000015185604051602001610540929190610c0d565b604051602081830303815290604052805190602001209450819550600761ffff168161056c9190610de3565b600761ffff1661057c9190610d74565b67ffffffffffffffff168467ffffffffffffffff16901c9350505080806105a290610f47565b91505061038d565b50509392505050565b6000806105c1868686610601565b905082816040516020016105d6929190610c0d565b60405160208183030381529060405280519060200120915050949350505050565b608081565b602081565b600082905060005b845181101561069b576000806002856106229190610f8d565b1461062e576000610631565b60015b905061067e83878481518110610670577f4e487b7100000000000000000000000000000000000000000000000000000000600052603260045260246000fd5b6020026020010151836107a1565b9250600184901c935050808061069390610ecd565b915050610609565b509392505050565b6000808267ffffffffffffffff16905060087eff00ff00ff00ff00ff00ff00ff00ff00ff00ff00ff00ff00ff00ff00ff00ff8216901b7eff00ff00ff00ff00ff00ff00ff00ff00ff00ff00ff00ff00ff00ff00ff00ff600883901c1617905060107dffff0000ffff0000ffff0000ffff0000ffff0000ffff0000ffff0000ffff8216901b7dffff0000ffff0000ffff0000ffff0000ffff0000ffff0000ffff0000ffff601083901c1617905060207bffffffff00000000ffffffff00000000ffffffff00000000ffffffff8216901b7bffffffff00000000ffffffff00000000ffffffff00000000ffffffff602083901c1617905080915050919050565b600081156107d95783836040516020016107bc929190610c54565b604051602081830303815290604052805190602001209050610805565b82846040516020016107ec929190610c54565b6040516020818303038152906040528051906020012090505b9392505050565b600061081f61081a84610d1c565b610cf7565b9050808382526020820190508285602086028201111561083e57600080fd5b60005b8581101561086e57816108548882610952565b845260208401935060208301925050600181019050610841565b5050509392505050565b600061088b61088684610d48565b610cf7565b905080838252602082019050828560208602820111156108aa57600080fd5b60005b858110156108f457813567ffffffffffffffff8111156108cc57600080fd5b8086016108d98982610967565b855260208501945060208401935050506001810190506108ad565b5050509392505050565b600082601f83011261090f57600080fd5b813561091f84826020860161080c565b91505092915050565b600082601f83011261093957600080fd5b8135610949848260208601610878565b91505092915050565b6000813590506109618161109a565b92915050565b60006040828403121561097957600080fd5b6109836040610cf7565b90506000610993848285016109e0565b600083015250602082013567ffffffffffffffff8111156109b357600080fd5b6109bf848285016108fe565b60208301525092915050565b6000813590506109da816110b1565b92915050565b6000813590506109ef816110c8565b92915050565b600080600060608486031215610a0a57600080fd5b600084013567ffffffffffffffff811115610a2457600080fd5b610a30868287016108fe565b9350506020610a4186828701610952565b9250506040610a52868287016109cb565b9150509250925092565b60008060008060808587031215610a7257600080fd5b600085013567ffffffffffffffff811115610a8c57600080fd5b610a98878288016108fe565b9450506020610aa987828801610952565b9350506040610aba878288016109cb565b9250506060610acb878288016109e0565b91505092959194509250565b600080600060608486031215610aec57600080fd5b600084013567ffffffffffffffff811115610b0657600080fd5b610b1286828701610928565b9350506020610b2386828701610952565b9250506040610b34868287016109e0565b9150509250925092565b600060208284031215610b5057600080fd5b6000610b5e848285016109e0565b91505092915050565b60008060408385031215610b7a57600080fd5b6000610b88858286016109e0565b9250506020610b99858286016109e0565b9150509250929050565b610bac81610e59565b82525050565b610bc3610bbe82610e59565b610f71565b82525050565b610bd281610e63565b82525050565b610be181610e71565b82525050565b610bf081610e7b565b82525050565b610c07610c0282610e7b565b610f7b565b82525050565b6000610c198285610bf6565b600882019150610c298284610bb2565b6020820191508190509392505050565b6000602082019050610c4e6000830184610ba3565b92915050565b6000604082019050610c696000830185610ba3565b610c766020830184610ba3565b9392505050565b6000602082019050610c926000830184610bc9565b92915050565b6000602082019050610cad6000830184610bd8565b92915050565b6000602082019050610cc86000830184610be7565b92915050565b6000604082019050610ce36000830185610be7565b610cf06020830184610be7565b9392505050565b6000610d01610d12565b9050610d0d8282610e9c565b919050565b6000604051905090565b600067ffffffffffffffff821115610d3757610d3661104d565b5b602082029050602081019050919050565b600067ffffffffffffffff821115610d6357610d6261104d565b5b602082029050602081019050919050565b6000610d7f82610e7b565b9150610d8a83610e7b565b92508267ffffffffffffffff03821115610da757610da6610fef565b5b828201905092915050565b6000610dbd82610e7b565b9150610dc883610e7b565b925082610dd857610dd761101e565b5b828204905092915050565b6000610dee82610e7b565b9150610df983610e7b565b92508167ffffffffffffffff0483118215151615610e1a57610e19610fef565b5b828202905092915050565b6000610e3082610e71565b9150610e3b83610e71565b925082821015610e4e57610e4d610fef565b5b828203905092915050565b6000819050919050565b600061ffff82169050919050565b6000819050919050565b600067ffffffffffffffff82169050919050565b600060ff82169050919050565b610ea58261107c565b810181811067ffffffffffffffff82111715610ec457610ec361104d565b5b80604052505050565b6000610ed882610e71565b91507fffffffffffffffffffffffffffffffffffffffffffffffffffffffffffffffff821415610f0b57610f0a610fef565b5b600182019050919050565b6000610f2182610e7b565b915067ffffffffffffffff821415610f3c57610f3b610fef565b5b600182019050919050565b6000610f5282610e8f565b915060ff821415610f6657610f65610fef565b5b600182019050919050565b6000819050919050565b6000610f868261108d565b9050919050565b6000610f9882610e71565b9150610fa383610e71565b925082610fb357610fb261101e565b5b828206905092915050565b6000610fc982610e7b565b9150610fd483610e7b565b925082610fe457610fe361101e565b5b828206905092915050565b7f4e487b7100000000000000000000000000000000000000000000000000000000600052601160045260246000fd5b7f4e487b7100000000000000000000000000000000000000000000000000000000600052601260045260246000fd5b7f4e487b7100000000000000000000000000000000000000000000000000000000600052604160045260246000fd5b6000601f19601f8301169050919050565b60008160c01b9050919050565b6110a381610e59565b81146110ae57600080fd5b50565b6110ba81610e71565b81146110c557600080fd5b50565b6110d181610e7b565b81146110dc57600080fd5b5056fea2646970667358221220809bb7f6d04eb697d7ec593b322280fde4ceee1a8c400d240e2ca2ae6f41d96a64736f6c63430008040033",
  "linkReferences": {},
  "deployedLinkReferences": {}
}