{
  "_format": "hh-sol-artifact-1",
  "contractName": "Ratings",
  "sourceName": "contracts/Ratings.sol",
  "abi": [
    {
      "inputs": [
        {
          "internalType": "bytes32",
          "name": "",
          "type": "bytes32"
        }
      ],
      "name": "averageRatings",
      "outputs": [
        {
          "internalType": "uint256",
          "name": "",
          "type": "uint256"
        }
      ],
      "stateMutability": "view",
      "type": "function"
    },
    {
      "inputs": [
        {
          "internalType": "bytes32",
          "name": "recordLocation",
          "type": "bytes32"
        }
      ],
      "name": "getAverageRating",
      "outputs": [
        {
          "internalType": "uint256",
          "name": "",
          "type": "uint256"
        }
      ],
      "stateMutability": "view",
      "type": "function"
    },
    {
      "inputs": [
        {
          "internalType": "bytes32",
          "name": "recordLocation",
          "type": "bytes32"
        }
      ],
      "name": "getNumberOfRatings",
      "outputs": [
        {
          "internalType": "uint256",
          "name": "",
          "type": "uint256"
        }
      ],
      "stateMutability": "view",
      "type": "function"
    },
    {
      "inputs": [
        {
          "internalType": "bytes32",
          "name": "recordLocation",
          "type": "bytes32"
        }
      ],
      "name": "getRatingFor",
      "outputs": [
        {
          "components": [
            {
              "internalType": "uint256",
              "name": "rating",
              "type": "uint256"
            },
            {
              "internalType": "bytes32",
              "name": "review",
              "type": "bytes32"
            },
            {
              "internalType": "address",
              "name": "user",
              "type": "address"
            }
          ],
          "internalType": "struct Ratings.Rating[]",
          "name": "",
          "type": "tuple[]"
        }
      ],
      "stateMutability": "view",
      "type": "function"
    },
    {
      "inputs": [
        {
          "internalType": "bytes32",
          "name": "recordLocation",
          "type": "bytes32"
        }
      ],
      "name": "hasUserRated",
      "outputs": [
        {
          "internalType": "bool",
          "name": "",
          "type": "bool"
        }
      ],
      "stateMutability": "view",
      "type": "function"
    },
    {
      "inputs": [
        {
          "internalType": "bytes32",
          "name": "",
          "type": "bytes32"
        }
      ],
      "name": "numberOfRatings",
      "outputs": [
        {
          "internalType": "uint256",
          "name": "",
          "type": "uint256"
        }
      ],
      "stateMutability": "view",
      "type": "function"
    },
    {
      "inputs": [
        {
          "internalType": "bytes32",
          "name": "recordLocation",
          "type": "bytes32"
        },
        {
          "internalType": "bytes32",
          "name": "review",
          "type": "bytes32"
        },
        {
          "internalType": "uint256",
          "name": "rating",
          "type": "uint256"
        }
      ],
      "name": "rate",
      "outputs": [],
      "stateMutability": "nonpayable",
      "type": "function"
    },
    {
      "inputs": [
        {
          "internalType": "bytes32",
          "name": "",
          "type": "bytes32"
        },
        {
          "internalType": "uint256",
          "name": "",
          "type": "uint256"
        }
      ],
      "name": "ratings",
      "outputs": [
        {
          "internalType": "uint256",
          "name": "rating",
          "type": "uint256"
        },
        {
          "internalType": "bytes32",
          "name": "review",
          "type": "bytes32"
        },
        {
          "internalType": "address",
          "name": "user",
          "type": "address"
        }
      ],
      "stateMutability": "view",
      "type": "function"
    },
    {
      "inputs": [
        {
          "internalType": "address",
          "name": "",
          "type": "address"
        },
        {
          "internalType": "bytes32",
          "name": "",
          "type": "bytes32"
        }
      ],
      "name": "userHasRated",
      "outputs": [
        {
          "internalType": "bool",
          "name": "",
          "type": "bool"
        }
      ],
      "stateMutability": "view",
      "type": "function"
    }
  ],
  "bytecode": "0x608060405234801561001057600080fd5b50610d71806100206000396000f3fe608060405234801561001057600080fd5b50600436106100935760003560e01c80637aead2cd116100665780637aead2cd1461015857806384673789146101745780638674658f146101a6578063d099ff43146101d6578063ee6963b21461020657610093565b8063490572ef1461009857806353031040146100c85780635901b14b146100f85780636b378d0e14610128575b600080fd5b6100b260048036038101906100ad91906107b9565b610236565b6040516100bf91906109d4565b60405180910390f35b6100e260048036038101906100dd91906107b9565b610311565b6040516100ef9190610a51565b60405180910390f35b610112600480360381019061010d91906107b9565b61032e565b60405161011f9190610a51565b60405180910390f35b610142600480360381019061013d91906107b9565b61034b565b60405161014f9190610a51565b60405180910390f35b610172600480360381019061016d91906107e2565b610363565b005b61018e60048036038101906101899190610831565b610629565b60405161019d93929190610a6c565b60405180910390f35b6101c060048036038101906101bb919061077d565b610690565b6040516101cd91906109f6565b60405180910390f35b6101f060048036038101906101eb91906107b9565b6106bf565b6040516101fd91906109f6565b60405180910390f35b610220600480360381019061021b91906107b9565b610726565b60405161022d9190610a51565b60405180910390f35b6060600080838152602001908152602001600020805480602002602001604051908101604052809291908181526020016000905b82821015610306578382906000526020600020906003020160405180606001604052908160008201548152602001600182015481526020016002820160009054906101000a900473ffffffffffffffffffffffffffffffffffffffff1673ffffffffffffffffffffffffffffffffffffffff1673ffffffffffffffffffffffffffffffffffffffff16815250508152602001906001019061026a565b505050509050919050565b600060026000838152602001908152602001600020549050919050565b600060036000838152602001908152602001600020549050919050565b60026020528060005260406000206000915090505481565b60018110158015610375575060058111155b6103b4576040517f08c379a00000000000000000000000000000000000000000000000000000000081526004016103ab90610a31565b60405180910390fd5b600160003373ffffffffffffffffffffffffffffffffffffffff1673ffffffffffffffffffffffffffffffffffffffff168152602001908152602001600020600084815260200190815260200160002060009054906101000a900460ff1615610452576040517f08c379a000000000000000000000000000000000000000000000000000000000815260040161044990610a11565b60405180910390fd5b600060405180606001604052808381526020018481526020013373ffffffffffffffffffffffffffffffffffffffff168152509050600080858152602001908152602001600020819080600181540180825580915050600190039060005260206000209060030201600090919091909150600082015181600001556020820151816001015560408201518160020160006101000a81548173ffffffffffffffffffffffffffffffffffffffff021916908373ffffffffffffffffffffffffffffffffffffffff160217905550505060018060003373ffffffffffffffffffffffffffffffffffffffff1673ffffffffffffffffffffffffffffffffffffffff168152602001908152602001600020600086815260200190815260200160002060006101000a81548160ff02191690831515021790555060006003600086815260200190815260200160002054905060006002600087815260200190815260200160002054905060006001836105c79190610aed565b90506000818685856105d99190610b74565b6105e39190610aed565b6105ed9190610b43565b905080600260008a81526020019081526020016000208190555081600360008a8152602001908152602001600020819055505050505050505050565b6000602052816000526040600020818154811061064557600080fd5b9060005260206000209060030201600091509150508060000154908060010154908060020160009054906101000a900473ffffffffffffffffffffffffffffffffffffffff16905083565b60016020528160005260406000206020528060005260406000206000915091509054906101000a900460ff1681565b6000600160003373ffffffffffffffffffffffffffffffffffffffff1673ffffffffffffffffffffffffffffffffffffffff168152602001908152602001600020600083815260200190815260200160002060009054906101000a900460ff169050919050565b60036020528060005260406000206000915090505481565b60008135905061074d81610cf6565b92915050565b60008135905061076281610d0d565b92915050565b60008135905061077781610d24565b92915050565b6000806040838503121561079057600080fd5b600061079e8582860161073e565b92505060206107af85828601610753565b9150509250929050565b6000602082840312156107cb57600080fd5b60006107d984828501610753565b91505092915050565b6000806000606084860312156107f757600080fd5b600061080586828701610753565b935050602061081686828701610753565b925050604061082786828701610768565b9150509250925092565b6000806040838503121561084457600080fd5b600061085285828601610753565b925050602061086385828601610768565b9150509250929050565b60006108798383610974565b60608301905092915050565b61088e81610bce565b82525050565b61089d81610bce565b82525050565b60006108ae82610ab3565b6108b88185610acb565b93506108c383610aa3565b8060005b838110156108f45781516108db888261086d565b97506108e683610abe565b9250506001810190506108c7565b5085935050505092915050565b61090a81610be0565b82525050565b61091981610bec565b82525050565b61092881610bec565b82525050565b600061093b602c83610adc565b915061094682610c7e565b604082019050919050565b600061095e601f83610adc565b915061096982610ccd565b602082019050919050565b60608201600082015161098a60008501826109b6565b50602082015161099d6020850182610910565b5060408201516109b06040850182610885565b50505050565b6109bf81610c16565b82525050565b6109ce81610c16565b82525050565b600060208201905081810360008301526109ee81846108a3565b905092915050565b6000602082019050610a0b6000830184610901565b92915050565b60006020820190508181036000830152610a2a8161092e565b9050919050565b60006020820190508181036000830152610a4a81610951565b9050919050565b6000602082019050610a6660008301846109c5565b92915050565b6000606082019050610a8160008301866109c5565b610a8e602083018561091f565b610a9b6040830184610894565b949350505050565b6000819050602082019050919050565b600081519050919050565b6000602082019050919050565b600082825260208201905092915050565b600082825260208201905092915050565b6000610af882610c16565b9150610b0383610c16565b9250827fffffffffffffffffffffffffffffffffffffffffffffffffffffffffffffffff03821115610b3857610b37610c20565b5b828201905092915050565b6000610b4e82610c16565b9150610b5983610c16565b925082610b6957610b68610c4f565b5b828204905092915050565b6000610b7f82610c16565b9150610b8a83610c16565b9250817fffffffffffffffffffffffffffffffffffffffffffffffffffffffffffffffff0483118215151615610bc357610bc2610c20565b5b828202905092915050565b6000610bd982610bf6565b9050919050565b60008115159050919050565b6000819050919050565b600073ffffffffffffffffffffffffffffffffffffffff82169050919050565b6000819050919050565b7f4e487b7100000000000000000000000000000000000000000000000000000000600052601160045260246000fd5b7f4e487b7100000000000000000000000000000000000000000000000000000000600052601260045260246000fd5b7f596f75206861766520616c726561647920726174656420666f7220746869732060008201527f68617368206469676573742e0000000000000000000000000000000000000000602082015250565b7f526174696e67206d757374206265206265747765656e203120616e6420352e00600082015250565b610cff81610bce565b8114610d0a57600080fd5b50565b610d1681610bec565b8114610d2157600080fd5b50565b610d2d81610c16565b8114610d3857600080fd5b5056fea26469706673582212209b23d2c9d163e04bc6366a475381edc3e7913cfac7a0eb0407506b4cdc5ab34464736f6c63430008040033",
  "linkReferences": {},
  "deployedLinkReferences": {}
}