{
  "_format": "hh-sol-artifact-1",
  "contractName": "Ratings",
  "sourceName": "contracts/Ratings.sol",
  "abi": [
    {
      "inputs": [
        {
          "internalType": "bytes32",
          "name": "",
          "type": "bytes32"
        }
      ],
      "name": "averageRatings",
      "outputs": [
        {
          "internalType": "uint256",
          "name": "",
          "type": "uint256"
        }
      ],
      "stateMutability": "view",
      "type": "function"
    },
    {
      "inputs": [
        {
          "internalType": "bytes32",
          "name": "recordLocation",
          "type": "bytes32"
        }
      ],
      "name": "getAverageRating",
      "outputs": [
        {
          "internalType": "uint256",
          "name": "",
          "type": "uint256"
        }
      ],
      "stateMutability": "view",
      "type": "function"
    },
    {
      "inputs": [
        {
          "internalType": "bytes32",
          "name": "recordLocation",
          "type": "bytes32"
        }
      ],
      "name": "getNumberOfRatings",
      "outputs": [
        {
          "internalType": "uint256",
          "name": "",
          "type": "uint256"
        }
      ],
      "stateMutability": "view",
      "type": "function"
    },
    {
      "inputs": [
        {
          "internalType": "bytes32",
          "name": "recordLocation",
          "type": "bytes32"
        }
      ],
      "name": "getRatingFor",
      "outputs": [
        {
          "components": [
            {
              "internalType": "uint256",
              "name": "rating",
              "type": "uint256"
            },
            {
              "internalType": "bytes32",
              "name": "review",
              "type": "bytes32"
            },
            {
              "internalType": "address",
              "name": "user",
              "type": "address"
            }
          ],
          "internalType": "struct Ratings.Rating[]",
          "name": "",
          "type": "tuple[]"
        }
      ],
      "stateMutability": "view",
      "type": "function"
    },
    {
      "inputs": [
        {
          "internalType": "bytes32",
          "name": "recordLocation",
          "type": "bytes32"
        }
      ],
      "name": "hasUserRated",
      "outputs": [
        {
          "internalType": "bool",
          "name": "",
          "type": "bool"
        }
      ],
      "stateMutability": "view",
      "type": "function"
    },
    {
      "inputs": [
        {
          "internalType": "bytes32",
          "name": "",
          "type": "bytes32"
        }
      ],
      "name": "numberOfRatings",
      "outputs": [
        {
          "internalType": "uint256",
          "name": "",
          "type": "uint256"
        }
      ],
      "stateMutability": "view",
      "type": "function"
    },
    {
      "inputs": [
        {
          "internalType": "bytes32",
          "name": "recordLocation",
          "type": "bytes32"
        },
        {
          "internalType": "bytes32",
          "name": "review",
          "type": "bytes32"
        },
        {
          "internalType": "uint256",
          "name": "rating",
          "type": "uint256"
        }
      ],
      "name": "rate",
      "outputs": [],
      "stateMutability": "nonpayable",
      "type": "function"
    },
    {
      "inputs": [
        {
          "internalType": "bytes32",
          "name": "",
          "type": "bytes32"
        },
        {
          "internalType": "uint256",
          "name": "",
          "type": "uint256"
        }
      ],
      "name": "ratings",
      "outputs": [
        {
          "internalType": "uint256",
          "name": "rating",
          "type": "uint256"
        },
        {
          "internalType": "bytes32",
          "name": "review",
          "type": "bytes32"
        },
        {
          "internalType": "address",
          "name": "user",
          "type": "address"
        }
      ],
      "stateMutability": "view",
      "type": "function"
    },
    {
      "inputs": [
        {
          "internalType": "address",
          "name": "",
          "type": "address"
        },
        {
          "internalType": "bytes32",
          "name": "",
          "type": "bytes32"
        }
      ],
      "name": "userHasRated",
      "outputs": [
        {
          "internalType": "bool",
          "name": "",
          "type": "bool"
        }
      ],
      "stateMutability": "view",
      "type": "function"
    }
  ],
  "bytecode": "0x608060405234801561001057600080fd5b50610651806100206000396000f3fe608060405234801561001057600080fd5b50600436106100935760003560e01c80637aead2cd116100665780637aead2cd1461012f57806384673789146101445780638674658f1461017b578063d099ff43146101b9578063ee6963b2146101e757600080fd5b8063490572ef1461009857806353031040146100c15780635901b14b146100ef5780636b378d0e1461010f575b600080fd5b6100ab6100a63660046104e8565b610207565b6040516100b8919061054c565b60405180910390f35b6100e16100cf3660046104e8565b60009081526002602052604090205490565b6040519081526020016100b8565b6100e16100fd3660046104e8565b60009081526003602052604090205490565b6100e161011d3660046104e8565b60026020526000908152604090205481565b61014261013d366004610500565b610293565b005b61015761015236600461052b565b610467565b6040805193845260208401929092526001600160a01b0316908201526060016100b8565b6101a96101893660046104b2565b600160209081526000928352604080842090915290825290205460ff1681565b60405190151581526020016100b8565b6101a96101c73660046104e8565b336000908152600160209081526040808320938352929052205460ff1690565b6100e16101f53660046104e8565b60036020526000908152604090205481565b600081815260208181526040808320805482518185028101850190935280835260609492939192909184015b82821015610288576000848152602090819020604080516060810182526003860290920180548352600180820154848601526002909101546001600160a01b0316918301919091529083529092019101610233565b505050509050919050565b600181101580156102a5575060058111155b6102f65760405162461bcd60e51b815260206004820152601f60248201527f526174696e67206d757374206265206265747765656e203120616e6420352e0060448201526064015b60405180910390fd5b33600090815260016020908152604080832086845290915290205460ff16156103765760405162461bcd60e51b815260206004820152602c60248201527f596f75206861766520616c726561647920726174656420666f7220746869732060448201526b3430b9b4103234b3b2b9ba1760a11b60648201526084016102ed565b604080516060810182528281526020808201858152338385018181526000898152808552868120805460018082018355918352868320885160039283029091019081559551868301559251600295860180546001600160a01b0319166001600160a01b039092169190911790559281528285528681208a82528552868120805460ff19168417905590845285812054929093529382205492939092919061041e9084906105ae565b90506000818661042e86866105e6565b61043891906105ae565b61044291906105c6565b6000988952600260209081526040808b20929092556003905290972055505050505050565b6000602052816000526040600020818154811061048357600080fd5b60009182526020909120600390910201805460018201546002909201549093509091506001600160a01b031683565b600080604083850312156104c4578182fd5b82356001600160a01b03811681146104da578283fd5b946020939093013593505050565b6000602082840312156104f9578081fd5b5035919050565b600080600060608486031215610514578081fd5b505081359360208301359350604090920135919050565b6000806040838503121561053d578182fd5b50508035926020909101359150565b602080825282518282018190526000919060409081850190868401855b828110156105a15781518051855286810151878601528501516001600160a01b03168585015260609093019290850190600101610569565b5091979650505050505050565b600082198211156105c1576105c1610605565b500190565b6000826105e157634e487b7160e01b81526012600452602481fd5b500490565b600081600019048311821515161561060057610600610605565b500290565b634e487b7160e01b600052601160045260246000fdfea26469706673582212209d90518aa7b3afddfebcefb244bd3c28021a318f3eb808ea962fc369314f5bb864736f6c63430008040033",
  "linkReferences": {},
  "deployedLinkReferences": {}
}