{
  "_format": "hh-sol-artifact-1",
  "contractName": "DappRegistry",
  "sourceName": "contracts/DappRegistry.sol",
  "abi": [
    {
      "inputs": [],
      "stateMutability": "nonpayable",
      "type": "constructor"
    },
    {
      "anonymous": false,
      "inputs": [
        {
          "indexed": true,
          "internalType": "address",
          "name": "previousOwner",
          "type": "address"
        },
        {
          "indexed": true,
          "internalType": "address",
          "name": "newOwner",
          "type": "address"
        }
      ],
      "name": "OwnershipTransferred",
      "type": "event"
    },
    {
      "anonymous": false,
      "inputs": [
        {
          "indexed": true,
          "internalType": "bytes32",
          "name": "role",
          "type": "bytes32"
        },
        {
          "indexed": true,
          "internalType": "bytes32",
          "name": "previousAdminRole",
          "type": "bytes32"
        },
        {
          "indexed": true,
          "internalType": "bytes32",
          "name": "newAdminRole",
          "type": "bytes32"
        }
      ],
      "name": "RoleAdminChanged",
      "type": "event"
    },
    {
      "anonymous": false,
      "inputs": [
        {
          "indexed": true,
          "internalType": "bytes32",
          "name": "role",
          "type": "bytes32"
        },
        {
          "indexed": true,
          "internalType": "address",
          "name": "account",
          "type": "address"
        },
        {
          "indexed": true,
          "internalType": "address",
          "name": "sender",
          "type": "address"
        }
      ],
      "name": "RoleGranted",
      "type": "event"
    },
    {
      "anonymous": false,
      "inputs": [
        {
          "indexed": true,
          "internalType": "bytes32",
          "name": "role",
          "type": "bytes32"
        },
        {
          "indexed": true,
          "internalType": "address",
          "name": "account",
          "type": "address"
        },
        {
          "indexed": true,
          "internalType": "address",
          "name": "sender",
          "type": "address"
        }
      ],
      "name": "RoleRevoked",
      "type": "event"
    },
    {
      "inputs": [],
      "name": "DEFAULT_ADMIN_ROLE",
      "outputs": [
        {
          "internalType": "bytes32",
          "name": "",
          "type": "bytes32"
        }
      ],
      "stateMutability": "view",
      "type": "function"
    },
    {
      "inputs": [],
      "name": "VALIDATOR_ROLE",
      "outputs": [
        {
          "internalType": "bytes32",
          "name": "",
          "type": "bytes32"
        }
      ],
      "stateMutability": "view",
      "type": "function"
    },
    {
      "inputs": [
        {
          "internalType": "bytes32",
          "name": "_location",
          "type": "bytes32"
        },
        {
          "internalType": "bytes32",
          "name": "_urlHash",
          "type": "bytes32"
        }
      ],
      "name": "craeteRecord",
      "outputs": [],
      "stateMutability": "nonpayable",
      "type": "function"
    },
    {
      "inputs": [
        {
          "internalType": "bytes32",
          "name": "_location",
          "type": "bytes32"
        }
      ],
      "name": "deleteRecord",
      "outputs": [],
      "stateMutability": "nonpayable",
      "type": "function"
    },
    {
      "inputs": [
        {
          "internalType": "bytes32",
          "name": "_location",
          "type": "bytes32"
        }
      ],
      "name": "getRecord",
      "outputs": [
        {
          "components": [
            {
              "internalType": "address",
              "name": "creator",
              "type": "address"
            },
            {
              "internalType": "bytes32",
              "name": "location",
              "type": "bytes32"
            },
            {
              "internalType": "bytes32",
              "name": "urlHash",
              "type": "bytes32"
            },
            {
              "internalType": "uint256",
              "name": "index",
              "type": "uint256"
            },
            {
              "internalType": "uint256",
              "name": "creatorIndex",
              "type": "uint256"
            },
            {
              "internalType": "uint256",
              "name": "timestamp",
              "type": "uint256"
            },
            {
              "internalType": "bool",
              "name": "isValidated",
              "type": "bool"
            },
            {
              "internalType": "address",
              "name": "validator",
              "type": "address"
            }
          ],
          "internalType": "struct DappRegistry.Record",
          "name": "",
          "type": "tuple"
        }
      ],
      "stateMutability": "view",
      "type": "function"
    },
    {
      "inputs": [],
      "name": "getRecordCount",
      "outputs": [
        {
          "internalType": "uint256",
          "name": "",
          "type": "uint256"
        }
      ],
      "stateMutability": "view",
      "type": "function"
    },
    {
      "inputs": [
        {
          "internalType": "uint256",
          "name": "_startIndex",
          "type": "uint256"
        },
        {
          "internalType": "uint256",
          "name": "_length",
          "type": "uint256"
        }
      ],
      "name": "getRecordSlice",
      "outputs": [
        {
          "internalType": "bytes32[]",
          "name": "",
          "type": "bytes32[]"
        }
      ],
      "stateMutability": "view",
      "type": "function"
    },
    {
      "inputs": [
        {
          "internalType": "bytes32[]",
          "name": "_recordHashes",
          "type": "bytes32[]"
        }
      ],
      "name": "getRecords",
      "outputs": [
        {
          "components": [
            {
              "internalType": "address",
              "name": "creator",
              "type": "address"
            },
            {
              "internalType": "bytes32",
              "name": "location",
              "type": "bytes32"
            },
            {
              "internalType": "bytes32",
              "name": "urlHash",
              "type": "bytes32"
            },
            {
              "internalType": "uint256",
              "name": "index",
              "type": "uint256"
            },
            {
              "internalType": "uint256",
              "name": "creatorIndex",
              "type": "uint256"
            },
            {
              "internalType": "uint256",
              "name": "timestamp",
              "type": "uint256"
            },
            {
              "internalType": "bool",
              "name": "isValidated",
              "type": "bool"
            },
            {
              "internalType": "address",
              "name": "validator",
              "type": "address"
            }
          ],
          "internalType": "struct DappRegistry.Record[]",
          "name": "",
          "type": "tuple[]"
        }
      ],
      "stateMutability": "view",
      "type": "function"
    },
    {
      "inputs": [
        {
          "internalType": "bytes32",
          "name": "role",
          "type": "bytes32"
        }
      ],
      "name": "getRoleAdmin",
      "outputs": [
        {
          "internalType": "bytes32",
          "name": "",
          "type": "bytes32"
        }
      ],
      "stateMutability": "view",
      "type": "function"
    },
    {
      "inputs": [
        {
          "internalType": "address",
          "name": "_account",
          "type": "address"
        }
      ],
      "name": "getUser",
      "outputs": [
        {
          "components": [
            {
              "internalType": "bytes32[]",
              "name": "records",
              "type": "bytes32[]"
            },
            {
              "internalType": "bytes32[]",
              "name": "validatedRecords",
              "type": "bytes32[]"
            }
          ],
          "internalType": "struct DappRegistry.User",
          "name": "",
          "type": "tuple"
        }
      ],
      "stateMutability": "view",
      "type": "function"
    },
    {
      "inputs": [
        {
          "internalType": "bytes32",
          "name": "role",
          "type": "bytes32"
        },
        {
          "internalType": "address",
          "name": "account",
          "type": "address"
        }
      ],
      "name": "grantRole",
      "outputs": [],
      "stateMutability": "nonpayable",
      "type": "function"
    },
    {
      "inputs": [
        {
          "internalType": "bytes32",
          "name": "role",
          "type": "bytes32"
        },
        {
          "internalType": "address",
          "name": "account",
          "type": "address"
        }
      ],
      "name": "hasRole",
      "outputs": [
        {
          "internalType": "bool",
          "name": "",
          "type": "bool"
        }
      ],
      "stateMutability": "view",
      "type": "function"
    },
    {
      "inputs": [],
      "name": "owner",
      "outputs": [
        {
          "internalType": "address",
          "name": "",
          "type": "address"
        }
      ],
      "stateMutability": "view",
      "type": "function"
    },
    {
      "inputs": [
        {
          "internalType": "uint256",
          "name": "",
          "type": "uint256"
        }
      ],
      "name": "recordList",
      "outputs": [
        {
          "internalType": "bytes32",
          "name": "",
          "type": "bytes32"
        }
      ],
      "stateMutability": "view",
      "type": "function"
    },
    {
      "inputs": [],
      "name": "renounceOwnership",
      "outputs": [],
      "stateMutability": "nonpayable",
      "type": "function"
    },
    {
      "inputs": [
        {
          "internalType": "bytes32",
          "name": "role",
          "type": "bytes32"
        },
        {
          "internalType": "address",
          "name": "account",
          "type": "address"
        }
      ],
      "name": "renounceRole",
      "outputs": [],
      "stateMutability": "nonpayable",
      "type": "function"
    },
    {
      "inputs": [
        {
          "internalType": "bytes32",
          "name": "role",
          "type": "bytes32"
        },
        {
          "internalType": "address",
          "name": "account",
          "type": "address"
        }
      ],
      "name": "revokeRole",
      "outputs": [],
      "stateMutability": "nonpayable",
      "type": "function"
    },
    {
      "inputs": [
        {
          "internalType": "bytes4",
          "name": "interfaceId",
          "type": "bytes4"
        }
      ],
      "name": "supportsInterface",
      "outputs": [
        {
          "internalType": "bool",
          "name": "",
          "type": "bool"
        }
      ],
      "stateMutability": "view",
      "type": "function"
    },
    {
      "inputs": [
        {
          "internalType": "address",
          "name": "newOwner",
          "type": "address"
        }
      ],
      "name": "transferOwnership",
      "outputs": [],
      "stateMutability": "nonpayable",
      "type": "function"
    },
    {
      "inputs": [
        {
          "internalType": "bytes32",
          "name": "_location",
          "type": "bytes32"
        },
        {
          "internalType": "bytes32",
          "name": "_urlHash",
          "type": "bytes32"
        }
      ],
      "name": "updateRecord",
      "outputs": [],
      "stateMutability": "nonpayable",
      "type": "function"
    },
    {
      "inputs": [
        {
          "internalType": "bytes32",
          "name": "_location",
          "type": "bytes32"
        },
        {
          "internalType": "bool",
          "name": "_isValidated",
          "type": "bool"
        }
      ],
      "name": "validateRecord",
      "outputs": [],
      "stateMutability": "nonpayable",
      "type": "function"
    }
  ],
  "bytecode": "0x60806040523480156200001157600080fd5b5062000032620000266200004d60201b60201c565b6200005560201b60201c565b620000476000801b336200011960201b60201c565b6200028b565b600033905090565b60008060009054906101000a900473ffffffffffffffffffffffffffffffffffffffff169050816000806101000a81548173ffffffffffffffffffffffffffffffffffffffff021916908373ffffffffffffffffffffffffffffffffffffffff1602179055508173ffffffffffffffffffffffffffffffffffffffff168173ffffffffffffffffffffffffffffffffffffffff167f8be0079c531659141344cd1fd0a4f28419497f9722a3daafe3b4186f6b6457e060405160405180910390a35050565b6200012b82826200012f60201b60201c565b5050565b6200014182826200022060201b60201c565b6200021c57600180600084815260200190815260200160002060000160008373ffffffffffffffffffffffffffffffffffffffff1673ffffffffffffffffffffffffffffffffffffffff16815260200190815260200160002060006101000a81548160ff021916908315150217905550620001c16200004d60201b60201c565b73ffffffffffffffffffffffffffffffffffffffff168173ffffffffffffffffffffffffffffffffffffffff16837f2f8788117e7eff1d82e926ec794901d17c78024a50270940304540a733656f0d60405160405180910390a45b5050565b60006001600084815260200190815260200160002060000160008373ffffffffffffffffffffffffffffffffffffffff1673ffffffffffffffffffffffffffffffffffffffff16815260200190815260200160002060009054906101000a900460ff16905092915050565b61326d806200029b6000396000f3fe608060405234801561001057600080fd5b50600436106101375760003560e01c8063715018a6116100b8578063bf1eed0b1161007c578063bf1eed0b14610372578063c49baebe1461038e578063ca267f28146103ac578063d547741f146103ca578063f2fde38b146103e6578063f785c4551461040257610137565b8063715018a6146102e05780638c0dacf2146102ea5780638da5cb5b1461030657806391d1485414610324578063a217fddf1461035457610137565b80632f2ff15d116100ff5780632f2ff15d1461021857806336568abe14610234578063411af81014610250578063490257de146102805780636f77926b146102b057610137565b806301ffc9a71461013c57806303fd5e071461016c57806319da83a814610188578063213681cd146101b8578063248a9ca3146101e8575b600080fd5b61015660048036038101906101519190612450565b61041e565b6040516101639190612a8a565b60405180910390f35b61018660048036038101906101819190612414565b610498565b005b6101a2600480360381019061019d9190612479565b6106be565b6040516101af9190612aa5565b60405180910390f35b6101d260048036038101906101cd9190612373565b6106e2565b6040516101df9190612be2565b60405180910390f35b61020260048036038101906101fd9190612373565b610809565b60405161020f9190612aa5565b60405180910390f35b610232600480360381019061022d919061239c565b610829565b005b61024e6004803603810190610249919061239c565b61084a565b005b61026a60048036038101906102659190612332565b6108cd565b6040516102779190612a68565b60405180910390f35b61029a600480360381019061029591906124a2565b610b13565b6040516102a79190612a46565b60405180910390f35b6102ca60048036038101906102c59190612309565b610c72565b6040516102d79190612bfe565b60405180910390f35b6102e8610d7b565b005b61030460048036038101906102ff9190612373565b610d8f565b005b61030e611259565b60405161031b9190612a2b565b60405180910390f35b61033e6004803603810190610339919061239c565b611282565b60405161034b9190612a8a565b60405180910390f35b61035c6112ed565b6040516103699190612aa5565b60405180910390f35b61038c60048036038101906103879190612414565b6112f4565b005b6103966115b1565b6040516103a39190612aa5565b60405180910390f35b6103b46115d5565b6040516103c19190612c20565b60405180910390f35b6103e460048036038101906103df919061239c565b6115e2565b005b61040060048036038101906103fb9190612309565b611603565b005b61041c600480360381019061041791906123d8565b611687565b005b60007f7965db0b000000000000000000000000000000000000000000000000000000007bffffffffffffffffffffffffffffffffffffffffffffffffffffffff1916827bffffffffffffffffffffffffffffffffffffffffffffffffffffffff19161480610491575061049082611a41565b5b9050919050565b81600060036000838152602001908152602001600020604051806101000160405290816000820160009054906101000a900473ffffffffffffffffffffffffffffffffffffffff1673ffffffffffffffffffffffffffffffffffffffff1673ffffffffffffffffffffffffffffffffffffffff16815260200160018201548152602001600282015481526020016003820154815260200160048201548152602001600582015481526020016006820160009054906101000a900460ff161515151581526020016006820160019054906101000a900473ffffffffffffffffffffffffffffffffffffffff1673ffffffffffffffffffffffffffffffffffffffff1673ffffffffffffffffffffffffffffffffffffffff168152505090506000801b816020015114156105ff576040517f08c379a00000000000000000000000000000000000000000000000000000000081526004016105f690612b02565b60405180910390fd5b3373ffffffffffffffffffffffffffffffffffffffff16816000015173ffffffffffffffffffffffffffffffffffffffff16148061064657506106456000801b33611282565b5b610685576040517f08c379a000000000000000000000000000000000000000000000000000000000815260040161067c90612b82565b60405180910390fd5b60006003600086815260200190815260200160002090508481600101819055508381600201819055504281600501819055505050505050565b600481815481106106ce57600080fd5b906000526020600020016000915090505481565b6106ea612177565b60036000838152602001908152602001600020604051806101000160405290816000820160009054906101000a900473ffffffffffffffffffffffffffffffffffffffff1673ffffffffffffffffffffffffffffffffffffffff1673ffffffffffffffffffffffffffffffffffffffff16815260200160018201548152602001600282015481526020016003820154815260200160048201548152602001600582015481526020016006820160009054906101000a900460ff161515151581526020016006820160019054906101000a900473ffffffffffffffffffffffffffffffffffffffff1673ffffffffffffffffffffffffffffffffffffffff1673ffffffffffffffffffffffffffffffffffffffff16815250509050919050565b600060016000838152602001908152602001600020600101549050919050565b61083282610809565b61083b81611aab565b6108458383611abf565b505050565b610852611b9f565b73ffffffffffffffffffffffffffffffffffffffff168173ffffffffffffffffffffffffffffffffffffffff16146108bf576040517f08c379a00000000000000000000000000000000000000000000000000000000081526004016108b690612bc2565b60405180910390fd5b6108c98282611ba7565b5050565b60606000825167ffffffffffffffff811115610912577f4e487b7100000000000000000000000000000000000000000000000000000000600052604160045260246000fd5b60405190808252806020026020018201604052801561094b57816020015b610938612177565b8152602001906001900390816109305790505b50905060005b8351811015610b095760036000858381518110610997577f4e487b7100000000000000000000000000000000000000000000000000000000600052603260045260246000fd5b60200260200101518152602001908152602001600020604051806101000160405290816000820160009054906101000a900473ffffffffffffffffffffffffffffffffffffffff1673ffffffffffffffffffffffffffffffffffffffff1673ffffffffffffffffffffffffffffffffffffffff16815260200160018201548152602001600282015481526020016003820154815260200160048201548152602001600582015481526020016006820160009054906101000a900460ff161515151581526020016006820160019054906101000a900473ffffffffffffffffffffffffffffffffffffffff1673ffffffffffffffffffffffffffffffffffffffff1673ffffffffffffffffffffffffffffffffffffffff1681525050828281518110610aeb577f4e487b7100000000000000000000000000000000000000000000000000000000600052603260045260246000fd5b60200260200101819052508080610b0190612f26565b915050610951565b5080915050919050565b60606004805490508284610b279190612d36565b1115610b415782600480549050610b3e9190612de6565b91505b60008267ffffffffffffffff811115610b83577f4e487b7100000000000000000000000000000000000000000000000000000000600052604160045260246000fd5b604051908082528060200260200182016040528015610bb15781602001602082028036833780820191505090505b50905060005b83811015610c675760048186610bcd9190612d36565b81548110610c04577f4e487b7100000000000000000000000000000000000000000000000000000000600052603260045260246000fd5b9060005260206000200154828281518110610c48577f4e487b7100000000000000000000000000000000000000000000000000000000600052603260045260246000fd5b6020026020010181815250508080610c5f90612f26565b915050610bb7565b508091505092915050565b610c7a6121f0565b600260008373ffffffffffffffffffffffffffffffffffffffff1673ffffffffffffffffffffffffffffffffffffffff16815260200190815260200160002060405180604001604052908160008201805480602002602001604051908101604052809291908181526020018280548015610d1357602002820191906000526020600020905b815481526020019060010190808311610cff575b5050505050815260200160018201805480602002602001604051908101604052809291908181526020018280548015610d6b57602002820191906000526020600020905b815481526020019060010190808311610d57575b5050505050815250509050919050565b610d83611c89565b610d8d6000611d07565b565b80600060036000838152602001908152602001600020604051806101000160405290816000820160009054906101000a900473ffffffffffffffffffffffffffffffffffffffff1673ffffffffffffffffffffffffffffffffffffffff1673ffffffffffffffffffffffffffffffffffffffff16815260200160018201548152602001600282015481526020016003820154815260200160048201548152602001600582015481526020016006820160009054906101000a900460ff161515151581526020016006820160019054906101000a900473ffffffffffffffffffffffffffffffffffffffff1673ffffffffffffffffffffffffffffffffffffffff1673ffffffffffffffffffffffffffffffffffffffff168152505090506000801b81602001511415610ef6576040517f08c379a0000000000000000000000000000000000000000000000000000000008152600401610eed90612b02565b60405180910390fd5b3373ffffffffffffffffffffffffffffffffffffffff16816000015173ffffffffffffffffffffffffffffffffffffffff161480610f3d5750610f3c6000801b33611282565b5b610f7c576040517f08c379a0000000000000000000000000000000000000000000000000000000008152600401610f7390612b82565b60405180910390fd5b600060036000858152602001908152602001600020604051806101000160405290816000820160009054906101000a900473ffffffffffffffffffffffffffffffffffffffff1673ffffffffffffffffffffffffffffffffffffffff1673ffffffffffffffffffffffffffffffffffffffff16815260200160018201548152602001600282015481526020016003820154815260200160048201548152602001600582015481526020016006820160009054906101000a900460ff161515151581526020016006820160019054906101000a900473ffffffffffffffffffffffffffffffffffffffff1673ffffffffffffffffffffffffffffffffffffffff1673ffffffffffffffffffffffffffffffffffffffff16815250509050600060026000836000015173ffffffffffffffffffffffffffffffffffffffff1673ffffffffffffffffffffffffffffffffffffffff16815260200190815260200160002090506000600182600001805490506110f59190612de6565b9050808360800151146112015781600001818154811061113e577f4e487b7100000000000000000000000000000000000000000000000000000000600052603260045260246000fd5b906000526020600020015482600001846080015181548110611189577f4e487b7100000000000000000000000000000000000000000000000000000000600052603260045260246000fd5b9060005260206000200181905550826080015160036000846000018660800151815481106111e0577f4e487b7100000000000000000000000000000000000000000000000000000000600052603260045260246000fd5b90600052602060002001548152602001908152602001600020600401819055505b8160000180548061123b577f4e487b7100000000000000000000000000000000000000000000000000000000600052603160045260246000fd5b60019003818190600052602060002001600090559055505050505050565b60008060009054906101000a900473ffffffffffffffffffffffffffffffffffffffff16905090565b60006001600084815260200190815260200160002060000160008373ffffffffffffffffffffffffffffffffffffffff1673ffffffffffffffffffffffffffffffffffffffff16815260200190815260200160002060009054906101000a900460ff16905092915050565b6000801b81565b60006003600084815260200190815260200160002090506000801b816001015414611354576040517f08c379a000000000000000000000000000000000000000000000000000000000815260040161134b90612b62565b60405180910390fd5b6000600260003373ffffffffffffffffffffffffffffffffffffffff1673ffffffffffffffffffffffffffffffffffffffff1681526020019081526020016000209050338260000160006101000a81548173ffffffffffffffffffffffffffffffffffffffff021916908373ffffffffffffffffffffffffffffffffffffffff16021790555083826001018190555082826002018190555042826005018190555060048054905082600301819055508060000180549050826004018190555081600360008681526020019081526020016000206000820160009054906101000a900473ffffffffffffffffffffffffffffffffffffffff168160000160006101000a81548173ffffffffffffffffffffffffffffffffffffffff021916908373ffffffffffffffffffffffffffffffffffffffff16021790555060018201548160010155600282015481600201556003820154816003015560048201548160040155600582015481600501556006820160009054906101000a900460ff168160060160006101000a81548160ff0219169083151502179055506006820160019054906101000a900473ffffffffffffffffffffffffffffffffffffffff168160060160016101000a81548173ffffffffffffffffffffffffffffffffffffffff021916908373ffffffffffffffffffffffffffffffffffffffff16021790555090505060048490806001815401808255809150506001900390600052602060002001600090919091909150558060000184908060018154018082558091505060019003906000526020600020016000909190919091505550505050565b7f21702c8af46127c7fa207f89d0b0a8441bb32959a0ac7df790e9ab1a25c9892681565b6000600480549050905090565b6115eb82610809565b6115f481611aab565b6115fe8383611ba7565b505050565b61160b611c89565b600073ffffffffffffffffffffffffffffffffffffffff168173ffffffffffffffffffffffffffffffffffffffff16141561167b576040517f08c379a000000000000000000000000000000000000000000000000000000000815260040161167290612b22565b60405180910390fd5b61168481611d07565b50565b81600060036000838152602001908152602001600020604051806101000160405290816000820160009054906101000a900473ffffffffffffffffffffffffffffffffffffffff1673ffffffffffffffffffffffffffffffffffffffff1673ffffffffffffffffffffffffffffffffffffffff16815260200160018201548152602001600282015481526020016003820154815260200160048201548152602001600582015481526020016006820160009054906101000a900460ff161515151581526020016006820160019054906101000a900473ffffffffffffffffffffffffffffffffffffffff1673ffffffffffffffffffffffffffffffffffffffff1673ffffffffffffffffffffffffffffffffffffffff168152505090506000801b816020015114156117ee576040517f08c379a00000000000000000000000000000000000000000000000000000000081526004016117e590612b02565b60405180910390fd5b6118187f21702c8af46127c7fa207f89d0b0a8441bb32959a0ac7df790e9ab1a25c9892633611282565b8061182c575061182b6000801b33611282565b5b61186b576040517f08c379a000000000000000000000000000000000000000000000000000000000815260040161186290612ba2565b60405180910390fd5b60006003600086815260200190815260200160002090506000600260008360000160009054906101000a900473ffffffffffffffffffffffffffffffffffffffff1673ffffffffffffffffffffffffffffffffffffffff1673ffffffffffffffffffffffffffffffffffffffff1681526020019081526020016000209050848260060160006101000a81548160ff021916908315150217905550338260060160016101000a81548173ffffffffffffffffffffffffffffffffffffffff021916908373ffffffffffffffffffffffffffffffffffffffff160217905550841561197e5780600101869080600181540180825580915050600190039060005260206000200160009091909190915055611a39565b6000600182600001805490506119949190612de6565b905080836004015414611a37578160000181815481106119dd577f4e487b7100000000000000000000000000000000000000000000000000000000600052603260045260246000fd5b906000526020600020015482600001846004015481548110611a28577f4e487b7100000000000000000000000000000000000000000000000000000000600052603260045260246000fd5b90600052602060002001819055505b505b505050505050565b60007f01ffc9a7000000000000000000000000000000000000000000000000000000007bffffffffffffffffffffffffffffffffffffffffffffffffffffffff1916827bffffffffffffffffffffffffffffffffffffffffffffffffffffffff1916149050919050565b611abc81611ab7611b9f565b611dcb565b50565b611ac98282611282565b611b9b57600180600084815260200190815260200160002060000160008373ffffffffffffffffffffffffffffffffffffffff1673ffffffffffffffffffffffffffffffffffffffff16815260200190815260200160002060006101000a81548160ff021916908315150217905550611b40611b9f565b73ffffffffffffffffffffffffffffffffffffffff168173ffffffffffffffffffffffffffffffffffffffff16837f2f8788117e7eff1d82e926ec794901d17c78024a50270940304540a733656f0d60405160405180910390a45b5050565b600033905090565b611bb18282611282565b15611c855760006001600084815260200190815260200160002060000160008373ffffffffffffffffffffffffffffffffffffffff1673ffffffffffffffffffffffffffffffffffffffff16815260200190815260200160002060006101000a81548160ff021916908315150217905550611c2a611b9f565b73ffffffffffffffffffffffffffffffffffffffff168173ffffffffffffffffffffffffffffffffffffffff16837ff6391f5c32d9c69d2a47ea670b442974b53935d1edc7fd64eb21e047a839171b60405160405180910390a45b5050565b611c91611b9f565b73ffffffffffffffffffffffffffffffffffffffff16611caf611259565b73ffffffffffffffffffffffffffffffffffffffff1614611d05576040517f08c379a0000000000000000000000000000000000000000000000000000000008152600401611cfc90612b42565b60405180910390fd5b565b60008060009054906101000a900473ffffffffffffffffffffffffffffffffffffffff169050816000806101000a81548173ffffffffffffffffffffffffffffffffffffffff021916908373ffffffffffffffffffffffffffffffffffffffff1602179055508173ffffffffffffffffffffffffffffffffffffffff168173ffffffffffffffffffffffffffffffffffffffff167f8be0079c531659141344cd1fd0a4f28419497f9722a3daafe3b4186f6b6457e060405160405180910390a35050565b611dd58282611282565b611e4c57611de281611e50565b611df08360001c6020611e7d565b604051602001611e019291906129f1565b6040516020818303038152906040526040517f08c379a0000000000000000000000000000000000000000000000000000000008152600401611e439190612ac0565b60405180910390fd5b5050565b6060611e768273ffffffffffffffffffffffffffffffffffffffff16601460ff16611e7d565b9050919050565b606060006002836002611e909190612d8c565b611e9a9190612d36565b67ffffffffffffffff811115611ed9577f4e487b7100000000000000000000000000000000000000000000000000000000600052604160045260246000fd5b6040519080825280601f01601f191660200182016040528015611f0b5781602001600182028036833780820191505090505b5090507f300000000000000000000000000000000000000000000000000000000000000081600081518110611f69577f4e487b7100000000000000000000000000000000000000000000000000000000600052603260045260246000fd5b60200101907effffffffffffffffffffffffffffffffffffffffffffffffffffffffffffff1916908160001a9053507f780000000000000000000000000000000000000000000000000000000000000081600181518110611ff3577f4e487b7100000000000000000000000000000000000000000000000000000000600052603260045260246000fd5b60200101907effffffffffffffffffffffffffffffffffffffffffffffffffffffffffffff1916908160001a905350600060018460026120339190612d8c565b61203d9190612d36565b90505b6001811115612129577f3031323334353637383961626364656600000000000000000000000000000000600f8616601081106120a5577f4e487b7100000000000000000000000000000000000000000000000000000000600052603260045260246000fd5b1a60f81b8282815181106120e2577f4e487b7100000000000000000000000000000000000000000000000000000000600052603260045260246000fd5b60200101907effffffffffffffffffffffffffffffffffffffffffffffffffffffffffffff1916908160001a905350600485901c94508061212290612ecb565b9050612040565b506000841461216d576040517f08c379a000000000000000000000000000000000000000000000000000000000815260040161216490612ae2565b60405180910390fd5b8091505092915050565b604051806101000160405280600073ffffffffffffffffffffffffffffffffffffffff1681526020016000801916815260200160008019168152602001600081526020016000815260200160008152602001600015158152602001600073ffffffffffffffffffffffffffffffffffffffff1681525090565b604051806040016040528060608152602001606081525090565b600061221d61221884612c60565b612c3b565b9050808382526020820190508285602086028201111561223c57600080fd5b60005b8581101561226c578161225288826122ca565b84526020840193506020830192505060018101905061223f565b5050509392505050565b600081359050612285816131c4565b92915050565b600082601f83011261229c57600080fd5b81356122ac84826020860161220a565b91505092915050565b6000813590506122c4816131db565b92915050565b6000813590506122d9816131f2565b92915050565b6000813590506122ee81613209565b92915050565b60008135905061230381613220565b92915050565b60006020828403121561231b57600080fd5b600061232984828501612276565b91505092915050565b60006020828403121561234457600080fd5b600082013567ffffffffffffffff81111561235e57600080fd5b61236a8482850161228b565b91505092915050565b60006020828403121561238557600080fd5b6000612393848285016122ca565b91505092915050565b600080604083850312156123af57600080fd5b60006123bd858286016122ca565b92505060206123ce85828601612276565b9150509250929050565b600080604083850312156123eb57600080fd5b60006123f9858286016122ca565b925050602061240a858286016122b5565b9150509250929050565b6000806040838503121561242757600080fd5b6000612435858286016122ca565b9250506020612446858286016122ca565b9150509250929050565b60006020828403121561246257600080fd5b6000612470848285016122df565b91505092915050565b60006020828403121561248b57600080fd5b6000612499848285016122f4565b91505092915050565b600080604083850312156124b557600080fd5b60006124c3858286016122f4565b92505060206124d4858286016122f4565b9150509250929050565b60006124ea8383612665565b60208301905092915050565b6000612502838361284b565b6101008301905092915050565b61251881612e1a565b82525050565b61252781612e1a565b82525050565b600061253882612cac565b6125428185612ce7565b935061254d83612c8c565b8060005b8381101561257e57815161256588826124de565b975061257083612ccd565b925050600181019050612551565b5085935050505092915050565b600061259682612cac565b6125a08185612cf8565b93506125ab83612c8c565b8060005b838110156125dc5781516125c388826124de565b97506125ce83612ccd565b9250506001810190506125af565b5085935050505092915050565b60006125f482612cb7565b6125fe8185612d09565b935061260983612c9c565b8060005b8381101561263a57815161262188826124f6565b975061262c83612cda565b92505060018101905061260d565b5085935050505092915050565b61265081612e2c565b82525050565b61265f81612e2c565b82525050565b61266e81612e38565b82525050565b61267d81612e38565b82525050565b600061268e82612cc2565b6126988185612d1a565b93506126a8818560208601612e98565b6126b181612fcd565b840191505092915050565b60006126c782612cc2565b6126d18185612d2b565b93506126e1818560208601612e98565b80840191505092915050565b60006126fa602083612d1a565b915061270582612fde565b602082019050919050565b600061271d601483612d1a565b915061272882613007565b602082019050919050565b6000612740602683612d1a565b915061274b82613030565b604082019050919050565b6000612763602083612d1a565b915061276e8261307f565b602082019050919050565b6000612786601583612d1a565b9150612791826130a8565b602082019050919050565b60006127a9601383612d1a565b91506127b4826130d1565b602082019050919050565b60006127cc601983612d1a565b91506127d7826130fa565b602082019050919050565b60006127ef601783612d2b565b91506127fa82613123565b601782019050919050565b6000612812601183612d2b565b915061281d8261314c565b601182019050919050565b6000612835602f83612d1a565b915061284082613175565b604082019050919050565b61010082016000820151612862600085018261250f565b5060208201516128756020850182612665565b5060408201516128886040850182612665565b50606082015161289b60608501826129d3565b5060808201516128ae60808501826129d3565b5060a08201516128c160a08501826129d3565b5060c08201516128d460c0850182612647565b5060e08201516128e760e085018261250f565b50505050565b61010082016000820151612904600085018261250f565b5060208201516129176020850182612665565b50604082015161292a6040850182612665565b50606082015161293d60608501826129d3565b50608082015161295060808501826129d3565b5060a082015161296360a08501826129d3565b5060c082015161297660c0850182612647565b5060e082015161298960e085018261250f565b50505050565b600060408301600083015184820360008601526129ac828261252d565b915050602083015184820360208601526129c6828261252d565b9150508091505092915050565b6129dc81612e8e565b82525050565b6129eb81612e8e565b82525050565b60006129fc826127e2565b9150612a0882856126bc565b9150612a1382612805565b9150612a1f82846126bc565b91508190509392505050565b6000602082019050612a40600083018461251e565b92915050565b60006020820190508181036000830152612a60818461258b565b905092915050565b60006020820190508181036000830152612a8281846125e9565b905092915050565b6000602082019050612a9f6000830184612656565b92915050565b6000602082019050612aba6000830184612674565b92915050565b60006020820190508181036000830152612ada8184612683565b905092915050565b60006020820190508181036000830152612afb816126ed565b9050919050565b60006020820190508181036000830152612b1b81612710565b9050919050565b60006020820190508181036000830152612b3b81612733565b9050919050565b60006020820190508181036000830152612b5b81612756565b9050919050565b60006020820190508181036000830152612b7b81612779565b9050919050565b60006020820190508181036000830152612b9b8161279c565b9050919050565b60006020820190508181036000830152612bbb816127bf565b9050919050565b60006020820190508181036000830152612bdb81612828565b9050919050565b600061010082019050612bf860008301846128ed565b92915050565b60006020820190508181036000830152612c18818461298f565b905092915050565b6000602082019050612c3560008301846129e2565b92915050565b6000612c45612c56565b9050612c518282612ef5565b919050565b6000604051905090565b600067ffffffffffffffff821115612c7b57612c7a612f9e565b5b602082029050602081019050919050565b6000819050602082019050919050565b6000819050602082019050919050565b600081519050919050565b600081519050919050565b600081519050919050565b6000602082019050919050565b6000602082019050919050565b600082825260208201905092915050565b600082825260208201905092915050565b600082825260208201905092915050565b600082825260208201905092915050565b600081905092915050565b6000612d4182612e8e565b9150612d4c83612e8e565b9250827fffffffffffffffffffffffffffffffffffffffffffffffffffffffffffffffff03821115612d8157612d80612f6f565b5b828201905092915050565b6000612d9782612e8e565b9150612da283612e8e565b9250817fffffffffffffffffffffffffffffffffffffffffffffffffffffffffffffffff0483118215151615612ddb57612dda612f6f565b5b828202905092915050565b6000612df182612e8e565b9150612dfc83612e8e565b925082821015612e0f57612e0e612f6f565b5b828203905092915050565b6000612e2582612e6e565b9050919050565b60008115159050919050565b6000819050919050565b60007fffffffff0000000000000000000000000000000000000000000000000000000082169050919050565b600073ffffffffffffffffffffffffffffffffffffffff82169050919050565b6000819050919050565b60005b83811015612eb6578082015181840152602081019050612e9b565b83811115612ec5576000848401525b50505050565b6000612ed682612e8e565b91506000821415612eea57612ee9612f6f565b5b600182039050919050565b612efe82612fcd565b810181811067ffffffffffffffff82111715612f1d57612f1c612f9e565b5b80604052505050565b6000612f3182612e8e565b91507fffffffffffffffffffffffffffffffffffffffffffffffffffffffffffffffff821415612f6457612f63612f6f565b5b600182019050919050565b7f4e487b7100000000000000000000000000000000000000000000000000000000600052601160045260246000fd5b7f4e487b7100000000000000000000000000000000000000000000000000000000600052604160045260246000fd5b6000601f19601f8301169050919050565b7f537472696e67733a20686578206c656e67746820696e73756666696369656e74600082015250565b7f5265636f726420646f65736e2774206578697374000000000000000000000000600082015250565b7f4f776e61626c653a206e6577206f776e657220697320746865207a65726f206160008201527f6464726573730000000000000000000000000000000000000000000000000000602082015250565b7f4f776e61626c653a2063616c6c6572206973206e6f7420746865206f776e6572600082015250565b7f5265636f726420616c7265616479206578697374730000000000000000000000600082015250565b7f53656e646572206973206e6f74206f776e657200000000000000000000000000600082015250565b7f56616c69646174696f6e206973206e6f7420616c6c6f77656400000000000000600082015250565b7f416363657373436f6e74726f6c3a206163636f756e7420000000000000000000600082015250565b7f206973206d697373696e6720726f6c6520000000000000000000000000000000600082015250565b7f416363657373436f6e74726f6c3a2063616e206f6e6c792072656e6f756e636560008201527f20726f6c657320666f722073656c660000000000000000000000000000000000602082015250565b6131cd81612e1a565b81146131d857600080fd5b50565b6131e481612e2c565b81146131ef57600080fd5b50565b6131fb81612e38565b811461320657600080fd5b50565b61321281612e42565b811461321d57600080fd5b50565b61322981612e8e565b811461323457600080fd5b5056fea2646970667358221220ddec630b2cc838e069c3da10ec197de7d64d2d194ad16b6640ccfa55ec4951c564736f6c63430008040033",
  "linkReferences": {},
  "deployedLinkReferences": {}
}