{
  "_format": "hh-sol-artifact-1",
  "contractName": "DappRegistry",
  "sourceName": "contracts/DappRegistry.sol",
  "abi": [
    {
      "inputs": [],
      "stateMutability": "nonpayable",
      "type": "constructor"
    },
    {
      "anonymous": false,
      "inputs": [
        {
          "indexed": true,
          "internalType": "address",
          "name": "previousOwner",
          "type": "address"
        },
        {
          "indexed": true,
          "internalType": "address",
          "name": "newOwner",
          "type": "address"
        }
      ],
      "name": "OwnershipTransferred",
      "type": "event"
    },
    {
      "anonymous": false,
      "inputs": [
        {
          "indexed": true,
          "internalType": "bytes32",
          "name": "role",
          "type": "bytes32"
        },
        {
          "indexed": true,
          "internalType": "bytes32",
          "name": "previousAdminRole",
          "type": "bytes32"
        },
        {
          "indexed": true,
          "internalType": "bytes32",
          "name": "newAdminRole",
          "type": "bytes32"
        }
      ],
      "name": "RoleAdminChanged",
      "type": "event"
    },
    {
      "anonymous": false,
      "inputs": [
        {
          "indexed": true,
          "internalType": "bytes32",
          "name": "role",
          "type": "bytes32"
        },
        {
          "indexed": true,
          "internalType": "address",
          "name": "account",
          "type": "address"
        },
        {
          "indexed": true,
          "internalType": "address",
          "name": "sender",
          "type": "address"
        }
      ],
      "name": "RoleGranted",
      "type": "event"
    },
    {
      "anonymous": false,
      "inputs": [
        {
          "indexed": true,
          "internalType": "bytes32",
          "name": "role",
          "type": "bytes32"
        },
        {
          "indexed": true,
          "internalType": "address",
          "name": "account",
          "type": "address"
        },
        {
          "indexed": true,
          "internalType": "address",
          "name": "sender",
          "type": "address"
        }
      ],
      "name": "RoleRevoked",
      "type": "event"
    },
    {
      "inputs": [],
      "name": "DEFAULT_ADMIN_ROLE",
      "outputs": [
        {
          "internalType": "bytes32",
          "name": "",
          "type": "bytes32"
        }
      ],
      "stateMutability": "view",
      "type": "function"
    },
    {
      "inputs": [],
      "name": "VALIDATOR_ROLE",
      "outputs": [
        {
          "internalType": "bytes32",
          "name": "",
          "type": "bytes32"
        }
      ],
      "stateMutability": "view",
      "type": "function"
    },
    {
      "inputs": [
        {
          "internalType": "bytes32",
          "name": "_location",
          "type": "bytes32"
        },
        {
          "internalType": "bytes32",
          "name": "_urlHash",
          "type": "bytes32"
        }
      ],
      "name": "createRecord",
      "outputs": [],
      "stateMutability": "nonpayable",
      "type": "function"
    },
    {
      "inputs": [
        {
          "internalType": "bytes32",
          "name": "_location",
          "type": "bytes32"
        }
      ],
      "name": "deleteRecord",
      "outputs": [],
      "stateMutability": "nonpayable",
      "type": "function"
    },
    {
      "inputs": [
        {
          "internalType": "bytes32",
          "name": "_location",
          "type": "bytes32"
        }
      ],
      "name": "getRecord",
      "outputs": [
        {
          "components": [
            {
              "internalType": "address",
              "name": "creator",
              "type": "address"
            },
            {
              "internalType": "bytes32",
              "name": "location",
              "type": "bytes32"
            },
            {
              "internalType": "bytes32",
              "name": "urlHash",
              "type": "bytes32"
            },
            {
              "internalType": "uint256",
              "name": "index",
              "type": "uint256"
            },
            {
              "internalType": "uint256",
              "name": "creatorIndex",
              "type": "uint256"
            },
            {
              "internalType": "uint256",
              "name": "timestamp",
              "type": "uint256"
            }
          ],
          "internalType": "struct DappRegistry.Record",
          "name": "",
          "type": "tuple"
        }
      ],
      "stateMutability": "view",
      "type": "function"
    },
    {
      "inputs": [],
      "name": "getRecordCount",
      "outputs": [
        {
          "internalType": "uint256",
          "name": "",
          "type": "uint256"
        }
      ],
      "stateMutability": "view",
      "type": "function"
    },
    {
      "inputs": [
        {
          "internalType": "uint256",
          "name": "_startIndex",
          "type": "uint256"
        },
        {
          "internalType": "uint256",
          "name": "_length",
          "type": "uint256"
        }
      ],
      "name": "getRecordSlice",
      "outputs": [
        {
          "internalType": "bytes32[]",
          "name": "",
          "type": "bytes32[]"
        }
      ],
      "stateMutability": "view",
      "type": "function"
    },
    {
      "inputs": [
        {
          "internalType": "bytes32[]",
          "name": "_recordHashes",
          "type": "bytes32[]"
        }
      ],
      "name": "getRecords",
      "outputs": [
        {
          "components": [
            {
              "internalType": "address",
              "name": "creator",
              "type": "address"
            },
            {
              "internalType": "bytes32",
              "name": "location",
              "type": "bytes32"
            },
            {
              "internalType": "bytes32",
              "name": "urlHash",
              "type": "bytes32"
            },
            {
              "internalType": "uint256",
              "name": "index",
              "type": "uint256"
            },
            {
              "internalType": "uint256",
              "name": "creatorIndex",
              "type": "uint256"
            },
            {
              "internalType": "uint256",
              "name": "timestamp",
              "type": "uint256"
            }
          ],
          "internalType": "struct DappRegistry.Record[]",
          "name": "",
          "type": "tuple[]"
        }
      ],
      "stateMutability": "view",
      "type": "function"
    },
    {
      "inputs": [
        {
          "internalType": "bytes32",
          "name": "role",
          "type": "bytes32"
        }
      ],
      "name": "getRoleAdmin",
      "outputs": [
        {
          "internalType": "bytes32",
          "name": "",
          "type": "bytes32"
        }
      ],
      "stateMutability": "view",
      "type": "function"
    },
    {
      "inputs": [
        {
          "internalType": "address",
          "name": "_account",
          "type": "address"
        }
      ],
      "name": "getUser",
      "outputs": [
        {
          "components": [
            {
              "internalType": "bytes32[]",
              "name": "records",
              "type": "bytes32[]"
            },
            {
              "internalType": "bytes32[]",
              "name": "validatedRecords",
              "type": "bytes32[]"
            }
          ],
          "internalType": "struct DappRegistry.User",
          "name": "",
          "type": "tuple"
        }
      ],
      "stateMutability": "view",
      "type": "function"
    },
    {
      "inputs": [
        {
          "internalType": "address",
          "name": "_validatorAddress",
          "type": "address"
        }
      ],
      "name": "getValidatedRecords",
      "outputs": [
        {
          "components": [
            {
              "internalType": "address",
              "name": "creator",
              "type": "address"
            },
            {
              "internalType": "bytes32",
              "name": "location",
              "type": "bytes32"
            },
            {
              "internalType": "bytes32",
              "name": "urlHash",
              "type": "bytes32"
            },
            {
              "internalType": "uint256",
              "name": "index",
              "type": "uint256"
            },
            {
              "internalType": "uint256",
              "name": "creatorIndex",
              "type": "uint256"
            },
            {
              "internalType": "uint256",
              "name": "timestamp",
              "type": "uint256"
            }
          ],
          "internalType": "struct DappRegistry.Record[]",
          "name": "",
          "type": "tuple[]"
        }
      ],
      "stateMutability": "view",
      "type": "function"
    },
    {
      "inputs": [
        {
          "internalType": "bytes32",
          "name": "role",
          "type": "bytes32"
        },
        {
          "internalType": "address",
          "name": "account",
          "type": "address"
        }
      ],
      "name": "grantRole",
      "outputs": [],
      "stateMutability": "nonpayable",
      "type": "function"
    },
    {
      "inputs": [
        {
          "internalType": "bytes32",
          "name": "role",
          "type": "bytes32"
        },
        {
          "internalType": "address",
          "name": "account",
          "type": "address"
        }
      ],
      "name": "hasRole",
      "outputs": [
        {
          "internalType": "bool",
          "name": "",
          "type": "bool"
        }
      ],
      "stateMutability": "view",
      "type": "function"
    },
    {
      "inputs": [],
      "name": "owner",
      "outputs": [
        {
          "internalType": "address",
          "name": "",
          "type": "address"
        }
      ],
      "stateMutability": "view",
      "type": "function"
    },
    {
      "inputs": [
        {
          "internalType": "uint256",
          "name": "",
          "type": "uint256"
        }
      ],
      "name": "recordList",
      "outputs": [
        {
          "internalType": "bytes32",
          "name": "",
          "type": "bytes32"
        }
      ],
      "stateMutability": "view",
      "type": "function"
    },
    {
      "inputs": [],
      "name": "renounceOwnership",
      "outputs": [],
      "stateMutability": "nonpayable",
      "type": "function"
    },
    {
      "inputs": [
        {
          "internalType": "bytes32",
          "name": "role",
          "type": "bytes32"
        },
        {
          "internalType": "address",
          "name": "account",
          "type": "address"
        }
      ],
      "name": "renounceRole",
      "outputs": [],
      "stateMutability": "nonpayable",
      "type": "function"
    },
    {
      "inputs": [
        {
          "internalType": "bytes32",
          "name": "role",
          "type": "bytes32"
        },
        {
          "internalType": "address",
          "name": "account",
          "type": "address"
        }
      ],
      "name": "revokeRole",
      "outputs": [],
      "stateMutability": "nonpayable",
      "type": "function"
    },
    {
      "inputs": [
        {
          "internalType": "bytes4",
          "name": "interfaceId",
          "type": "bytes4"
        }
      ],
      "name": "supportsInterface",
      "outputs": [
        {
          "internalType": "bool",
          "name": "",
          "type": "bool"
        }
      ],
      "stateMutability": "view",
      "type": "function"
    },
    {
      "inputs": [
        {
          "internalType": "address",
          "name": "newOwner",
          "type": "address"
        }
      ],
      "name": "transferOwnership",
      "outputs": [],
      "stateMutability": "nonpayable",
      "type": "function"
    },
    {
      "inputs": [
        {
          "internalType": "bytes32",
          "name": "_location",
          "type": "bytes32"
        }
      ],
      "name": "unvalidateRecord",
      "outputs": [],
      "stateMutability": "nonpayable",
      "type": "function"
    },
    {
      "inputs": [
        {
          "internalType": "bytes32",
          "name": "_location",
          "type": "bytes32"
        }
      ],
      "name": "validateRecord",
      "outputs": [],
      "stateMutability": "nonpayable",
      "type": "function"
    }
  ],
  "bytecode": "0x60806040523480156200001157600080fd5b5062000032620000266200004d60201b60201c565b6200005560201b60201c565b620000476000801b336200011960201b60201c565b6200028b565b600033905090565b60008060009054906101000a900473ffffffffffffffffffffffffffffffffffffffff169050816000806101000a81548173ffffffffffffffffffffffffffffffffffffffff021916908373ffffffffffffffffffffffffffffffffffffffff1602179055508173ffffffffffffffffffffffffffffffffffffffff168173ffffffffffffffffffffffffffffffffffffffff167f8be0079c531659141344cd1fd0a4f28419497f9722a3daafe3b4186f6b6457e060405160405180910390a35050565b6200012b82826200012f60201b60201c565b5050565b6200014182826200022060201b60201c565b6200021c57600180600084815260200190815260200160002060000160008373ffffffffffffffffffffffffffffffffffffffff1673ffffffffffffffffffffffffffffffffffffffff16815260200190815260200160002060006101000a81548160ff021916908315150217905550620001c16200004d60201b60201c565b73ffffffffffffffffffffffffffffffffffffffff168173ffffffffffffffffffffffffffffffffffffffff16837f2f8788117e7eff1d82e926ec794901d17c78024a50270940304540a733656f0d60405160405180910390a45b5050565b60006001600084815260200190815260200160002060000160008373ffffffffffffffffffffffffffffffffffffffff1673ffffffffffffffffffffffffffffffffffffffff16815260200190815260200160002060009054906101000a900460ff16905092915050565b613171806200029b6000396000f3fe608060405234801561001057600080fd5b50600436106101425760003560e01c8063715018a6116100b8578063a217fddf1161007c578063a217fddf146103ab578063a5327828146103c9578063c49baebe146103e5578063ca267f2814610403578063d547741f14610421578063f2fde38b1461043d57610142565b8063715018a61461031b5780638c0dacf2146103255780638d87b9db146103415780638da5cb5b1461035d57806391d148541461037b57610142565b80632f2ff15d1161010a5780632f2ff15d1461022357806336568abe1461023f578063411af8101461025b578063490257de1461028b5780636b90e42a146102bb5780636f77926b146102eb57610142565b806301ffc9a714610147578063033ca06e1461017757806319da83a814610193578063213681cd146101c3578063248a9ca3146101f3575b600080fd5b610161600480360381019061015c91906123ca565b610459565b60405161016e91906129a6565b60405180910390f35b610191600480360381019061018c9190612329565b6104d3565b005b6101ad60048036038101906101a891906123f3565b610801565b6040516101ba91906129c1565b60405180910390f35b6101dd60048036038101906101d89190612329565b610825565b6040516101ea9190612afe565b60405180910390f35b61020d60048036038101906102089190612329565b6108da565b60405161021a91906129c1565b60405180910390f35b61023d60048036038101906102389190612352565b6108fa565b005b61025960048036038101906102549190612352565b61091b565b005b610275600480360381019061027091906122e8565b61099e565b6040516102829190612984565b60405180910390f35b6102a560048036038101906102a0919061241c565b610b72565b6040516102b29190612962565b60405180910390f35b6102d560048036038101906102d091906122bf565b610cd1565b6040516102e29190612984565b60405180910390f35b610305600480360381019061030091906122bf565b610fb0565b6040516103129190612b19565b60405180910390f35b6103236110b9565b005b61033f600480360381019061033a9190612329565b6110cd565b005b61035b60048036038101906103569190612329565b6114b3565b005b610365611699565b6040516103729190612947565b60405180910390f35b61039560048036038101906103909190612352565b6116c2565b6040516103a291906129a6565b60405180910390f35b6103b361172d565b6040516103c091906129c1565b60405180910390f35b6103e360048036038101906103de919061238e565b611734565b005b6103ed61195d565b6040516103fa91906129c1565b60405180910390f35b61040b611981565b6040516104189190612b3b565b60405180910390f35b61043b60048036038101906104369190612352565b61198e565b005b610457600480360381019061045291906122bf565b6119af565b005b60007f7965db0b000000000000000000000000000000000000000000000000000000007bffffffffffffffffffffffffffffffffffffffffffffffffffffffff1916827bffffffffffffffffffffffffffffffffffffffffffffffffffffffff191614806104cc57506104cb82611a33565b5b9050919050565b806000600360008381526020019081526020016000206040518060c00160405290816000820160009054906101000a900473ffffffffffffffffffffffffffffffffffffffff1673ffffffffffffffffffffffffffffffffffffffff1673ffffffffffffffffffffffffffffffffffffffff1681526020016001820154815260200160028201548152602001600382015481526020016004820154815260200160058201548152505090506000801b816020015114156105c8576040517f08c379a00000000000000000000000000000000000000000000000000000000081526004016105bf90612a1e565b60405180910390fd5b6105f27f21702c8af46127c7fa207f89d0b0a8441bb32959a0ac7df790e9ab1a25c98926336116c2565b8061060657506106056000801b336116c2565b5b610645576040517f08c379a000000000000000000000000000000000000000000000000000000000815260040161063c90612abe565b60405180910390fd5b6000600260003373ffffffffffffffffffffffffffffffffffffffff1673ffffffffffffffffffffffffffffffffffffffff168152602001908152602001600020905060006001826001018054905061069e9190612d01565b905060005b8181116107f957858360010182815481106106e7577f4e487b7100000000000000000000000000000000000000000000000000000000600052603260045260246000fd5b906000526020600020015414156107e6578181146107915782600101828154811061073b577f4e487b7100000000000000000000000000000000000000000000000000000000600052603260045260246000fd5b9060005260206000200154836001018281548110610782577f4e487b7100000000000000000000000000000000000000000000000000000000600052603260045260246000fd5b90600052602060002001819055505b826001018054806107cb577f4e487b7100000000000000000000000000000000000000000000000000000000600052603160045260246000fd5b600190038181906000526020600020016000905590556107f9565b80806107f190612e41565b9150506106a3565b505050505050565b6004818154811061081157600080fd5b906000526020600020016000915090505481565b61082d612169565b600360008381526020019081526020016000206040518060c00160405290816000820160009054906101000a900473ffffffffffffffffffffffffffffffffffffffff1673ffffffffffffffffffffffffffffffffffffffff1673ffffffffffffffffffffffffffffffffffffffff168152602001600182015481526020016002820154815260200160038201548152602001600482015481526020016005820154815250509050919050565b600060016000838152602001908152602001600020600101549050919050565b610903826108da565b61090c81611a9d565b6109168383611ab1565b505050565b610923611b91565b73ffffffffffffffffffffffffffffffffffffffff168173ffffffffffffffffffffffffffffffffffffffff1614610990576040517f08c379a000000000000000000000000000000000000000000000000000000000815260040161098790612ade565b60405180910390fd5b61099a8282611b99565b5050565b60606000825167ffffffffffffffff8111156109e3577f4e487b7100000000000000000000000000000000000000000000000000000000600052604160045260246000fd5b604051908082528060200260200182016040528015610a1c57816020015b610a09612169565b815260200190600190039081610a015790505b50905060005b8351811015610b685760036000858381518110610a68577f4e487b7100000000000000000000000000000000000000000000000000000000600052603260045260246000fd5b602002602001015181526020019081526020016000206040518060c00160405290816000820160009054906101000a900473ffffffffffffffffffffffffffffffffffffffff1673ffffffffffffffffffffffffffffffffffffffff1673ffffffffffffffffffffffffffffffffffffffff16815260200160018201548152602001600282015481526020016003820154815260200160048201548152602001600582015481525050828281518110610b4a577f4e487b7100000000000000000000000000000000000000000000000000000000600052603260045260246000fd5b60200260200101819052508080610b6090612e41565b915050610a22565b5080915050919050565b60606004805490508284610b869190612c51565b1115610ba05782600480549050610b9d9190612d01565b91505b60008267ffffffffffffffff811115610be2577f4e487b7100000000000000000000000000000000000000000000000000000000600052604160045260246000fd5b604051908082528060200260200182016040528015610c105781602001602082028036833780820191505090505b50905060005b83811015610cc65760048186610c2c9190612c51565b81548110610c63577f4e487b7100000000000000000000000000000000000000000000000000000000600052603260045260246000fd5b9060005260206000200154828281518110610ca7577f4e487b7100000000000000000000000000000000000000000000000000000000600052603260045260246000fd5b6020026020010181815250508080610cbe90612e41565b915050610c16565b508091505092915050565b60606000600260008473ffffffffffffffffffffffffffffffffffffffff1673ffffffffffffffffffffffffffffffffffffffff16815260200190815260200160002060405180604001604052908160008201805480602002602001604051908101604052809291908181526020018280548015610d6e57602002820191906000526020600020905b815481526020019060010190808311610d5a575b5050505050815260200160018201805480602002602001604051908101604052809291908181526020018280548015610dc657602002820191906000526020600020905b815481526020019060010190808311610db2575b5050505050815250509050600081602001515167ffffffffffffffff811115610e18577f4e487b7100000000000000000000000000000000000000000000000000000000600052604160045260246000fd5b604051908082528060200260200182016040528015610e5157816020015b610e3e612169565b815260200190600190039081610e365790505b50905060005b826020015151811015610fa5576003600084602001518381518110610ea5577f4e487b7100000000000000000000000000000000000000000000000000000000600052603260045260246000fd5b602002602001015181526020019081526020016000206040518060c00160405290816000820160009054906101000a900473ffffffffffffffffffffffffffffffffffffffff1673ffffffffffffffffffffffffffffffffffffffff1673ffffffffffffffffffffffffffffffffffffffff16815260200160018201548152602001600282015481526020016003820154815260200160048201548152602001600582015481525050828281518110610f87577f4e487b7100000000000000000000000000000000000000000000000000000000600052603260045260246000fd5b60200260200101819052508080610f9d90612e41565b915050610e57565b508092505050919050565b610fb86121bb565b600260008373ffffffffffffffffffffffffffffffffffffffff1673ffffffffffffffffffffffffffffffffffffffff1681526020019081526020016000206040518060400160405290816000820180548060200260200160405190810160405280929190818152602001828054801561105157602002820191906000526020600020905b81548152602001906001019080831161103d575b50505050508152602001600182018054806020026020016040519081016040528092919081815260200182805480156110a957602002820191906000526020600020905b815481526020019060010190808311611095575b5050505050815250509050919050565b6110c1611c7b565b6110cb6000611cf9565b565b806000600360008381526020019081526020016000206040518060c00160405290816000820160009054906101000a900473ffffffffffffffffffffffffffffffffffffffff1673ffffffffffffffffffffffffffffffffffffffff1673ffffffffffffffffffffffffffffffffffffffff1681526020016001820154815260200160028201548152602001600382015481526020016004820154815260200160058201548152505090506000801b816020015114156111c2576040517f08c379a00000000000000000000000000000000000000000000000000000000081526004016111b990612a1e565b60405180910390fd5b3373ffffffffffffffffffffffffffffffffffffffff16816000015173ffffffffffffffffffffffffffffffffffffffff16148061120957506112086000801b336116c2565b5b611248576040517f08c379a000000000000000000000000000000000000000000000000000000000815260040161123f90612a9e565b60405180910390fd5b6000600360008581526020019081526020016000206040518060c00160405290816000820160009054906101000a900473ffffffffffffffffffffffffffffffffffffffff1673ffffffffffffffffffffffffffffffffffffffff1673ffffffffffffffffffffffffffffffffffffffff168152602001600182015481526020016002820154815260200160038201548152602001600482015481526020016005820154815250509050600060026000836000015173ffffffffffffffffffffffffffffffffffffffff1673ffffffffffffffffffffffffffffffffffffffff168152602001908152602001600020905060006001826000018054905061134f9190612d01565b90508083608001511461145b57816000018181548110611398577f4e487b7100000000000000000000000000000000000000000000000000000000600052603260045260246000fd5b9060005260206000200154826000018460800151815481106113e3577f4e487b7100000000000000000000000000000000000000000000000000000000600052603260045260246000fd5b90600052602060002001819055508260800151600360008460000186608001518154811061143a577f4e487b7100000000000000000000000000000000000000000000000000000000600052603260045260246000fd5b90600052602060002001548152602001908152602001600020600401819055505b81600001805480611495577f4e487b7100000000000000000000000000000000000000000000000000000000600052603160045260246000fd5b60019003818190600052602060002001600090559055505050505050565b806000600360008381526020019081526020016000206040518060c00160405290816000820160009054906101000a900473ffffffffffffffffffffffffffffffffffffffff1673ffffffffffffffffffffffffffffffffffffffff1673ffffffffffffffffffffffffffffffffffffffff1681526020016001820154815260200160028201548152602001600382015481526020016004820154815260200160058201548152505090506000801b816020015114156115a8576040517f08c379a000000000000000000000000000000000000000000000000000000000815260040161159f90612a1e565b60405180910390fd5b6115d27f21702c8af46127c7fa207f89d0b0a8441bb32959a0ac7df790e9ab1a25c98926336116c2565b806115e657506115e56000801b336116c2565b5b611625576040517f08c379a000000000000000000000000000000000000000000000000000000000815260040161161c90612abe565b60405180910390fd5b6000600260003373ffffffffffffffffffffffffffffffffffffffff1673ffffffffffffffffffffffffffffffffffffffff16815260200190815260200160002090508060010184908060018154018082558091505060019003906000526020600020016000909190919091505550505050565b60008060009054906101000a900473ffffffffffffffffffffffffffffffffffffffff16905090565b60006001600084815260200190815260200160002060000160008373ffffffffffffffffffffffffffffffffffffffff1673ffffffffffffffffffffffffffffffffffffffff16815260200190815260200160002060009054906101000a900460ff16905092915050565b6000801b81565b60006003600084815260200190815260200160002090506000801b816001015414611794576040517f08c379a000000000000000000000000000000000000000000000000000000000815260040161178b90612a7e565b60405180910390fd5b6000600260003373ffffffffffffffffffffffffffffffffffffffff1673ffffffffffffffffffffffffffffffffffffffff1681526020019081526020016000209050338260000160006101000a81548173ffffffffffffffffffffffffffffffffffffffff021916908373ffffffffffffffffffffffffffffffffffffffff16021790555083826001018190555082826002018190555042826005018190555060048054905082600301819055508060000180549050826004018190555081600360008681526020019081526020016000206000820160009054906101000a900473ffffffffffffffffffffffffffffffffffffffff168160000160006101000a81548173ffffffffffffffffffffffffffffffffffffffff021916908373ffffffffffffffffffffffffffffffffffffffff160217905550600182015481600101556002820154816002015560038201548160030155600482015481600401556005820154816005015590505060048490806001815401808255809150506001900390600052602060002001600090919091909150558060000184908060018154018082558091505060019003906000526020600020016000909190919091505550505050565b7f21702c8af46127c7fa207f89d0b0a8441bb32959a0ac7df790e9ab1a25c9892681565b6000600480549050905090565b611997826108da565b6119a081611a9d565b6119aa8383611b99565b505050565b6119b7611c7b565b600073ffffffffffffffffffffffffffffffffffffffff168173ffffffffffffffffffffffffffffffffffffffff161415611a27576040517f08c379a0000000000000000000000000000000000000000000000000000000008152600401611a1e90612a3e565b60405180910390fd5b611a3081611cf9565b50565b60007f01ffc9a7000000000000000000000000000000000000000000000000000000007bffffffffffffffffffffffffffffffffffffffffffffffffffffffff1916827bffffffffffffffffffffffffffffffffffffffffffffffffffffffff1916149050919050565b611aae81611aa9611b91565b611dbd565b50565b611abb82826116c2565b611b8d57600180600084815260200190815260200160002060000160008373ffffffffffffffffffffffffffffffffffffffff1673ffffffffffffffffffffffffffffffffffffffff16815260200190815260200160002060006101000a81548160ff021916908315150217905550611b32611b91565b73ffffffffffffffffffffffffffffffffffffffff168173ffffffffffffffffffffffffffffffffffffffff16837f2f8788117e7eff1d82e926ec794901d17c78024a50270940304540a733656f0d60405160405180910390a45b5050565b600033905090565b611ba382826116c2565b15611c775760006001600084815260200190815260200160002060000160008373ffffffffffffffffffffffffffffffffffffffff1673ffffffffffffffffffffffffffffffffffffffff16815260200190815260200160002060006101000a81548160ff021916908315150217905550611c1c611b91565b73ffffffffffffffffffffffffffffffffffffffff168173ffffffffffffffffffffffffffffffffffffffff16837ff6391f5c32d9c69d2a47ea670b442974b53935d1edc7fd64eb21e047a839171b60405160405180910390a45b5050565b611c83611b91565b73ffffffffffffffffffffffffffffffffffffffff16611ca1611699565b73ffffffffffffffffffffffffffffffffffffffff1614611cf7576040517f08c379a0000000000000000000000000000000000000000000000000000000008152600401611cee90612a5e565b60405180910390fd5b565b60008060009054906101000a900473ffffffffffffffffffffffffffffffffffffffff169050816000806101000a81548173ffffffffffffffffffffffffffffffffffffffff021916908373ffffffffffffffffffffffffffffffffffffffff1602179055508173ffffffffffffffffffffffffffffffffffffffff168173ffffffffffffffffffffffffffffffffffffffff167f8be0079c531659141344cd1fd0a4f28419497f9722a3daafe3b4186f6b6457e060405160405180910390a35050565b611dc782826116c2565b611e3e57611dd481611e42565b611de28360001c6020611e6f565b604051602001611df392919061290d565b6040516020818303038152906040526040517f08c379a0000000000000000000000000000000000000000000000000000000008152600401611e3591906129dc565b60405180910390fd5b5050565b6060611e688273ffffffffffffffffffffffffffffffffffffffff16601460ff16611e6f565b9050919050565b606060006002836002611e829190612ca7565b611e8c9190612c51565b67ffffffffffffffff811115611ecb577f4e487b7100000000000000000000000000000000000000000000000000000000600052604160045260246000fd5b6040519080825280601f01601f191660200182016040528015611efd5781602001600182028036833780820191505090505b5090507f300000000000000000000000000000000000000000000000000000000000000081600081518110611f5b577f4e487b7100000000000000000000000000000000000000000000000000000000600052603260045260246000fd5b60200101907effffffffffffffffffffffffffffffffffffffffffffffffffffffffffffff1916908160001a9053507f780000000000000000000000000000000000000000000000000000000000000081600181518110611fe5577f4e487b7100000000000000000000000000000000000000000000000000000000600052603260045260246000fd5b60200101907effffffffffffffffffffffffffffffffffffffffffffffffffffffffffffff1916908160001a905350600060018460026120259190612ca7565b61202f9190612c51565b90505b600181111561211b577f3031323334353637383961626364656600000000000000000000000000000000600f861660108110612097577f4e487b7100000000000000000000000000000000000000000000000000000000600052603260045260246000fd5b1a60f81b8282815181106120d4577f4e487b7100000000000000000000000000000000000000000000000000000000600052603260045260246000fd5b60200101907effffffffffffffffffffffffffffffffffffffffffffffffffffffffffffff1916908160001a905350600485901c94508061211490612de6565b9050612032565b506000841461215f576040517f08c379a0000000000000000000000000000000000000000000000000000000008152600401612156906129fe565b60405180910390fd5b8091505092915050565b6040518060c00160405280600073ffffffffffffffffffffffffffffffffffffffff16815260200160008019168152602001600080191681526020016000815260200160008152602001600081525090565b604051806040016040528060608152602001606081525090565b60006121e86121e384612b7b565b612b56565b9050808382526020820190508285602086028201111561220757600080fd5b60005b85811015612237578161221d8882612280565b84526020840193506020830192505060018101905061220a565b5050509392505050565b600081359050612250816130df565b92915050565b600082601f83011261226757600080fd5b81356122778482602086016121d5565b91505092915050565b60008135905061228f816130f6565b92915050565b6000813590506122a48161310d565b92915050565b6000813590506122b981613124565b92915050565b6000602082840312156122d157600080fd5b60006122df84828501612241565b91505092915050565b6000602082840312156122fa57600080fd5b600082013567ffffffffffffffff81111561231457600080fd5b61232084828501612256565b91505092915050565b60006020828403121561233b57600080fd5b600061234984828501612280565b91505092915050565b6000806040838503121561236557600080fd5b600061237385828601612280565b925050602061238485828601612241565b9150509250929050565b600080604083850312156123a157600080fd5b60006123af85828601612280565b92505060206123c085828601612280565b9150509250929050565b6000602082840312156123dc57600080fd5b60006123ea84828501612295565b91505092915050565b60006020828403121561240557600080fd5b6000612413848285016122aa565b91505092915050565b6000806040838503121561242f57600080fd5b600061243d858286016122aa565b925050602061244e858286016122aa565b9150509250929050565b600061246483836125cf565b60208301905092915050565b600061247c83836127b5565b60c08301905092915050565b61249181612d35565b82525050565b6124a081612d35565b82525050565b60006124b182612bc7565b6124bb8185612c02565b93506124c683612ba7565b8060005b838110156124f75781516124de8882612458565b97506124e983612be8565b9250506001810190506124ca565b5085935050505092915050565b600061250f82612bc7565b6125198185612c13565b935061252483612ba7565b8060005b8381101561255557815161253c8882612458565b975061254783612be8565b925050600181019050612528565b5085935050505092915050565b600061256d82612bd2565b6125778185612c24565b935061258283612bb7565b8060005b838110156125b357815161259a8882612470565b97506125a583612bf5565b925050600181019050612586565b5085935050505092915050565b6125c981612d47565b82525050565b6125d881612d53565b82525050565b6125e781612d53565b82525050565b60006125f882612bdd565b6126028185612c35565b9350612612818560208601612db3565b61261b81612ee8565b840191505092915050565b600061263182612bdd565b61263b8185612c46565b935061264b818560208601612db3565b80840191505092915050565b6000612664602083612c35565b915061266f82612ef9565b602082019050919050565b6000612687601483612c35565b915061269282612f22565b602082019050919050565b60006126aa602683612c35565b91506126b582612f4b565b604082019050919050565b60006126cd602083612c35565b91506126d882612f9a565b602082019050919050565b60006126f0601583612c35565b91506126fb82612fc3565b602082019050919050565b6000612713601383612c35565b915061271e82612fec565b602082019050919050565b6000612736601983612c35565b915061274182613015565b602082019050919050565b6000612759601783612c46565b91506127648261303e565b601782019050919050565b600061277c601183612c46565b915061278782613067565b601182019050919050565b600061279f602f83612c35565b91506127aa82613090565b604082019050919050565b60c0820160008201516127cb6000850182612488565b5060208201516127de60208501826125cf565b5060408201516127f160408501826125cf565b50606082015161280460608501826128ef565b50608082015161281760808501826128ef565b5060a082015161282a60a08501826128ef565b50505050565b60c0820160008201516128466000850182612488565b50602082015161285960208501826125cf565b50604082015161286c60408501826125cf565b50606082015161287f60608501826128ef565b50608082015161289260808501826128ef565b5060a08201516128a560a08501826128ef565b50505050565b600060408301600083015184820360008601526128c882826124a6565b915050602083015184820360208601526128e282826124a6565b9150508091505092915050565b6128f881612da9565b82525050565b61290781612da9565b82525050565b60006129188261274c565b91506129248285612626565b915061292f8261276f565b915061293b8284612626565b91508190509392505050565b600060208201905061295c6000830184612497565b92915050565b6000602082019050818103600083015261297c8184612504565b905092915050565b6000602082019050818103600083015261299e8184612562565b905092915050565b60006020820190506129bb60008301846125c0565b92915050565b60006020820190506129d660008301846125de565b92915050565b600060208201905081810360008301526129f681846125ed565b905092915050565b60006020820190508181036000830152612a1781612657565b9050919050565b60006020820190508181036000830152612a378161267a565b9050919050565b60006020820190508181036000830152612a578161269d565b9050919050565b60006020820190508181036000830152612a77816126c0565b9050919050565b60006020820190508181036000830152612a97816126e3565b9050919050565b60006020820190508181036000830152612ab781612706565b9050919050565b60006020820190508181036000830152612ad781612729565b9050919050565b60006020820190508181036000830152612af781612792565b9050919050565b600060c082019050612b136000830184612830565b92915050565b60006020820190508181036000830152612b3381846128ab565b905092915050565b6000602082019050612b5060008301846128fe565b92915050565b6000612b60612b71565b9050612b6c8282612e10565b919050565b6000604051905090565b600067ffffffffffffffff821115612b9657612b95612eb9565b5b602082029050602081019050919050565b6000819050602082019050919050565b6000819050602082019050919050565b600081519050919050565b600081519050919050565b600081519050919050565b6000602082019050919050565b6000602082019050919050565b600082825260208201905092915050565b600082825260208201905092915050565b600082825260208201905092915050565b600082825260208201905092915050565b600081905092915050565b6000612c5c82612da9565b9150612c6783612da9565b9250827fffffffffffffffffffffffffffffffffffffffffffffffffffffffffffffffff03821115612c9c57612c9b612e8a565b5b828201905092915050565b6000612cb282612da9565b9150612cbd83612da9565b9250817fffffffffffffffffffffffffffffffffffffffffffffffffffffffffffffffff0483118215151615612cf657612cf5612e8a565b5b828202905092915050565b6000612d0c82612da9565b9150612d1783612da9565b925082821015612d2a57612d29612e8a565b5b828203905092915050565b6000612d4082612d89565b9050919050565b60008115159050919050565b6000819050919050565b60007fffffffff0000000000000000000000000000000000000000000000000000000082169050919050565b600073ffffffffffffffffffffffffffffffffffffffff82169050919050565b6000819050919050565b60005b83811015612dd1578082015181840152602081019050612db6565b83811115612de0576000848401525b50505050565b6000612df182612da9565b91506000821415612e0557612e04612e8a565b5b600182039050919050565b612e1982612ee8565b810181811067ffffffffffffffff82111715612e3857612e37612eb9565b5b80604052505050565b6000612e4c82612da9565b91507fffffffffffffffffffffffffffffffffffffffffffffffffffffffffffffffff821415612e7f57612e7e612e8a565b5b600182019050919050565b7f4e487b7100000000000000000000000000000000000000000000000000000000600052601160045260246000fd5b7f4e487b7100000000000000000000000000000000000000000000000000000000600052604160045260246000fd5b6000601f19601f8301169050919050565b7f537472696e67733a20686578206c656e67746820696e73756666696369656e74600082015250565b7f5265636f726420646f65736e2774206578697374000000000000000000000000600082015250565b7f4f776e61626c653a206e6577206f776e657220697320746865207a65726f206160008201527f6464726573730000000000000000000000000000000000000000000000000000602082015250565b7f4f776e61626c653a2063616c6c6572206973206e6f7420746865206f776e6572600082015250565b7f5265636f726420616c7265616479206578697374730000000000000000000000600082015250565b7f53656e646572206973206e6f74206f776e657200000000000000000000000000600082015250565b7f56616c69646174696f6e206973206e6f7420616c6c6f77656400000000000000600082015250565b7f416363657373436f6e74726f6c3a206163636f756e7420000000000000000000600082015250565b7f206973206d697373696e6720726f6c6520000000000000000000000000000000600082015250565b7f416363657373436f6e74726f6c3a2063616e206f6e6c792072656e6f756e636560008201527f20726f6c657320666f722073656c660000000000000000000000000000000000602082015250565b6130e881612d35565b81146130f357600080fd5b50565b6130ff81612d53565b811461310a57600080fd5b50565b61311681612d5d565b811461312157600080fd5b50565b61312d81612da9565b811461313857600080fd5b5056fea2646970667358221220ee951351076a23ac569d8015ed23b1af31e3836e563b46af97ff83adabd44f6a64736f6c63430008040033",
  "linkReferences": {},
  "deployedLinkReferences": {}
}