{
  "_format": "hh-sol-artifact-1",
  "contractName": "DappRegistry",
  "sourceName": "contracts/DappRegistry.sol",
  "abi": [
    {
      "inputs": [],
      "stateMutability": "nonpayable",
      "type": "constructor"
    },
    {
      "anonymous": false,
      "inputs": [
        {
          "indexed": true,
          "internalType": "address",
          "name": "previousOwner",
          "type": "address"
        },
        {
          "indexed": true,
          "internalType": "address",
          "name": "newOwner",
          "type": "address"
        }
      ],
      "name": "OwnershipTransferred",
      "type": "event"
    },
    {
      "anonymous": false,
      "inputs": [
        {
          "indexed": true,
          "internalType": "bytes32",
          "name": "role",
          "type": "bytes32"
        },
        {
          "indexed": true,
          "internalType": "bytes32",
          "name": "previousAdminRole",
          "type": "bytes32"
        },
        {
          "indexed": true,
          "internalType": "bytes32",
          "name": "newAdminRole",
          "type": "bytes32"
        }
      ],
      "name": "RoleAdminChanged",
      "type": "event"
    },
    {
      "anonymous": false,
      "inputs": [
        {
          "indexed": true,
          "internalType": "bytes32",
          "name": "role",
          "type": "bytes32"
        },
        {
          "indexed": true,
          "internalType": "address",
          "name": "account",
          "type": "address"
        },
        {
          "indexed": true,
          "internalType": "address",
          "name": "sender",
          "type": "address"
        }
      ],
      "name": "RoleGranted",
      "type": "event"
    },
    {
      "anonymous": false,
      "inputs": [
        {
          "indexed": true,
          "internalType": "bytes32",
          "name": "role",
          "type": "bytes32"
        },
        {
          "indexed": true,
          "internalType": "address",
          "name": "account",
          "type": "address"
        },
        {
          "indexed": true,
          "internalType": "address",
          "name": "sender",
          "type": "address"
        }
      ],
      "name": "RoleRevoked",
      "type": "event"
    },
    {
      "inputs": [],
      "name": "DEFAULT_ADMIN_ROLE",
      "outputs": [
        {
          "internalType": "bytes32",
          "name": "",
          "type": "bytes32"
        }
      ],
      "stateMutability": "view",
      "type": "function"
    },
    {
      "inputs": [],
      "name": "VALIDATOR_ROLE",
      "outputs": [
        {
          "internalType": "bytes32",
          "name": "",
          "type": "bytes32"
        }
      ],
      "stateMutability": "view",
      "type": "function"
    },
    {
      "inputs": [
        {
          "internalType": "bytes32",
          "name": "_location",
          "type": "bytes32"
        },
        {
          "internalType": "bytes32",
          "name": "_urlHash",
          "type": "bytes32"
        }
      ],
      "name": "createRecord",
      "outputs": [],
      "stateMutability": "nonpayable",
      "type": "function"
    },
    {
      "inputs": [
        {
          "internalType": "bytes32",
          "name": "_recordHash",
          "type": "bytes32"
        },
        {
          "internalType": "bytes32",
          "name": "_newLocation",
          "type": "bytes32"
        }
      ],
      "name": "editRecord",
      "outputs": [],
      "stateMutability": "nonpayable",
      "type": "function"
    },
    {
      "inputs": [
        {
          "internalType": "bytes32",
          "name": "_location",
          "type": "bytes32"
        }
      ],
      "name": "getRecord",
      "outputs": [
        {
          "components": [
            {
              "internalType": "bytes32",
              "name": "recordHash",
              "type": "bytes32"
            },
            {
              "internalType": "address",
              "name": "creator",
              "type": "address"
            },
            {
              "internalType": "bytes32",
              "name": "location",
              "type": "bytes32"
            },
            {
              "internalType": "bytes32",
              "name": "urlHash",
              "type": "bytes32"
            },
            {
              "internalType": "bool",
              "name": "edited",
              "type": "bool"
            },
            {
              "internalType": "uint256",
              "name": "index",
              "type": "uint256"
            },
            {
              "internalType": "uint256",
              "name": "creatorIndex",
              "type": "uint256"
            },
            {
              "internalType": "uint256",
              "name": "timestamp",
              "type": "uint256"
            }
          ],
          "internalType": "struct DappRegistry.Record",
          "name": "",
          "type": "tuple"
        }
      ],
      "stateMutability": "view",
      "type": "function"
    },
    {
      "inputs": [],
      "name": "getRecordCount",
      "outputs": [
        {
          "internalType": "uint256",
          "name": "",
          "type": "uint256"
        }
      ],
      "stateMutability": "view",
      "type": "function"
    },
    {
      "inputs": [
        {
          "internalType": "uint256",
          "name": "_startIndex",
          "type": "uint256"
        },
        {
          "internalType": "uint256",
          "name": "_length",
          "type": "uint256"
        }
      ],
      "name": "getRecordSlice",
      "outputs": [
        {
          "internalType": "bytes32[]",
          "name": "",
          "type": "bytes32[]"
        }
      ],
      "stateMutability": "view",
      "type": "function"
    },
    {
      "inputs": [
        {
          "internalType": "bytes32[]",
          "name": "_recordHashes",
          "type": "bytes32[]"
        }
      ],
      "name": "getRecords",
      "outputs": [
        {
          "components": [
            {
              "internalType": "bytes32",
              "name": "recordHash",
              "type": "bytes32"
            },
            {
              "internalType": "address",
              "name": "creator",
              "type": "address"
            },
            {
              "internalType": "bytes32",
              "name": "location",
              "type": "bytes32"
            },
            {
              "internalType": "bytes32",
              "name": "urlHash",
              "type": "bytes32"
            },
            {
              "internalType": "bool",
              "name": "edited",
              "type": "bool"
            },
            {
              "internalType": "uint256",
              "name": "index",
              "type": "uint256"
            },
            {
              "internalType": "uint256",
              "name": "creatorIndex",
              "type": "uint256"
            },
            {
              "internalType": "uint256",
              "name": "timestamp",
              "type": "uint256"
            }
          ],
          "internalType": "struct DappRegistry.Record[]",
          "name": "",
          "type": "tuple[]"
        }
      ],
      "stateMutability": "view",
      "type": "function"
    },
    {
      "inputs": [
        {
          "internalType": "bytes32",
          "name": "role",
          "type": "bytes32"
        }
      ],
      "name": "getRoleAdmin",
      "outputs": [
        {
          "internalType": "bytes32",
          "name": "",
          "type": "bytes32"
        }
      ],
      "stateMutability": "view",
      "type": "function"
    },
    {
      "inputs": [
        {
          "internalType": "address",
          "name": "_account",
          "type": "address"
        }
      ],
      "name": "getUserRecordHashes",
      "outputs": [
        {
          "internalType": "bytes32[]",
          "name": "",
          "type": "bytes32[]"
        }
      ],
      "stateMutability": "view",
      "type": "function"
    },
    {
      "inputs": [
        {
          "internalType": "address",
          "name": "_validatorAddress",
          "type": "address"
        }
      ],
      "name": "getValidatedRecords",
      "outputs": [
        {
          "components": [
            {
              "internalType": "bytes32",
              "name": "recordHash",
              "type": "bytes32"
            },
            {
              "internalType": "address",
              "name": "creator",
              "type": "address"
            },
            {
              "internalType": "bytes32",
              "name": "location",
              "type": "bytes32"
            },
            {
              "internalType": "bytes32",
              "name": "urlHash",
              "type": "bytes32"
            },
            {
              "internalType": "bool",
              "name": "edited",
              "type": "bool"
            },
            {
              "internalType": "uint256",
              "name": "index",
              "type": "uint256"
            },
            {
              "internalType": "uint256",
              "name": "creatorIndex",
              "type": "uint256"
            },
            {
              "internalType": "uint256",
              "name": "timestamp",
              "type": "uint256"
            }
          ],
          "internalType": "struct DappRegistry.Record[]",
          "name": "",
          "type": "tuple[]"
        }
      ],
      "stateMutability": "view",
      "type": "function"
    },
    {
      "inputs": [
        {
          "internalType": "bytes32",
          "name": "role",
          "type": "bytes32"
        },
        {
          "internalType": "address",
          "name": "account",
          "type": "address"
        }
      ],
      "name": "grantRole",
      "outputs": [],
      "stateMutability": "nonpayable",
      "type": "function"
    },
    {
      "inputs": [
        {
          "internalType": "bytes32",
          "name": "role",
          "type": "bytes32"
        },
        {
          "internalType": "address",
          "name": "account",
          "type": "address"
        }
      ],
      "name": "hasRole",
      "outputs": [
        {
          "internalType": "bool",
          "name": "",
          "type": "bool"
        }
      ],
      "stateMutability": "view",
      "type": "function"
    },
    {
      "inputs": [],
      "name": "owner",
      "outputs": [
        {
          "internalType": "address",
          "name": "",
          "type": "address"
        }
      ],
      "stateMutability": "view",
      "type": "function"
    },
    {
      "inputs": [
        {
          "internalType": "uint256",
          "name": "",
          "type": "uint256"
        }
      ],
      "name": "recordList",
      "outputs": [
        {
          "internalType": "bytes32",
          "name": "",
          "type": "bytes32"
        }
      ],
      "stateMutability": "view",
      "type": "function"
    },
    {
      "inputs": [],
      "name": "renounceOwnership",
      "outputs": [],
      "stateMutability": "nonpayable",
      "type": "function"
    },
    {
      "inputs": [
        {
          "internalType": "bytes32",
          "name": "role",
          "type": "bytes32"
        },
        {
          "internalType": "address",
          "name": "account",
          "type": "address"
        }
      ],
      "name": "renounceRole",
      "outputs": [],
      "stateMutability": "nonpayable",
      "type": "function"
    },
    {
      "inputs": [
        {
          "internalType": "bytes32",
          "name": "role",
          "type": "bytes32"
        },
        {
          "internalType": "address",
          "name": "account",
          "type": "address"
        }
      ],
      "name": "revokeRole",
      "outputs": [],
      "stateMutability": "nonpayable",
      "type": "function"
    },
    {
      "inputs": [
        {
          "internalType": "bytes4",
          "name": "interfaceId",
          "type": "bytes4"
        }
      ],
      "name": "supportsInterface",
      "outputs": [
        {
          "internalType": "bool",
          "name": "",
          "type": "bool"
        }
      ],
      "stateMutability": "view",
      "type": "function"
    },
    {
      "inputs": [
        {
          "internalType": "address",
          "name": "newOwner",
          "type": "address"
        }
      ],
      "name": "transferOwnership",
      "outputs": [],
      "stateMutability": "nonpayable",
      "type": "function"
    },
    {
      "inputs": [
        {
          "internalType": "bytes32",
          "name": "_recordHash",
          "type": "bytes32"
        }
      ],
      "name": "unvalidateRecord",
      "outputs": [],
      "stateMutability": "nonpayable",
      "type": "function"
    },
    {
      "inputs": [
        {
          "internalType": "bytes32",
          "name": "_recordHash",
          "type": "bytes32"
        }
      ],
      "name": "validateRecord",
      "outputs": [],
      "stateMutability": "nonpayable",
      "type": "function"
    }
  ],
  "bytecode": "0x60806040523480156200001157600080fd5b5062000032620000266200004d60201b60201c565b6200005560201b60201c565b620000476000801b336200011960201b60201c565b62000275565b600033905090565b60008060009054906101000a900473ffffffffffffffffffffffffffffffffffffffff169050816000806101000a81548173ffffffffffffffffffffffffffffffffffffffff021916908373ffffffffffffffffffffffffffffffffffffffff1602179055508173ffffffffffffffffffffffffffffffffffffffff168173ffffffffffffffffffffffffffffffffffffffff167f8be0079c531659141344cd1fd0a4f28419497f9722a3daafe3b4186f6b6457e060405160405180910390a35050565b6200012b82826200020a60201b60201c565b6200020657600180600084815260200190815260200160002060000160008373ffffffffffffffffffffffffffffffffffffffff1673ffffffffffffffffffffffffffffffffffffffff16815260200190815260200160002060006101000a81548160ff021916908315150217905550620001ab6200004d60201b60201c565b73ffffffffffffffffffffffffffffffffffffffff168173ffffffffffffffffffffffffffffffffffffffff16837f2f8788117e7eff1d82e926ec794901d17c78024a50270940304540a733656f0d60405160405180910390a45b5050565b60006001600084815260200190815260200160002060000160008373ffffffffffffffffffffffffffffffffffffffff1673ffffffffffffffffffffffffffffffffffffffff16815260200190815260200160002060009054906101000a900460ff16905092915050565b612d7e80620002856000396000f3fe608060405234801561001057600080fd5b50600436106101425760003560e01c8063715018a6116100b8578063a53278281161007c578063a5327828146103ad578063c49baebe146103c9578063ca267f28146103e7578063d547741f14610405578063d7419b2a14610421578063f2fde38b1461043d57610142565b8063715018a61461031b5780638d87b9db146103255780638da5cb5b1461034157806391d148541461035f578063a217fddf1461038f57610142565b80632b1e28b41161010a5780632b1e28b4146102235780632f2ff15d1461025357806336568abe1461026f578063411af8101461028b578063490257de146102bb5780636b90e42a146102eb57610142565b806301ffc9a714610147578063033ca06e1461017757806319da83a814610193578063213681cd146101c3578063248a9ca3146101f3575b600080fd5b610161600480360381019061015c9190612016565b610459565b60405161016e91906125e5565b60405180910390f35b610191600480360381019061018c9190611f75565b6104d3565b005b6101ad60048036038101906101a8919061203f565b6106bb565b6040516101ba9190612600565b60405180910390f35b6101dd60048036038101906101d89190611f75565b6106df565b6040516101ea919061273d565b60405180910390f35b61020d60048036038101906102089190611f75565b6107ba565b60405161021a9190612600565b60405180910390f35b61023d60048036038101906102389190611f0b565b6107da565b60405161024a91906125a1565b60405180910390f35b61026d60048036038101906102689190611f9e565b610874565b005b61028960048036038101906102849190611f9e565b610895565b005b6102a560048036038101906102a09190611f34565b610918565b6040516102b291906125c3565b60405180910390f35b6102d560048036038101906102d09190612068565b610b12565b6040516102e291906125a1565b60405180910390f35b61030560048036038101906103009190611f0b565b610c71565b60405161031291906125c3565b60405180910390f35b610323610ec1565b005b61033f600480360381019061033a9190611f75565b610ed5565b005b610349611072565b604051610356919061254f565b60405180910390f35b61037960048036038101906103749190611f9e565b61109b565b60405161038691906125e5565b60405180910390f35b610397611106565b6040516103a49190612600565b60405180910390f35b6103c760048036038101906103c29190611fda565b61110d565b005b6103d16113ca565b6040516103de9190612600565b60405180910390f35b6103ef6113ee565b6040516103fc9190612759565b60405180910390f35b61041f600480360381019061041a9190611f9e565b6113fb565b005b61043b60048036038101906104369190611fda565b61141c565b005b61045760048036038101906104529190611f0b565b611601565b005b60007f7965db0b000000000000000000000000000000000000000000000000000000007bffffffffffffffffffffffffffffffffffffffffffffffffffffffff1916827bffffffffffffffffffffffffffffffffffffffffffffffffffffffff191614806104cc57506104cb82611685565b5b9050919050565b6000600260003373ffffffffffffffffffffffffffffffffffffffff1673ffffffffffffffffffffffffffffffffffffffff168152602001908152602001600020905060006001826001018054905061052c919061290e565b905060005b8181116106b55783836001018281548110610575577f4e487b7100000000000000000000000000000000000000000000000000000000600052603260045260246000fd5b906000526020600020015414156106a25781811461061f578260010182815481106105c9577f4e487b7100000000000000000000000000000000000000000000000000000000600052603260045260246000fd5b9060005260206000200154836001018281548110610610577f4e487b7100000000000000000000000000000000000000000000000000000000600052603260045260246000fd5b90600052602060002001819055505b82600101805480610659577f4e487b7100000000000000000000000000000000000000000000000000000000600052603160045260246000fd5b60019003818190600052602060002001600090559055600183600201600086815260200190815260200160002060006101000a81548160ff0219169083151502179055506106b5565b80806106ad90612a4e565b915050610531565b50505050565b600481815481106106cb57600080fd5b906000526020600020016000915090505481565b6106e7611dbb565b6003600083815260200190815260200160002060405180610100016040529081600082015481526020016001820160009054906101000a900473ffffffffffffffffffffffffffffffffffffffff1673ffffffffffffffffffffffffffffffffffffffff1673ffffffffffffffffffffffffffffffffffffffff16815260200160028201548152602001600382015481526020016004820160009054906101000a900460ff1615151515815260200160058201548152602001600682015481526020016007820154815250509050919050565b600060016000838152602001908152602001600020600101549050919050565b6060600260008373ffffffffffffffffffffffffffffffffffffffff1673ffffffffffffffffffffffffffffffffffffffff16815260200190815260200160002060000180548060200260200160405190810160405280929190818152602001828054801561086857602002820191906000526020600020905b815481526020019060010190808311610854575b50505050509050919050565b61087d826107ba565b610886816116ef565b6108908383611703565b505050565b61089d6117e3565b73ffffffffffffffffffffffffffffffffffffffff168173ffffffffffffffffffffffffffffffffffffffff161461090a576040517f08c379a00000000000000000000000000000000000000000000000000000000081526004016109019061271d565b60405180910390fd5b61091482826117eb565b5050565b60606000825167ffffffffffffffff81111561095d577f4e487b7100000000000000000000000000000000000000000000000000000000600052604160045260246000fd5b60405190808252806020026020018201604052801561099657816020015b610983611dbb565b81526020019060019003908161097b5790505b50905060005b8351811015610b0857600360008583815181106109e2577f4e487b7100000000000000000000000000000000000000000000000000000000600052603260045260246000fd5b6020026020010151815260200190815260200160002060405180610100016040529081600082015481526020016001820160009054906101000a900473ffffffffffffffffffffffffffffffffffffffff1673ffffffffffffffffffffffffffffffffffffffff1673ffffffffffffffffffffffffffffffffffffffff16815260200160028201548152602001600382015481526020016004820160009054906101000a900460ff161515151581526020016005820154815260200160068201548152602001600782015481525050828281518110610aea577f4e487b7100000000000000000000000000000000000000000000000000000000600052603260045260246000fd5b60200260200101819052508080610b0090612a4e565b91505061099c565b5080915050919050565b60606004805490508284610b26919061285e565b1115610b405782600480549050610b3d919061290e565b91505b60008267ffffffffffffffff811115610b82577f4e487b7100000000000000000000000000000000000000000000000000000000600052604160045260246000fd5b604051908082528060200260200182016040528015610bb05781602001602082028036833780820191505090505b50905060005b83811015610c665760048186610bcc919061285e565b81548110610c03577f4e487b7100000000000000000000000000000000000000000000000000000000600052603260045260246000fd5b9060005260206000200154828281518110610c47577f4e487b7100000000000000000000000000000000000000000000000000000000600052603260045260246000fd5b6020026020010181815250508080610c5e90612a4e565b915050610bb6565b508091505092915050565b60606000600260008473ffffffffffffffffffffffffffffffffffffffff1673ffffffffffffffffffffffffffffffffffffffff16815260200190815260200160002090506000816001018054905067ffffffffffffffff811115610cff577f4e487b7100000000000000000000000000000000000000000000000000000000600052604160045260246000fd5b604051908082528060200260200182016040528015610d3857816020015b610d25611dbb565b815260200190600190039081610d1d5790505b50905060005b8260010180549050811015610eb65760036000846001018381548110610d8d577f4e487b7100000000000000000000000000000000000000000000000000000000600052603260045260246000fd5b9060005260206000200154815260200190815260200160002060405180610100016040529081600082015481526020016001820160009054906101000a900473ffffffffffffffffffffffffffffffffffffffff1673ffffffffffffffffffffffffffffffffffffffff1673ffffffffffffffffffffffffffffffffffffffff16815260200160028201548152602001600382015481526020016004820160009054906101000a900460ff161515151581526020016005820154815260200160068201548152602001600782015481525050828281518110610e98577f4e487b7100000000000000000000000000000000000000000000000000000000600052603260045260246000fd5b60200260200101819052508080610eae90612a4e565b915050610d3e565b508092505050919050565b610ec96118cd565b610ed3600061194b565b565b6000600260003373ffffffffffffffffffffffffffffffffffffffff1673ffffffffffffffffffffffffffffffffffffffff16815260200190815260200160002090506000801b60036000848152602001908152602001600020600201541415610f74576040517f08c379a0000000000000000000000000000000000000000000000000000000008152600401610f6b9061269d565b60405180910390fd5b610f816000801b3361109b565b80610fb25750610fb17f21702c8af46127c7fa207f89d0b0a8441bb32959a0ac7df790e9ab1a25c989263361109b565b5b15610fed57600060036000848152602001908152602001600020905060008160040160006101000a81548160ff021916908315150217905550505b80600201600083815260200190815260200160002060009054906101000a900460ff1661106e5780600101829080600181540180825580915050600190039060005260206000200160009091909190915055600181600201600084815260200190815260200160002060006101000a81548160ff0219169083151502179055505b5050565b60008060009054906101000a900473ffffffffffffffffffffffffffffffffffffffff16905090565b60006001600084815260200190815260200160002060000160008373ffffffffffffffffffffffffffffffffffffffff1673ffffffffffffffffffffffffffffffffffffffff16815260200190815260200160002060009054906101000a900460ff16905092915050565b6000801b81565b6000600260003373ffffffffffffffffffffffffffffffffffffffff1673ffffffffffffffffffffffffffffffffffffffff168152602001908152602001600020905060003382600001805490504260405160200161116e9392919061256a565b60405160208183030381529060405280519060200120905060006003600083815260200190815260200160002090506000801b8160020154146111e6576040517f08c379a00000000000000000000000000000000000000000000000000000000081526004016111dd906126dd565b60405180910390fd5b818160000181905550338160010160006101000a81548173ffffffffffffffffffffffffffffffffffffffff021916908373ffffffffffffffffffffffffffffffffffffffff16021790555084816002018190555083816003018190555060018160040160006101000a81548160ff0219169083151502179055504281600701819055506004805490508160050181905550826000018054905081600601819055508060036000848152602001908152602001600020600082015481600001556001820160009054906101000a900473ffffffffffffffffffffffffffffffffffffffff168160010160006101000a81548173ffffffffffffffffffffffffffffffffffffffff021916908373ffffffffffffffffffffffffffffffffffffffff16021790555060028201548160020155600382015481600301556004820160009054906101000a900460ff168160040160006101000a81548160ff0219169083151502179055506005820154816005015560068201548160060155600782015481600701559050506004829080600181540180825580915050600190039060005260206000200160009091909190915055826000018290806001815401808255809150506001900390600052602060002001600090919091909150555050505050565b7f21702c8af46127c7fa207f89d0b0a8441bb32959a0ac7df790e9ab1a25c9892681565b6000600480549050905090565b611404826107ba565b61140d816116ef565b61141783836117eb565b505050565b8160006003600083815260200190815260200160002060405180610100016040529081600082015481526020016001820160009054906101000a900473ffffffffffffffffffffffffffffffffffffffff1673ffffffffffffffffffffffffffffffffffffffff1673ffffffffffffffffffffffffffffffffffffffff16815260200160028201548152602001600382015481526020016004820160009054906101000a900460ff16151515158152602001600582015481526020016006820154815260200160078201548152505090506000801b81604001511415611537576040517f08c379a000000000000000000000000000000000000000000000000000000000815260040161152e9061265d565b60405180910390fd5b3373ffffffffffffffffffffffffffffffffffffffff16816020015173ffffffffffffffffffffffffffffffffffffffff16148061157e575061157d6000801b3361109b565b5b6115bd576040517f08c379a00000000000000000000000000000000000000000000000000000000081526004016115b4906126fd565b60405180910390fd5b600060036000868152602001908152602001600020905083816002018190555060018160040160006101000a81548160ff0219169083151502179055505050505050565b6116096118cd565b600073ffffffffffffffffffffffffffffffffffffffff168173ffffffffffffffffffffffffffffffffffffffff161415611679576040517f08c379a00000000000000000000000000000000000000000000000000000000081526004016116709061267d565b60405180910390fd5b6116828161194b565b50565b60007f01ffc9a7000000000000000000000000000000000000000000000000000000007bffffffffffffffffffffffffffffffffffffffffffffffffffffffff1916827bffffffffffffffffffffffffffffffffffffffffffffffffffffffff1916149050919050565b611700816116fb6117e3565b611a0f565b50565b61170d828261109b565b6117df57600180600084815260200190815260200160002060000160008373ffffffffffffffffffffffffffffffffffffffff1673ffffffffffffffffffffffffffffffffffffffff16815260200190815260200160002060006101000a81548160ff0219169083151502179055506117846117e3565b73ffffffffffffffffffffffffffffffffffffffff168173ffffffffffffffffffffffffffffffffffffffff16837f2f8788117e7eff1d82e926ec794901d17c78024a50270940304540a733656f0d60405160405180910390a45b5050565b600033905090565b6117f5828261109b565b156118c95760006001600084815260200190815260200160002060000160008373ffffffffffffffffffffffffffffffffffffffff1673ffffffffffffffffffffffffffffffffffffffff16815260200190815260200160002060006101000a81548160ff02191690831515021790555061186e6117e3565b73ffffffffffffffffffffffffffffffffffffffff168173ffffffffffffffffffffffffffffffffffffffff16837ff6391f5c32d9c69d2a47ea670b442974b53935d1edc7fd64eb21e047a839171b60405160405180910390a45b5050565b6118d56117e3565b73ffffffffffffffffffffffffffffffffffffffff166118f3611072565b73ffffffffffffffffffffffffffffffffffffffff1614611949576040517f08c379a0000000000000000000000000000000000000000000000000000000008152600401611940906126bd565b60405180910390fd5b565b60008060009054906101000a900473ffffffffffffffffffffffffffffffffffffffff169050816000806101000a81548173ffffffffffffffffffffffffffffffffffffffff021916908373ffffffffffffffffffffffffffffffffffffffff1602179055508173ffffffffffffffffffffffffffffffffffffffff168173ffffffffffffffffffffffffffffffffffffffff167f8be0079c531659141344cd1fd0a4f28419497f9722a3daafe3b4186f6b6457e060405160405180910390a35050565b611a19828261109b565b611a9057611a2681611a94565b611a348360001c6020611ac1565b604051602001611a45929190612515565b6040516020818303038152906040526040517f08c379a0000000000000000000000000000000000000000000000000000000008152600401611a87919061261b565b60405180910390fd5b5050565b6060611aba8273ffffffffffffffffffffffffffffffffffffffff16601460ff16611ac1565b9050919050565b606060006002836002611ad491906128b4565b611ade919061285e565b67ffffffffffffffff811115611b1d577f4e487b7100000000000000000000000000000000000000000000000000000000600052604160045260246000fd5b6040519080825280601f01601f191660200182016040528015611b4f5781602001600182028036833780820191505090505b5090507f300000000000000000000000000000000000000000000000000000000000000081600081518110611bad577f4e487b7100000000000000000000000000000000000000000000000000000000600052603260045260246000fd5b60200101907effffffffffffffffffffffffffffffffffffffffffffffffffffffffffffff1916908160001a9053507f780000000000000000000000000000000000000000000000000000000000000081600181518110611c37577f4e487b7100000000000000000000000000000000000000000000000000000000600052603260045260246000fd5b60200101907effffffffffffffffffffffffffffffffffffffffffffffffffffffffffffff1916908160001a90535060006001846002611c7791906128b4565b611c81919061285e565b90505b6001811115611d6d577f3031323334353637383961626364656600000000000000000000000000000000600f861660108110611ce9577f4e487b7100000000000000000000000000000000000000000000000000000000600052603260045260246000fd5b1a60f81b828281518110611d26577f4e487b7100000000000000000000000000000000000000000000000000000000600052603260045260246000fd5b60200101907effffffffffffffffffffffffffffffffffffffffffffffffffffffffffffff1916908160001a905350600485901c945080611d66906129f3565b9050611c84565b5060008414611db1576040517f08c379a0000000000000000000000000000000000000000000000000000000008152600401611da89061263d565b60405180910390fd5b8091505092915050565b60405180610100016040528060008019168152602001600073ffffffffffffffffffffffffffffffffffffffff16815260200160008019168152602001600080191681526020016000151581526020016000815260200160008152602001600081525090565b6000611e34611e2f84612799565b612774565b90508083825260208201905082856020860282011115611e5357600080fd5b60005b85811015611e835781611e698882611ecc565b845260208401935060208301925050600181019050611e56565b5050509392505050565b600081359050611e9c81612cec565b92915050565b600082601f830112611eb357600080fd5b8135611ec3848260208601611e21565b91505092915050565b600081359050611edb81612d03565b92915050565b600081359050611ef081612d1a565b92915050565b600081359050611f0581612d31565b92915050565b600060208284031215611f1d57600080fd5b6000611f2b84828501611e8d565b91505092915050565b600060208284031215611f4657600080fd5b600082013567ffffffffffffffff811115611f6057600080fd5b611f6c84828501611ea2565b91505092915050565b600060208284031215611f8757600080fd5b6000611f9584828501611ecc565b91505092915050565b60008060408385031215611fb157600080fd5b6000611fbf85828601611ecc565b9250506020611fd085828601611e8d565b9150509250929050565b60008060408385031215611fed57600080fd5b6000611ffb85828601611ecc565b925050602061200c85828601611ecc565b9150509250929050565b60006020828403121561202857600080fd5b600061203684828501611ee1565b91505092915050565b60006020828403121561205157600080fd5b600061205f84828501611ef6565b91505092915050565b6000806040838503121561207b57600080fd5b600061208985828601611ef6565b925050602061209a85828601611ef6565b9150509250929050565b60006120b083836121cd565b60208301905092915050565b60006120c883836123b3565b6101008301905092915050565b6120de81612942565b82525050565b6120ed81612942565b82525050565b60006120fe826127e5565b6121088185612820565b9350612113836127c5565b8060005b8381101561214457815161212b88826120a4565b975061213683612806565b925050600181019050612117565b5085935050505092915050565b600061215c826127f0565b6121668185612831565b9350612171836127d5565b8060005b838110156121a257815161218988826120bc565b975061219483612813565b925050600181019050612175565b5085935050505092915050565b6121b881612954565b82525050565b6121c781612954565b82525050565b6121d681612960565b82525050565b6121e581612960565b82525050565b60006121f6826127fb565b6122008185612842565b93506122108185602086016129c0565b61221981612af5565b840191505092915050565b600061222f826127fb565b6122398185612853565b93506122498185602086016129c0565b80840191505092915050565b6000612262602083612842565b915061226d82612b06565b602082019050919050565b6000612285601483612842565b915061229082612b2f565b602082019050919050565b60006122a8602683612842565b91506122b382612b58565b604082019050919050565b60006122cb600983612842565b91506122d682612ba7565b602082019050919050565b60006122ee602083612842565b91506122f982612bd0565b602082019050919050565b6000612311601583612842565b915061231c82612bf9565b602082019050919050565b6000612334601383612842565b915061233f82612c22565b602082019050919050565b6000612357601783612853565b915061236282612c4b565b601782019050919050565b600061237a601183612853565b915061238582612c74565b601182019050919050565b600061239d602f83612842565b91506123a882612c9d565b604082019050919050565b610100820160008201516123ca60008501826121cd565b5060208201516123dd60208501826120d5565b5060408201516123f060408501826121cd565b50606082015161240360608501826121cd565b50608082015161241660808501826121af565b5060a082015161242960a08501826124f7565b5060c082015161243c60c08501826124f7565b5060e082015161244f60e08501826124f7565b50505050565b6101008201600082015161246c60008501826121cd565b50602082015161247f60208501826120d5565b50604082015161249260408501826121cd565b5060608201516124a560608501826121cd565b5060808201516124b860808501826121af565b5060a08201516124cb60a08501826124f7565b5060c08201516124de60c08501826124f7565b5060e08201516124f160e08501826124f7565b50505050565b612500816129b6565b82525050565b61250f816129b6565b82525050565b60006125208261234a565b915061252c8285612224565b91506125378261236d565b91506125438284612224565b91508190509392505050565b600060208201905061256460008301846120e4565b92915050565b600060608201905061257f60008301866120e4565b61258c6020830185612506565b6125996040830184612506565b949350505050565b600060208201905081810360008301526125bb81846120f3565b905092915050565b600060208201905081810360008301526125dd8184612151565b905092915050565b60006020820190506125fa60008301846121be565b92915050565b600060208201905061261560008301846121dc565b92915050565b6000602082019050818103600083015261263581846121eb565b905092915050565b6000602082019050818103600083015261265681612255565b9050919050565b6000602082019050818103600083015261267681612278565b9050919050565b600060208201905081810360008301526126968161229b565b9050919050565b600060208201905081810360008301526126b6816122be565b9050919050565b600060208201905081810360008301526126d6816122e1565b9050919050565b600060208201905081810360008301526126f681612304565b9050919050565b6000602082019050818103600083015261271681612327565b9050919050565b6000602082019050818103600083015261273681612390565b9050919050565b6000610100820190506127536000830184612455565b92915050565b600060208201905061276e6000830184612506565b92915050565b600061277e61278f565b905061278a8282612a1d565b919050565b6000604051905090565b600067ffffffffffffffff8211156127b4576127b3612ac6565b5b602082029050602081019050919050565b6000819050602082019050919050565b6000819050602082019050919050565b600081519050919050565b600081519050919050565b600081519050919050565b6000602082019050919050565b6000602082019050919050565b600082825260208201905092915050565b600082825260208201905092915050565b600082825260208201905092915050565b600081905092915050565b6000612869826129b6565b9150612874836129b6565b9250827fffffffffffffffffffffffffffffffffffffffffffffffffffffffffffffffff038211156128a9576128a8612a97565b5b828201905092915050565b60006128bf826129b6565b91506128ca836129b6565b9250817fffffffffffffffffffffffffffffffffffffffffffffffffffffffffffffffff048311821515161561290357612902612a97565b5b828202905092915050565b6000612919826129b6565b9150612924836129b6565b92508282101561293757612936612a97565b5b828203905092915050565b600061294d82612996565b9050919050565b60008115159050919050565b6000819050919050565b60007fffffffff0000000000000000000000000000000000000000000000000000000082169050919050565b600073ffffffffffffffffffffffffffffffffffffffff82169050919050565b6000819050919050565b60005b838110156129de5780820151818401526020810190506129c3565b838111156129ed576000848401525b50505050565b60006129fe826129b6565b91506000821415612a1257612a11612a97565b5b600182039050919050565b612a2682612af5565b810181811067ffffffffffffffff82111715612a4557612a44612ac6565b5b80604052505050565b6000612a59826129b6565b91507fffffffffffffffffffffffffffffffffffffffffffffffffffffffffffffffff821415612a8c57612a8b612a97565b5b600182019050919050565b7f4e487b7100000000000000000000000000000000000000000000000000000000600052601160045260246000fd5b7f4e487b7100000000000000000000000000000000000000000000000000000000600052604160045260246000fd5b6000601f19601f8301169050919050565b7f537472696e67733a20686578206c656e67746820696e73756666696369656e74600082015250565b7f5265636f726420646f65736e2774206578697374000000000000000000000000600082015250565b7f4f776e61626c653a206e6577206f776e657220697320746865207a65726f206160008201527f6464726573730000000000000000000000000000000000000000000000000000602082015250565b7f4e6f207265636f72640000000000000000000000000000000000000000000000600082015250565b7f4f776e61626c653a2063616c6c6572206973206e6f7420746865206f776e6572600082015250565b7f5265636f726420616c7265616479206578697374730000000000000000000000600082015250565b7f53656e646572206973206e6f74206f776e657200000000000000000000000000600082015250565b7f416363657373436f6e74726f6c3a206163636f756e7420000000000000000000600082015250565b7f206973206d697373696e6720726f6c6520000000000000000000000000000000600082015250565b7f416363657373436f6e74726f6c3a2063616e206f6e6c792072656e6f756e636560008201527f20726f6c657320666f722073656c660000000000000000000000000000000000602082015250565b612cf581612942565b8114612d0057600080fd5b50565b612d0c81612960565b8114612d1757600080fd5b50565b612d238161296a565b8114612d2e57600080fd5b50565b612d3a816129b6565b8114612d4557600080fd5b5056fea2646970667358221220e080a089b9d33baa9a13a2b1c1342f9c624f424f89e8119ae22f97346c7d8f9764736f6c63430008040033",
  "linkReferences": {},
  "deployedLinkReferences": {}
}