{
  "_format": "hh-sol-artifact-1",
  "contractName": "DappRegistry",
  "sourceName": "contracts/DappRegistry.sol",
  "abi": [
    {
      "inputs": [],
      "stateMutability": "nonpayable",
      "type": "constructor"
    },
    {
      "anonymous": false,
      "inputs": [
        {
          "indexed": true,
          "internalType": "address",
          "name": "previousOwner",
          "type": "address"
        },
        {
          "indexed": true,
          "internalType": "address",
          "name": "newOwner",
          "type": "address"
        }
      ],
      "name": "OwnershipTransferred",
      "type": "event"
    },
    {
      "anonymous": false,
      "inputs": [
        {
          "indexed": true,
          "internalType": "bytes32",
          "name": "role",
          "type": "bytes32"
        },
        {
          "indexed": true,
          "internalType": "bytes32",
          "name": "previousAdminRole",
          "type": "bytes32"
        },
        {
          "indexed": true,
          "internalType": "bytes32",
          "name": "newAdminRole",
          "type": "bytes32"
        }
      ],
      "name": "RoleAdminChanged",
      "type": "event"
    },
    {
      "anonymous": false,
      "inputs": [
        {
          "indexed": true,
          "internalType": "bytes32",
          "name": "role",
          "type": "bytes32"
        },
        {
          "indexed": true,
          "internalType": "address",
          "name": "account",
          "type": "address"
        },
        {
          "indexed": true,
          "internalType": "address",
          "name": "sender",
          "type": "address"
        }
      ],
      "name": "RoleGranted",
      "type": "event"
    },
    {
      "anonymous": false,
      "inputs": [
        {
          "indexed": true,
          "internalType": "bytes32",
          "name": "role",
          "type": "bytes32"
        },
        {
          "indexed": true,
          "internalType": "address",
          "name": "account",
          "type": "address"
        },
        {
          "indexed": true,
          "internalType": "address",
          "name": "sender",
          "type": "address"
        }
      ],
      "name": "RoleRevoked",
      "type": "event"
    },
    {
      "inputs": [],
      "name": "DEFAULT_ADMIN_ROLE",
      "outputs": [
        {
          "internalType": "bytes32",
          "name": "",
          "type": "bytes32"
        }
      ],
      "stateMutability": "view",
      "type": "function"
    },
    {
      "inputs": [],
      "name": "VALIDATOR_ROLE",
      "outputs": [
        {
          "internalType": "bytes32",
          "name": "",
          "type": "bytes32"
        }
      ],
      "stateMutability": "view",
      "type": "function"
    },
    {
      "inputs": [
        {
          "internalType": "bytes32",
          "name": "_location",
          "type": "bytes32"
        },
        {
          "internalType": "bytes32",
          "name": "_urlHash",
          "type": "bytes32"
        }
      ],
      "name": "createRecord",
      "outputs": [],
      "stateMutability": "nonpayable",
      "type": "function"
    },
    {
      "inputs": [
        {
          "internalType": "bytes32",
          "name": "_location",
          "type": "bytes32"
        }
      ],
      "name": "deleteRecord",
      "outputs": [],
      "stateMutability": "nonpayable",
      "type": "function"
    },
    {
      "inputs": [
        {
          "internalType": "bytes32",
          "name": "_location",
          "type": "bytes32"
        }
      ],
      "name": "getRecord",
      "outputs": [
        {
          "components": [
            {
              "internalType": "address",
              "name": "creator",
              "type": "address"
            },
            {
              "internalType": "bytes32",
              "name": "location",
              "type": "bytes32"
            },
            {
              "internalType": "bytes32",
              "name": "urlHash",
              "type": "bytes32"
            },
            {
              "internalType": "uint256",
              "name": "index",
              "type": "uint256"
            },
            {
              "internalType": "uint256",
              "name": "creatorIndex",
              "type": "uint256"
            },
            {
              "internalType": "uint256",
              "name": "timestamp",
              "type": "uint256"
            },
            {
              "internalType": "bool",
              "name": "isValidated",
              "type": "bool"
            },
            {
              "internalType": "address",
              "name": "validator",
              "type": "address"
            }
          ],
          "internalType": "struct DappRegistry.Record",
          "name": "",
          "type": "tuple"
        }
      ],
      "stateMutability": "view",
      "type": "function"
    },
    {
      "inputs": [],
      "name": "getRecordCount",
      "outputs": [
        {
          "internalType": "uint256",
          "name": "",
          "type": "uint256"
        }
      ],
      "stateMutability": "view",
      "type": "function"
    },
    {
      "inputs": [
        {
          "internalType": "uint256",
          "name": "_startIndex",
          "type": "uint256"
        },
        {
          "internalType": "uint256",
          "name": "_length",
          "type": "uint256"
        }
      ],
      "name": "getRecordSlice",
      "outputs": [
        {
          "internalType": "bytes32[]",
          "name": "",
          "type": "bytes32[]"
        }
      ],
      "stateMutability": "view",
      "type": "function"
    },
    {
      "inputs": [
        {
          "internalType": "bytes32[]",
          "name": "_recordHashes",
          "type": "bytes32[]"
        }
      ],
      "name": "getRecords",
      "outputs": [
        {
          "components": [
            {
              "internalType": "address",
              "name": "creator",
              "type": "address"
            },
            {
              "internalType": "bytes32",
              "name": "location",
              "type": "bytes32"
            },
            {
              "internalType": "bytes32",
              "name": "urlHash",
              "type": "bytes32"
            },
            {
              "internalType": "uint256",
              "name": "index",
              "type": "uint256"
            },
            {
              "internalType": "uint256",
              "name": "creatorIndex",
              "type": "uint256"
            },
            {
              "internalType": "uint256",
              "name": "timestamp",
              "type": "uint256"
            },
            {
              "internalType": "bool",
              "name": "isValidated",
              "type": "bool"
            },
            {
              "internalType": "address",
              "name": "validator",
              "type": "address"
            }
          ],
          "internalType": "struct DappRegistry.Record[]",
          "name": "",
          "type": "tuple[]"
        }
      ],
      "stateMutability": "view",
      "type": "function"
    },
    {
      "inputs": [
        {
          "internalType": "bytes32",
          "name": "role",
          "type": "bytes32"
        }
      ],
      "name": "getRoleAdmin",
      "outputs": [
        {
          "internalType": "bytes32",
          "name": "",
          "type": "bytes32"
        }
      ],
      "stateMutability": "view",
      "type": "function"
    },
    {
      "inputs": [
        {
          "internalType": "address",
          "name": "_account",
          "type": "address"
        }
      ],
      "name": "getUser",
      "outputs": [
        {
          "components": [
            {
              "internalType": "bytes32[]",
              "name": "records",
              "type": "bytes32[]"
            },
            {
              "internalType": "bytes32[]",
              "name": "validatedRecords",
              "type": "bytes32[]"
            }
          ],
          "internalType": "struct DappRegistry.User",
          "name": "",
          "type": "tuple"
        }
      ],
      "stateMutability": "view",
      "type": "function"
    },
    {
      "inputs": [
        {
          "internalType": "bytes32",
          "name": "role",
          "type": "bytes32"
        },
        {
          "internalType": "address",
          "name": "account",
          "type": "address"
        }
      ],
      "name": "grantRole",
      "outputs": [],
      "stateMutability": "nonpayable",
      "type": "function"
    },
    {
      "inputs": [
        {
          "internalType": "bytes32",
          "name": "role",
          "type": "bytes32"
        },
        {
          "internalType": "address",
          "name": "account",
          "type": "address"
        }
      ],
      "name": "hasRole",
      "outputs": [
        {
          "internalType": "bool",
          "name": "",
          "type": "bool"
        }
      ],
      "stateMutability": "view",
      "type": "function"
    },
    {
      "inputs": [],
      "name": "owner",
      "outputs": [
        {
          "internalType": "address",
          "name": "",
          "type": "address"
        }
      ],
      "stateMutability": "view",
      "type": "function"
    },
    {
      "inputs": [
        {
          "internalType": "uint256",
          "name": "",
          "type": "uint256"
        }
      ],
      "name": "recordList",
      "outputs": [
        {
          "internalType": "bytes32",
          "name": "",
          "type": "bytes32"
        }
      ],
      "stateMutability": "view",
      "type": "function"
    },
    {
      "inputs": [],
      "name": "renounceOwnership",
      "outputs": [],
      "stateMutability": "nonpayable",
      "type": "function"
    },
    {
      "inputs": [
        {
          "internalType": "bytes32",
          "name": "role",
          "type": "bytes32"
        },
        {
          "internalType": "address",
          "name": "account",
          "type": "address"
        }
      ],
      "name": "renounceRole",
      "outputs": [],
      "stateMutability": "nonpayable",
      "type": "function"
    },
    {
      "inputs": [
        {
          "internalType": "bytes32",
          "name": "role",
          "type": "bytes32"
        },
        {
          "internalType": "address",
          "name": "account",
          "type": "address"
        }
      ],
      "name": "revokeRole",
      "outputs": [],
      "stateMutability": "nonpayable",
      "type": "function"
    },
    {
      "inputs": [
        {
          "internalType": "bytes4",
          "name": "interfaceId",
          "type": "bytes4"
        }
      ],
      "name": "supportsInterface",
      "outputs": [
        {
          "internalType": "bool",
          "name": "",
          "type": "bool"
        }
      ],
      "stateMutability": "view",
      "type": "function"
    },
    {
      "inputs": [
        {
          "internalType": "address",
          "name": "newOwner",
          "type": "address"
        }
      ],
      "name": "transferOwnership",
      "outputs": [],
      "stateMutability": "nonpayable",
      "type": "function"
    },
    {
      "inputs": [
        {
          "internalType": "bytes32",
          "name": "_location",
          "type": "bytes32"
        },
        {
          "internalType": "bytes32",
          "name": "_urlHash",
          "type": "bytes32"
        }
      ],
      "name": "updateRecord",
      "outputs": [],
      "stateMutability": "nonpayable",
      "type": "function"
    },
    {
      "inputs": [
        {
          "internalType": "bytes32",
          "name": "_location",
          "type": "bytes32"
        },
        {
          "internalType": "bool",
          "name": "_isValidated",
          "type": "bool"
        }
      ],
      "name": "validateRecord",
      "outputs": [],
      "stateMutability": "nonpayable",
      "type": "function"
    }
  ],
  "bytecode": "0x60806040523480156200001157600080fd5b5062000032620000266200004d60201b60201c565b6200005560201b60201c565b620000476000801b336200011960201b60201c565b6200028b565b600033905090565b60008060009054906101000a900473ffffffffffffffffffffffffffffffffffffffff169050816000806101000a81548173ffffffffffffffffffffffffffffffffffffffff021916908373ffffffffffffffffffffffffffffffffffffffff1602179055508173ffffffffffffffffffffffffffffffffffffffff168173ffffffffffffffffffffffffffffffffffffffff167f8be0079c531659141344cd1fd0a4f28419497f9722a3daafe3b4186f6b6457e060405160405180910390a35050565b6200012b82826200012f60201b60201c565b5050565b6200014182826200022060201b60201c565b6200021c57600180600084815260200190815260200160002060000160008373ffffffffffffffffffffffffffffffffffffffff1673ffffffffffffffffffffffffffffffffffffffff16815260200190815260200160002060006101000a81548160ff021916908315150217905550620001c16200004d60201b60201c565b73ffffffffffffffffffffffffffffffffffffffff168173ffffffffffffffffffffffffffffffffffffffff16837f2f8788117e7eff1d82e926ec794901d17c78024a50270940304540a733656f0d60405160405180910390a45b5050565b60006001600084815260200190815260200160002060000160008373ffffffffffffffffffffffffffffffffffffffff1673ffffffffffffffffffffffffffffffffffffffff16815260200190815260200160002060009054906101000a900460ff16905092915050565b61318a806200029b6000396000f3fe608060405234801561001057600080fd5b50600436106101375760003560e01c8063715018a6116100b8578063a53278281161007c578063a532782814610372578063c49baebe1461038e578063ca267f28146103ac578063d547741f146103ca578063f2fde38b146103e6578063f785c4551461040257610137565b8063715018a6146102e05780638c0dacf2146102ea5780638da5cb5b1461030657806391d1485414610324578063a217fddf1461035457610137565b80632f2ff15d116100ff5780632f2ff15d1461021857806336568abe14610234578063411af81014610250578063490257de146102805780636f77926b146102b057610137565b806301ffc9a71461013c57806303fd5e071461016c57806319da83a814610188578063213681cd146101b8578063248a9ca3146101e8575b600080fd5b6101566004803603810190610151919061236d565b61041e565b60405161016391906129a7565b60405180910390f35b61018660048036038101906101819190612331565b610498565b005b6101a2600480360381019061019d9190612396565b6106be565b6040516101af91906129c2565b60405180910390f35b6101d260048036038101906101cd9190612290565b6106e2565b6040516101df9190612aff565b60405180910390f35b61020260048036038101906101fd9190612290565b610809565b60405161020f91906129c2565b60405180910390f35b610232600480360381019061022d91906122b9565b610829565b005b61024e600480360381019061024991906122b9565b61084a565b005b61026a6004803603810190610265919061224f565b6108cd565b6040516102779190612985565b60405180910390f35b61029a600480360381019061029591906123bf565b610b13565b6040516102a79190612963565b60405180910390f35b6102ca60048036038101906102c59190612226565b610c72565b6040516102d79190612b1b565b60405180910390f35b6102e8610d7b565b005b61030460048036038101906102ff9190612290565b610d8f565b005b61030e611259565b60405161031b9190612948565b60405180910390f35b61033e600480360381019061033991906122b9565b611282565b60405161034b91906129a7565b60405180910390f35b61035c6112ed565b60405161036991906129c2565b60405180910390f35b61038c60048036038101906103879190612331565b6112f4565b005b6103966115b1565b6040516103a391906129c2565b60405180910390f35b6103b46115d5565b6040516103c19190612b3d565b60405180910390f35b6103e460048036038101906103df91906122b9565b6115e2565b005b61040060048036038101906103fb9190612226565b611603565b005b61041c600480360381019061041791906122f5565b611687565b005b60007f7965db0b000000000000000000000000000000000000000000000000000000007bffffffffffffffffffffffffffffffffffffffffffffffffffffffff1916827bffffffffffffffffffffffffffffffffffffffffffffffffffffffff1916148061049157506104908261195e565b5b9050919050565b81600060036000838152602001908152602001600020604051806101000160405290816000820160009054906101000a900473ffffffffffffffffffffffffffffffffffffffff1673ffffffffffffffffffffffffffffffffffffffff1673ffffffffffffffffffffffffffffffffffffffff16815260200160018201548152602001600282015481526020016003820154815260200160048201548152602001600582015481526020016006820160009054906101000a900460ff161515151581526020016006820160019054906101000a900473ffffffffffffffffffffffffffffffffffffffff1673ffffffffffffffffffffffffffffffffffffffff1673ffffffffffffffffffffffffffffffffffffffff168152505090506000801b816020015114156105ff576040517f08c379a00000000000000000000000000000000000000000000000000000000081526004016105f690612a1f565b60405180910390fd5b3373ffffffffffffffffffffffffffffffffffffffff16816000015173ffffffffffffffffffffffffffffffffffffffff16148061064657506106456000801b33611282565b5b610685576040517f08c379a000000000000000000000000000000000000000000000000000000000815260040161067c90612a9f565b60405180910390fd5b60006003600086815260200190815260200160002090508481600101819055508381600201819055504281600501819055505050505050565b600481815481106106ce57600080fd5b906000526020600020016000915090505481565b6106ea612094565b60036000838152602001908152602001600020604051806101000160405290816000820160009054906101000a900473ffffffffffffffffffffffffffffffffffffffff1673ffffffffffffffffffffffffffffffffffffffff1673ffffffffffffffffffffffffffffffffffffffff16815260200160018201548152602001600282015481526020016003820154815260200160048201548152602001600582015481526020016006820160009054906101000a900460ff161515151581526020016006820160019054906101000a900473ffffffffffffffffffffffffffffffffffffffff1673ffffffffffffffffffffffffffffffffffffffff1673ffffffffffffffffffffffffffffffffffffffff16815250509050919050565b600060016000838152602001908152602001600020600101549050919050565b61083282610809565b61083b816119c8565b61084583836119dc565b505050565b610852611abc565b73ffffffffffffffffffffffffffffffffffffffff168173ffffffffffffffffffffffffffffffffffffffff16146108bf576040517f08c379a00000000000000000000000000000000000000000000000000000000081526004016108b690612adf565b60405180910390fd5b6108c98282611ac4565b5050565b60606000825167ffffffffffffffff811115610912577f4e487b7100000000000000000000000000000000000000000000000000000000600052604160045260246000fd5b60405190808252806020026020018201604052801561094b57816020015b610938612094565b8152602001906001900390816109305790505b50905060005b8351811015610b095760036000858381518110610997577f4e487b7100000000000000000000000000000000000000000000000000000000600052603260045260246000fd5b60200260200101518152602001908152602001600020604051806101000160405290816000820160009054906101000a900473ffffffffffffffffffffffffffffffffffffffff1673ffffffffffffffffffffffffffffffffffffffff1673ffffffffffffffffffffffffffffffffffffffff16815260200160018201548152602001600282015481526020016003820154815260200160048201548152602001600582015481526020016006820160009054906101000a900460ff161515151581526020016006820160019054906101000a900473ffffffffffffffffffffffffffffffffffffffff1673ffffffffffffffffffffffffffffffffffffffff1673ffffffffffffffffffffffffffffffffffffffff1681525050828281518110610aeb577f4e487b7100000000000000000000000000000000000000000000000000000000600052603260045260246000fd5b60200260200101819052508080610b0190612e43565b915050610951565b5080915050919050565b60606004805490508284610b279190612c53565b1115610b415782600480549050610b3e9190612d03565b91505b60008267ffffffffffffffff811115610b83577f4e487b7100000000000000000000000000000000000000000000000000000000600052604160045260246000fd5b604051908082528060200260200182016040528015610bb15781602001602082028036833780820191505090505b50905060005b83811015610c675760048186610bcd9190612c53565b81548110610c04577f4e487b7100000000000000000000000000000000000000000000000000000000600052603260045260246000fd5b9060005260206000200154828281518110610c48577f4e487b7100000000000000000000000000000000000000000000000000000000600052603260045260246000fd5b6020026020010181815250508080610c5f90612e43565b915050610bb7565b508091505092915050565b610c7a61210d565b600260008373ffffffffffffffffffffffffffffffffffffffff1673ffffffffffffffffffffffffffffffffffffffff16815260200190815260200160002060405180604001604052908160008201805480602002602001604051908101604052809291908181526020018280548015610d1357602002820191906000526020600020905b815481526020019060010190808311610cff575b5050505050815260200160018201805480602002602001604051908101604052809291908181526020018280548015610d6b57602002820191906000526020600020905b815481526020019060010190808311610d57575b5050505050815250509050919050565b610d83611ba6565b610d8d6000611c24565b565b80600060036000838152602001908152602001600020604051806101000160405290816000820160009054906101000a900473ffffffffffffffffffffffffffffffffffffffff1673ffffffffffffffffffffffffffffffffffffffff1673ffffffffffffffffffffffffffffffffffffffff16815260200160018201548152602001600282015481526020016003820154815260200160048201548152602001600582015481526020016006820160009054906101000a900460ff161515151581526020016006820160019054906101000a900473ffffffffffffffffffffffffffffffffffffffff1673ffffffffffffffffffffffffffffffffffffffff1673ffffffffffffffffffffffffffffffffffffffff168152505090506000801b81602001511415610ef6576040517f08c379a0000000000000000000000000000000000000000000000000000000008152600401610eed90612a1f565b60405180910390fd5b3373ffffffffffffffffffffffffffffffffffffffff16816000015173ffffffffffffffffffffffffffffffffffffffff161480610f3d5750610f3c6000801b33611282565b5b610f7c576040517f08c379a0000000000000000000000000000000000000000000000000000000008152600401610f7390612a9f565b60405180910390fd5b600060036000858152602001908152602001600020604051806101000160405290816000820160009054906101000a900473ffffffffffffffffffffffffffffffffffffffff1673ffffffffffffffffffffffffffffffffffffffff1673ffffffffffffffffffffffffffffffffffffffff16815260200160018201548152602001600282015481526020016003820154815260200160048201548152602001600582015481526020016006820160009054906101000a900460ff161515151581526020016006820160019054906101000a900473ffffffffffffffffffffffffffffffffffffffff1673ffffffffffffffffffffffffffffffffffffffff1673ffffffffffffffffffffffffffffffffffffffff16815250509050600060026000836000015173ffffffffffffffffffffffffffffffffffffffff1673ffffffffffffffffffffffffffffffffffffffff16815260200190815260200160002090506000600182600001805490506110f59190612d03565b9050808360800151146112015781600001818154811061113e577f4e487b7100000000000000000000000000000000000000000000000000000000600052603260045260246000fd5b906000526020600020015482600001846080015181548110611189577f4e487b7100000000000000000000000000000000000000000000000000000000600052603260045260246000fd5b9060005260206000200181905550826080015160036000846000018660800151815481106111e0577f4e487b7100000000000000000000000000000000000000000000000000000000600052603260045260246000fd5b90600052602060002001548152602001908152602001600020600401819055505b8160000180548061123b577f4e487b7100000000000000000000000000000000000000000000000000000000600052603160045260246000fd5b60019003818190600052602060002001600090559055505050505050565b60008060009054906101000a900473ffffffffffffffffffffffffffffffffffffffff16905090565b60006001600084815260200190815260200160002060000160008373ffffffffffffffffffffffffffffffffffffffff1673ffffffffffffffffffffffffffffffffffffffff16815260200190815260200160002060009054906101000a900460ff16905092915050565b6000801b81565b60006003600084815260200190815260200160002090506000801b816001015414611354576040517f08c379a000000000000000000000000000000000000000000000000000000000815260040161134b90612a7f565b60405180910390fd5b6000600260003373ffffffffffffffffffffffffffffffffffffffff1673ffffffffffffffffffffffffffffffffffffffff1681526020019081526020016000209050338260000160006101000a81548173ffffffffffffffffffffffffffffffffffffffff021916908373ffffffffffffffffffffffffffffffffffffffff16021790555083826001018190555082826002018190555042826005018190555060048054905082600301819055508060000180549050826004018190555081600360008681526020019081526020016000206000820160009054906101000a900473ffffffffffffffffffffffffffffffffffffffff168160000160006101000a81548173ffffffffffffffffffffffffffffffffffffffff021916908373ffffffffffffffffffffffffffffffffffffffff16021790555060018201548160010155600282015481600201556003820154816003015560048201548160040155600582015481600501556006820160009054906101000a900460ff168160060160006101000a81548160ff0219169083151502179055506006820160019054906101000a900473ffffffffffffffffffffffffffffffffffffffff168160060160016101000a81548173ffffffffffffffffffffffffffffffffffffffff021916908373ffffffffffffffffffffffffffffffffffffffff16021790555090505060048490806001815401808255809150506001900390600052602060002001600090919091909150558060000184908060018154018082558091505060019003906000526020600020016000909190919091505550505050565b7f21702c8af46127c7fa207f89d0b0a8441bb32959a0ac7df790e9ab1a25c9892681565b6000600480549050905090565b6115eb82610809565b6115f4816119c8565b6115fe8383611ac4565b505050565b61160b611ba6565b600073ffffffffffffffffffffffffffffffffffffffff168173ffffffffffffffffffffffffffffffffffffffff16141561167b576040517f08c379a000000000000000000000000000000000000000000000000000000000815260040161167290612a3f565b60405180910390fd5b61168481611c24565b50565b81600060036000838152602001908152602001600020604051806101000160405290816000820160009054906101000a900473ffffffffffffffffffffffffffffffffffffffff1673ffffffffffffffffffffffffffffffffffffffff1673ffffffffffffffffffffffffffffffffffffffff16815260200160018201548152602001600282015481526020016003820154815260200160048201548152602001600582015481526020016006820160009054906101000a900460ff161515151581526020016006820160019054906101000a900473ffffffffffffffffffffffffffffffffffffffff1673ffffffffffffffffffffffffffffffffffffffff1673ffffffffffffffffffffffffffffffffffffffff168152505090506000801b816020015114156117ee576040517f08c379a00000000000000000000000000000000000000000000000000000000081526004016117e590612a1f565b60405180910390fd5b6118187f21702c8af46127c7fa207f89d0b0a8441bb32959a0ac7df790e9ab1a25c9892633611282565b8061182c575061182b6000801b33611282565b5b61186b576040517f08c379a000000000000000000000000000000000000000000000000000000000815260040161186290612abf565b60405180910390fd5b60006003600086815260200190815260200160002090506000600260003373ffffffffffffffffffffffffffffffffffffffff1673ffffffffffffffffffffffffffffffffffffffff1681526020019081526020016000209050848260060160006101000a81548160ff021916908315150217905550338260060160016101000a81548173ffffffffffffffffffffffffffffffffffffffff021916908373ffffffffffffffffffffffffffffffffffffffff160217905550841561195657806001018690806001815401808255809150506001900390600052602060002001600090919091909150555b505050505050565b60007f01ffc9a7000000000000000000000000000000000000000000000000000000007bffffffffffffffffffffffffffffffffffffffffffffffffffffffff1916827bffffffffffffffffffffffffffffffffffffffffffffffffffffffff1916149050919050565b6119d9816119d4611abc565b611ce8565b50565b6119e68282611282565b611ab857600180600084815260200190815260200160002060000160008373ffffffffffffffffffffffffffffffffffffffff1673ffffffffffffffffffffffffffffffffffffffff16815260200190815260200160002060006101000a81548160ff021916908315150217905550611a5d611abc565b73ffffffffffffffffffffffffffffffffffffffff168173ffffffffffffffffffffffffffffffffffffffff16837f2f8788117e7eff1d82e926ec794901d17c78024a50270940304540a733656f0d60405160405180910390a45b5050565b600033905090565b611ace8282611282565b15611ba25760006001600084815260200190815260200160002060000160008373ffffffffffffffffffffffffffffffffffffffff1673ffffffffffffffffffffffffffffffffffffffff16815260200190815260200160002060006101000a81548160ff021916908315150217905550611b47611abc565b73ffffffffffffffffffffffffffffffffffffffff168173ffffffffffffffffffffffffffffffffffffffff16837ff6391f5c32d9c69d2a47ea670b442974b53935d1edc7fd64eb21e047a839171b60405160405180910390a45b5050565b611bae611abc565b73ffffffffffffffffffffffffffffffffffffffff16611bcc611259565b73ffffffffffffffffffffffffffffffffffffffff1614611c22576040517f08c379a0000000000000000000000000000000000000000000000000000000008152600401611c1990612a5f565b60405180910390fd5b565b60008060009054906101000a900473ffffffffffffffffffffffffffffffffffffffff169050816000806101000a81548173ffffffffffffffffffffffffffffffffffffffff021916908373ffffffffffffffffffffffffffffffffffffffff1602179055508173ffffffffffffffffffffffffffffffffffffffff168173ffffffffffffffffffffffffffffffffffffffff167f8be0079c531659141344cd1fd0a4f28419497f9722a3daafe3b4186f6b6457e060405160405180910390a35050565b611cf28282611282565b611d6957611cff81611d6d565b611d0d8360001c6020611d9a565b604051602001611d1e92919061290e565b6040516020818303038152906040526040517f08c379a0000000000000000000000000000000000000000000000000000000008152600401611d6091906129dd565b60405180910390fd5b5050565b6060611d938273ffffffffffffffffffffffffffffffffffffffff16601460ff16611d9a565b9050919050565b606060006002836002611dad9190612ca9565b611db79190612c53565b67ffffffffffffffff811115611df6577f4e487b7100000000000000000000000000000000000000000000000000000000600052604160045260246000fd5b6040519080825280601f01601f191660200182016040528015611e285781602001600182028036833780820191505090505b5090507f300000000000000000000000000000000000000000000000000000000000000081600081518110611e86577f4e487b7100000000000000000000000000000000000000000000000000000000600052603260045260246000fd5b60200101907effffffffffffffffffffffffffffffffffffffffffffffffffffffffffffff1916908160001a9053507f780000000000000000000000000000000000000000000000000000000000000081600181518110611f10577f4e487b7100000000000000000000000000000000000000000000000000000000600052603260045260246000fd5b60200101907effffffffffffffffffffffffffffffffffffffffffffffffffffffffffffff1916908160001a90535060006001846002611f509190612ca9565b611f5a9190612c53565b90505b6001811115612046577f3031323334353637383961626364656600000000000000000000000000000000600f861660108110611fc2577f4e487b7100000000000000000000000000000000000000000000000000000000600052603260045260246000fd5b1a60f81b828281518110611fff577f4e487b7100000000000000000000000000000000000000000000000000000000600052603260045260246000fd5b60200101907effffffffffffffffffffffffffffffffffffffffffffffffffffffffffffff1916908160001a905350600485901c94508061203f90612de8565b9050611f5d565b506000841461208a576040517f08c379a0000000000000000000000000000000000000000000000000000000008152600401612081906129ff565b60405180910390fd5b8091505092915050565b604051806101000160405280600073ffffffffffffffffffffffffffffffffffffffff1681526020016000801916815260200160008019168152602001600081526020016000815260200160008152602001600015158152602001600073ffffffffffffffffffffffffffffffffffffffff1681525090565b604051806040016040528060608152602001606081525090565b600061213a61213584612b7d565b612b58565b9050808382526020820190508285602086028201111561215957600080fd5b60005b85811015612189578161216f88826121e7565b84526020840193506020830192505060018101905061215c565b5050509392505050565b6000813590506121a2816130e1565b92915050565b600082601f8301126121b957600080fd5b81356121c9848260208601612127565b91505092915050565b6000813590506121e1816130f8565b92915050565b6000813590506121f68161310f565b92915050565b60008135905061220b81613126565b92915050565b6000813590506122208161313d565b92915050565b60006020828403121561223857600080fd5b600061224684828501612193565b91505092915050565b60006020828403121561226157600080fd5b600082013567ffffffffffffffff81111561227b57600080fd5b612287848285016121a8565b91505092915050565b6000602082840312156122a257600080fd5b60006122b0848285016121e7565b91505092915050565b600080604083850312156122cc57600080fd5b60006122da858286016121e7565b92505060206122eb85828601612193565b9150509250929050565b6000806040838503121561230857600080fd5b6000612316858286016121e7565b9250506020612327858286016121d2565b9150509250929050565b6000806040838503121561234457600080fd5b6000612352858286016121e7565b9250506020612363858286016121e7565b9150509250929050565b60006020828403121561237f57600080fd5b600061238d848285016121fc565b91505092915050565b6000602082840312156123a857600080fd5b60006123b684828501612211565b91505092915050565b600080604083850312156123d257600080fd5b60006123e085828601612211565b92505060206123f185828601612211565b9150509250929050565b60006124078383612582565b60208301905092915050565b600061241f8383612768565b6101008301905092915050565b61243581612d37565b82525050565b61244481612d37565b82525050565b600061245582612bc9565b61245f8185612c04565b935061246a83612ba9565b8060005b8381101561249b57815161248288826123fb565b975061248d83612bea565b92505060018101905061246e565b5085935050505092915050565b60006124b382612bc9565b6124bd8185612c15565b93506124c883612ba9565b8060005b838110156124f95781516124e088826123fb565b97506124eb83612bea565b9250506001810190506124cc565b5085935050505092915050565b600061251182612bd4565b61251b8185612c26565b935061252683612bb9565b8060005b8381101561255757815161253e8882612413565b975061254983612bf7565b92505060018101905061252a565b5085935050505092915050565b61256d81612d49565b82525050565b61257c81612d49565b82525050565b61258b81612d55565b82525050565b61259a81612d55565b82525050565b60006125ab82612bdf565b6125b58185612c37565b93506125c5818560208601612db5565b6125ce81612eea565b840191505092915050565b60006125e482612bdf565b6125ee8185612c48565b93506125fe818560208601612db5565b80840191505092915050565b6000612617602083612c37565b915061262282612efb565b602082019050919050565b600061263a601483612c37565b915061264582612f24565b602082019050919050565b600061265d602683612c37565b915061266882612f4d565b604082019050919050565b6000612680602083612c37565b915061268b82612f9c565b602082019050919050565b60006126a3601583612c37565b91506126ae82612fc5565b602082019050919050565b60006126c6601383612c37565b91506126d182612fee565b602082019050919050565b60006126e9601983612c37565b91506126f482613017565b602082019050919050565b600061270c601783612c48565b915061271782613040565b601782019050919050565b600061272f601183612c48565b915061273a82613069565b601182019050919050565b6000612752602f83612c37565b915061275d82613092565b604082019050919050565b6101008201600082015161277f600085018261242c565b5060208201516127926020850182612582565b5060408201516127a56040850182612582565b5060608201516127b860608501826128f0565b5060808201516127cb60808501826128f0565b5060a08201516127de60a08501826128f0565b5060c08201516127f160c0850182612564565b5060e082015161280460e085018261242c565b50505050565b61010082016000820151612821600085018261242c565b5060208201516128346020850182612582565b5060408201516128476040850182612582565b50606082015161285a60608501826128f0565b50608082015161286d60808501826128f0565b5060a082015161288060a08501826128f0565b5060c082015161289360c0850182612564565b5060e08201516128a660e085018261242c565b50505050565b600060408301600083015184820360008601526128c9828261244a565b915050602083015184820360208601526128e3828261244a565b9150508091505092915050565b6128f981612dab565b82525050565b61290881612dab565b82525050565b6000612919826126ff565b915061292582856125d9565b915061293082612722565b915061293c82846125d9565b91508190509392505050565b600060208201905061295d600083018461243b565b92915050565b6000602082019050818103600083015261297d81846124a8565b905092915050565b6000602082019050818103600083015261299f8184612506565b905092915050565b60006020820190506129bc6000830184612573565b92915050565b60006020820190506129d76000830184612591565b92915050565b600060208201905081810360008301526129f781846125a0565b905092915050565b60006020820190508181036000830152612a188161260a565b9050919050565b60006020820190508181036000830152612a388161262d565b9050919050565b60006020820190508181036000830152612a5881612650565b9050919050565b60006020820190508181036000830152612a7881612673565b9050919050565b60006020820190508181036000830152612a9881612696565b9050919050565b60006020820190508181036000830152612ab8816126b9565b9050919050565b60006020820190508181036000830152612ad8816126dc565b9050919050565b60006020820190508181036000830152612af881612745565b9050919050565b600061010082019050612b15600083018461280a565b92915050565b60006020820190508181036000830152612b3581846128ac565b905092915050565b6000602082019050612b5260008301846128ff565b92915050565b6000612b62612b73565b9050612b6e8282612e12565b919050565b6000604051905090565b600067ffffffffffffffff821115612b9857612b97612ebb565b5b602082029050602081019050919050565b6000819050602082019050919050565b6000819050602082019050919050565b600081519050919050565b600081519050919050565b600081519050919050565b6000602082019050919050565b6000602082019050919050565b600082825260208201905092915050565b600082825260208201905092915050565b600082825260208201905092915050565b600082825260208201905092915050565b600081905092915050565b6000612c5e82612dab565b9150612c6983612dab565b9250827fffffffffffffffffffffffffffffffffffffffffffffffffffffffffffffffff03821115612c9e57612c9d612e8c565b5b828201905092915050565b6000612cb482612dab565b9150612cbf83612dab565b9250817fffffffffffffffffffffffffffffffffffffffffffffffffffffffffffffffff0483118215151615612cf857612cf7612e8c565b5b828202905092915050565b6000612d0e82612dab565b9150612d1983612dab565b925082821015612d2c57612d2b612e8c565b5b828203905092915050565b6000612d4282612d8b565b9050919050565b60008115159050919050565b6000819050919050565b60007fffffffff0000000000000000000000000000000000000000000000000000000082169050919050565b600073ffffffffffffffffffffffffffffffffffffffff82169050919050565b6000819050919050565b60005b83811015612dd3578082015181840152602081019050612db8565b83811115612de2576000848401525b50505050565b6000612df382612dab565b91506000821415612e0757612e06612e8c565b5b600182039050919050565b612e1b82612eea565b810181811067ffffffffffffffff82111715612e3a57612e39612ebb565b5b80604052505050565b6000612e4e82612dab565b91507fffffffffffffffffffffffffffffffffffffffffffffffffffffffffffffffff821415612e8157612e80612e8c565b5b600182019050919050565b7f4e487b7100000000000000000000000000000000000000000000000000000000600052601160045260246000fd5b7f4e487b7100000000000000000000000000000000000000000000000000000000600052604160045260246000fd5b6000601f19601f8301169050919050565b7f537472696e67733a20686578206c656e67746820696e73756666696369656e74600082015250565b7f5265636f726420646f65736e2774206578697374000000000000000000000000600082015250565b7f4f776e61626c653a206e6577206f776e657220697320746865207a65726f206160008201527f6464726573730000000000000000000000000000000000000000000000000000602082015250565b7f4f776e61626c653a2063616c6c6572206973206e6f7420746865206f776e6572600082015250565b7f5265636f726420616c7265616479206578697374730000000000000000000000600082015250565b7f53656e646572206973206e6f74206f776e657200000000000000000000000000600082015250565b7f56616c69646174696f6e206973206e6f7420616c6c6f77656400000000000000600082015250565b7f416363657373436f6e74726f6c3a206163636f756e7420000000000000000000600082015250565b7f206973206d697373696e6720726f6c6520000000000000000000000000000000600082015250565b7f416363657373436f6e74726f6c3a2063616e206f6e6c792072656e6f756e636560008201527f20726f6c657320666f722073656c660000000000000000000000000000000000602082015250565b6130ea81612d37565b81146130f557600080fd5b50565b61310181612d49565b811461310c57600080fd5b50565b61311881612d55565b811461312357600080fd5b50565b61312f81612d5f565b811461313a57600080fd5b50565b61314681612dab565b811461315157600080fd5b5056fea2646970667358221220cf56f874fb05b37bbdab5e02e4f872d3b4cede6e47dc5deb3aef519564c453b164736f6c63430008040033",
  "linkReferences": {},
  "deployedLinkReferences": {}
}