{
  "_format": "hh-sol-artifact-1",
  "contractName": "DappRegistry",
  "sourceName": "contracts/DappRegistry.sol",
  "abi": [
    {
      "inputs": [],
      "stateMutability": "nonpayable",
      "type": "constructor"
    },
    {
      "anonymous": false,
      "inputs": [
        {
          "indexed": true,
          "internalType": "address",
          "name": "previousOwner",
          "type": "address"
        },
        {
          "indexed": true,
          "internalType": "address",
          "name": "newOwner",
          "type": "address"
        }
      ],
      "name": "OwnershipTransferred",
      "type": "event"
    },
    {
      "anonymous": false,
      "inputs": [
        {
          "indexed": true,
          "internalType": "bytes32",
          "name": "role",
          "type": "bytes32"
        },
        {
          "indexed": true,
          "internalType": "bytes32",
          "name": "previousAdminRole",
          "type": "bytes32"
        },
        {
          "indexed": true,
          "internalType": "bytes32",
          "name": "newAdminRole",
          "type": "bytes32"
        }
      ],
      "name": "RoleAdminChanged",
      "type": "event"
    },
    {
      "anonymous": false,
      "inputs": [
        {
          "indexed": true,
          "internalType": "bytes32",
          "name": "role",
          "type": "bytes32"
        },
        {
          "indexed": true,
          "internalType": "address",
          "name": "account",
          "type": "address"
        },
        {
          "indexed": true,
          "internalType": "address",
          "name": "sender",
          "type": "address"
        }
      ],
      "name": "RoleGranted",
      "type": "event"
    },
    {
      "anonymous": false,
      "inputs": [
        {
          "indexed": true,
          "internalType": "bytes32",
          "name": "role",
          "type": "bytes32"
        },
        {
          "indexed": true,
          "internalType": "address",
          "name": "account",
          "type": "address"
        },
        {
          "indexed": true,
          "internalType": "address",
          "name": "sender",
          "type": "address"
        }
      ],
      "name": "RoleRevoked",
      "type": "event"
    },
    {
      "inputs": [],
      "name": "DEFAULT_ADMIN_ROLE",
      "outputs": [
        {
          "internalType": "bytes32",
          "name": "",
          "type": "bytes32"
        }
      ],
      "stateMutability": "view",
      "type": "function"
    },
    {
      "inputs": [
        {
          "internalType": "bytes32",
          "name": "_location",
          "type": "bytes32"
        },
        {
          "internalType": "bytes32",
          "name": "_urlHash",
          "type": "bytes32"
        }
      ],
      "name": "createRecord",
      "outputs": [],
      "stateMutability": "nonpayable",
      "type": "function"
    },
    {
      "inputs": [
        {
          "internalType": "bytes32",
          "name": "_location",
          "type": "bytes32"
        }
      ],
      "name": "deleteRecord",
      "outputs": [],
      "stateMutability": "nonpayable",
      "type": "function"
    },
    {
      "inputs": [
        {
          "internalType": "bytes32",
          "name": "_location",
          "type": "bytes32"
        }
      ],
      "name": "getRecord",
      "outputs": [
        {
          "components": [
            {
              "internalType": "address",
              "name": "creator",
              "type": "address"
            },
            {
              "internalType": "bytes32",
              "name": "location",
              "type": "bytes32"
            },
            {
              "internalType": "bytes32",
              "name": "urlHash",
              "type": "bytes32"
            },
            {
              "internalType": "uint256",
              "name": "index",
              "type": "uint256"
            },
            {
              "internalType": "uint256",
              "name": "creatorIndex",
              "type": "uint256"
            },
            {
              "internalType": "uint256",
              "name": "timestamp",
              "type": "uint256"
            }
          ],
          "internalType": "struct DappRegistry.Record",
          "name": "",
          "type": "tuple"
        }
      ],
      "stateMutability": "view",
      "type": "function"
    },
    {
      "inputs": [],
      "name": "getRecordCount",
      "outputs": [
        {
          "internalType": "uint256",
          "name": "",
          "type": "uint256"
        }
      ],
      "stateMutability": "view",
      "type": "function"
    },
    {
      "inputs": [
        {
          "internalType": "uint256",
          "name": "_startIndex",
          "type": "uint256"
        },
        {
          "internalType": "uint256",
          "name": "_length",
          "type": "uint256"
        }
      ],
      "name": "getRecordSlice",
      "outputs": [
        {
          "internalType": "bytes32[]",
          "name": "",
          "type": "bytes32[]"
        }
      ],
      "stateMutability": "view",
      "type": "function"
    },
    {
      "inputs": [
        {
          "internalType": "bytes32[]",
          "name": "_recordHashes",
          "type": "bytes32[]"
        }
      ],
      "name": "getRecords",
      "outputs": [
        {
          "components": [
            {
              "internalType": "address",
              "name": "creator",
              "type": "address"
            },
            {
              "internalType": "bytes32",
              "name": "location",
              "type": "bytes32"
            },
            {
              "internalType": "bytes32",
              "name": "urlHash",
              "type": "bytes32"
            },
            {
              "internalType": "uint256",
              "name": "index",
              "type": "uint256"
            },
            {
              "internalType": "uint256",
              "name": "creatorIndex",
              "type": "uint256"
            },
            {
              "internalType": "uint256",
              "name": "timestamp",
              "type": "uint256"
            }
          ],
          "internalType": "struct DappRegistry.Record[]",
          "name": "",
          "type": "tuple[]"
        }
      ],
      "stateMutability": "view",
      "type": "function"
    },
    {
      "inputs": [
        {
          "internalType": "bytes32",
          "name": "role",
          "type": "bytes32"
        }
      ],
      "name": "getRoleAdmin",
      "outputs": [
        {
          "internalType": "bytes32",
          "name": "",
          "type": "bytes32"
        }
      ],
      "stateMutability": "view",
      "type": "function"
    },
    {
      "inputs": [
        {
          "internalType": "address",
          "name": "_account",
          "type": "address"
        }
      ],
      "name": "getUser",
      "outputs": [
        {
          "components": [
            {
              "internalType": "bytes32[]",
              "name": "records",
              "type": "bytes32[]"
            },
            {
              "internalType": "bytes32[]",
              "name": "validatedRecords",
              "type": "bytes32[]"
            }
          ],
          "internalType": "struct DappRegistry.User",
          "name": "",
          "type": "tuple"
        }
      ],
      "stateMutability": "view",
      "type": "function"
    },
    {
      "inputs": [
        {
          "internalType": "address",
          "name": "_validatorAddress",
          "type": "address"
        }
      ],
      "name": "getValidatedRecords",
      "outputs": [
        {
          "components": [
            {
              "internalType": "address",
              "name": "creator",
              "type": "address"
            },
            {
              "internalType": "bytes32",
              "name": "location",
              "type": "bytes32"
            },
            {
              "internalType": "bytes32",
              "name": "urlHash",
              "type": "bytes32"
            },
            {
              "internalType": "uint256",
              "name": "index",
              "type": "uint256"
            },
            {
              "internalType": "uint256",
              "name": "creatorIndex",
              "type": "uint256"
            },
            {
              "internalType": "uint256",
              "name": "timestamp",
              "type": "uint256"
            }
          ],
          "internalType": "struct DappRegistry.Record[]",
          "name": "",
          "type": "tuple[]"
        }
      ],
      "stateMutability": "view",
      "type": "function"
    },
    {
      "inputs": [
        {
          "internalType": "bytes32",
          "name": "role",
          "type": "bytes32"
        },
        {
          "internalType": "address",
          "name": "account",
          "type": "address"
        }
      ],
      "name": "grantRole",
      "outputs": [],
      "stateMutability": "nonpayable",
      "type": "function"
    },
    {
      "inputs": [
        {
          "internalType": "bytes32",
          "name": "role",
          "type": "bytes32"
        },
        {
          "internalType": "address",
          "name": "account",
          "type": "address"
        }
      ],
      "name": "hasRole",
      "outputs": [
        {
          "internalType": "bool",
          "name": "",
          "type": "bool"
        }
      ],
      "stateMutability": "view",
      "type": "function"
    },
    {
      "inputs": [],
      "name": "owner",
      "outputs": [
        {
          "internalType": "address",
          "name": "",
          "type": "address"
        }
      ],
      "stateMutability": "view",
      "type": "function"
    },
    {
      "inputs": [
        {
          "internalType": "uint256",
          "name": "",
          "type": "uint256"
        }
      ],
      "name": "recordList",
      "outputs": [
        {
          "internalType": "bytes32",
          "name": "",
          "type": "bytes32"
        }
      ],
      "stateMutability": "view",
      "type": "function"
    },
    {
      "inputs": [],
      "name": "renounceOwnership",
      "outputs": [],
      "stateMutability": "nonpayable",
      "type": "function"
    },
    {
      "inputs": [
        {
          "internalType": "bytes32",
          "name": "role",
          "type": "bytes32"
        },
        {
          "internalType": "address",
          "name": "account",
          "type": "address"
        }
      ],
      "name": "renounceRole",
      "outputs": [],
      "stateMutability": "nonpayable",
      "type": "function"
    },
    {
      "inputs": [
        {
          "internalType": "bytes32",
          "name": "role",
          "type": "bytes32"
        },
        {
          "internalType": "address",
          "name": "account",
          "type": "address"
        }
      ],
      "name": "revokeRole",
      "outputs": [],
      "stateMutability": "nonpayable",
      "type": "function"
    },
    {
      "inputs": [
        {
          "internalType": "bytes4",
          "name": "interfaceId",
          "type": "bytes4"
        }
      ],
      "name": "supportsInterface",
      "outputs": [
        {
          "internalType": "bool",
          "name": "",
          "type": "bool"
        }
      ],
      "stateMutability": "view",
      "type": "function"
    },
    {
      "inputs": [
        {
          "internalType": "address",
          "name": "newOwner",
          "type": "address"
        }
      ],
      "name": "transferOwnership",
      "outputs": [],
      "stateMutability": "nonpayable",
      "type": "function"
    },
    {
      "inputs": [
        {
          "internalType": "bytes32",
          "name": "_location",
          "type": "bytes32"
        }
      ],
      "name": "unvalidateRecord",
      "outputs": [],
      "stateMutability": "nonpayable",
      "type": "function"
    },
    {
      "inputs": [
        {
          "internalType": "bytes32",
          "name": "_location",
          "type": "bytes32"
        }
      ],
      "name": "validateRecord",
      "outputs": [],
      "stateMutability": "nonpayable",
      "type": "function"
    }
  ],
  "bytecode": "0x60806040523480156200001157600080fd5b5062000032620000266200004d60201b60201c565b6200005560201b60201c565b620000476000801b336200011960201b60201c565b62000275565b600033905090565b60008060009054906101000a900473ffffffffffffffffffffffffffffffffffffffff169050816000806101000a81548173ffffffffffffffffffffffffffffffffffffffff021916908373ffffffffffffffffffffffffffffffffffffffff1602179055508173ffffffffffffffffffffffffffffffffffffffff168173ffffffffffffffffffffffffffffffffffffffff167f8be0079c531659141344cd1fd0a4f28419497f9722a3daafe3b4186f6b6457e060405160405180910390a35050565b6200012b82826200020a60201b60201c565b6200020657600180600084815260200190815260200160002060000160008373ffffffffffffffffffffffffffffffffffffffff1673ffffffffffffffffffffffffffffffffffffffff16815260200190815260200160002060006101000a81548160ff021916908315150217905550620001ab6200004d60201b60201c565b73ffffffffffffffffffffffffffffffffffffffff168173ffffffffffffffffffffffffffffffffffffffff16837f2f8788117e7eff1d82e926ec794901d17c78024a50270940304540a733656f0d60405160405180910390a45b5050565b60006001600084815260200190815260200160002060000160008373ffffffffffffffffffffffffffffffffffffffff1673ffffffffffffffffffffffffffffffffffffffff16815260200190815260200160002060009054906101000a900460ff16905092915050565b612dd080620002856000396000f3fe608060405234801561001057600080fd5b50600436106101375760003560e01c80636f77926b116100b857806391d148541161007c57806391d1485414610370578063a217fddf146103a0578063a5327828146103be578063ca267f28146103da578063d547741f146103f8578063f2fde38b1461041457610137565b80636f77926b146102e0578063715018a6146103105780638c0dacf21461031a5780638d87b9db146103365780638da5cb5b1461035257610137565b80632f2ff15d116100ff5780632f2ff15d1461021857806336568abe14610234578063411af81014610250578063490257de146102805780636b90e42a146102b057610137565b806301ffc9a71461013c578063033ca06e1461016c57806319da83a814610188578063213681cd146101b8578063248a9ca3146101e8575b600080fd5b61015660048036038101906101519190612095565b610430565b604051610163919061264e565b60405180910390f35b61018660048036038101906101819190611ff4565b6104aa565b005b6101a2600480360381019061019d91906120be565b610664565b6040516101af9190612669565b60405180910390f35b6101d260048036038101906101cd9190611ff4565b610688565b6040516101df9190612786565b60405180910390f35b61020260048036038101906101fd9190611ff4565b61073d565b60405161020f9190612669565b60405180910390f35b610232600480360381019061022d919061201d565b61075d565b005b61024e6004803603810190610249919061201d565b61077e565b005b61026a60048036038101906102659190611fb3565b610801565b604051610277919061262c565b60405180910390f35b61029a600480360381019061029591906120e7565b6109d5565b6040516102a7919061260a565b60405180910390f35b6102ca60048036038101906102c59190611f8a565b610b34565b6040516102d7919061262c565b60405180910390f35b6102fa60048036038101906102f59190611f8a565b610e13565b60405161030791906127a1565b60405180910390f35b610318610f1c565b005b610334600480360381019061032f9190611ff4565b610f30565b005b610350600480360381019061034b9190611ff4565b611316565b005b61035a611388565b60405161036791906125ef565b60405180910390f35b61038a6004803603810190610385919061201d565b6113b1565b604051610397919061264e565b60405180910390f35b6103a861141c565b6040516103b59190612669565b60405180910390f35b6103d860048036038101906103d39190612059565b611423565b005b6103e261164c565b6040516103ef91906127c3565b60405180910390f35b610412600480360381019061040d919061201d565b611659565b005b61042e60048036038101906104299190611f8a565b61167a565b005b60007f7965db0b000000000000000000000000000000000000000000000000000000007bffffffffffffffffffffffffffffffffffffffffffffffffffffffff1916827bffffffffffffffffffffffffffffffffffffffffffffffffffffffff191614806104a357506104a2826116fe565b5b9050919050565b6000600260003373ffffffffffffffffffffffffffffffffffffffff1673ffffffffffffffffffffffffffffffffffffffff16815260200190815260200160002090506000600182600101805490506105039190612989565b905060005b81811161065e578383600101828154811061054c577f4e487b7100000000000000000000000000000000000000000000000000000000600052603260045260246000fd5b9060005260206000200154141561064b578181146105f6578260010182815481106105a0577f4e487b7100000000000000000000000000000000000000000000000000000000600052603260045260246000fd5b90600052602060002001548360010182815481106105e7577f4e487b7100000000000000000000000000000000000000000000000000000000600052603260045260246000fd5b90600052602060002001819055505b82600101805480610630577f4e487b7100000000000000000000000000000000000000000000000000000000600052603160045260246000fd5b6001900381819060005260206000200160009055905561065e565b808061065690612ac9565b915050610508565b50505050565b6004818154811061067457600080fd5b906000526020600020016000915090505481565b610690611e34565b600360008381526020019081526020016000206040518060c00160405290816000820160009054906101000a900473ffffffffffffffffffffffffffffffffffffffff1673ffffffffffffffffffffffffffffffffffffffff1673ffffffffffffffffffffffffffffffffffffffff168152602001600182015481526020016002820154815260200160038201548152602001600482015481526020016005820154815250509050919050565b600060016000838152602001908152602001600020600101549050919050565b6107668261073d565b61076f81611768565b610779838361177c565b505050565b61078661185c565b73ffffffffffffffffffffffffffffffffffffffff168173ffffffffffffffffffffffffffffffffffffffff16146107f3576040517f08c379a00000000000000000000000000000000000000000000000000000000081526004016107ea90612766565b60405180910390fd5b6107fd8282611864565b5050565b60606000825167ffffffffffffffff811115610846577f4e487b7100000000000000000000000000000000000000000000000000000000600052604160045260246000fd5b60405190808252806020026020018201604052801561087f57816020015b61086c611e34565b8152602001906001900390816108645790505b50905060005b83518110156109cb57600360008583815181106108cb577f4e487b7100000000000000000000000000000000000000000000000000000000600052603260045260246000fd5b602002602001015181526020019081526020016000206040518060c00160405290816000820160009054906101000a900473ffffffffffffffffffffffffffffffffffffffff1673ffffffffffffffffffffffffffffffffffffffff1673ffffffffffffffffffffffffffffffffffffffff168152602001600182015481526020016002820154815260200160038201548152602001600482015481526020016005820154815250508282815181106109ad577f4e487b7100000000000000000000000000000000000000000000000000000000600052603260045260246000fd5b602002602001018190525080806109c390612ac9565b915050610885565b5080915050919050565b606060048054905082846109e991906128d9565b1115610a035782600480549050610a009190612989565b91505b60008267ffffffffffffffff811115610a45577f4e487b7100000000000000000000000000000000000000000000000000000000600052604160045260246000fd5b604051908082528060200260200182016040528015610a735781602001602082028036833780820191505090505b50905060005b83811015610b295760048186610a8f91906128d9565b81548110610ac6577f4e487b7100000000000000000000000000000000000000000000000000000000600052603260045260246000fd5b9060005260206000200154828281518110610b0a577f4e487b7100000000000000000000000000000000000000000000000000000000600052603260045260246000fd5b6020026020010181815250508080610b2190612ac9565b915050610a79565b508091505092915050565b60606000600260008473ffffffffffffffffffffffffffffffffffffffff1673ffffffffffffffffffffffffffffffffffffffff16815260200190815260200160002060405180604001604052908160008201805480602002602001604051908101604052809291908181526020018280548015610bd157602002820191906000526020600020905b815481526020019060010190808311610bbd575b5050505050815260200160018201805480602002602001604051908101604052809291908181526020018280548015610c2957602002820191906000526020600020905b815481526020019060010190808311610c15575b5050505050815250509050600081602001515167ffffffffffffffff811115610c7b577f4e487b7100000000000000000000000000000000000000000000000000000000600052604160045260246000fd5b604051908082528060200260200182016040528015610cb457816020015b610ca1611e34565b815260200190600190039081610c995790505b50905060005b826020015151811015610e08576003600084602001518381518110610d08577f4e487b7100000000000000000000000000000000000000000000000000000000600052603260045260246000fd5b602002602001015181526020019081526020016000206040518060c00160405290816000820160009054906101000a900473ffffffffffffffffffffffffffffffffffffffff1673ffffffffffffffffffffffffffffffffffffffff1673ffffffffffffffffffffffffffffffffffffffff16815260200160018201548152602001600282015481526020016003820154815260200160048201548152602001600582015481525050828281518110610dea577f4e487b7100000000000000000000000000000000000000000000000000000000600052603260045260246000fd5b60200260200101819052508080610e0090612ac9565b915050610cba565b508092505050919050565b610e1b611e86565b600260008373ffffffffffffffffffffffffffffffffffffffff1673ffffffffffffffffffffffffffffffffffffffff16815260200190815260200160002060405180604001604052908160008201805480602002602001604051908101604052809291908181526020018280548015610eb457602002820191906000526020600020905b815481526020019060010190808311610ea0575b5050505050815260200160018201805480602002602001604051908101604052809291908181526020018280548015610f0c57602002820191906000526020600020905b815481526020019060010190808311610ef8575b5050505050815250509050919050565b610f24611946565b610f2e60006119c4565b565b806000600360008381526020019081526020016000206040518060c00160405290816000820160009054906101000a900473ffffffffffffffffffffffffffffffffffffffff1673ffffffffffffffffffffffffffffffffffffffff1673ffffffffffffffffffffffffffffffffffffffff1681526020016001820154815260200160028201548152602001600382015481526020016004820154815260200160058201548152505090506000801b81602001511415611025576040517f08c379a000000000000000000000000000000000000000000000000000000000815260040161101c906126c6565b60405180910390fd5b3373ffffffffffffffffffffffffffffffffffffffff16816000015173ffffffffffffffffffffffffffffffffffffffff16148061106c575061106b6000801b336113b1565b5b6110ab576040517f08c379a00000000000000000000000000000000000000000000000000000000081526004016110a290612746565b60405180910390fd5b6000600360008581526020019081526020016000206040518060c00160405290816000820160009054906101000a900473ffffffffffffffffffffffffffffffffffffffff1673ffffffffffffffffffffffffffffffffffffffff1673ffffffffffffffffffffffffffffffffffffffff168152602001600182015481526020016002820154815260200160038201548152602001600482015481526020016005820154815250509050600060026000836000015173ffffffffffffffffffffffffffffffffffffffff1673ffffffffffffffffffffffffffffffffffffffff16815260200190815260200160002090506000600182600001805490506111b29190612989565b9050808360800151146112be578160000181815481106111fb577f4e487b7100000000000000000000000000000000000000000000000000000000600052603260045260246000fd5b906000526020600020015482600001846080015181548110611246577f4e487b7100000000000000000000000000000000000000000000000000000000600052603260045260246000fd5b90600052602060002001819055508260800151600360008460000186608001518154811061129d577f4e487b7100000000000000000000000000000000000000000000000000000000600052603260045260246000fd5b90600052602060002001548152602001908152602001600020600401819055505b816000018054806112f8577f4e487b7100000000000000000000000000000000000000000000000000000000600052603160045260246000fd5b60019003818190600052602060002001600090559055505050505050565b6000600260003373ffffffffffffffffffffffffffffffffffffffff1673ffffffffffffffffffffffffffffffffffffffff1681526020019081526020016000209050806001018290806001815401808255809150506001900390600052602060002001600090919091909150555050565b60008060009054906101000a900473ffffffffffffffffffffffffffffffffffffffff16905090565b60006001600084815260200190815260200160002060000160008373ffffffffffffffffffffffffffffffffffffffff1673ffffffffffffffffffffffffffffffffffffffff16815260200190815260200160002060009054906101000a900460ff16905092915050565b6000801b81565b60006003600084815260200190815260200160002090506000801b816001015414611483576040517f08c379a000000000000000000000000000000000000000000000000000000000815260040161147a90612726565b60405180910390fd5b6000600260003373ffffffffffffffffffffffffffffffffffffffff1673ffffffffffffffffffffffffffffffffffffffff1681526020019081526020016000209050338260000160006101000a81548173ffffffffffffffffffffffffffffffffffffffff021916908373ffffffffffffffffffffffffffffffffffffffff16021790555083826001018190555082826002018190555042826005018190555060048054905082600301819055508060000180549050826004018190555081600360008681526020019081526020016000206000820160009054906101000a900473ffffffffffffffffffffffffffffffffffffffff168160000160006101000a81548173ffffffffffffffffffffffffffffffffffffffff021916908373ffffffffffffffffffffffffffffffffffffffff160217905550600182015481600101556002820154816002015560038201548160030155600482015481600401556005820154816005015590505060048490806001815401808255809150506001900390600052602060002001600090919091909150558060000184908060018154018082558091505060019003906000526020600020016000909190919091505550505050565b6000600480549050905090565b6116628261073d565b61166b81611768565b6116758383611864565b505050565b611682611946565b600073ffffffffffffffffffffffffffffffffffffffff168173ffffffffffffffffffffffffffffffffffffffff1614156116f2576040517f08c379a00000000000000000000000000000000000000000000000000000000081526004016116e9906126e6565b60405180910390fd5b6116fb816119c4565b50565b60007f01ffc9a7000000000000000000000000000000000000000000000000000000007bffffffffffffffffffffffffffffffffffffffffffffffffffffffff1916827bffffffffffffffffffffffffffffffffffffffffffffffffffffffff1916149050919050565b6117798161177461185c565b611a88565b50565b61178682826113b1565b61185857600180600084815260200190815260200160002060000160008373ffffffffffffffffffffffffffffffffffffffff1673ffffffffffffffffffffffffffffffffffffffff16815260200190815260200160002060006101000a81548160ff0219169083151502179055506117fd61185c565b73ffffffffffffffffffffffffffffffffffffffff168173ffffffffffffffffffffffffffffffffffffffff16837f2f8788117e7eff1d82e926ec794901d17c78024a50270940304540a733656f0d60405160405180910390a45b5050565b600033905090565b61186e82826113b1565b156119425760006001600084815260200190815260200160002060000160008373ffffffffffffffffffffffffffffffffffffffff1673ffffffffffffffffffffffffffffffffffffffff16815260200190815260200160002060006101000a81548160ff0219169083151502179055506118e761185c565b73ffffffffffffffffffffffffffffffffffffffff168173ffffffffffffffffffffffffffffffffffffffff16837ff6391f5c32d9c69d2a47ea670b442974b53935d1edc7fd64eb21e047a839171b60405160405180910390a45b5050565b61194e61185c565b73ffffffffffffffffffffffffffffffffffffffff1661196c611388565b73ffffffffffffffffffffffffffffffffffffffff16146119c2576040517f08c379a00000000000000000000000000000000000000000000000000000000081526004016119b990612706565b60405180910390fd5b565b60008060009054906101000a900473ffffffffffffffffffffffffffffffffffffffff169050816000806101000a81548173ffffffffffffffffffffffffffffffffffffffff021916908373ffffffffffffffffffffffffffffffffffffffff1602179055508173ffffffffffffffffffffffffffffffffffffffff168173ffffffffffffffffffffffffffffffffffffffff167f8be0079c531659141344cd1fd0a4f28419497f9722a3daafe3b4186f6b6457e060405160405180910390a35050565b611a9282826113b1565b611b0957611a9f81611b0d565b611aad8360001c6020611b3a565b604051602001611abe9291906125b5565b6040516020818303038152906040526040517f08c379a0000000000000000000000000000000000000000000000000000000008152600401611b009190612684565b60405180910390fd5b5050565b6060611b338273ffffffffffffffffffffffffffffffffffffffff16601460ff16611b3a565b9050919050565b606060006002836002611b4d919061292f565b611b5791906128d9565b67ffffffffffffffff811115611b96577f4e487b7100000000000000000000000000000000000000000000000000000000600052604160045260246000fd5b6040519080825280601f01601f191660200182016040528015611bc85781602001600182028036833780820191505090505b5090507f300000000000000000000000000000000000000000000000000000000000000081600081518110611c26577f4e487b7100000000000000000000000000000000000000000000000000000000600052603260045260246000fd5b60200101907effffffffffffffffffffffffffffffffffffffffffffffffffffffffffffff1916908160001a9053507f780000000000000000000000000000000000000000000000000000000000000081600181518110611cb0577f4e487b7100000000000000000000000000000000000000000000000000000000600052603260045260246000fd5b60200101907effffffffffffffffffffffffffffffffffffffffffffffffffffffffffffff1916908160001a90535060006001846002611cf0919061292f565b611cfa91906128d9565b90505b6001811115611de6577f3031323334353637383961626364656600000000000000000000000000000000600f861660108110611d62577f4e487b7100000000000000000000000000000000000000000000000000000000600052603260045260246000fd5b1a60f81b828281518110611d9f577f4e487b7100000000000000000000000000000000000000000000000000000000600052603260045260246000fd5b60200101907effffffffffffffffffffffffffffffffffffffffffffffffffffffffffffff1916908160001a905350600485901c945080611ddf90612a6e565b9050611cfd565b5060008414611e2a576040517f08c379a0000000000000000000000000000000000000000000000000000000008152600401611e21906126a6565b60405180910390fd5b8091505092915050565b6040518060c00160405280600073ffffffffffffffffffffffffffffffffffffffff16815260200160008019168152602001600080191681526020016000815260200160008152602001600081525090565b604051806040016040528060608152602001606081525090565b6000611eb3611eae84612803565b6127de565b90508083825260208201905082856020860282011115611ed257600080fd5b60005b85811015611f025781611ee88882611f4b565b845260208401935060208301925050600181019050611ed5565b5050509392505050565b600081359050611f1b81612d3e565b92915050565b600082601f830112611f3257600080fd5b8135611f42848260208601611ea0565b91505092915050565b600081359050611f5a81612d55565b92915050565b600081359050611f6f81612d6c565b92915050565b600081359050611f8481612d83565b92915050565b600060208284031215611f9c57600080fd5b6000611faa84828501611f0c565b91505092915050565b600060208284031215611fc557600080fd5b600082013567ffffffffffffffff811115611fdf57600080fd5b611feb84828501611f21565b91505092915050565b60006020828403121561200657600080fd5b600061201484828501611f4b565b91505092915050565b6000806040838503121561203057600080fd5b600061203e85828601611f4b565b925050602061204f85828601611f0c565b9150509250929050565b6000806040838503121561206c57600080fd5b600061207a85828601611f4b565b925050602061208b85828601611f4b565b9150509250929050565b6000602082840312156120a757600080fd5b60006120b584828501611f60565b91505092915050565b6000602082840312156120d057600080fd5b60006120de84828501611f75565b91505092915050565b600080604083850312156120fa57600080fd5b600061210885828601611f75565b925050602061211985828601611f75565b9150509250929050565b600061212f838361229a565b60208301905092915050565b6000612147838361245d565b60c08301905092915050565b61215c816129bd565b82525050565b61216b816129bd565b82525050565b600061217c8261284f565b612186818561288a565b93506121918361282f565b8060005b838110156121c25781516121a98882612123565b97506121b483612870565b925050600181019050612195565b5085935050505092915050565b60006121da8261284f565b6121e4818561289b565b93506121ef8361282f565b8060005b838110156122205781516122078882612123565b975061221283612870565b9250506001810190506121f3565b5085935050505092915050565b60006122388261285a565b61224281856128ac565b935061224d8361283f565b8060005b8381101561227e578151612265888261213b565b97506122708361287d565b925050600181019050612251565b5085935050505092915050565b612294816129cf565b82525050565b6122a3816129db565b82525050565b6122b2816129db565b82525050565b60006122c382612865565b6122cd81856128bd565b93506122dd818560208601612a3b565b6122e681612b70565b840191505092915050565b60006122fc82612865565b61230681856128ce565b9350612316818560208601612a3b565b80840191505092915050565b600061232f6020836128bd565b915061233a82612b81565b602082019050919050565b60006123526014836128bd565b915061235d82612baa565b602082019050919050565b60006123756026836128bd565b915061238082612bd3565b604082019050919050565b60006123986020836128bd565b91506123a382612c22565b602082019050919050565b60006123bb6015836128bd565b91506123c682612c4b565b602082019050919050565b60006123de6013836128bd565b91506123e982612c74565b602082019050919050565b60006124016017836128ce565b915061240c82612c9d565b601782019050919050565b60006124246011836128ce565b915061242f82612cc6565b601182019050919050565b6000612447602f836128bd565b915061245282612cef565b604082019050919050565b60c0820160008201516124736000850182612153565b506020820151612486602085018261229a565b506040820151612499604085018261229a565b5060608201516124ac6060850182612597565b5060808201516124bf6080850182612597565b5060a08201516124d260a0850182612597565b50505050565b60c0820160008201516124ee6000850182612153565b506020820151612501602085018261229a565b506040820151612514604085018261229a565b5060608201516125276060850182612597565b50608082015161253a6080850182612597565b5060a082015161254d60a0850182612597565b50505050565b600060408301600083015184820360008601526125708282612171565b9150506020830151848203602086015261258a8282612171565b9150508091505092915050565b6125a081612a31565b82525050565b6125af81612a31565b82525050565b60006125c0826123f4565b91506125cc82856122f1565b91506125d782612417565b91506125e382846122f1565b91508190509392505050565b60006020820190506126046000830184612162565b92915050565b6000602082019050818103600083015261262481846121cf565b905092915050565b60006020820190508181036000830152612646818461222d565b905092915050565b6000602082019050612663600083018461228b565b92915050565b600060208201905061267e60008301846122a9565b92915050565b6000602082019050818103600083015261269e81846122b8565b905092915050565b600060208201905081810360008301526126bf81612322565b9050919050565b600060208201905081810360008301526126df81612345565b9050919050565b600060208201905081810360008301526126ff81612368565b9050919050565b6000602082019050818103600083015261271f8161238b565b9050919050565b6000602082019050818103600083015261273f816123ae565b9050919050565b6000602082019050818103600083015261275f816123d1565b9050919050565b6000602082019050818103600083015261277f8161243a565b9050919050565b600060c08201905061279b60008301846124d8565b92915050565b600060208201905081810360008301526127bb8184612553565b905092915050565b60006020820190506127d860008301846125a6565b92915050565b60006127e86127f9565b90506127f48282612a98565b919050565b6000604051905090565b600067ffffffffffffffff82111561281e5761281d612b41565b5b602082029050602081019050919050565b6000819050602082019050919050565b6000819050602082019050919050565b600081519050919050565b600081519050919050565b600081519050919050565b6000602082019050919050565b6000602082019050919050565b600082825260208201905092915050565b600082825260208201905092915050565b600082825260208201905092915050565b600082825260208201905092915050565b600081905092915050565b60006128e482612a31565b91506128ef83612a31565b9250827fffffffffffffffffffffffffffffffffffffffffffffffffffffffffffffffff0382111561292457612923612b12565b5b828201905092915050565b600061293a82612a31565b915061294583612a31565b9250817fffffffffffffffffffffffffffffffffffffffffffffffffffffffffffffffff048311821515161561297e5761297d612b12565b5b828202905092915050565b600061299482612a31565b915061299f83612a31565b9250828210156129b2576129b1612b12565b5b828203905092915050565b60006129c882612a11565b9050919050565b60008115159050919050565b6000819050919050565b60007fffffffff0000000000000000000000000000000000000000000000000000000082169050919050565b600073ffffffffffffffffffffffffffffffffffffffff82169050919050565b6000819050919050565b60005b83811015612a59578082015181840152602081019050612a3e565b83811115612a68576000848401525b50505050565b6000612a7982612a31565b91506000821415612a8d57612a8c612b12565b5b600182039050919050565b612aa182612b70565b810181811067ffffffffffffffff82111715612ac057612abf612b41565b5b80604052505050565b6000612ad482612a31565b91507fffffffffffffffffffffffffffffffffffffffffffffffffffffffffffffffff821415612b0757612b06612b12565b5b600182019050919050565b7f4e487b7100000000000000000000000000000000000000000000000000000000600052601160045260246000fd5b7f4e487b7100000000000000000000000000000000000000000000000000000000600052604160045260246000fd5b6000601f19601f8301169050919050565b7f537472696e67733a20686578206c656e67746820696e73756666696369656e74600082015250565b7f5265636f726420646f65736e2774206578697374000000000000000000000000600082015250565b7f4f776e61626c653a206e6577206f776e657220697320746865207a65726f206160008201527f6464726573730000000000000000000000000000000000000000000000000000602082015250565b7f4f776e61626c653a2063616c6c6572206973206e6f7420746865206f776e6572600082015250565b7f5265636f726420616c7265616479206578697374730000000000000000000000600082015250565b7f53656e646572206973206e6f74206f776e657200000000000000000000000000600082015250565b7f416363657373436f6e74726f6c3a206163636f756e7420000000000000000000600082015250565b7f206973206d697373696e6720726f6c6520000000000000000000000000000000600082015250565b7f416363657373436f6e74726f6c3a2063616e206f6e6c792072656e6f756e636560008201527f20726f6c657320666f722073656c660000000000000000000000000000000000602082015250565b612d47816129bd565b8114612d5257600080fd5b50565b612d5e816129db565b8114612d6957600080fd5b50565b612d75816129e5565b8114612d8057600080fd5b50565b612d8c81612a31565b8114612d9757600080fd5b5056fea264697066735822122050fd934d34690b8383eee13b6ff4195b3b296f206527ae1d3edec93a91a9370a64736f6c63430008040033",
  "linkReferences": {},
  "deployedLinkReferences": {}
}