{
  "_format": "hh-sol-artifact-1",
  "contractName": "DappRegistry",
  "sourceName": "contracts/DappRegistry.sol",
  "abi": [
    {
      "inputs": [],
      "stateMutability": "nonpayable",
      "type": "constructor"
    },
    {
      "anonymous": false,
      "inputs": [
        {
          "indexed": true,
          "internalType": "address",
          "name": "previousOwner",
          "type": "address"
        },
        {
          "indexed": true,
          "internalType": "address",
          "name": "newOwner",
          "type": "address"
        }
      ],
      "name": "OwnershipTransferred",
      "type": "event"
    },
    {
      "anonymous": false,
      "inputs": [
        {
          "indexed": true,
          "internalType": "bytes32",
          "name": "role",
          "type": "bytes32"
        },
        {
          "indexed": true,
          "internalType": "bytes32",
          "name": "previousAdminRole",
          "type": "bytes32"
        },
        {
          "indexed": true,
          "internalType": "bytes32",
          "name": "newAdminRole",
          "type": "bytes32"
        }
      ],
      "name": "RoleAdminChanged",
      "type": "event"
    },
    {
      "anonymous": false,
      "inputs": [
        {
          "indexed": true,
          "internalType": "bytes32",
          "name": "role",
          "type": "bytes32"
        },
        {
          "indexed": true,
          "internalType": "address",
          "name": "account",
          "type": "address"
        },
        {
          "indexed": true,
          "internalType": "address",
          "name": "sender",
          "type": "address"
        }
      ],
      "name": "RoleGranted",
      "type": "event"
    },
    {
      "anonymous": false,
      "inputs": [
        {
          "indexed": true,
          "internalType": "bytes32",
          "name": "role",
          "type": "bytes32"
        },
        {
          "indexed": true,
          "internalType": "address",
          "name": "account",
          "type": "address"
        },
        {
          "indexed": true,
          "internalType": "address",
          "name": "sender",
          "type": "address"
        }
      ],
      "name": "RoleRevoked",
      "type": "event"
    },
    {
      "inputs": [],
      "name": "DEFAULT_ADMIN_ROLE",
      "outputs": [
        {
          "internalType": "bytes32",
          "name": "",
          "type": "bytes32"
        }
      ],
      "stateMutability": "view",
      "type": "function"
    },
    {
      "inputs": [],
      "name": "VALIDATOR_ROLE",
      "outputs": [
        {
          "internalType": "bytes32",
          "name": "",
          "type": "bytes32"
        }
      ],
      "stateMutability": "view",
      "type": "function"
    },
    {
      "inputs": [
        {
          "internalType": "bytes32",
          "name": "_location",
          "type": "bytes32"
        },
        {
          "internalType": "bytes32",
          "name": "_urlHash",
          "type": "bytes32"
        }
      ],
      "name": "createRecord",
      "outputs": [],
      "stateMutability": "nonpayable",
      "type": "function"
    },
    {
      "inputs": [
        {
          "internalType": "bytes32",
          "name": "_recordHash",
          "type": "bytes32"
        },
        {
          "internalType": "bytes32",
          "name": "_newLocation",
          "type": "bytes32"
        }
      ],
      "name": "editRecord",
      "outputs": [],
      "stateMutability": "nonpayable",
      "type": "function"
    },
    {
      "inputs": [
        {
          "internalType": "bytes32",
          "name": "_location",
          "type": "bytes32"
        }
      ],
      "name": "getRecord",
      "outputs": [
        {
          "components": [
            {
              "internalType": "bytes32",
              "name": "recordHash",
              "type": "bytes32"
            },
            {
              "internalType": "address",
              "name": "creator",
              "type": "address"
            },
            {
              "internalType": "bytes32",
              "name": "location",
              "type": "bytes32"
            },
            {
              "internalType": "bytes32",
              "name": "urlHash",
              "type": "bytes32"
            },
            {
              "internalType": "bool",
              "name": "edited",
              "type": "bool"
            },
            {
              "internalType": "uint256",
              "name": "index",
              "type": "uint256"
            },
            {
              "internalType": "uint256",
              "name": "creatorIndex",
              "type": "uint256"
            },
            {
              "internalType": "uint256",
              "name": "timestamp",
              "type": "uint256"
            }
          ],
          "internalType": "struct DappRegistry.Record",
          "name": "",
          "type": "tuple"
        }
      ],
      "stateMutability": "view",
      "type": "function"
    },
    {
      "inputs": [],
      "name": "getRecordCount",
      "outputs": [
        {
          "internalType": "uint256",
          "name": "",
          "type": "uint256"
        }
      ],
      "stateMutability": "view",
      "type": "function"
    },
    {
      "inputs": [
        {
          "internalType": "uint256",
          "name": "_startIndex",
          "type": "uint256"
        },
        {
          "internalType": "uint256",
          "name": "_length",
          "type": "uint256"
        }
      ],
      "name": "getRecordSlice",
      "outputs": [
        {
          "internalType": "bytes32[]",
          "name": "",
          "type": "bytes32[]"
        }
      ],
      "stateMutability": "view",
      "type": "function"
    },
    {
      "inputs": [
        {
          "internalType": "bytes32[]",
          "name": "_recordHashes",
          "type": "bytes32[]"
        }
      ],
      "name": "getRecords",
      "outputs": [
        {
          "components": [
            {
              "internalType": "bytes32",
              "name": "recordHash",
              "type": "bytes32"
            },
            {
              "internalType": "address",
              "name": "creator",
              "type": "address"
            },
            {
              "internalType": "bytes32",
              "name": "location",
              "type": "bytes32"
            },
            {
              "internalType": "bytes32",
              "name": "urlHash",
              "type": "bytes32"
            },
            {
              "internalType": "bool",
              "name": "edited",
              "type": "bool"
            },
            {
              "internalType": "uint256",
              "name": "index",
              "type": "uint256"
            },
            {
              "internalType": "uint256",
              "name": "creatorIndex",
              "type": "uint256"
            },
            {
              "internalType": "uint256",
              "name": "timestamp",
              "type": "uint256"
            }
          ],
          "internalType": "struct DappRegistry.Record[]",
          "name": "",
          "type": "tuple[]"
        }
      ],
      "stateMutability": "view",
      "type": "function"
    },
    {
      "inputs": [
        {
          "internalType": "bytes32",
          "name": "role",
          "type": "bytes32"
        }
      ],
      "name": "getRoleAdmin",
      "outputs": [
        {
          "internalType": "bytes32",
          "name": "",
          "type": "bytes32"
        }
      ],
      "stateMutability": "view",
      "type": "function"
    },
    {
      "inputs": [
        {
          "internalType": "address",
          "name": "_account",
          "type": "address"
        }
      ],
      "name": "getUserRecordHashes",
      "outputs": [
        {
          "internalType": "bytes32[]",
          "name": "",
          "type": "bytes32[]"
        }
      ],
      "stateMutability": "view",
      "type": "function"
    },
    {
      "inputs": [
        {
          "internalType": "address",
          "name": "_validatorAddress",
          "type": "address"
        }
      ],
      "name": "getValidatedRecords",
      "outputs": [
        {
          "components": [
            {
              "internalType": "bytes32",
              "name": "recordHash",
              "type": "bytes32"
            },
            {
              "internalType": "address",
              "name": "creator",
              "type": "address"
            },
            {
              "internalType": "bytes32",
              "name": "location",
              "type": "bytes32"
            },
            {
              "internalType": "bytes32",
              "name": "urlHash",
              "type": "bytes32"
            },
            {
              "internalType": "bool",
              "name": "edited",
              "type": "bool"
            },
            {
              "internalType": "uint256",
              "name": "index",
              "type": "uint256"
            },
            {
              "internalType": "uint256",
              "name": "creatorIndex",
              "type": "uint256"
            },
            {
              "internalType": "uint256",
              "name": "timestamp",
              "type": "uint256"
            }
          ],
          "internalType": "struct DappRegistry.Record[]",
          "name": "",
          "type": "tuple[]"
        }
      ],
      "stateMutability": "view",
      "type": "function"
    },
    {
      "inputs": [
        {
          "internalType": "bytes32",
          "name": "role",
          "type": "bytes32"
        },
        {
          "internalType": "address",
          "name": "account",
          "type": "address"
        }
      ],
      "name": "grantRole",
      "outputs": [],
      "stateMutability": "nonpayable",
      "type": "function"
    },
    {
      "inputs": [
        {
          "internalType": "bytes32",
          "name": "role",
          "type": "bytes32"
        },
        {
          "internalType": "address",
          "name": "account",
          "type": "address"
        }
      ],
      "name": "hasRole",
      "outputs": [
        {
          "internalType": "bool",
          "name": "",
          "type": "bool"
        }
      ],
      "stateMutability": "view",
      "type": "function"
    },
    {
      "inputs": [],
      "name": "owner",
      "outputs": [
        {
          "internalType": "address",
          "name": "",
          "type": "address"
        }
      ],
      "stateMutability": "view",
      "type": "function"
    },
    {
      "inputs": [
        {
          "internalType": "uint256",
          "name": "",
          "type": "uint256"
        }
      ],
      "name": "recordList",
      "outputs": [
        {
          "internalType": "bytes32",
          "name": "",
          "type": "bytes32"
        }
      ],
      "stateMutability": "view",
      "type": "function"
    },
    {
      "inputs": [],
      "name": "renounceOwnership",
      "outputs": [],
      "stateMutability": "nonpayable",
      "type": "function"
    },
    {
      "inputs": [
        {
          "internalType": "bytes32",
          "name": "role",
          "type": "bytes32"
        },
        {
          "internalType": "address",
          "name": "account",
          "type": "address"
        }
      ],
      "name": "renounceRole",
      "outputs": [],
      "stateMutability": "nonpayable",
      "type": "function"
    },
    {
      "inputs": [
        {
          "internalType": "bytes32",
          "name": "role",
          "type": "bytes32"
        },
        {
          "internalType": "address",
          "name": "account",
          "type": "address"
        }
      ],
      "name": "revokeRole",
      "outputs": [],
      "stateMutability": "nonpayable",
      "type": "function"
    },
    {
      "inputs": [
        {
          "internalType": "bytes4",
          "name": "interfaceId",
          "type": "bytes4"
        }
      ],
      "name": "supportsInterface",
      "outputs": [
        {
          "internalType": "bool",
          "name": "",
          "type": "bool"
        }
      ],
      "stateMutability": "view",
      "type": "function"
    },
    {
      "inputs": [
        {
          "internalType": "address",
          "name": "newOwner",
          "type": "address"
        }
      ],
      "name": "transferOwnership",
      "outputs": [],
      "stateMutability": "nonpayable",
      "type": "function"
    },
    {
      "inputs": [
        {
          "internalType": "bytes32",
          "name": "_recordHash",
          "type": "bytes32"
        }
      ],
      "name": "unvalidateRecord",
      "outputs": [],
      "stateMutability": "nonpayable",
      "type": "function"
    },
    {
      "inputs": [
        {
          "internalType": "bytes32",
          "name": "_recordHash",
          "type": "bytes32"
        }
      ],
      "name": "validateRecord",
      "outputs": [],
      "stateMutability": "nonpayable",
      "type": "function"
    }
  ],
  "bytecode": "0x608060405234801561001057600080fd5b5061001a3361002a565b61002560003361007a565b610102565b600080546001600160a01b038381166001600160a01b0319831681178455604051919092169283917f8be0079c531659141344cd1fd0a4f28419497f9722a3daafe3b4186f6b6457e09190a35050565b60008281526001602090815260408083206001600160a01b038516845290915290205460ff166100fe5760008281526001602081815260408084206001600160a01b0386168086529252808420805460ff19169093179092559051339285917f2f8788117e7eff1d82e926ec794901d17c78024a50270940304540a733656f0d9190a45b5050565b6117f4806101116000396000f3fe608060405234801561001057600080fd5b50600436106101425760003560e01c8063715018a6116100b8578063a53278281161007c578063a5327828146102c6578063c49baebe146102d9578063ca267f2814610300578063d547741f14610308578063d7419b2a1461031b578063f2fde38b1461032e57600080fd5b8063715018a6146102755780638d87b9db1461027d5780638da5cb5b1461029057806391d14854146102ab578063a217fddf146102be57600080fd5b80632b1e28b41161010a5780632b1e28b4146101e95780632f2ff15d1461020957806336568abe1461021c578063411af8101461022f578063490257de1461024f5780636b90e42a1461026257600080fd5b806301ffc9a714610147578063033ca06e1461016f57806319da83a814610184578063213681cd146101a5578063248a9ca3146101c5575b600080fd5b61015a610155366004611528565b610341565b60405190151581526020015b60405180910390f35b61018261017d3660046114c4565b610378565b005b6101976101923660046114c4565b6104ae565b604051908152602001610166565b6101b86101b33660046114c4565b6104cf565b60405161016691906116d7565b6101976101d33660046114c4565b6000908152600160208190526040909120015490565b6101fc6101f73660046113ea565b610552565b604051610166919061161d565b6101826102173660046114dc565b6105be565b61018261022a3660046114dc565b6105e9565b61024261023d366004611404565b61066c565b6040516101669190611661565b6101fc61025d366004611507565b6107cc565b6102426102703660046113ea565b6108cd565b610182610a48565b61018261028b3660046114c4565b610a5c565b6000546040516001600160a01b039091168152602001610166565b61015a6102b93660046114dc565b610b5d565b610197600081565b6101826102d4366004611507565b610b88565b6101977f21702c8af46127c7fa207f89d0b0a8441bb32959a0ac7df790e9ab1a25c9892681565b600454610197565b6101826103163660046114dc565b610dca565b610182610329366004611507565b610df0565b61018261033c3660046113ea565b610f37565b60006001600160e01b03198216637965db0b60e01b148061037257506301ffc9a760e01b6001600160e01b03198316145b92915050565b33600090815260026020526040812060018082015491929161039a919061171d565b905060005b8181116104a857838360010182815481106103ca57634e487b7160e01b600052603260045260246000fd5b90600052602060002001541415610496578181146104405782600101828154811061040557634e487b7160e01b600052603260045260246000fd5b906000526020600020015483600101828154811061043357634e487b7160e01b600052603260045260246000fd5b6000918252602090912001555b8260010180548061046157634e487b7160e01b600052603160045260246000fd5b60008281526020808220830160001990810183905590920190925585825260028501905260409020805460ff191690556104a8565b806104a081611777565b91505061039f565b50505050565b600481815481106104be57600080fd5b600091825260209091200154905081565b6104d761138a565b506000908152600360208181526040928390208351610100810185528154815260018201546001600160a01b031692810192909252600281015493820193909352908201546060820152600482015460ff1615156080820152600582015460a0820152600682015460c082015260079091015460e082015290565b6001600160a01b0381166000908152600260209081526040918290208054835181840281018401909452808452606093928301828280156105b257602002820191906000526020600020905b81548152602001906001019080831161059e575b50505050509050919050565b600082815260016020819052604090912001546105da81610fb0565b6105e48383610fba565b505050565b6001600160a01b038116331461065e5760405162461bcd60e51b815260206004820152602f60248201527f416363657373436f6e74726f6c3a2063616e206f6e6c792072656e6f756e636560448201526e103937b632b9903337b91039b2b63360891b60648201526084015b60405180910390fd5b6106688282611025565b5050565b60606000825167ffffffffffffffff81111561069857634e487b7160e01b600052604160045260246000fd5b6040519080825280602002602001820160405280156106d157816020015b6106be61138a565b8152602001906001900390816106b65790505b50905060005b83518110156107c5576003600085838151811061070457634e487b7160e01b600052603260045260246000fd5b60209081029190910181015182528181019290925260409081016000208151610100810183528154815260018201546001600160a01b03169381019390935260028101549183019190915260038101546060830152600481015460ff1615156080830152600581015460a0830152600681015460c08301526007015460e082015282518390839081106107a757634e487b7160e01b600052603260045260246000fd5b602002602001018190525080806107bd90611777565b9150506106d7565b5092915050565b6004546060906107dc83856116e6565b11156107f3576004546107f090849061171d565b91505b60008267ffffffffffffffff81111561081c57634e487b7160e01b600052604160045260246000fd5b604051908082528060200260200182016040528015610845578160200160208202803683370190505b50905060005b838110156108c557600461085f82876116e6565b8154811061087d57634e487b7160e01b600052603260045260246000fd5b90600052602060002001548282815181106108a857634e487b7160e01b600052603260045260246000fd5b6020908102919091010152806108bd81611777565b91505061084b565b509392505050565b6001600160a01b038116600090815260026020526040812060018101546060929067ffffffffffffffff81111561091457634e487b7160e01b600052604160045260246000fd5b60405190808252806020026020018201604052801561094d57816020015b61093a61138a565b8152602001906001900390816109325790505b50905060005b60018301548110156108c5576003600084600101838154811061098657634e487b7160e01b600052603260045260246000fd5b6000918252602080832090910154835282810193909352604091820190208151610100810183528154815260018201546001600160a01b03169381019390935260028101549183019190915260038101546060830152600481015460ff1615156080830152600581015460a0830152600681015460c08301526007015460e08201528251839083908110610a2a57634e487b7160e01b600052603260045260246000fd5b60200260200101819052508080610a4090611777565b915050610953565b610a5061108c565b610a5a60006110e6565b565b33600090815260026020818152604080842085855260039092529092200154610ab35760405162461bcd60e51b8152602060048201526009602482015268139bc81c9958dbdc9960ba1b6044820152606401610655565b610abe600033610b5d565b80610aee5750610aee7f21702c8af46127c7fa207f89d0b0a8441bb32959a0ac7df790e9ab1a25c9892633610b5d565b15610b0d576000828152600360205260409020600401805460ff191690555b600082815260028201602052604090205460ff16610668576001808201805480830182556000918252602080832090910185905584825260028401905260409020805460ff191690911790555050565b60009182526001602090815260408084206001600160a01b0393909316845291905290205460ff1690565b33600081815260026020908152604080832080548251938401959095529082019390935242606082015260800160408051601f19818403018152918152815160209283012060008181526003909352912060028101549192509015610c275760405162461bcd60e51b81526020600482015260156024820152745265636f726420616c72656164792065786973747360581b6044820152606401610655565b818160000181905550338160010160006101000a8154816001600160a01b0302191690836001600160a01b0316021790555084816002018190555083816003018190555060018160040160006101000a81548160ff0219169083151502179055504281600701819055506004805490508160050181905550826000018054905081600601819055508060036000848152602001908152602001600020600082015481600001556001820160009054906101000a90046001600160a01b03168160010160006101000a8154816001600160a01b0302191690836001600160a01b0316021790555060028201548160020155600382015481600301556004820160009054906101000a900460ff168160040160006101000a81548160ff0219169083151502179055506005820154816005015560068201548160060155600782015481600701559050506004829080600181540180825580915050600190039060005260206000200160009091909190915055826000018290806001815401808255809150506001900390600052602060002001600090919091909150555050505050565b60008281526001602081905260409091200154610de681610fb0565b6105e48383611025565b6000828152600360208181526040928390208351610100810185528154815260018201546001600160a01b0316928101929092526002810154938201849052918201546060820152600482015460ff1615156080820152600582015460a0820152600682015460c082015260079091015460e08201528391610eab5760405162461bcd60e51b8152602060048201526014602482015273149958dbdc9908191bd95cdb89dd08195e1a5cdd60621b6044820152606401610655565b60208101516001600160a01b0316331480610ecc5750610ecc600033610b5d565b610f0e5760405162461bcd60e51b815260206004820152601360248201527229b2b73232b91034b9903737ba1037bbb732b960691b6044820152606401610655565b50506000918252600360205260409091206002810191909155600401805460ff19166001179055565b610f3f61108c565b6001600160a01b038116610fa45760405162461bcd60e51b815260206004820152602660248201527f4f776e61626c653a206e6577206f776e657220697320746865207a65726f206160448201526564647265737360d01b6064820152608401610655565b610fad816110e6565b50565b610fad8133611136565b610fc48282610b5d565b6106685760008281526001602081815260408084206001600160a01b0386168086529252808420805460ff19169093179092559051339285917f2f8788117e7eff1d82e926ec794901d17c78024a50270940304540a733656f0d9190a45050565b61102f8282610b5d565b156106685760008281526001602090815260408083206001600160a01b0385168085529252808320805460ff1916905551339285917ff6391f5c32d9c69d2a47ea670b442974b53935d1edc7fd64eb21e047a839171b9190a45050565b6000546001600160a01b03163314610a5a5760405162461bcd60e51b815260206004820181905260248201527f4f776e61626c653a2063616c6c6572206973206e6f7420746865206f776e65726044820152606401610655565b600080546001600160a01b038381166001600160a01b0319831681178455604051919092169283917f8be0079c531659141344cd1fd0a4f28419497f9722a3daafe3b4186f6b6457e09190a35050565b6111408282610b5d565b6106685761114d8161118f565b6111588360206111a1565b6040516020016111699291906115a8565b60408051601f198184030181529082905262461bcd60e51b8252610655916004016116a4565b60606103726001600160a01b03831660145b606060006111b08360026116fe565b6111bb9060026116e6565b67ffffffffffffffff8111156111e157634e487b7160e01b600052604160045260246000fd5b6040519080825280601f01601f19166020018201604052801561120b576020820181803683370190505b509050600360fc1b8160008151811061123457634e487b7160e01b600052603260045260246000fd5b60200101906001600160f81b031916908160001a905350600f60fb1b8160018151811061127157634e487b7160e01b600052603260045260246000fd5b60200101906001600160f81b031916908160001a90535060006112958460026116fe565b6112a09060016116e6565b90505b6001811115611334576f181899199a1a9b1b9c1cb0b131b232b360811b85600f16601081106112e257634e487b7160e01b600052603260045260246000fd5b1a60f81b82828151811061130657634e487b7160e01b600052603260045260246000fd5b60200101906001600160f81b031916908160001a90535060049490941c9361132d81611760565b90506112a3565b5083156113835760405162461bcd60e51b815260206004820181905260248201527f537472696e67733a20686578206c656e67746820696e73756666696369656e746044820152606401610655565b9392505050565b6040805161010081018252600080825260208201819052918101829052606081018290526080810182905260a0810182905260c0810182905260e081019190915290565b80356001600160a01b03811681146113e557600080fd5b919050565b6000602082840312156113fb578081fd5b611383826113ce565b60006020808385031215611416578182fd5b823567ffffffffffffffff8082111561142d578384fd5b818501915085601f830112611440578384fd5b813581811115611452576114526117a8565b8060051b604051601f19603f83011681018181108582111715611477576114776117a8565b604052828152858101935084860182860187018a1015611495578788fd5b8795505b838610156114b7578035855260019590950194938601938601611499565b5098975050505050505050565b6000602082840312156114d5578081fd5b5035919050565b600080604083850312156114ee578081fd5b823591506114fe602084016113ce565b90509250929050565b60008060408385031215611519578182fd5b50508035926020909101359150565b600060208284031215611539578081fd5b81356001600160e01b031981168114611383578182fd5b8051825260018060a01b036020820151166020830152604081015160408301526060810151606083015260808101511515608083015260a081015160a083015260c081015160c083015260e081015160e08301525050565b7f416363657373436f6e74726f6c3a206163636f756e74200000000000000000008152600083516115e0816017850160208801611734565b7001034b99036b4b9b9b4b733903937b6329607d1b6017918401918201528351611611816028840160208801611734565b01602801949350505050565b6020808252825182820181905260009190848201906040850190845b8181101561165557835183529284019291840191600101611639565b50909695505050505050565b6020808252825182820181905260009190848201906040850190845b8181101561165557611690838551611550565b92840192610100929092019160010161167d565b60208152600082518060208401526116c3816040850160208701611734565b601f01601f19169190910160400192915050565b61010081016103728284611550565b600082198211156116f9576116f9611792565b500190565b600081600019048311821515161561171857611718611792565b500290565b60008282101561172f5761172f611792565b500390565b60005b8381101561174f578181015183820152602001611737565b838111156104a85750506000910152565b60008161176f5761176f611792565b506000190190565b600060001982141561178b5761178b611792565b5060010190565b634e487b7160e01b600052601160045260246000fd5b634e487b7160e01b600052604160045260246000fdfea26469706673582212204f8c722afe4d9000c99fa2af61f3249a6c2a5700ea2098b3e16125d87de97f4364736f6c63430008040033",
  "linkReferences": {},
  "deployedLinkReferences": {}
}