{
  "_format": "hh-sol-artifact-1",
  "contractName": "DataHub",
  "sourceName": "contracts/DataHub.sol",
  "abi": [
    {
      "inputs": [],
      "stateMutability": "nonpayable",
      "type": "constructor"
    },
    {
      "anonymous": false,
      "inputs": [
        {
          "indexed": true,
          "internalType": "address",
          "name": "previousOwner",
          "type": "address"
        },
        {
          "indexed": true,
          "internalType": "address",
          "name": "newOwner",
          "type": "address"
        }
      ],
      "name": "OwnershipTransferred",
      "type": "event"
    },
    {
      "anonymous": false,
      "inputs": [
        {
          "indexed": true,
          "internalType": "bytes32",
          "name": "role",
          "type": "bytes32"
        },
        {
          "indexed": true,
          "internalType": "bytes32",
          "name": "previousAdminRole",
          "type": "bytes32"
        },
        {
          "indexed": true,
          "internalType": "bytes32",
          "name": "newAdminRole",
          "type": "bytes32"
        }
      ],
      "name": "RoleAdminChanged",
      "type": "event"
    },
    {
      "anonymous": false,
      "inputs": [
        {
          "indexed": true,
          "internalType": "bytes32",
          "name": "role",
          "type": "bytes32"
        },
        {
          "indexed": true,
          "internalType": "address",
          "name": "account",
          "type": "address"
        },
        {
          "indexed": true,
          "internalType": "address",
          "name": "sender",
          "type": "address"
        }
      ],
      "name": "RoleGranted",
      "type": "event"
    },
    {
      "anonymous": false,
      "inputs": [
        {
          "indexed": true,
          "internalType": "bytes32",
          "name": "role",
          "type": "bytes32"
        },
        {
          "indexed": true,
          "internalType": "address",
          "name": "account",
          "type": "address"
        },
        {
          "indexed": true,
          "internalType": "address",
          "name": "sender",
          "type": "address"
        }
      ],
      "name": "RoleRevoked",
      "type": "event"
    },
    {
      "inputs": [],
      "name": "DEFAULT_ADMIN_ROLE",
      "outputs": [
        {
          "internalType": "bytes32",
          "name": "",
          "type": "bytes32"
        }
      ],
      "stateMutability": "view",
      "type": "function"
    },
    {
      "inputs": [],
      "name": "ROLE_REPORTER",
      "outputs": [
        {
          "internalType": "bytes32",
          "name": "",
          "type": "bytes32"
        }
      ],
      "stateMutability": "view",
      "type": "function"
    },
    {
      "inputs": [
        {
          "internalType": "bytes32",
          "name": "subHash",
          "type": "bytes32"
        },
        {
          "internalType": "bytes32",
          "name": "fdpBuyerNameHash",
          "type": "bytes32"
        }
      ],
      "name": "bidSub",
      "outputs": [],
      "stateMutability": "payable",
      "type": "function"
    },
    {
      "inputs": [
        {
          "internalType": "bytes32",
          "name": "subHash",
          "type": "bytes32"
        },
        {
          "internalType": "bool",
          "name": "active",
          "type": "bool"
        }
      ],
      "name": "enableSub",
      "outputs": [],
      "stateMutability": "nonpayable",
      "type": "function"
    },
    {
      "inputs": [],
      "name": "feesCollected",
      "outputs": [
        {
          "internalType": "uint256",
          "name": "",
          "type": "uint256"
        }
      ],
      "stateMutability": "view",
      "type": "function"
    },
    {
      "inputs": [],
      "name": "fundsBalance",
      "outputs": [
        {
          "internalType": "uint256",
          "name": "",
          "type": "uint256"
        }
      ],
      "stateMutability": "view",
      "type": "function"
    },
    {
      "inputs": [],
      "name": "fundsTransfer",
      "outputs": [],
      "stateMutability": "payable",
      "type": "function"
    },
    {
      "inputs": [
        {
          "internalType": "address",
          "name": "addr",
          "type": "address"
        },
        {
          "internalType": "uint256",
          "name": "index",
          "type": "uint256"
        }
      ],
      "name": "getActiveBidAt",
      "outputs": [
        {
          "components": [
            {
              "internalType": "bytes32",
              "name": "requestHash",
              "type": "bytes32"
            },
            {
              "internalType": "address",
              "name": "seller",
              "type": "address"
            },
            {
              "internalType": "bool",
              "name": "served",
              "type": "bool"
            }
          ],
          "internalType": "struct DataHub.ActiveBid",
          "name": "",
          "type": "tuple"
        }
      ],
      "stateMutability": "view",
      "type": "function"
    },
    {
      "inputs": [
        {
          "internalType": "address",
          "name": "addr",
          "type": "address"
        }
      ],
      "name": "getActiveBids",
      "outputs": [
        {
          "components": [
            {
              "internalType": "bytes32",
              "name": "requestHash",
              "type": "bytes32"
            },
            {
              "internalType": "address",
              "name": "seller",
              "type": "address"
            },
            {
              "internalType": "bool",
              "name": "served",
              "type": "bool"
            }
          ],
          "internalType": "struct DataHub.ActiveBid[]",
          "name": "",
          "type": "tuple[]"
        }
      ],
      "stateMutability": "view",
      "type": "function"
    },
    {
      "inputs": [
        {
          "internalType": "address",
          "name": "addr",
          "type": "address"
        },
        {
          "internalType": "bytes32",
          "name": "requestHash",
          "type": "bytes32"
        }
      ],
      "name": "getActiveBidsByHash",
      "outputs": [
        {
          "components": [
            {
              "internalType": "bytes32",
              "name": "requestHash",
              "type": "bytes32"
            },
            {
              "internalType": "address",
              "name": "seller",
              "type": "address"
            },
            {
              "internalType": "bool",
              "name": "served",
              "type": "bool"
            }
          ],
          "internalType": "struct DataHub.ActiveBid",
          "name": "",
          "type": "tuple"
        }
      ],
      "stateMutability": "view",
      "type": "function"
    },
    {
      "inputs": [
        {
          "internalType": "address",
          "name": "addr",
          "type": "address"
        }
      ],
      "name": "getAllSubItems",
      "outputs": [
        {
          "components": [
            {
              "internalType": "bytes32",
              "name": "subHash",
              "type": "bytes32"
            },
            {
              "internalType": "bytes32",
              "name": "unlockKeyLocation",
              "type": "bytes32"
            },
            {
              "internalType": "uint256",
              "name": "validTill",
              "type": "uint256"
            }
          ],
          "internalType": "struct DataHub.SubItem[]",
          "name": "",
          "type": "tuple[]"
        }
      ],
      "stateMutability": "view",
      "type": "function"
    },
    {
      "inputs": [
        {
          "internalType": "bytes32",
          "name": "nameHash",
          "type": "bytes32"
        }
      ],
      "name": "getAllSubItemsForNameHash",
      "outputs": [
        {
          "components": [
            {
              "internalType": "bytes32",
              "name": "subHash",
              "type": "bytes32"
            },
            {
              "internalType": "bytes32",
              "name": "unlockKeyLocation",
              "type": "bytes32"
            },
            {
              "internalType": "uint256",
              "name": "validTill",
              "type": "uint256"
            }
          ],
          "internalType": "struct DataHub.SubItem[]",
          "name": "",
          "type": "tuple[]"
        }
      ],
      "stateMutability": "view",
      "type": "function"
    },
    {
      "inputs": [
        {
          "internalType": "bytes32",
          "name": "category",
          "type": "bytes32"
        }
      ],
      "name": "getCategory",
      "outputs": [
        {
          "components": [
            {
              "internalType": "uint64[]",
              "name": "subIdxs",
              "type": "uint64[]"
            }
          ],
          "internalType": "struct DataHub.Category",
          "name": "",
          "type": "tuple"
        }
      ],
      "stateMutability": "view",
      "type": "function"
    },
    {
      "inputs": [
        {
          "internalType": "uint256",
          "name": "_fee",
          "type": "uint256"
        },
        {
          "internalType": "uint256",
          "name": "amount",
          "type": "uint256"
        }
      ],
      "name": "getFee",
      "outputs": [
        {
          "internalType": "uint256",
          "name": "",
          "type": "uint256"
        }
      ],
      "stateMutability": "pure",
      "type": "function"
    },
    {
      "inputs": [
        {
          "internalType": "address",
          "name": "addr",
          "type": "address"
        }
      ],
      "name": "getListedSubs",
      "outputs": [
        {
          "internalType": "bytes32[]",
          "name": "",
          "type": "bytes32[]"
        }
      ],
      "stateMutability": "view",
      "type": "function"
    },
    {
      "inputs": [
        {
          "internalType": "bytes32",
          "name": "nameHash",
          "type": "bytes32"
        }
      ],
      "name": "getNameHashSubItems",
      "outputs": [
        {
          "internalType": "bytes32[]",
          "name": "",
          "type": "bytes32[]"
        }
      ],
      "stateMutability": "view",
      "type": "function"
    },
    {
      "inputs": [
        {
          "internalType": "address",
          "name": "addr",
          "type": "address"
        }
      ],
      "name": "getPortableAddress",
      "outputs": [
        {
          "internalType": "address",
          "name": "",
          "type": "address"
        }
      ],
      "stateMutability": "view",
      "type": "function"
    },
    {
      "inputs": [
        {
          "internalType": "bytes32",
          "name": "role",
          "type": "bytes32"
        }
      ],
      "name": "getRoleAdmin",
      "outputs": [
        {
          "internalType": "bytes32",
          "name": "",
          "type": "bytes32"
        }
      ],
      "stateMutability": "view",
      "type": "function"
    },
    {
      "inputs": [
        {
          "internalType": "bytes32",
          "name": "subHash",
          "type": "bytes32"
        }
      ],
      "name": "getSubBy",
      "outputs": [
        {
          "components": [
            {
              "internalType": "bytes32",
              "name": "subHash",
              "type": "bytes32"
            },
            {
              "internalType": "bytes32",
              "name": "fdpSellerNameHash",
              "type": "bytes32"
            },
            {
              "internalType": "address",
              "name": "seller",
              "type": "address"
            },
            {
              "internalType": "bytes32",
              "name": "swarmLocation",
              "type": "bytes32"
            },
            {
              "internalType": "uint256",
              "name": "price",
              "type": "uint256"
            },
            {
              "internalType": "bool",
              "name": "active",
              "type": "bool"
            },
            {
              "internalType": "uint256",
              "name": "earned",
              "type": "uint256"
            },
            {
              "internalType": "bytes32",
              "name": "category",
              "type": "bytes32"
            },
            {
              "internalType": "uint256",
              "name": "bids",
              "type": "uint256"
            },
            {
              "internalType": "uint256",
              "name": "sells",
              "type": "uint256"
            },
            {
              "internalType": "uint256",
              "name": "reports",
              "type": "uint256"
            },
            {
              "internalType": "uint256",
              "name": "daysValid",
              "type": "uint256"
            }
          ],
          "internalType": "struct DataHub.Sub",
          "name": "",
          "type": "tuple"
        }
      ],
      "stateMutability": "view",
      "type": "function"
    },
    {
      "inputs": [
        {
          "internalType": "uint256",
          "name": "index",
          "type": "uint256"
        }
      ],
      "name": "getSubByIndex",
      "outputs": [
        {
          "components": [
            {
              "internalType": "bytes32",
              "name": "subHash",
              "type": "bytes32"
            },
            {
              "internalType": "bytes32",
              "name": "fdpSellerNameHash",
              "type": "bytes32"
            },
            {
              "internalType": "address",
              "name": "seller",
              "type": "address"
            },
            {
              "internalType": "bytes32",
              "name": "swarmLocation",
              "type": "bytes32"
            },
            {
              "internalType": "uint256",
              "name": "price",
              "type": "uint256"
            },
            {
              "internalType": "bool",
              "name": "active",
              "type": "bool"
            },
            {
              "internalType": "uint256",
              "name": "earned",
              "type": "uint256"
            },
            {
              "internalType": "bytes32",
              "name": "category",
              "type": "bytes32"
            },
            {
              "internalType": "uint256",
              "name": "bids",
              "type": "uint256"
            },
            {
              "internalType": "uint256",
              "name": "sells",
              "type": "uint256"
            },
            {
              "internalType": "uint256",
              "name": "reports",
              "type": "uint256"
            },
            {
              "internalType": "uint256",
              "name": "daysValid",
              "type": "uint256"
            }
          ],
          "internalType": "struct DataHub.Sub",
          "name": "",
          "type": "tuple"
        }
      ],
      "stateMutability": "view",
      "type": "function"
    },
    {
      "inputs": [
        {
          "internalType": "bytes32",
          "name": "subHash",
          "type": "bytes32"
        },
        {
          "internalType": "address",
          "name": "forAddress",
          "type": "address"
        }
      ],
      "name": "getSubInfoBalance",
      "outputs": [
        {
          "internalType": "uint256",
          "name": "",
          "type": "uint256"
        }
      ],
      "stateMutability": "view",
      "type": "function"
    },
    {
      "inputs": [
        {
          "internalType": "address",
          "name": "addr",
          "type": "address"
        },
        {
          "internalType": "uint256",
          "name": "index",
          "type": "uint256"
        }
      ],
      "name": "getSubItemAt",
      "outputs": [
        {
          "components": [
            {
              "internalType": "bytes32",
              "name": "subHash",
              "type": "bytes32"
            },
            {
              "internalType": "bytes32",
              "name": "unlockKeyLocation",
              "type": "bytes32"
            },
            {
              "internalType": "uint256",
              "name": "validTill",
              "type": "uint256"
            }
          ],
          "internalType": "struct DataHub.SubItem",
          "name": "",
          "type": "tuple"
        }
      ],
      "stateMutability": "view",
      "type": "function"
    },
    {
      "inputs": [
        {
          "internalType": "address",
          "name": "addr",
          "type": "address"
        },
        {
          "internalType": "uint256",
          "name": "start",
          "type": "uint256"
        },
        {
          "internalType": "uint256",
          "name": "length",
          "type": "uint256"
        }
      ],
      "name": "getSubItems",
      "outputs": [
        {
          "components": [
            {
              "internalType": "bytes32",
              "name": "subHash",
              "type": "bytes32"
            },
            {
              "internalType": "bytes32",
              "name": "unlockKeyLocation",
              "type": "bytes32"
            },
            {
              "internalType": "uint256",
              "name": "validTill",
              "type": "uint256"
            }
          ],
          "internalType": "struct DataHub.SubItem[]",
          "name": "items",
          "type": "tuple[]"
        },
        {
          "internalType": "uint256",
          "name": "last",
          "type": "uint256"
        }
      ],
      "stateMutability": "view",
      "type": "function"
    },
    {
      "inputs": [
        {
          "internalType": "address",
          "name": "addr",
          "type": "address"
        },
        {
          "internalType": "uint256",
          "name": "index",
          "type": "uint256"
        }
      ],
      "name": "getSubRequestAt",
      "outputs": [
        {
          "components": [
            {
              "internalType": "bytes32",
              "name": "fdpBuyerNameHash",
              "type": "bytes32"
            },
            {
              "internalType": "bytes32",
              "name": "subHash",
              "type": "bytes32"
            },
            {
              "internalType": "bytes32",
              "name": "requestHash",
              "type": "bytes32"
            },
            {
              "internalType": "address",
              "name": "buyer",
              "type": "address"
            },
            {
              "internalType": "bool",
              "name": "served",
              "type": "bool"
            }
          ],
          "internalType": "struct DataHub.SubRequest",
          "name": "",
          "type": "tuple"
        }
      ],
      "stateMutability": "view",
      "type": "function"
    },
    {
      "inputs": [
        {
          "internalType": "address",
          "name": "addr",
          "type": "address"
        },
        {
          "internalType": "bytes32",
          "name": "requestHash",
          "type": "bytes32"
        }
      ],
      "name": "getSubRequestByHash",
      "outputs": [
        {
          "components": [
            {
              "internalType": "bytes32",
              "name": "fdpBuyerNameHash",
              "type": "bytes32"
            },
            {
              "internalType": "bytes32",
              "name": "subHash",
              "type": "bytes32"
            },
            {
              "internalType": "bytes32",
              "name": "requestHash",
              "type": "bytes32"
            },
            {
              "internalType": "address",
              "name": "buyer",
              "type": "address"
            },
            {
              "internalType": "bool",
              "name": "served",
              "type": "bool"
            }
          ],
          "internalType": "struct DataHub.SubRequest",
          "name": "",
          "type": "tuple"
        }
      ],
      "stateMutability": "view",
      "type": "function"
    },
    {
      "inputs": [
        {
          "internalType": "address",
          "name": "addr",
          "type": "address"
        }
      ],
      "name": "getSubRequests",
      "outputs": [
        {
          "components": [
            {
              "internalType": "bytes32",
              "name": "fdpBuyerNameHash",
              "type": "bytes32"
            },
            {
              "internalType": "bytes32",
              "name": "subHash",
              "type": "bytes32"
            },
            {
              "internalType": "bytes32",
              "name": "requestHash",
              "type": "bytes32"
            },
            {
              "internalType": "address",
              "name": "buyer",
              "type": "address"
            },
            {
              "internalType": "bool",
              "name": "served",
              "type": "bool"
            }
          ],
          "internalType": "struct DataHub.SubRequest[]",
          "name": "",
          "type": "tuple[]"
        }
      ],
      "stateMutability": "view",
      "type": "function"
    },
    {
      "inputs": [
        {
          "internalType": "bytes32",
          "name": "subHash",
          "type": "bytes32"
        }
      ],
      "name": "getSubSubscribers",
      "outputs": [
        {
          "internalType": "address[]",
          "name": "",
          "type": "address[]"
        }
      ],
      "stateMutability": "view",
      "type": "function"
    },
    {
      "inputs": [],
      "name": "getSubs",
      "outputs": [
        {
          "components": [
            {
              "internalType": "bytes32",
              "name": "subHash",
              "type": "bytes32"
            },
            {
              "internalType": "bytes32",
              "name": "fdpSellerNameHash",
              "type": "bytes32"
            },
            {
              "internalType": "address",
              "name": "seller",
              "type": "address"
            },
            {
              "internalType": "bytes32",
              "name": "swarmLocation",
              "type": "bytes32"
            },
            {
              "internalType": "uint256",
              "name": "price",
              "type": "uint256"
            },
            {
              "internalType": "bool",
              "name": "active",
              "type": "bool"
            },
            {
              "internalType": "uint256",
              "name": "earned",
              "type": "uint256"
            },
            {
              "internalType": "bytes32",
              "name": "category",
              "type": "bytes32"
            },
            {
              "internalType": "uint256",
              "name": "bids",
              "type": "uint256"
            },
            {
              "internalType": "uint256",
              "name": "sells",
              "type": "uint256"
            },
            {
              "internalType": "uint256",
              "name": "reports",
              "type": "uint256"
            },
            {
              "internalType": "uint256",
              "name": "daysValid",
              "type": "uint256"
            }
          ],
          "internalType": "struct DataHub.Sub[]",
          "name": "",
          "type": "tuple[]"
        }
      ],
      "stateMutability": "view",
      "type": "function"
    },
    {
      "inputs": [
        {
          "internalType": "address",
          "name": "addr",
          "type": "address"
        }
      ],
      "name": "getUserStats",
      "outputs": [
        {
          "internalType": "uint256",
          "name": "numSubRequests",
          "type": "uint256"
        },
        {
          "internalType": "uint256",
          "name": "numSubItems",
          "type": "uint256"
        },
        {
          "internalType": "uint256",
          "name": "numActiveBids",
          "type": "uint256"
        },
        {
          "internalType": "uint256",
          "name": "numListedSubs",
          "type": "uint256"
        }
      ],
      "stateMutability": "view",
      "type": "function"
    },
    {
      "inputs": [
        {
          "internalType": "bytes32",
          "name": "role",
          "type": "bytes32"
        },
        {
          "internalType": "address",
          "name": "account",
          "type": "address"
        }
      ],
      "name": "grantRole",
      "outputs": [],
      "stateMutability": "nonpayable",
      "type": "function"
    },
    {
      "inputs": [
        {
          "internalType": "bytes32",
          "name": "role",
          "type": "bytes32"
        },
        {
          "internalType": "address",
          "name": "account",
          "type": "address"
        }
      ],
      "name": "hasRole",
      "outputs": [
        {
          "internalType": "bool",
          "name": "",
          "type": "bool"
        }
      ],
      "stateMutability": "view",
      "type": "function"
    },
    {
      "inputs": [],
      "name": "inEscrow",
      "outputs": [
        {
          "internalType": "uint256",
          "name": "",
          "type": "uint256"
        }
      ],
      "stateMutability": "view",
      "type": "function"
    },
    {
      "inputs": [
        {
          "internalType": "bytes32",
          "name": "fdpSellerNameHash",
          "type": "bytes32"
        },
        {
          "internalType": "bytes32",
          "name": "dataSwarmLocation",
          "type": "bytes32"
        },
        {
          "internalType": "uint256",
          "name": "price",
          "type": "uint256"
        },
        {
          "internalType": "bytes32",
          "name": "category",
          "type": "bytes32"
        },
        {
          "internalType": "address",
          "name": "podAddress",
          "type": "address"
        },
        {
          "internalType": "uint256",
          "name": "daysValid",
          "type": "uint256"
        }
      ],
      "name": "listSub",
      "outputs": [],
      "stateMutability": "payable",
      "type": "function"
    },
    {
      "inputs": [],
      "name": "marketFee",
      "outputs": [
        {
          "internalType": "uint256",
          "name": "",
          "type": "uint256"
        }
      ],
      "stateMutability": "view",
      "type": "function"
    },
    {
      "inputs": [],
      "name": "minListingFee",
      "outputs": [
        {
          "internalType": "uint256",
          "name": "",
          "type": "uint256"
        }
      ],
      "stateMutability": "view",
      "type": "function"
    },
    {
      "inputs": [],
      "name": "owner",
      "outputs": [
        {
          "internalType": "address",
          "name": "",
          "type": "address"
        }
      ],
      "stateMutability": "view",
      "type": "function"
    },
    {
      "inputs": [
        {
          "internalType": "address",
          "name": "token",
          "type": "address"
        },
        {
          "internalType": "uint256",
          "name": "amount",
          "type": "uint256"
        }
      ],
      "name": "release",
      "outputs": [],
      "stateMutability": "nonpayable",
      "type": "function"
    },
    {
      "inputs": [
        {
          "internalType": "bytes32",
          "name": "requestHash",
          "type": "bytes32"
        }
      ],
      "name": "removeUserActiveBid",
      "outputs": [],
      "stateMutability": "nonpayable",
      "type": "function"
    },
    {
      "inputs": [],
      "name": "renounceOwnership",
      "outputs": [],
      "stateMutability": "nonpayable",
      "type": "function"
    },
    {
      "inputs": [
        {
          "internalType": "bytes32",
          "name": "role",
          "type": "bytes32"
        },
        {
          "internalType": "address",
          "name": "account",
          "type": "address"
        }
      ],
      "name": "renounceRole",
      "outputs": [],
      "stateMutability": "nonpayable",
      "type": "function"
    },
    {
      "inputs": [
        {
          "internalType": "bytes32",
          "name": "subHash",
          "type": "bytes32"
        }
      ],
      "name": "reportSub",
      "outputs": [],
      "stateMutability": "nonpayable",
      "type": "function"
    },
    {
      "inputs": [
        {
          "internalType": "bytes32",
          "name": "requestHash",
          "type": "bytes32"
        }
      ],
      "name": "requestAgain",
      "outputs": [],
      "stateMutability": "payable",
      "type": "function"
    },
    {
      "inputs": [
        {
          "internalType": "bytes32",
          "name": "role",
          "type": "bytes32"
        },
        {
          "internalType": "address",
          "name": "account",
          "type": "address"
        }
      ],
      "name": "revokeRole",
      "outputs": [],
      "stateMutability": "nonpayable",
      "type": "function"
    },
    {
      "inputs": [
        {
          "internalType": "bytes32",
          "name": "requestHash",
          "type": "bytes32"
        },
        {
          "internalType": "bytes32",
          "name": "encryptedKeyLocation",
          "type": "bytes32"
        }
      ],
      "name": "sellSub",
      "outputs": [],
      "stateMutability": "payable",
      "type": "function"
    },
    {
      "inputs": [
        {
          "internalType": "uint256",
          "name": "newFee",
          "type": "uint256"
        }
      ],
      "name": "setFee",
      "outputs": [],
      "stateMutability": "nonpayable",
      "type": "function"
    },
    {
      "inputs": [
        {
          "internalType": "uint256",
          "name": "newListingFee",
          "type": "uint256"
        }
      ],
      "name": "setListingFee",
      "outputs": [],
      "stateMutability": "nonpayable",
      "type": "function"
    },
    {
      "inputs": [
        {
          "internalType": "address",
          "name": "addr",
          "type": "address"
        }
      ],
      "name": "setPortableAddress",
      "outputs": [],
      "stateMutability": "nonpayable",
      "type": "function"
    },
    {
      "inputs": [
        {
          "internalType": "bytes32",
          "name": "",
          "type": "bytes32"
        }
      ],
      "name": "subscriptionIds",
      "outputs": [
        {
          "internalType": "uint256",
          "name": "",
          "type": "uint256"
        }
      ],
      "stateMutability": "view",
      "type": "function"
    },
    {
      "inputs": [
        {
          "internalType": "uint256",
          "name": "",
          "type": "uint256"
        }
      ],
      "name": "subscriptions",
      "outputs": [
        {
          "internalType": "bytes32",
          "name": "subHash",
          "type": "bytes32"
        },
        {
          "internalType": "bytes32",
          "name": "fdpSellerNameHash",
          "type": "bytes32"
        },
        {
          "internalType": "address",
          "name": "seller",
          "type": "address"
        },
        {
          "internalType": "bytes32",
          "name": "swarmLocation",
          "type": "bytes32"
        },
        {
          "internalType": "uint256",
          "name": "price",
          "type": "uint256"
        },
        {
          "internalType": "bool",
          "name": "active",
          "type": "bool"
        },
        {
          "internalType": "uint256",
          "name": "earned",
          "type": "uint256"
        },
        {
          "internalType": "bytes32",
          "name": "category",
          "type": "bytes32"
        },
        {
          "internalType": "uint256",
          "name": "bids",
          "type": "uint256"
        },
        {
          "internalType": "uint256",
          "name": "sells",
          "type": "uint256"
        },
        {
          "internalType": "uint256",
          "name": "reports",
          "type": "uint256"
        },
        {
          "internalType": "uint256",
          "name": "daysValid",
          "type": "uint256"
        }
      ],
      "stateMutability": "view",
      "type": "function"
    },
    {
      "inputs": [
        {
          "internalType": "bytes4",
          "name": "interfaceId",
          "type": "bytes4"
        }
      ],
      "name": "supportsInterface",
      "outputs": [
        {
          "internalType": "bool",
          "name": "",
          "type": "bool"
        }
      ],
      "stateMutability": "view",
      "type": "function"
    },
    {
      "inputs": [
        {
          "internalType": "address",
          "name": "newOwner",
          "type": "address"
        }
      ],
      "name": "transferOwnership",
      "outputs": [],
      "stateMutability": "nonpayable",
      "type": "function"
    },
    {
      "stateMutability": "payable",
      "type": "receive"
    }
  ],
  "bytecode": "0x60806040526103e860035566038d7ea4c68000600455600060055560006006553480156200002c57600080fd5b50620000383362000042565b6001805562000092565b600080546001600160a01b038381166001600160a01b0319831681178455604051919092169283917f8be0079c531659141344cd1fd0a4f28419497f9722a3daafe3b4186f6b6457e09190a35050565b6142cc80620000a26000396000f3fe6080604052600436106102e85760003560e01c80637de2e5e811610190578063b8fb1bac116100dc578063d547741f11610095578063eed5b6e51161006f578063eed5b6e514610a4d578063f071db5a14610a6d578063f2fde38b14610a83578063fbc4fc4414610aa357600080fd5b8063d547741f146109fa578063d76ac1d114610a1a578063e91dbcb014610a3a57600080fd5b8063b8fb1bac146108e7578063c3b4dde914610909578063c6d05aee14610942578063cddf64ea1461098c578063d250185c146109ac578063d3fbc74c146109cc57600080fd5b806391d14854116101495780639bde82dc116101235780639bde82dc1461087c578063a217fddf1461089c578063b62fe12f146108b1578063b7391341146108d157600080fd5b806391d148541461081c57806392b58bc21461083c5780639454932c1461086957600080fd5b80637de2e5e81461070f57806380dd0d8e1461073c57806383102c2b14610769578063840532291461079d57806388ac2917146107ca5780638da5cb5b146107ea57600080fd5b80632c3ca35a1161024f578063473b084c1161020857806369fe0e2d116101e257806369fe0e2d146106a4578063703a54b5146106c4578063715018a6146106da57806378ba33c6146106ef57600080fd5b8063473b084c146106035780634e43603a14610630578063567556a41461069c57600080fd5b80632c3ca35a146104cf5780632d5bbf60146104fc5780632da82643146105835780632f2ff15d146105b057806336568abe146105d05780633ca684e3146105f057600080fd5b80631a937f08116102a15780631a937f08146103dc5780631f59388d146103ef5780631f9ef49014610402578063224b6b8c1461042f578063248a9ca31461045c578063254e287b1461048c57600080fd5b806301ffc9a7146102f45780630260f912146103295780630357371d1461034b5780630ccf21561461036b5780630e4999941461038f578063131dbd09146103bc57600080fd5b366102ef57005b600080fd5b34801561030057600080fd5b5061031461030f366004613ce7565b610ad0565b60405190151581526020015b60405180910390f35b34801561033557600080fd5b50610349610344366004613c04565b610b07565b005b34801561035757600080fd5b50610349610366366004613ba4565b610e36565b34801561037757600080fd5b5061038160035481565b604051908152602001610320565b34801561039b57600080fd5b506103816103aa366004613c04565b600f6020526000908152604090205481565b3480156103c857600080fd5b506103496103d7366004613c04565b610e56565b6103496103ea366004613c04565b610e63565b6103496103fd366004613c97565b61113e565b34801561040e57600080fd5b5061042261041d366004613c04565b611459565b604051610320919061416a565b34801561043b57600080fd5b5061044f61044a366004613b61565b611547565b6040516103209190613fa8565b34801561046857600080fd5b50610381610477366004613c04565b60009081526002602052604090206001015490565b34801561049857600080fd5b506103816104a7366004613c1c565b60009182526010602090815260408084206001600160a01b0393909316845291905290205490565b3480156104db57600080fd5b506104ef6104ea366004613c04565b611750565b6040516103209190613f0f565b34801561050857600080fd5b5061051c610517366004613c04565b6117b2565b604080519c8d5260208d019b909b526001600160a01b03909916998b019990995260608a0196909652608089019490945291151560a088015260c087015260e086015261010085015261012084015261014083019190915261016082015261018001610320565b34801561058f57600080fd5b506105a361059e366004613b7b565b611830565b60405161032091906140b5565b3480156105bc57600080fd5b506103496105cb366004613c1c565b6118f0565b3480156105dc57600080fd5b506103496105eb366004613c1c565b61191a565b6103496105fe366004613c76565b611994565b34801561060f57600080fd5b5061062361061e366004613c04565b611f22565b60405161032091906140e1565b34801561063c57600080fd5b5061067c61064b366004613b61565b6001600160a01b03166000908152600760205260409020805460048201546002830154600590930154919390929190565b604080519485526020850193909352918301526060820152608001610320565b610349611fcf565b3480156106b057600080fd5b506103496106bf366004613c04565b612012565b3480156106d057600080fd5b5061038160045481565b3480156106e657600080fd5b5061034961201f565b3480156106fb57600080fd5b506105a361070a366004613ba4565b612033565b34801561071b57600080fd5b5061072f61072a366004613c04565b612087565b6040516103209190613ec2565b34801561074857600080fd5b5061075c610757366004613ba4565b6120f5565b604051610320919061413b565b34801561077557600080fd5b506103817fc6ff1722ffb1bdb71482122a9b8ca2ca5d75d70ed7d05f5d3174c866c748f82581565b3480156107a957600080fd5b506107bd6107b8366004613ba4565b6121d7565b604051610320919061415c565b3480156107d657600080fd5b506103496107e5366004613c47565b61229a565b3480156107f657600080fd5b506000546001600160a01b03165b6040516001600160a01b039091168152602001610320565b34801561082857600080fd5b50610314610837366004613c1c565b6123ba565b34801561084857600080fd5b5061085c610857366004613b61565b6123e5565b6040516103209190613fdd565b34801561087557600080fd5b5047610381565b34801561088857600080fd5b506107bd610897366004613b7b565b612497565b3480156108a857600080fd5b50610381600081565b3480156108bd57600080fd5b5061044f6108cc366004613c04565b612513565b3480156108dd57600080fd5b5061038160065481565b3480156108f357600080fd5b506108fc612702565b604051610320919061401f565b34801561091557600080fd5b50610804610924366004613b61565b6001600160a01b039081166000908152600860205260409020541690565b34801561094e57600080fd5b5061034961095d366004613b61565b33600090815260086020526040902080546001600160a01b0319166001600160a01b0392909216919091179055565b34801561099857600080fd5b506104ef6109a7366004613b61565b6127e6565b3480156109b857600080fd5b506103816109c7366004613c76565b612853565b3480156109d857600080fd5b506109ec6109e7366004613bb6565b612874565b604051610320929190613fbb565b348015610a0657600080fd5b50610349610a15366004613c1c565b612a4f565b348015610a2657600080fd5b50610349610a35366004613c04565b612a74565b610349610a48366004613c76565b612b7d565b348015610a5957600080fd5b50610422610a68366004613c04565b612e78565b348015610a7957600080fd5b5061038160055481565b348015610a8f57600080fd5b50610349610a9e366004613b61565b612ea1565b348015610aaf57600080fd5b50610ac3610abe366004613b61565b612f17565b6040516103209190613f47565b60006001600160e01b03198216637965db0b60e01b1480610b0157506301ffc9a760e01b6001600160e01b03198316145b92915050565b3360009081526007602090815260408083208484526003810190925290912054610b625760405162461bcd60e51b81526020600482015260076024820152662161622052657160c81b60448201526064015b60405180910390fd5b60008281526003820160205260408120546002830190610b84906001906141d0565b81548110610ba257634e487b7160e01b600052603260045260246000fd5b6000918252602080832060408051606081018252600294909402909101805484526001908101546001600160a01b038116858501819052600160a01b90910460ff1615158584015285526007835281852088865290810190925290922054909250610c3d5760405162461bcd60e51b815260206004820152600b60248201526a2173656c6c65722052657160a81b6044820152606401610b59565b6000848152600180830160205260408220548391610c5a916141d0565b81548110610c7857634e487b7160e01b600052603260045260246000fd5b90600052602060002090600402019050600f6000826001015481526020019081526020016000205460001415610cd95760405162461bcd60e51b8152600401610b599060208082526004908201526310b9bab160e11b604082015260600190565b6001818101546000908152600f60205260408120549091600e91610cfd91906141d0565b81548110610d1b57634e487b7160e01b600052603260045260246000fd5b60009182526020918290206040805161018081018252600c9093029091018054835260018101549383019390935260028301546001600160a01b031690820152600380830154606083015260048301546080830152600583015460ff908116151560a0840152600684015460c0840152600784015460e084015260088401546101008401526009840154610120840152600a840154610140840152600b90930154610160830152840154909250600160a01b900416158015610ddf57506040840151155b15610e16576080810151604051339180156108fc02916000818181858888f19350505050158015610e14573d6000803e3d6000fd5b505b610e24846020015187612fae565b610e2e33876131dc565b505050505050565b610e5282610e4c6000546001600160a01b031690565b836133e8565b5050565b610e5e61343a565b600455565b610e6b613494565b336000908152600760209081526040808320848452600381019092528220549091906002830190610e9e906001906141d0565b81548110610ebc57634e487b7160e01b600052603260045260246000fd5b6000918252602090912060016002909202018181015490925060ff600160a01b90910416151514610f1b5760405162461bcd60e51b81526020600482015260096024820152681858881cd95c9d995960ba1b6044820152606401610b59565b6001808201546001600160a01b0316600090815260076020908152604080832087845280850190925282205490928391610f5591906141d0565b81548110610f7357634e487b7160e01b600052603260045260246000fd5b906000526020600020906004020190508260010160149054906101000a900460ff1615156001151514610fd45760405162461bcd60e51b81526020600482015260096024820152681cdc881cd95c9d995960ba1b6044820152606401610b59565b6001818101546000908152600f60205260408120549091600e91610ff891906141d0565b8154811061101657634e487b7160e01b600052603260045260246000fd5b60009182526020918290206040805161018081018252600c9093029091018054835260018101549383019390935260028301546001600160a01b03169082015260038201546060820152600482015460808201819052600583015460ff16151560a0830152600683015460c0830152600783015460e083015260088301546101008301526009830154610120830152600a830154610140830152600b90920154610160820152915034146110f55760405162461bcd60e51b815260206004820152600660248201526521707269636560d01b6044820152606401610b59565b60038201805460ff60a01b19908116909155600185018054909116905560068054349190600090611127908490614179565b9091555050600180555061113b9350505050565b50565b6004543410156111795760405162461bcd60e51b81526020600482015260066024820152656d696e46656560d01b6044820152606401610b59565b60018110156111b65760405162461bcd60e51b815260206004820152600960248201526819185e5cd5985b1a5960ba1b6044820152606401610b59565b604080513360208201529081018790526001600160a01b038316606082015260009060800160408051601f1981840301815291815281516020928301206000818152600f9093529120549091501561123c5760405162461bcd60e51b815260206004820152600960248201526853756245786973747360b81b6044820152606401610b59565b6000604051806101800160405280838152602001898152602001336001600160a01b0316815260200188815260200187815260200160011515815260200160008152602001868152602001600081526020016000815260200160008152602001848152509050600e8190806001815401808255809150506001900390600052602060002090600c0201600090919091909150600082015181600001556020820151816001015560408201518160020160006101000a8154816001600160a01b0302191690836001600160a01b03160217905550606082015181600301556080820151816004015560a08201518160050160006101000a81548160ff02191690831515021790555060c0820151816006015560e082015181600701556101008201518160080155610120820151816009015561014082015181600a015561016082015181600b01555050600e80549050600f6000848152602001908152602001600020819055506000600d60008781526020019081526020016000209050806000016001600e805490506113cf91906141e7565b815460018082018455600093845260208085206004840401805460039094166008026101000a67ffffffffffffffff818102199095169590941693909302939093179091553383526007825260408320600580820180549384018155855292842090910186905581549092349291611448908490614179565b909155505050505050505050505050565b611461613ae1565b6000828152600f6020526040902054600e9061147f906001906141d0565b8154811061149d57634e487b7160e01b600052603260045260246000fd5b60009182526020918290206040805161018081018252600c9093029091018054835260018101549383019390935260028301546001600160a01b0316908201526003820154606082015260048201546080820152600582015460ff16151560a0820152600682015460c0820152600782015460e082015260088201546101008201526009820154610120820152600a820154610140820152600b9091015461016082015292915050565b6001600160a01b0381166000908152600760205260408120600401546060919067ffffffffffffffff81111561158d57634e487b7160e01b600052604160045260246000fd5b6040519080825280602002602001820160405280156115d857816020015b60408051606081018252600080825260208083018290529282015282526000199092019101816115ab5790505b50905060005b8151811015611749576001600160a01b03841660009081526007602052604081206004018054600a92600192600b928690811061162b57634e487b7160e01b600052603260045260246000fd5b906000526020600020015481526020019081526020016000205461164f91906141d0565b8154811061166d57634e487b7160e01b600052603260045260246000fd5b906000526020600020906003020160405180606001604052908160008201548152602001600182015481526020016002820154815250508282815181106116c457634e487b7160e01b600052603260045260246000fd5b60200260200101819052508181815181106116ef57634e487b7160e01b600052603260045260246000fd5b602002602001015160400151421115611737576000801b82828151811061172657634e487b7160e01b600052603260045260246000fd5b602002602001015160200181815250505b8061174181614257565b9150506115de565b5092915050565b6000818152600c60209081526040918290208054835181840281018401909452808452606093928301828280156117a657602002820191906000526020600020905b815481526020019060010190808311611792575b50505050509050919050565b600e81815481106117c257600080fd5b60009182526020909120600c9091020180546001820154600283015460038401546004850154600586015460068701546007880154600889015460098a0154600a8b0154600b909b0154999b5097996001600160a01b03909716989597949660ff909416959294919390928c565b60408051606081018252600080825260208083018290528284018290526001600160a01b0386168252600781528382208583526003810190915292902054909160020190611880906001906141d0565b8154811061189e57634e487b7160e01b600052603260045260246000fd5b60009182526020918290206040805160608101825260029390930290910180548352600101546001600160a01b03811693830193909352600160a01b90920460ff161515918101919091529392505050565b60008281526002602052604090206001015461190b816134ee565b61191583836134f8565b505050565b6001600160a01b038116331461198a5760405162461bcd60e51b815260206004820152602f60248201527f416363657373436f6e74726f6c3a2063616e206f6e6c792072656e6f756e636560448201526e103937b632b9903337b91039b2b63360891b6064820152608401610b59565b610e52828261357e565b61199c613494565b33600090815260076020908152604080832085845260018101909252909120546119f15760405162461bcd60e51b81526020600482015260066024820152654e6f2052657160d01b6044820152606401610b59565b6000838152600180830160205260408220548391611a0e916141d0565b81548110611a2c57634e487b7160e01b600052603260045260246000fd5b90600052602060002090600402019050600f6000826001015481526020019081526020016000205460001415611a745760405162461bcd60e51b8152600401610b5990614095565b6003810154600160a01b900460ff1615611ab95760405162461bcd60e51b81526020600482015260066024820152651cd95c9d995960d21b6044820152606401610b59565b6003808201546001600160a01b03166000908152600760209081526040808320888452938401909152902054611b1a5760405162461bcd60e51b8152602060048201526006602482015265139bc8109a5960d21b6044820152606401610b59565b6001828101546000908152600f60205260408120549091600e91611b3e91906141d0565b81548110611b5c57634e487b7160e01b600052603260045260246000fd5b60009182526020909120600c9091020160028101549091506001600160a01b03163314611bbc5760405162461bcd60e51b815260206004820152600e60248201526d2737ba1029bab11029b2b63632b960911b6044820152606401610b59565b604080516060810182526000918101919091526001840154815260208101869052600b820154611bef90620151806141b1565b611bf99042614179565b6040828101828152600387810154855160208088018051875133818501526001600160a01b03909516858901526060850193909352608084019790975260a0808401929092528551808403909201825260c09092018552805190820120600a80546001808201835560008381528a517fc65a7bb8d6351c1cf70c95a316cc6a92839c986682d98bc35f958f4883f9d2a89388029384015598517fc65a7bb8d6351c1cf70c95a316cc6a92839c986682d98bc35f958f4883f9d2a983015595517fc65a7bb8d6351c1cf70c95a316cc6a92839c986682d98bc35f958f4883f9d2aa9091015554818752600b83528587205560048901805480860182559087528287200181905589548652600c825284862080548086018255908752828720018190558c86529188019052918320549192916002870191611d37916141d0565b81548110611d5557634e487b7160e01b600052603260045260246000fd5b60009182526020822060029190910201600181018054600160a01b60ff60a01b19918216811790925560038a0180549091169091179055600486015490925015611e3f576000611dab6003548760040154612853565b9050808660040154611dbd91906141d0565b604051909250339083156108fc029084906000818181858888f19350505050158015611ded573d6000803e3d6000fd5b50856004015460066000828254611e0491906141d0565b925050819055508060056000828254611e1d9190614179565b9250508190555081866006016000828254611e389190614179565b9091555050505b600985018054906000611e5183614257565b90915550506001870154600090815260106020908152604080832060038b01546001600160a01b03168452909152902054611ed0576001808801546000908152601060209081526040822060038b0154908401805494850181558352912090910180546001600160a01b0319166001600160a01b039092169190911790555b6001870154600090815260106020908152604080832060038b01546001600160a01b0316845290915281208054839290611f0b908490614179565b90915550506001805550610e529650505050505050565b6040805160208082018352606082526000848152600d825283902083518154808402820186018652928101838152939490939192849291849190840182828015611fbf57602002820191906000526020600020906000905b82829054906101000a900467ffffffffffffffff1667ffffffffffffffff1681526020019060080190602082600701049283019260010382029150808411611f7a5790505b5050505050815250509050919050565b611fd761343a565b60065433906108fc90611fea90476141d0565b6040518115909202916000818181858888f1935050505015801561113b573d6000803e3d6000fd5b61201a61343a565b600355565b61202761343a565b61203160006135e5565b565b60408051606081018252600080825260208083018290528284018290526001600160a01b0386168252600790529190912060020180548390811061189e57634e487b7160e01b600052603260045260246000fd5b6000818152601060209081526040918290206001018054835181840281018401909452808452606093928301828280156117a657602002820191906000526020600020905b81546001600160a01b031681526001909101906020018083116120cc5750505050509050919050565b60408051606081018252600080825260208201819052918101919091526001600160a01b03831660009081526007602052604081206004018054600a92600192600b928790811061215657634e487b7160e01b600052603260045260246000fd5b906000526020600020015481526020019081526020016000205461217a91906141d0565b8154811061219857634e487b7160e01b600052603260045260246000fd5b90600052602060002090600302016040518060600160405290816000820154815260200160018201548152602001600282015481525050905092915050565b6040805160a0810182526000808252602080830182905282840182905260608301829052608083018290526001600160a01b0386168252600790529190912080548390811061223657634e487b7160e01b600052603260045260246000fd5b60009182526020918290206040805160a081018252600493909302909101805483526001810154938301939093526002830154908201526003909101546001600160a01b0381166060830152600160a01b900460ff16151560808201529392505050565b6000828152600f60205260409020546122c55760405162461bcd60e51b8152600401610b5990614095565b6000828152600f6020526040812054600e906122e3906001906141d0565b8154811061230157634e487b7160e01b600052603260045260246000fd5b600091825260209091206002600c90920201908101549091506001600160a01b0316331461235e5760405162461bcd60e51b815260206004820152600a6024820152692737ba1029b2b63632b960b11b6044820152606401610b59565b600481600a0154106123a55760405162461bcd60e51b815260206004820152601060248201526f546f6f206d616e79207265706f72747360801b6044820152606401610b59565b600501805460ff191691151591909117905550565b60009182526002602090815260408084206001600160a01b0393909316845291905290205460ff1690565b6001600160a01b0381166000908152600760209081526040808320805482518185028101850190935280835260609492939192909184015b8282101561248c5760008481526020908190206040805160a081018252600486029092018054835260018082015484860152600282015492840192909252600301546001600160a01b0381166060840152600160a01b900460ff1615156080830152908352909201910161241d565b505050509050919050565b6040805160a0810182526000808252602082018190529181018290526060810182905260808101919091526001600160a01b038316600090815260076020908152604080832085845260018082019093529220546124f591906141d0565b8154811061223657634e487b7160e01b600052603260045260246000fd5b6000818152600c60205260408120546060918167ffffffffffffffff81111561254c57634e487b7160e01b600052604160045260246000fd5b60405190808252806020026020018201604052801561259757816020015b604080516060810182526000808252602080830182905292820152825260001990920191018161256a5790505b50905060005b828110156126fa576000858152600c602052604081208054600a92600192600b92869081106125dc57634e487b7160e01b600052603260045260246000fd5b906000526020600020015481526020019081526020016000205461260091906141d0565b8154811061261e57634e487b7160e01b600052603260045260246000fd5b9060005260206000209060030201604051806060016040529081600082015481526020016001820154815260200160028201548152505082828151811061267557634e487b7160e01b600052603260045260246000fd5b60200260200101819052508181815181106126a057634e487b7160e01b600052603260045260246000fd5b6020026020010151604001514211156126e8576000801b8282815181106126d757634e487b7160e01b600052603260045260246000fd5b602002602001015160200181815250505b806126f281614257565b91505061259d565b509392505050565b6060600e805480602002602001604051908101604052809291908181526020016000905b828210156127dd5760008481526020908190206040805161018081018252600c8602909201805483526001808201548486015260028201546001600160a01b0316928401929092526003810154606084015260048101546080840152600581015460ff16151560a0840152600681015460c0840152600781015460e084015260088101546101008401526009810154610120840152600a810154610140840152600b01546101608301529083529092019101612726565b50505050905090565b6001600160a01b0381166000908152600760209081526040918290206005018054835181840281018401909452808452606093928301828280156117a657602002820191906000526020600020908154815260200190600101908083116117925750505050509050919050565b6000620186a061286384846141b1565b61286d9190614191565b9392505050565b606060008267ffffffffffffffff81111561289f57634e487b7160e01b600052604160045260246000fd5b6040519080825280602002602001820160405280156128ea57816020015b60408051606081018252600080825260208083018290529282015282526000199092019101816128bd5790505b5091506000905080845b6001600160a01b038716600090815260076020526040902060040154811015612a45576001600160a01b03871660009081526007602052604081206004018054600a91600191600b9185918790811061295d57634e487b7160e01b600052603260045260246000fd5b906000526020600020015481526020019081526020016000205461298191906141d0565b8154811061299f57634e487b7160e01b600052603260045260246000fd5b9060005260206000209060030201604051806060016040529081600082015481526020016001820154815260200160028201548152505090508060400151421015612a325785831015612a2c5780858481518110612a0d57634e487b7160e01b600052603260045260246000fd5b602002602001018190525082612a2290614257565b9250819350612a32565b50612a45565b5080612a3d81614257565b9150506128f4565b5050935093915050565b600082815260026020526040902060010154612a6a816134ee565b611915838361357e565b612a9e7fc6ff1722ffb1bdb71482122a9b8ca2ca5d75d70ed7d05f5d3174c866c748f825336123ba565b612ad95760405162461bcd60e51b815260206004820152600c60248201526b2737ba102932b837b93a32b960a11b6044820152606401610b59565b6000818152600f6020526040902054612b045760405162461bcd60e51b8152600401610b5990614095565b6000818152600f6020526040812054600e90612b22906001906141d0565b81548110612b4057634e487b7160e01b600052603260045260246000fd5b90600052602060002090600c0201905080600a01546001612b619190614179565b600a8201819055600311610e5257600501805460ff1916905550565b612b85613494565b6000828152600f6020526040902054612bb05760405162461bcd60e51b8152600401610b5990614095565b6000828152600f6020526040812054600e90612bce906001906141d0565b81548110612bec57634e487b7160e01b600052603260045260246000fd5b60009182526020909120600c90910201600581015490915060ff16612c3e5760405162461bcd60e51b8152602060048201526008602482015267496e61637469766560c01b6044820152606401610b59565b80600401543414612c805760405162461bcd60e51b815260206004820152600c60248201526b56616c7565213d707269636560a01b6044820152606401610b59565b60028101546001600160a01b0316600090815260076020908152604080832081513381850152808301889052606080820188905283518083039091018152608090910183528051908401208085526001820190935292205415612d125760405162461bcd60e51b815260206004820152600a6024820152695265712065786973747360b01b6044820152606401610b59565b600883018054906000612d2483614257565b90915550506040805160a081018252600060808201818152878352336060840190815287546020808601918252858701888152895460018082018c558b885283882089516004909302019182559351818501559051600282015592516003909301805494511515600160a01b026001600160a81b03199095166001600160a01b0390941693909317939093179091558654868452908701909152928120929092556006805491923492612dd8908490614179565b90915550506040805160608101825260008183018181528583526002978801546001600160a01b03908116602080860191825233855260078152868520808c01805460018082018355828952848920995191909e029098019788559251968c01805495511515600160a01b026001600160a81b03199096169790941696909617939093179091555495825260039092019091522091909155505080555050565b612e80613ae1565b600e828154811061149d57634e487b7160e01b600052603260045260246000fd5b612ea961343a565b6001600160a01b038116612f0e5760405162461bcd60e51b815260206004820152602660248201527f4f776e61626c653a206e6577206f776e657220697320746865207a65726f206160448201526564647265737360d01b6064820152608401610b59565b61113b816135e5565b6001600160a01b0381166000908152600760209081526040808320600201805482518185028101850190935280835260609492939192909184015b8282101561248c5760008481526020908190206040805160608101825260028602909201805483526001908101546001600160a01b03811684860152600160a01b900460ff161515918301919091529083529092019101612f52565b6001600160a01b0382166000908152600760209081526040808320848452600181019092529091205461300c5760405162461bcd60e51b8152600401610b59906020808252600490820152632152657160e01b604082015260600190565b60008281526001828101602052604082205461302891906141d0565b825490915060009061303c906001906141d0565b905081811461316a5782600001818154811061306857634e487b7160e01b600052603260045260246000fd5b906000526020600020906004020183600001838154811061309957634e487b7160e01b600052603260045260246000fd5b6000918252602090912082546004909202019081556001808301548183015560028084015490830155600392830180549390920180546001600160a01b031981166001600160a01b039095169485178255925460ff600160a01b91829004161515026001600160a81b03199093169093179190911790915561311c908390614179565b83600101600085600001848154811061314557634e487b7160e01b600052603260045260246000fd5b9060005260206000209060040201600201548152602001908152602001600020819055505b825483908061318957634e487b7160e01b600052603160045260246000fd5b60008281526020808220600460001990940193840201828155600181810184905560028201849055600390910180546001600160a81b031916905592909355958652939093019092525050604081205550565b6001600160a01b0382166000908152600760209081526040808320848452600381019092529091205461323b5760405162461bcd60e51b81526020600482015260076024820152662161622052657160c81b6044820152606401610b59565b6000828152600382016020526040812054613258906001906141d0565b600283015490915060009061326f906001906141d0565b90508181146133845782600201818154811061329b57634e487b7160e01b600052603260045260246000fd5b90600052602060002090600202018360020183815481106132cc57634e487b7160e01b600052603260045260246000fd5b6000918252602090912082546002909202019081556001918201805491830180546001600160a01b031981166001600160a01b039094169384178255915460ff600160a01b91829004161515026001600160a81b0319909216909217179055613336908390614179565b83600301600085600201858154811061335f57634e487b7160e01b600052603260045260246000fd5b9060005260206000209060020201600001548152602001908152602001600020819055505b826002018054806133a557634e487b7160e01b600052603160045260246000fd5b6000828152602080822060026000199094019384020182815560010180546001600160a81b03191690559190925594815260039093019093525060408120555050565b604080516001600160a01b038416602482015260448082018490528251808303909101815260649091019091526020810180516001600160e01b031663a9059cbb60e01b179052611915908490613635565b6000546001600160a01b031633146120315760405162461bcd60e51b815260206004820181905260248201527f4f776e61626c653a2063616c6c6572206973206e6f7420746865206f776e65726044820152606401610b59565b600260015414156134e75760405162461bcd60e51b815260206004820152601f60248201527f5265656e7472616e637947756172643a207265656e7472616e742063616c6c006044820152606401610b59565b6002600155565b61113b8133613707565b61350282826123ba565b610e525760008281526002602090815260408083206001600160a01b03851684529091529020805460ff1916600117905561353a3390565b6001600160a01b0316816001600160a01b0316837f2f8788117e7eff1d82e926ec794901d17c78024a50270940304540a733656f0d60405160405180910390a45050565b61358882826123ba565b15610e525760008281526002602090815260408083206001600160a01b0385168085529252808320805460ff1916905551339285917ff6391f5c32d9c69d2a47ea670b442974b53935d1edc7fd64eb21e047a839171b9190a45050565b600080546001600160a01b038381166001600160a01b0319831681178455604051919092169283917f8be0079c531659141344cd1fd0a4f28419497f9722a3daafe3b4186f6b6457e09190a35050565b600061368a826040518060400160405280602081526020017f5361666545524332303a206c6f772d6c6576656c2063616c6c206661696c6564815250856001600160a01b03166137609092919063ffffffff16565b80519091501561191557808060200190518101906136a89190613be8565b6119155760405162461bcd60e51b815260206004820152602a60248201527f5361666545524332303a204552433230206f7065726174696f6e20646964206e6044820152691bdd081cdd58d8d9595960b21b6064820152608401610b59565b61371182826123ba565b610e525761371e81613777565b613729836020613789565b60405160200161373a929190613e4d565b60408051601f198184030181529082905262461bcd60e51b8252610b5991600401614062565b606061376f848460008561396b565b949350505050565b6060610b016001600160a01b03831660145b606060006137988360026141b1565b6137a3906002614179565b67ffffffffffffffff8111156137c957634e487b7160e01b600052604160045260246000fd5b6040519080825280601f01601f1916602001820160405280156137f3576020820181803683370190505b509050600360fc1b8160008151811061381c57634e487b7160e01b600052603260045260246000fd5b60200101906001600160f81b031916908160001a905350600f60fb1b8160018151811061385957634e487b7160e01b600052603260045260246000fd5b60200101906001600160f81b031916908160001a905350600061387d8460026141b1565b613888906001614179565b90505b600181111561391c576f181899199a1a9b1b9c1cb0b131b232b360811b85600f16601081106138ca57634e487b7160e01b600052603260045260246000fd5b1a60f81b8282815181106138ee57634e487b7160e01b600052603260045260246000fd5b60200101906001600160f81b031916908160001a90535060049490941c9361391581614240565b905061388b565b50831561286d5760405162461bcd60e51b815260206004820181905260248201527f537472696e67733a20686578206c656e67746820696e73756666696369656e746044820152606401610b59565b6060824710156139cc5760405162461bcd60e51b815260206004820152602660248201527f416464726573733a20696e73756666696369656e742062616c616e636520666f6044820152651c8818d85b1b60d21b6064820152608401610b59565b600080866001600160a01b031685876040516139e89190613e31565b60006040518083038185875af1925050503d8060008114613a25576040519150601f19603f3d011682016040523d82523d6000602084013e613a2a565b606091505b5091509150613a3b87838387613a46565b979650505050505050565b60608315613ab2578251613aab576001600160a01b0385163b613aab5760405162461bcd60e51b815260206004820152601d60248201527f416464726573733a2063616c6c20746f206e6f6e2d636f6e74726163740000006044820152606401610b59565b508161376f565b61376f8383815115613ac75781518083602001fd5b8060405162461bcd60e51b8152600401610b599190614062565b6040805161018081018252600080825260208201819052918101829052606081018290526080810182905260a0810182905260c0810182905260e0810182905261010081018290526101208101829052610140810182905261016081019190915290565b80356001600160a01b0381168114613b5c57600080fd5b919050565b600060208284031215613b72578081fd5b61286d82613b45565b60008060408385031215613b8d578081fd5b613b9683613b45565b946020939093013593505050565b60008060408385031215613b8d578182fd5b600080600060608486031215613bca578081fd5b613bd384613b45565b95602085013595506040909401359392505050565b600060208284031215613bf9578081fd5b815161286d81614288565b600060208284031215613c15578081fd5b5035919050565b60008060408385031215613c2e578182fd5b82359150613c3e60208401613b45565b90509250929050565b60008060408385031215613c59578182fd5b823591506020830135613c6b81614288565b809150509250929050565b60008060408385031215613c88578182fd5b50508035926020909101359150565b60008060008060008060c08789031215613caf578182fd5b86359550602087013594506040870135935060608701359250613cd460808801613b45565b915060a087013590509295509295509295565b600060208284031215613cf8578081fd5b81356001600160e01b03198116811461286d578182fd5b6000815180845260208085019450808401835b83811015613d5c57613d498783518051825260208082015190830152604090810151910152565b6060969096019590820190600101613d22565b509495945050505050565b8051825260208082015190830152604080820151908301526060808201516001600160a01b0316908301526080908101511515910152565b80518252602081015160208301526040810151613dc760408401826001600160a01b03169052565b50606081015160608301526080810151608083015260a0810151613def60a084018215159052565b5060c0818101519083015260e0808201519083015261010080820151908301526101208082015190830152610140808201519083015261016090810151910152565b60008251613e43818460208701614210565b9190910192915050565b7f416363657373436f6e74726f6c3a206163636f756e7420000000000000000000815260008351613e85816017850160208801614210565b7001034b99036b4b9b9b4b733903937b6329607d1b6017918401918201528351613eb6816028840160208801614210565b01602801949350505050565b6020808252825182820181905260009190848201906040850190845b81811015613f035783516001600160a01b031683529284019291840191600101613ede565b50909695505050505050565b6020808252825182820181905260009190848201906040850190845b81811015613f0357835183529284019291840191600101613f2b565b6020808252825182820181905260009190848201906040850190845b81811015613f0357613f95838551805182526020808201516001600160a01b0316908301526040908101511515910152565b9284019260609290920191600101613f63565b60208152600061286d6020830184613d0f565b604081526000613fce6040830185613d0f565b90508260208301529392505050565b6020808252825182820181905260009190848201906040850190845b81811015613f035761400c838551613d67565b9284019260a09290920191600101613ff9565b6020808252825182820181905260009190848201906040850190845b81811015613f035761404e838551613d9f565b92840192610180929092019160010161403b565b6020815260008251806020840152614081816040850160208701614210565b601f01601f19169190910160400192915050565b60208082526006908201526527379029bab160d11b604082015260600190565b815181526020808301516001600160a01b03169082015260408083015115159082015260608101610b01565b6020808252825182820182905280516040840181905260009291820190839060608601905b8083101561413057835167ffffffffffffffff168252928401926001929092019190840190614106565b509695505050505050565b81518152602080830151908201526040808301519082015260608101610b01565b60a08101610b018284613d67565b6101808101610b018284613d9f565b6000821982111561418c5761418c614272565b500190565b6000826141ac57634e487b7160e01b81526012600452602481fd5b500490565b60008160001904831182151516156141cb576141cb614272565b500290565b6000828210156141e2576141e2614272565b500390565b600067ffffffffffffffff8381169083168181101561420857614208614272565b039392505050565b60005b8381101561422b578181015183820152602001614213565b8381111561423a576000848401525b50505050565b60008161424f5761424f614272565b506000190190565b600060001982141561426b5761426b614272565b5060010190565b634e487b7160e01b600052601160045260246000fd5b801515811461113b57600080fdfea2646970667358221220780e1c27e75845032f94049ca5293906bb8b63f383fe523e6540d636977bcb9564736f6c63430008040033",
  "linkReferences": {},
  "deployedLinkReferences": {}
}