{
  "_format": "hh-sol-artifact-1",
  "contractName": "DataHub",
  "sourceName": "contracts/DataHub.sol",
  "abi": [
    {
      "inputs": [],
      "stateMutability": "nonpayable",
      "type": "constructor"
    },
    {
      "anonymous": false,
      "inputs": [
        {
          "indexed": true,
          "internalType": "address",
          "name": "previousOwner",
          "type": "address"
        },
        {
          "indexed": true,
          "internalType": "address",
          "name": "newOwner",
          "type": "address"
        }
      ],
      "name": "OwnershipTransferred",
      "type": "event"
    },
    {
      "anonymous": false,
      "inputs": [
        {
          "indexed": true,
          "internalType": "bytes32",
          "name": "role",
          "type": "bytes32"
        },
        {
          "indexed": true,
          "internalType": "bytes32",
          "name": "previousAdminRole",
          "type": "bytes32"
        },
        {
          "indexed": true,
          "internalType": "bytes32",
          "name": "newAdminRole",
          "type": "bytes32"
        }
      ],
      "name": "RoleAdminChanged",
      "type": "event"
    },
    {
      "anonymous": false,
      "inputs": [
        {
          "indexed": true,
          "internalType": "bytes32",
          "name": "role",
          "type": "bytes32"
        },
        {
          "indexed": true,
          "internalType": "address",
          "name": "account",
          "type": "address"
        },
        {
          "indexed": true,
          "internalType": "address",
          "name": "sender",
          "type": "address"
        }
      ],
      "name": "RoleGranted",
      "type": "event"
    },
    {
      "anonymous": false,
      "inputs": [
        {
          "indexed": true,
          "internalType": "bytes32",
          "name": "role",
          "type": "bytes32"
        },
        {
          "indexed": true,
          "internalType": "address",
          "name": "account",
          "type": "address"
        },
        {
          "indexed": true,
          "internalType": "address",
          "name": "sender",
          "type": "address"
        }
      ],
      "name": "RoleRevoked",
      "type": "event"
    },
    {
      "inputs": [],
      "name": "DEFAULT_ADMIN_ROLE",
      "outputs": [
        {
          "internalType": "bytes32",
          "name": "",
          "type": "bytes32"
        }
      ],
      "stateMutability": "view",
      "type": "function"
    },
    {
      "inputs": [],
      "name": "ROLE_REPORTER",
      "outputs": [
        {
          "internalType": "bytes32",
          "name": "",
          "type": "bytes32"
        }
      ],
      "stateMutability": "view",
      "type": "function"
    },
    {
      "inputs": [
        {
          "internalType": "bytes32",
          "name": "subHash",
          "type": "bytes32"
        },
        {
          "internalType": "bytes32",
          "name": "fdpBuyerNameHash",
          "type": "bytes32"
        }
      ],
      "name": "bidSub",
      "outputs": [],
      "stateMutability": "payable",
      "type": "function"
    },
    {
      "inputs": [
        {
          "internalType": "bytes32",
          "name": "subHash",
          "type": "bytes32"
        },
        {
          "internalType": "bool",
          "name": "active",
          "type": "bool"
        }
      ],
      "name": "enableSub",
      "outputs": [],
      "stateMutability": "nonpayable",
      "type": "function"
    },
    {
      "inputs": [],
      "name": "feesCollected",
      "outputs": [
        {
          "internalType": "uint256",
          "name": "",
          "type": "uint256"
        }
      ],
      "stateMutability": "view",
      "type": "function"
    },
    {
      "inputs": [],
      "name": "fundsBalance",
      "outputs": [
        {
          "internalType": "uint256",
          "name": "",
          "type": "uint256"
        }
      ],
      "stateMutability": "view",
      "type": "function"
    },
    {
      "inputs": [],
      "name": "fundsTransfer",
      "outputs": [],
      "stateMutability": "payable",
      "type": "function"
    },
    {
      "inputs": [
        {
          "internalType": "address",
          "name": "addr",
          "type": "address"
        },
        {
          "internalType": "uint256",
          "name": "index",
          "type": "uint256"
        }
      ],
      "name": "getActiveBidAt",
      "outputs": [
        {
          "components": [
            {
              "internalType": "bytes32",
              "name": "requestHash",
              "type": "bytes32"
            },
            {
              "internalType": "address",
              "name": "seller",
              "type": "address"
            },
            {
              "internalType": "bool",
              "name": "served",
              "type": "bool"
            }
          ],
          "internalType": "struct DataHub.ActiveBid",
          "name": "",
          "type": "tuple"
        }
      ],
      "stateMutability": "view",
      "type": "function"
    },
    {
      "inputs": [
        {
          "internalType": "address",
          "name": "addr",
          "type": "address"
        }
      ],
      "name": "getActiveBids",
      "outputs": [
        {
          "components": [
            {
              "internalType": "bytes32",
              "name": "requestHash",
              "type": "bytes32"
            },
            {
              "internalType": "address",
              "name": "seller",
              "type": "address"
            },
            {
              "internalType": "bool",
              "name": "served",
              "type": "bool"
            }
          ],
          "internalType": "struct DataHub.ActiveBid[]",
          "name": "",
          "type": "tuple[]"
        }
      ],
      "stateMutability": "view",
      "type": "function"
    },
    {
      "inputs": [
        {
          "internalType": "address",
          "name": "addr",
          "type": "address"
        },
        {
          "internalType": "bytes32",
          "name": "requestHash",
          "type": "bytes32"
        }
      ],
      "name": "getActiveBidsByHash",
      "outputs": [
        {
          "components": [
            {
              "internalType": "bytes32",
              "name": "requestHash",
              "type": "bytes32"
            },
            {
              "internalType": "address",
              "name": "seller",
              "type": "address"
            },
            {
              "internalType": "bool",
              "name": "served",
              "type": "bool"
            }
          ],
          "internalType": "struct DataHub.ActiveBid",
          "name": "",
          "type": "tuple"
        }
      ],
      "stateMutability": "view",
      "type": "function"
    },
    {
      "inputs": [
        {
          "internalType": "address",
          "name": "addr",
          "type": "address"
        }
      ],
      "name": "getAllSubItems",
      "outputs": [
        {
          "components": [
            {
              "internalType": "bytes32",
              "name": "subHash",
              "type": "bytes32"
            },
            {
              "internalType": "bytes32",
              "name": "unlockKeyLocation",
              "type": "bytes32"
            },
            {
              "internalType": "uint256",
              "name": "validTill",
              "type": "uint256"
            }
          ],
          "internalType": "struct DataHub.SubItem[]",
          "name": "",
          "type": "tuple[]"
        }
      ],
      "stateMutability": "view",
      "type": "function"
    },
    {
      "inputs": [
        {
          "internalType": "bytes32",
          "name": "nameHash",
          "type": "bytes32"
        }
      ],
      "name": "getAllSubItemsForNameHash",
      "outputs": [
        {
          "components": [
            {
              "internalType": "bytes32",
              "name": "subHash",
              "type": "bytes32"
            },
            {
              "internalType": "bytes32",
              "name": "unlockKeyLocation",
              "type": "bytes32"
            },
            {
              "internalType": "uint256",
              "name": "validTill",
              "type": "uint256"
            }
          ],
          "internalType": "struct DataHub.SubItem[]",
          "name": "",
          "type": "tuple[]"
        }
      ],
      "stateMutability": "view",
      "type": "function"
    },
    {
      "inputs": [
        {
          "internalType": "bytes32",
          "name": "category",
          "type": "bytes32"
        }
      ],
      "name": "getCategory",
      "outputs": [
        {
          "components": [
            {
              "internalType": "uint64[]",
              "name": "subIdxs",
              "type": "uint64[]"
            }
          ],
          "internalType": "struct DataHub.Category",
          "name": "",
          "type": "tuple"
        }
      ],
      "stateMutability": "view",
      "type": "function"
    },
    {
      "inputs": [
        {
          "internalType": "uint256",
          "name": "_fee",
          "type": "uint256"
        },
        {
          "internalType": "uint256",
          "name": "amount",
          "type": "uint256"
        }
      ],
      "name": "getFee",
      "outputs": [
        {
          "internalType": "uint256",
          "name": "",
          "type": "uint256"
        }
      ],
      "stateMutability": "pure",
      "type": "function"
    },
    {
      "inputs": [
        {
          "internalType": "address",
          "name": "addr",
          "type": "address"
        }
      ],
      "name": "getListedSubs",
      "outputs": [
        {
          "internalType": "bytes32[]",
          "name": "",
          "type": "bytes32[]"
        }
      ],
      "stateMutability": "view",
      "type": "function"
    },
    {
      "inputs": [
        {
          "internalType": "bytes32",
          "name": "nameHash",
          "type": "bytes32"
        }
      ],
      "name": "getNameHashSubItems",
      "outputs": [
        {
          "internalType": "bytes32[]",
          "name": "",
          "type": "bytes32[]"
        }
      ],
      "stateMutability": "view",
      "type": "function"
    },
    {
      "inputs": [
        {
          "internalType": "address",
          "name": "addr",
          "type": "address"
        }
      ],
      "name": "getPortableAddress",
      "outputs": [
        {
          "internalType": "address",
          "name": "",
          "type": "address"
        }
      ],
      "stateMutability": "view",
      "type": "function"
    },
    {
      "inputs": [
        {
          "internalType": "bytes32",
          "name": "role",
          "type": "bytes32"
        }
      ],
      "name": "getRoleAdmin",
      "outputs": [
        {
          "internalType": "bytes32",
          "name": "",
          "type": "bytes32"
        }
      ],
      "stateMutability": "view",
      "type": "function"
    },
    {
      "inputs": [
        {
          "internalType": "bytes32",
          "name": "subHash",
          "type": "bytes32"
        }
      ],
      "name": "getSubBy",
      "outputs": [
        {
          "components": [
            {
              "internalType": "bytes32",
              "name": "subHash",
              "type": "bytes32"
            },
            {
              "internalType": "bytes32",
              "name": "fdpSellerNameHash",
              "type": "bytes32"
            },
            {
              "internalType": "address",
              "name": "seller",
              "type": "address"
            },
            {
              "internalType": "bytes32",
              "name": "swarmLocation",
              "type": "bytes32"
            },
            {
              "internalType": "uint256",
              "name": "price",
              "type": "uint256"
            },
            {
              "internalType": "bool",
              "name": "active",
              "type": "bool"
            },
            {
              "internalType": "uint256",
              "name": "earned",
              "type": "uint256"
            },
            {
              "internalType": "uint32",
              "name": "bids",
              "type": "uint32"
            },
            {
              "internalType": "uint32",
              "name": "sells",
              "type": "uint32"
            },
            {
              "internalType": "uint32",
              "name": "reports",
              "type": "uint32"
            },
            {
              "internalType": "uint16",
              "name": "daysValid",
              "type": "uint16"
            }
          ],
          "internalType": "struct DataHub.Sub",
          "name": "",
          "type": "tuple"
        }
      ],
      "stateMutability": "view",
      "type": "function"
    },
    {
      "inputs": [
        {
          "internalType": "uint256",
          "name": "index",
          "type": "uint256"
        }
      ],
      "name": "getSubByIndex",
      "outputs": [
        {
          "components": [
            {
              "internalType": "bytes32",
              "name": "subHash",
              "type": "bytes32"
            },
            {
              "internalType": "bytes32",
              "name": "fdpSellerNameHash",
              "type": "bytes32"
            },
            {
              "internalType": "address",
              "name": "seller",
              "type": "address"
            },
            {
              "internalType": "bytes32",
              "name": "swarmLocation",
              "type": "bytes32"
            },
            {
              "internalType": "uint256",
              "name": "price",
              "type": "uint256"
            },
            {
              "internalType": "bool",
              "name": "active",
              "type": "bool"
            },
            {
              "internalType": "uint256",
              "name": "earned",
              "type": "uint256"
            },
            {
              "internalType": "uint32",
              "name": "bids",
              "type": "uint32"
            },
            {
              "internalType": "uint32",
              "name": "sells",
              "type": "uint32"
            },
            {
              "internalType": "uint32",
              "name": "reports",
              "type": "uint32"
            },
            {
              "internalType": "uint16",
              "name": "daysValid",
              "type": "uint16"
            }
          ],
          "internalType": "struct DataHub.Sub",
          "name": "",
          "type": "tuple"
        }
      ],
      "stateMutability": "view",
      "type": "function"
    },
    {
      "inputs": [
        {
          "internalType": "bytes32",
          "name": "subHash",
          "type": "bytes32"
        },
        {
          "internalType": "address",
          "name": "forAddress",
          "type": "address"
        }
      ],
      "name": "getSubInfoBalance",
      "outputs": [
        {
          "internalType": "uint256",
          "name": "",
          "type": "uint256"
        }
      ],
      "stateMutability": "view",
      "type": "function"
    },
    {
      "inputs": [
        {
          "internalType": "address",
          "name": "addr",
          "type": "address"
        },
        {
          "internalType": "uint256",
          "name": "index",
          "type": "uint256"
        }
      ],
      "name": "getSubItemAt",
      "outputs": [
        {
          "components": [
            {
              "internalType": "bytes32",
              "name": "subHash",
              "type": "bytes32"
            },
            {
              "internalType": "bytes32",
              "name": "unlockKeyLocation",
              "type": "bytes32"
            },
            {
              "internalType": "uint256",
              "name": "validTill",
              "type": "uint256"
            }
          ],
          "internalType": "struct DataHub.SubItem",
          "name": "",
          "type": "tuple"
        }
      ],
      "stateMutability": "view",
      "type": "function"
    },
    {
      "inputs": [
        {
          "internalType": "address",
          "name": "addr",
          "type": "address"
        },
        {
          "internalType": "uint256",
          "name": "start",
          "type": "uint256"
        },
        {
          "internalType": "uint256",
          "name": "length",
          "type": "uint256"
        }
      ],
      "name": "getSubItems",
      "outputs": [
        {
          "components": [
            {
              "internalType": "bytes32",
              "name": "subHash",
              "type": "bytes32"
            },
            {
              "internalType": "bytes32",
              "name": "unlockKeyLocation",
              "type": "bytes32"
            },
            {
              "internalType": "uint256",
              "name": "validTill",
              "type": "uint256"
            }
          ],
          "internalType": "struct DataHub.SubItem[]",
          "name": "items",
          "type": "tuple[]"
        },
        {
          "internalType": "uint256",
          "name": "last",
          "type": "uint256"
        }
      ],
      "stateMutability": "view",
      "type": "function"
    },
    {
      "inputs": [
        {
          "internalType": "address",
          "name": "addr",
          "type": "address"
        },
        {
          "internalType": "uint256",
          "name": "index",
          "type": "uint256"
        }
      ],
      "name": "getSubRequestAt",
      "outputs": [
        {
          "components": [
            {
              "internalType": "bytes32",
              "name": "fdpBuyerNameHash",
              "type": "bytes32"
            },
            {
              "internalType": "bytes32",
              "name": "subHash",
              "type": "bytes32"
            },
            {
              "internalType": "bytes32",
              "name": "requestHash",
              "type": "bytes32"
            },
            {
              "internalType": "address",
              "name": "buyer",
              "type": "address"
            },
            {
              "internalType": "bool",
              "name": "served",
              "type": "bool"
            }
          ],
          "internalType": "struct DataHub.SubRequest",
          "name": "",
          "type": "tuple"
        }
      ],
      "stateMutability": "view",
      "type": "function"
    },
    {
      "inputs": [
        {
          "internalType": "address",
          "name": "addr",
          "type": "address"
        },
        {
          "internalType": "bytes32",
          "name": "requestHash",
          "type": "bytes32"
        }
      ],
      "name": "getSubRequestByHash",
      "outputs": [
        {
          "components": [
            {
              "internalType": "bytes32",
              "name": "fdpBuyerNameHash",
              "type": "bytes32"
            },
            {
              "internalType": "bytes32",
              "name": "subHash",
              "type": "bytes32"
            },
            {
              "internalType": "bytes32",
              "name": "requestHash",
              "type": "bytes32"
            },
            {
              "internalType": "address",
              "name": "buyer",
              "type": "address"
            },
            {
              "internalType": "bool",
              "name": "served",
              "type": "bool"
            }
          ],
          "internalType": "struct DataHub.SubRequest",
          "name": "",
          "type": "tuple"
        }
      ],
      "stateMutability": "view",
      "type": "function"
    },
    {
      "inputs": [
        {
          "internalType": "address",
          "name": "addr",
          "type": "address"
        }
      ],
      "name": "getSubRequests",
      "outputs": [
        {
          "components": [
            {
              "internalType": "bytes32",
              "name": "fdpBuyerNameHash",
              "type": "bytes32"
            },
            {
              "internalType": "bytes32",
              "name": "subHash",
              "type": "bytes32"
            },
            {
              "internalType": "bytes32",
              "name": "requestHash",
              "type": "bytes32"
            },
            {
              "internalType": "address",
              "name": "buyer",
              "type": "address"
            },
            {
              "internalType": "bool",
              "name": "served",
              "type": "bool"
            }
          ],
          "internalType": "struct DataHub.SubRequest[]",
          "name": "",
          "type": "tuple[]"
        }
      ],
      "stateMutability": "view",
      "type": "function"
    },
    {
      "inputs": [
        {
          "internalType": "bytes32",
          "name": "subHash",
          "type": "bytes32"
        }
      ],
      "name": "getSubSubscribers",
      "outputs": [
        {
          "internalType": "address[]",
          "name": "",
          "type": "address[]"
        }
      ],
      "stateMutability": "view",
      "type": "function"
    },
    {
      "inputs": [],
      "name": "getSubs",
      "outputs": [
        {
          "components": [
            {
              "internalType": "bytes32",
              "name": "subHash",
              "type": "bytes32"
            },
            {
              "internalType": "bytes32",
              "name": "fdpSellerNameHash",
              "type": "bytes32"
            },
            {
              "internalType": "address",
              "name": "seller",
              "type": "address"
            },
            {
              "internalType": "bytes32",
              "name": "swarmLocation",
              "type": "bytes32"
            },
            {
              "internalType": "uint256",
              "name": "price",
              "type": "uint256"
            },
            {
              "internalType": "bool",
              "name": "active",
              "type": "bool"
            },
            {
              "internalType": "uint256",
              "name": "earned",
              "type": "uint256"
            },
            {
              "internalType": "uint32",
              "name": "bids",
              "type": "uint32"
            },
            {
              "internalType": "uint32",
              "name": "sells",
              "type": "uint32"
            },
            {
              "internalType": "uint32",
              "name": "reports",
              "type": "uint32"
            },
            {
              "internalType": "uint16",
              "name": "daysValid",
              "type": "uint16"
            }
          ],
          "internalType": "struct DataHub.Sub[]",
          "name": "",
          "type": "tuple[]"
        }
      ],
      "stateMutability": "view",
      "type": "function"
    },
    {
      "inputs": [
        {
          "internalType": "address",
          "name": "addr",
          "type": "address"
        }
      ],
      "name": "getUserStats",
      "outputs": [
        {
          "internalType": "uint256",
          "name": "numSubRequests",
          "type": "uint256"
        },
        {
          "internalType": "uint256",
          "name": "numSubItems",
          "type": "uint256"
        },
        {
          "internalType": "uint256",
          "name": "numActiveBids",
          "type": "uint256"
        },
        {
          "internalType": "uint256",
          "name": "numListedSubs",
          "type": "uint256"
        }
      ],
      "stateMutability": "view",
      "type": "function"
    },
    {
      "inputs": [
        {
          "internalType": "bytes32",
          "name": "role",
          "type": "bytes32"
        },
        {
          "internalType": "address",
          "name": "account",
          "type": "address"
        }
      ],
      "name": "grantRole",
      "outputs": [],
      "stateMutability": "nonpayable",
      "type": "function"
    },
    {
      "inputs": [
        {
          "internalType": "bytes32",
          "name": "role",
          "type": "bytes32"
        },
        {
          "internalType": "address",
          "name": "account",
          "type": "address"
        }
      ],
      "name": "hasRole",
      "outputs": [
        {
          "internalType": "bool",
          "name": "",
          "type": "bool"
        }
      ],
      "stateMutability": "view",
      "type": "function"
    },
    {
      "inputs": [],
      "name": "inEscrow",
      "outputs": [
        {
          "internalType": "uint256",
          "name": "",
          "type": "uint256"
        }
      ],
      "stateMutability": "view",
      "type": "function"
    },
    {
      "inputs": [
        {
          "internalType": "bytes32",
          "name": "fdpSellerNameHash",
          "type": "bytes32"
        },
        {
          "internalType": "bytes32",
          "name": "dataSwarmLocation",
          "type": "bytes32"
        },
        {
          "internalType": "uint256",
          "name": "price",
          "type": "uint256"
        },
        {
          "internalType": "bytes32",
          "name": "category",
          "type": "bytes32"
        },
        {
          "internalType": "address",
          "name": "podAddress",
          "type": "address"
        },
        {
          "internalType": "uint16",
          "name": "daysValid",
          "type": "uint16"
        }
      ],
      "name": "listSub",
      "outputs": [],
      "stateMutability": "payable",
      "type": "function"
    },
    {
      "inputs": [],
      "name": "marketFee",
      "outputs": [
        {
          "internalType": "uint256",
          "name": "",
          "type": "uint256"
        }
      ],
      "stateMutability": "view",
      "type": "function"
    },
    {
      "inputs": [],
      "name": "minListingFee",
      "outputs": [
        {
          "internalType": "uint256",
          "name": "",
          "type": "uint256"
        }
      ],
      "stateMutability": "view",
      "type": "function"
    },
    {
      "inputs": [],
      "name": "owner",
      "outputs": [
        {
          "internalType": "address",
          "name": "",
          "type": "address"
        }
      ],
      "stateMutability": "view",
      "type": "function"
    },
    {
      "inputs": [
        {
          "internalType": "address",
          "name": "token",
          "type": "address"
        },
        {
          "internalType": "uint256",
          "name": "amount",
          "type": "uint256"
        }
      ],
      "name": "release",
      "outputs": [],
      "stateMutability": "nonpayable",
      "type": "function"
    },
    {
      "inputs": [
        {
          "internalType": "bytes32",
          "name": "requestHash",
          "type": "bytes32"
        }
      ],
      "name": "removeUserActiveBid",
      "outputs": [],
      "stateMutability": "nonpayable",
      "type": "function"
    },
    {
      "inputs": [],
      "name": "renounceOwnership",
      "outputs": [],
      "stateMutability": "nonpayable",
      "type": "function"
    },
    {
      "inputs": [
        {
          "internalType": "bytes32",
          "name": "role",
          "type": "bytes32"
        },
        {
          "internalType": "address",
          "name": "account",
          "type": "address"
        }
      ],
      "name": "renounceRole",
      "outputs": [],
      "stateMutability": "nonpayable",
      "type": "function"
    },
    {
      "inputs": [
        {
          "internalType": "bytes32",
          "name": "subHash",
          "type": "bytes32"
        }
      ],
      "name": "reportSub",
      "outputs": [],
      "stateMutability": "nonpayable",
      "type": "function"
    },
    {
      "inputs": [
        {
          "internalType": "bytes32",
          "name": "requestHash",
          "type": "bytes32"
        }
      ],
      "name": "requestAgain",
      "outputs": [],
      "stateMutability": "payable",
      "type": "function"
    },
    {
      "inputs": [
        {
          "internalType": "bytes32",
          "name": "role",
          "type": "bytes32"
        },
        {
          "internalType": "address",
          "name": "account",
          "type": "address"
        }
      ],
      "name": "revokeRole",
      "outputs": [],
      "stateMutability": "nonpayable",
      "type": "function"
    },
    {
      "inputs": [
        {
          "internalType": "bytes32",
          "name": "requestHash",
          "type": "bytes32"
        },
        {
          "internalType": "bytes32",
          "name": "encryptedKeyLocation",
          "type": "bytes32"
        }
      ],
      "name": "sellSub",
      "outputs": [],
      "stateMutability": "payable",
      "type": "function"
    },
    {
      "inputs": [
        {
          "internalType": "uint256",
          "name": "newFee",
          "type": "uint256"
        }
      ],
      "name": "setFee",
      "outputs": [],
      "stateMutability": "nonpayable",
      "type": "function"
    },
    {
      "inputs": [
        {
          "internalType": "uint256",
          "name": "newListingFee",
          "type": "uint256"
        }
      ],
      "name": "setListingFee",
      "outputs": [],
      "stateMutability": "nonpayable",
      "type": "function"
    },
    {
      "inputs": [
        {
          "internalType": "address",
          "name": "addr",
          "type": "address"
        }
      ],
      "name": "setPortableAddress",
      "outputs": [],
      "stateMutability": "nonpayable",
      "type": "function"
    },
    {
      "inputs": [
        {
          "internalType": "bytes32",
          "name": "",
          "type": "bytes32"
        }
      ],
      "name": "subscriptionIds",
      "outputs": [
        {
          "internalType": "uint256",
          "name": "",
          "type": "uint256"
        }
      ],
      "stateMutability": "view",
      "type": "function"
    },
    {
      "inputs": [
        {
          "internalType": "uint256",
          "name": "",
          "type": "uint256"
        }
      ],
      "name": "subscriptions",
      "outputs": [
        {
          "internalType": "bytes32",
          "name": "subHash",
          "type": "bytes32"
        },
        {
          "internalType": "bytes32",
          "name": "fdpSellerNameHash",
          "type": "bytes32"
        },
        {
          "internalType": "address",
          "name": "seller",
          "type": "address"
        },
        {
          "internalType": "bytes32",
          "name": "swarmLocation",
          "type": "bytes32"
        },
        {
          "internalType": "uint256",
          "name": "price",
          "type": "uint256"
        },
        {
          "internalType": "bool",
          "name": "active",
          "type": "bool"
        },
        {
          "internalType": "uint256",
          "name": "earned",
          "type": "uint256"
        },
        {
          "internalType": "uint32",
          "name": "bids",
          "type": "uint32"
        },
        {
          "internalType": "uint32",
          "name": "sells",
          "type": "uint32"
        },
        {
          "internalType": "uint32",
          "name": "reports",
          "type": "uint32"
        },
        {
          "internalType": "uint16",
          "name": "daysValid",
          "type": "uint16"
        }
      ],
      "stateMutability": "view",
      "type": "function"
    },
    {
      "inputs": [
        {
          "internalType": "bytes4",
          "name": "interfaceId",
          "type": "bytes4"
        }
      ],
      "name": "supportsInterface",
      "outputs": [
        {
          "internalType": "bool",
          "name": "",
          "type": "bool"
        }
      ],
      "stateMutability": "view",
      "type": "function"
    },
    {
      "inputs": [
        {
          "internalType": "address",
          "name": "newOwner",
          "type": "address"
        }
      ],
      "name": "transferOwnership",
      "outputs": [],
      "stateMutability": "nonpayable",
      "type": "function"
    },
    {
      "stateMutability": "payable",
      "type": "receive"
    }
  ],
  "bytecode": "0x60806040526103e860035566038d7ea4c68000600455600060055560006006553480156200002c57600080fd5b50620000383362000042565b6001805562000092565b600080546001600160a01b038381166001600160a01b0319831681178455604051919092169283917f8be0079c531659141344cd1fd0a4f28419497f9722a3daafe3b4186f6b6457e09190a35050565b6144b680620000a26000396000f3fe6080604052600436106102e85760003560e01c80637de2e5e811610190578063b8fb1bac116100dc578063d547741f11610095578063eed5b6e51161006f578063eed5b6e514610a56578063f071db5a14610a76578063f2fde38b14610a8c578063fbc4fc4414610aac57600080fd5b8063d547741f14610a03578063d76ac1d114610a23578063e91dbcb014610a4357600080fd5b8063b8fb1bac146108f0578063c3b4dde914610912578063c6d05aee1461094b578063cddf64ea14610995578063d250185c146109b5578063d3fbc74c146109d557600080fd5b806391d14854116101495780639bde82dc116101235780639bde82dc14610885578063a217fddf146108a5578063b62fe12f146108ba578063b7391341146108da57600080fd5b806391d148541461082557806392b58bc2146108455780639454932c1461087257600080fd5b80637de2e5e81461071857806380dd0d8e1461074557806383102c2b1461077257806384053229146107a657806388ac2917146107d35780638da5cb5b146107f357600080fd5b80632c3ca35a1161024f578063473b084c1161020857806369fe0e2d116101e257806369fe0e2d146106ad578063703a54b5146106cd578063715018a6146106e357806378ba33c6146106f857600080fd5b8063473b084c1461060c5780634e43603a14610639578063567556a4146106a557600080fd5b80632c3ca35a146104cf5780632d5bbf60146104fc5780632da826431461058c5780632f2ff15d146105b957806336568abe146105d95780633ca684e3146105f957600080fd5b80631a937f08116102a15780631a937f08146103dc5780631f9ef490146103ef578063202cff8a1461041c578063224b6b8c1461042f578063248a9ca31461045c578063254e287b1461048c57600080fd5b806301ffc9a7146102f45780630260f912146103295780630357371d1461034b5780630ccf21561461036b5780630e4999941461038f578063131dbd09146103bc57600080fd5b366102ef57005b600080fd5b34801561030057600080fd5b5061031461030f366004613e3e565b610ad9565b60405190151581526020015b60405180910390f35b34801561033557600080fd5b50610349610344366004613d4a565b610b10565b005b34801561035757600080fd5b50610349610366366004613cea565b610e4b565b34801561037757600080fd5b5061038160035481565b604051908152602001610320565b34801561039b57600080fd5b506103816103aa366004613d4a565b600f6020526000908152604090205481565b3480156103c857600080fd5b506103496103d7366004613d4a565b610e6b565b6103496103ea366004613d4a565b610e78565b3480156103fb57600080fd5b5061040f61040a366004613d4a565b61115f565b60405161032091906142e1565b61034961042a366004613ddd565b611259565b34801561043b57600080fd5b5061044f61044a366004613ca7565b6115ff565b604051610320919061411f565b34801561046857600080fd5b50610381610477366004613d4a565b60009081526002602052604090206001015490565b34801561049857600080fd5b506103816104a7366004613d62565b60009182526010602090815260408084206001600160a01b0393909316845291905290205490565b3480156104db57600080fd5b506104ef6104ea366004613d4a565b611808565b6040516103209190614086565b34801561050857600080fd5b5061051c610517366004613d4a565b61186a565b604080519b8c5260208c019a909a526001600160a01b03909816988a01989098526060890195909552608088019390935290151560a087015260c086015263ffffffff90811660e086015290811661010085015290911661012083015261ffff1661014082015261016001610320565b34801561059857600080fd5b506105ac6105a7366004613cc1565b6118f6565b604051610320919061422c565b3480156105c557600080fd5b506103496105d4366004613d62565b6119b6565b3480156105e557600080fd5b506103496105f4366004613d62565b6119e0565b610349610607366004613dbc565b611a5a565b34801561061857600080fd5b5061062c610627366004613d4a565b611fd9565b6040516103209190614258565b34801561064557600080fd5b50610685610654366004613ca7565b6001600160a01b03166000908152600760205260409020805460048201546002830154600590930154919390929190565b604080519485526020850193909352918301526060820152608001610320565b610349612086565b3480156106b957600080fd5b506103496106c8366004613d4a565b6120c9565b3480156106d957600080fd5b5061038160045481565b3480156106ef57600080fd5b506103496120d6565b34801561070457600080fd5b506105ac610713366004613cea565b6120ea565b34801561072457600080fd5b50610738610733366004613d4a565b61213e565b6040516103209190614039565b34801561075157600080fd5b50610765610760366004613cea565b6121ac565b60405161032091906142b2565b34801561077e57600080fd5b506103817fc6ff1722ffb1bdb71482122a9b8ca2ca5d75d70ed7d05f5d3174c866c748f82581565b3480156107b257600080fd5b506107c66107c1366004613cea565b61228e565b60405161032091906142d3565b3480156107df57600080fd5b506103496107ee366004613d8d565b612351565b3480156107ff57600080fd5b506000546001600160a01b03165b6040516001600160a01b039091168152602001610320565b34801561083157600080fd5b50610314610840366004613d62565b61247f565b34801561085157600080fd5b50610865610860366004613ca7565b6124aa565b6040516103209190614154565b34801561087e57600080fd5b5047610381565b34801561089157600080fd5b506107c66108a0366004613cc1565b61255c565b3480156108b157600080fd5b50610381600081565b3480156108c657600080fd5b5061044f6108d5366004613d4a565b6125d8565b3480156108e657600080fd5b5061038160065481565b3480156108fc57600080fd5b506109056127c7565b6040516103209190614196565b34801561091e57600080fd5b5061080d61092d366004613ca7565b6001600160a01b039081166000908152600860205260409020541690565b34801561095757600080fd5b50610349610966366004613ca7565b33600090815260086020526040902080546001600160a01b0319166001600160a01b0392909216919091179055565b3480156109a157600080fd5b506104ef6109b0366004613ca7565b6128b6565b3480156109c157600080fd5b506103816109d0366004613dbc565b612923565b3480156109e157600080fd5b506109f56109f0366004613cfc565b612944565b604051610320929190614132565b348015610a0f57600080fd5b50610349610a1e366004613d62565b612b1f565b348015610a2f57600080fd5b50610349610a3e366004613d4a565b612b44565b610349610a51366004613dbc565b612c87565b348015610a6257600080fd5b5061040f610a71366004613d4a565b612fc6565b348015610a8257600080fd5b5061038160055481565b348015610a9857600080fd5b50610349610aa7366004613ca7565b612fef565b348015610ab857600080fd5b50610acc610ac7366004613ca7565b613065565b60405161032091906140be565b60006001600160e01b03198216637965db0b60e01b1480610b0a57506301ffc9a760e01b6001600160e01b03198316145b92915050565b3360009081526007602090815260408083208484526003810190925290912054610b6b5760405162461bcd60e51b81526020600482015260076024820152662161622052657160c81b60448201526064015b60405180910390fd5b60008281526003820160205260408120546002830190610b8d9060019061439a565b81548110610bab57634e487b7160e01b600052603260045260246000fd5b6000918252602080832060408051606081018252600294909402909101805484526001908101546001600160a01b038116858501819052600160a01b90910460ff1615158584015285526007835281852088865290810190925290922054909250610c465760405162461bcd60e51b815260206004820152600b60248201526a2173656c6c65722052657160a81b6044820152606401610b62565b6000848152600180830160205260408220548391610c639161439a565b81548110610c8157634e487b7160e01b600052603260045260246000fd5b90600052602060002090600402019050600f6000826001015481526020019081526020016000205460001415610ce25760405162461bcd60e51b8152600401610b629060208082526004908201526310b9bab160e11b604082015260600190565b6001818101546000908152600f60205260408120549091600e91610d06919061439a565b81548110610d2457634e487b7160e01b600052603260045260246000fd5b6000918252602091829020604080516101608101825260089093029091018054835260018101549383019390935260028301546001600160a01b031690820152600380830154606083015260048301546080830152600583015460ff908116151560a0840152600684015460c084015260079093015463ffffffff80821660e085015264010000000082048116610100850152600160401b82041661012084015261ffff600160601b90910416610140830152840154909250600160a01b900416158015610df457506040840151155b15610e2b576080810151604051339180156108fc02916000818181858888f19350505050158015610e29573d6000803e3d6000fd5b505b610e398460200151876130fc565b610e43338761332a565b505050505050565b610e6782610e616000546001600160a01b031690565b83613536565b5050565b610e73613588565b600455565b610e806135e2565b336000908152600760209081526040808320848452600381019092528220549091906002830190610eb39060019061439a565b81548110610ed157634e487b7160e01b600052603260045260246000fd5b6000918252602090912060016002909202018181015490925060ff600160a01b90910416151514610f305760405162461bcd60e51b81526020600482015260096024820152681858881cd95c9d995960ba1b6044820152606401610b62565b6001808201546001600160a01b0316600090815260076020908152604080832087845280850190925282205490928391610f6a919061439a565b81548110610f8857634e487b7160e01b600052603260045260246000fd5b906000526020600020906004020190508260010160149054906101000a900460ff1615156001151514610fe95760405162461bcd60e51b81526020600482015260096024820152681cdc881cd95c9d995960ba1b6044820152606401610b62565b6001818101546000908152600f60205260408120549091600e9161100d919061439a565b8154811061102b57634e487b7160e01b600052603260045260246000fd5b6000918252602091829020604080516101608101825260089093029091018054835260018101549383019390935260028301546001600160a01b03169082015260038201546060820152600482015460808201819052600583015460ff16151560a0830152600683015460c083015260079092015463ffffffff80821660e084015264010000000082048116610100840152600160401b82041661012083015261ffff600160601b90910416610140820152915034146111165760405162461bcd60e51b815260206004820152600660248201526521707269636560d01b6044820152606401610b62565b60038201805460ff60a01b199081169091556001850180549091169055600680543491906000906111489084906142f0565b9091555050600180555061115c9350505050565b50565b611167613c2f565b6000828152600f6020526040902054600e906111859060019061439a565b815481106111a357634e487b7160e01b600052603260045260246000fd5b6000918252602091829020604080516101608101825260089093029091018054835260018101549383019390935260028301546001600160a01b0316908201526003820154606082015260048201546080820152600582015460ff16151560a0820152600682015460c082015260079091015463ffffffff80821660e084015264010000000082048116610100840152600160401b82041661012083015261ffff600160601b9091041661014082015292915050565b6004543410156112945760405162461bcd60e51b81526020600482015260066024820152656d696e46656560d01b6044820152606401610b62565b60018161ffff16101580156112af575061016d8161ffff1611155b6112e75760405162461bcd60e51b815260206004820152600960248201526819185e5cd5985b1a5960ba1b6044820152606401610b62565b604080513360208201529081018790526001600160a01b038316606082015260009060800160408051601f1981840301815291815281516020928301206000818152600f9093529120549091501561136d5760405162461bcd60e51b815260206004820152600960248201526853756245786973747360b81b6044820152606401610b62565b6000604051806101600160405280838152602001898152602001336001600160a01b0316815260200188815260200187815260200160011515815260200160008152602001600063ffffffff168152602001600063ffffffff168152602001600063ffffffff1681526020018461ffff168152509050600e819080600181540180825580915050600190039060005260206000209060080201600090919091909150600082015181600001556020820151816001015560408201518160020160006101000a8154816001600160a01b0302191690836001600160a01b03160217905550606082015181600301556080820151816004015560a08201518160050160006101000a81548160ff02191690831515021790555060c0820151816006015560e08201518160070160006101000a81548163ffffffff021916908363ffffffff1602179055506101008201518160070160046101000a81548163ffffffff021916908363ffffffff1602179055506101208201518160070160086101000a81548163ffffffff021916908363ffffffff16021790555061014082015181600701600c6101000a81548161ffff021916908361ffff1602179055505050600e80549050600f6000848152602001908152602001600020819055506000600d60008781526020019081526020016000209050806000016001600e8054905061157591906143b1565b815460018082018455600093845260208085206004840401805460039094166008026101000a67ffffffffffffffff8181021990951695909416939093029390931790915533835260078252604083206005808201805493840181558552928420909101869055815490923492916115ee9084906142f0565b909155505050505050505050505050565b6001600160a01b0381166000908152600760205260408120600401546060919067ffffffffffffffff81111561164557634e487b7160e01b600052604160045260246000fd5b60405190808252806020026020018201604052801561169057816020015b60408051606081018252600080825260208083018290529282015282526000199092019101816116635790505b50905060005b8151811015611801576001600160a01b03841660009081526007602052604081206004018054600a92600192600b92869081106116e357634e487b7160e01b600052603260045260246000fd5b9060005260206000200154815260200190815260200160002054611707919061439a565b8154811061172557634e487b7160e01b600052603260045260246000fd5b9060005260206000209060030201604051806060016040529081600082015481526020016001820154815260200160028201548152505082828151811061177c57634e487b7160e01b600052603260045260246000fd5b60200260200101819052508181815181106117a757634e487b7160e01b600052603260045260246000fd5b6020026020010151604001514211156117ef576000801b8282815181106117de57634e487b7160e01b600052603260045260246000fd5b602002602001015160200181815250505b806117f98161441d565b915050611696565b5092915050565b6000818152600c602090815260409182902080548351818402810184019094528084526060939283018282801561185e57602002820191906000526020600020905b81548152602001906001019080831161184a575b50505050509050919050565b600e818154811061187a57600080fd5b60009182526020909120600890910201805460018201546002830154600384015460048501546005860154600687015460079097015495975093956001600160a01b03909316949193909260ff9091169163ffffffff808216916401000000008104821691600160401b82041690600160601b900461ffff168b565b60408051606081018252600080825260208083018290528284018290526001600160a01b03861682526007815283822085835260038101909152929020549091600201906119469060019061439a565b8154811061196457634e487b7160e01b600052603260045260246000fd5b60009182526020918290206040805160608101825260029390930290910180548352600101546001600160a01b03811693830193909352600160a01b90920460ff161515918101919091529392505050565b6000828152600260205260409020600101546119d18161363c565b6119db8383613646565b505050565b6001600160a01b0381163314611a505760405162461bcd60e51b815260206004820152602f60248201527f416363657373436f6e74726f6c3a2063616e206f6e6c792072656e6f756e636560448201526e103937b632b9903337b91039b2b63360891b6064820152608401610b62565b610e6782826136cc565b611a626135e2565b3360009081526007602090815260408083208584526001810190925290912054611ab75760405162461bcd60e51b81526020600482015260066024820152654e6f2052657160d01b6044820152606401610b62565b6000838152600180830160205260408220548391611ad49161439a565b81548110611af257634e487b7160e01b600052603260045260246000fd5b600091825260209091206004909102016003810154909150600160a01b900460ff1615611b4a5760405162461bcd60e51b81526020600482015260066024820152651cd95c9d995960d21b6044820152606401610b62565b60018101546000908152600f6020526040902054611b7a5760405162461bcd60e51b8152600401610b629061420c565b6001818101546000908152600f60205260408120549091600e91611b9e919061439a565b81548110611bbc57634e487b7160e01b600052603260045260246000fd5b6000918252602090912060089091020160028101549091506001600160a01b03163314611c1c5760405162461bcd60e51b815260206004820152600e60248201526d2737ba1029bab11029b2b63632b960911b6044820152606401610b62565b60038201546001600160a01b03166000908152600760205260409020611c5b604080516060810182526000808252602082018190529181019190915290565b60018401548152602081018690526007830154611c8690600160601b900461ffff1662015180614350565b611c959062ffffff16426142f0565b6040828101828152600387810154855160208088018051875133818501526001600160a01b03909516858901526060850193909352608084019790975260a0808401929092528551808403909201825260c09092018552805190820120600a80546001808201835560008381528a517fc65a7bb8d6351c1cf70c95a316cc6a92839c986682d98bc35f958f4883f9d2a89388029384015598517fc65a7bb8d6351c1cf70c95a316cc6a92839c986682d98bc35f958f4883f9d2a983015595517fc65a7bb8d6351c1cf70c95a316cc6a92839c986682d98bc35f958f4883f9d2aa9091015554818752600b83528587205560048801805480860182559087528287200181905589548652600c825284862080548086018255908752828720018190558c86529187019052918320549192916002860191611dd39161439a565b81548110611df157634e487b7160e01b600052603260045260246000fd5b60009182526020822060029190910201600181018054600160a01b60ff60a01b19918216811790925560038a810180549092169092179055546004880154919350611e3b91612923565b90506000818760040154611e4f919061439a565b604051909150339082156108fc029083906000818181858888f19350505050158015611e7f573d6000803e3d6000fd5b50866004015460066000828254611e96919061439a565b925050819055508160056000828254611eaf91906142f0565b9091555050600787018054640100000000900463ffffffff16906004611ed483614438565b91906101000a81548163ffffffff021916908363ffffffff1602179055505080876006016000828254611f0791906142f0565b90915550506001880154600090815260106020908152604080832060038c01546001600160a01b03168452909152902054611f86576001808901546000908152601060209081526040822060038c0154908401805494850181558352912090910180546001600160a01b0319166001600160a01b039092169190911790555b6001880154600090815260106020908152604080832060038c01546001600160a01b0316845290915281208054839290611fc19084906142f0565b90915550506001805550610e67975050505050505050565b6040805160208082018352606082526000848152600d82528390208351815480840282018601865292810183815293949093919284929184919084018282801561207657602002820191906000526020600020906000905b82829054906101000a900467ffffffffffffffff1667ffffffffffffffff16815260200190600801906020826007010492830192600103820291508084116120315790505b5050505050815250509050919050565b61208e613588565b60065433906108fc906120a1904761439a565b6040518115909202916000818181858888f1935050505015801561115c573d6000803e3d6000fd5b6120d1613588565b600355565b6120de613588565b6120e86000613733565b565b60408051606081018252600080825260208083018290528284018290526001600160a01b0386168252600790529190912060020180548390811061196457634e487b7160e01b600052603260045260246000fd5b60008181526010602090815260409182902060010180548351818402810184019094528084526060939283018282801561185e57602002820191906000526020600020905b81546001600160a01b031681526001909101906020018083116121835750505050509050919050565b60408051606081018252600080825260208201819052918101919091526001600160a01b03831660009081526007602052604081206004018054600a92600192600b928790811061220d57634e487b7160e01b600052603260045260246000fd5b9060005260206000200154815260200190815260200160002054612231919061439a565b8154811061224f57634e487b7160e01b600052603260045260246000fd5b90600052602060002090600302016040518060600160405290816000820154815260200160018201548152602001600282015481525050905092915050565b6040805160a0810182526000808252602080830182905282840182905260608301829052608083018290526001600160a01b038616825260079052919091208054839081106122ed57634e487b7160e01b600052603260045260246000fd5b60009182526020918290206040805160a081018252600493909302909101805483526001810154938301939093526002830154908201526003909101546001600160a01b0381166060830152600160a01b900460ff16151560808201529392505050565b6000828152600f602052604090205461237c5760405162461bcd60e51b8152600401610b629061420c565b6000828152600f6020526040812054600e9061239a9060019061439a565b815481106123b857634e487b7160e01b600052603260045260246000fd5b600091825260209091206002600890920201908101549091506001600160a01b031633146124155760405162461bcd60e51b815260206004820152600a6024820152692737ba1029b2b63632b960b11b6044820152606401610b62565b60078101546004600160401b90910463ffffffff161061246a5760405162461bcd60e51b815260206004820152601060248201526f546f6f206d616e79207265706f72747360801b6044820152606401610b62565b600501805460ff191691151591909117905550565b60009182526002602090815260408084206001600160a01b0393909316845291905290205460ff1690565b6001600160a01b0381166000908152600760209081526040808320805482518185028101850190935280835260609492939192909184015b828210156125515760008481526020908190206040805160a081018252600486029092018054835260018082015484860152600282015492840192909252600301546001600160a01b0381166060840152600160a01b900460ff161515608083015290835290920191016124e2565b505050509050919050565b6040805160a0810182526000808252602082018190529181018290526060810182905260808101919091526001600160a01b038316600090815260076020908152604080832085845260018082019093529220546125ba919061439a565b815481106122ed57634e487b7160e01b600052603260045260246000fd5b6000818152600c60205260408120546060918167ffffffffffffffff81111561261157634e487b7160e01b600052604160045260246000fd5b60405190808252806020026020018201604052801561265c57816020015b604080516060810182526000808252602080830182905292820152825260001990920191018161262f5790505b50905060005b828110156127bf576000858152600c602052604081208054600a92600192600b92869081106126a157634e487b7160e01b600052603260045260246000fd5b90600052602060002001548152602001908152602001600020546126c5919061439a565b815481106126e357634e487b7160e01b600052603260045260246000fd5b9060005260206000209060030201604051806060016040529081600082015481526020016001820154815260200160028201548152505082828151811061273a57634e487b7160e01b600052603260045260246000fd5b602002602001018190525081818151811061276557634e487b7160e01b600052603260045260246000fd5b6020026020010151604001514211156127ad576000801b82828151811061279c57634e487b7160e01b600052603260045260246000fd5b602002602001015160200181815250505b806127b78161441d565b915050612662565b509392505050565b6060600e805480602002602001604051908101604052809291908181526020016000905b828210156128ad576000848152602090819020604080516101608101825260088602909201805483526001808201548486015260028201546001600160a01b0316928401929092526003810154606084015260048101546080840152600581015460ff16151560a0840152600681015460c08401526007015463ffffffff80821660e085015264010000000082048116610100850152600160401b820416610120840152600160601b900461ffff1661014083015290835290920191016127eb565b50505050905090565b6001600160a01b03811660009081526007602090815260409182902060050180548351818402810184019094528084526060939283018282801561185e576020028201919060005260206000209081548152602001906001019080831161184a5750505050509050919050565b6000620186a0612933848461437b565b61293d9190614330565b9392505050565b606060008267ffffffffffffffff81111561296f57634e487b7160e01b600052604160045260246000fd5b6040519080825280602002602001820160405280156129ba57816020015b604080516060810182526000808252602080830182905292820152825260001990920191018161298d5790505b5091506000905080845b6001600160a01b038716600090815260076020526040902060040154811015612b15576001600160a01b03871660009081526007602052604081206004018054600a91600191600b91859187908110612a2d57634e487b7160e01b600052603260045260246000fd5b9060005260206000200154815260200190815260200160002054612a51919061439a565b81548110612a6f57634e487b7160e01b600052603260045260246000fd5b9060005260206000209060030201604051806060016040529081600082015481526020016001820154815260200160028201548152505090508060400151421015612b025785831015612afc5780858481518110612add57634e487b7160e01b600052603260045260246000fd5b602002602001018190525082612af29061441d565b9250819350612b02565b50612b15565b5080612b0d8161441d565b9150506129c4565b5050935093915050565b600082815260026020526040902060010154612b3a8161363c565b6119db83836136cc565b612b6e7fc6ff1722ffb1bdb71482122a9b8ca2ca5d75d70ed7d05f5d3174c866c748f8253361247f565b612ba95760405162461bcd60e51b815260206004820152600c60248201526b2737ba102932b837b93a32b960a11b6044820152606401610b62565b6000818152600f6020526040902054612bd45760405162461bcd60e51b8152600401610b629061420c565b6000818152600f6020526040812054600e90612bf29060019061439a565b81548110612c1057634e487b7160e01b600052603260045260246000fd5b906000526020600020906008020190508060070160089054906101000a900463ffffffff166001612c419190614308565b6007820180546bffffffff00000000000000001916600160401b63ffffffff938416810291909117918290556003910490911610610e6757600501805460ff1916905550565b612c8f6135e2565b6000828152600f6020526040902054612cba5760405162461bcd60e51b8152600401610b629061420c565b6000828152600f6020526040812054600e90612cd89060019061439a565b81548110612cf657634e487b7160e01b600052603260045260246000fd5b60009182526020909120600890910201600581015490915060ff16612d485760405162461bcd60e51b8152602060048201526008602482015267496e61637469766560c01b6044820152606401610b62565b80600401543414612d8a5760405162461bcd60e51b815260206004820152600c60248201526b56616c7565213d707269636560a01b6044820152606401610b62565b60028101546001600160a01b0316600090815260076020908152604080832081513381850152808301889052606080820188905283518083039091018152608090910183528051908401208085526001820190935292205415612e1c5760405162461bcd60e51b815260206004820152600a6024820152695265712065786973747360b01b6044820152606401610b62565b60078301805463ffffffff16906000612e3483614438565b91906101000a81548163ffffffff021916908363ffffffff16021790555050612e846040805160a08101825260008082526020820181905291810182905260608101829052608081019190915290565b8481523360608201908152845460208084019182526040808501868152875460018181018a5560008a815285812089516004909402019283559551828201559151600282015594516003909501805460808801511515600160a01b026001600160a81b03199091166001600160a01b03979097169690961795909517909455865486845293870190915281209190915560068054349290612f269084906142f0565b90915550506040805160608101825260008183018181528583526002978801546001600160a01b03908116602080860191825233855260078152868520808c01805460018082018355828952848920995191909e029098019788559251968c01805495511515600160a01b026001600160a81b03199096169790941696909617939093179091555495825260039092019091522091909155505080555050565b612fce613c2f565b600e82815481106111a357634e487b7160e01b600052603260045260246000fd5b612ff7613588565b6001600160a01b03811661305c5760405162461bcd60e51b815260206004820152602660248201527f4f776e61626c653a206e6577206f776e657220697320746865207a65726f206160448201526564647265737360d01b6064820152608401610b62565b61115c81613733565b6001600160a01b0381166000908152600760209081526040808320600201805482518185028101850190935280835260609492939192909184015b828210156125515760008481526020908190206040805160608101825260028602909201805483526001908101546001600160a01b03811684860152600160a01b900460ff1615159183019190915290835290920191016130a0565b6001600160a01b0382166000908152600760209081526040808320848452600181019092529091205461315a5760405162461bcd60e51b8152600401610b62906020808252600490820152632152657160e01b604082015260600190565b600082815260018281016020526040822054613176919061439a565b825490915060009061318a9060019061439a565b90508181146132b8578260000181815481106131b657634e487b7160e01b600052603260045260246000fd5b90600052602060002090600402018360000183815481106131e757634e487b7160e01b600052603260045260246000fd5b6000918252602090912082546004909202019081556001808301548183015560028084015490830155600392830180549390920180546001600160a01b031981166001600160a01b039095169485178255925460ff600160a01b91829004161515026001600160a81b03199093169093179190911790915561326a9083906142f0565b83600101600085600001848154811061329357634e487b7160e01b600052603260045260246000fd5b9060005260206000209060040201600201548152602001908152602001600020819055505b82548390806132d757634e487b7160e01b600052603160045260246000fd5b60008281526020808220600460001990940193840201828155600181810184905560028201849055600390910180546001600160a81b031916905592909355958652939093019092525050604081205550565b6001600160a01b038216600090815260076020908152604080832084845260038101909252909120546133895760405162461bcd60e51b81526020600482015260076024820152662161622052657160c81b6044820152606401610b62565b60008281526003820160205260408120546133a69060019061439a565b60028301549091506000906133bd9060019061439a565b90508181146134d2578260020181815481106133e957634e487b7160e01b600052603260045260246000fd5b906000526020600020906002020183600201838154811061341a57634e487b7160e01b600052603260045260246000fd5b6000918252602090912082546002909202019081556001918201805491830180546001600160a01b031981166001600160a01b039094169384178255915460ff600160a01b91829004161515026001600160a81b03199092169092171790556134849083906142f0565b8360030160008560020185815481106134ad57634e487b7160e01b600052603260045260246000fd5b9060005260206000209060020201600001548152602001908152602001600020819055505b826002018054806134f357634e487b7160e01b600052603160045260246000fd5b6000828152602080822060026000199094019384020182815560010180546001600160a81b03191690559190925594815260039093019093525060408120555050565b604080516001600160a01b038416602482015260448082018490528251808303909101815260649091019091526020810180516001600160e01b031663a9059cbb60e01b1790526119db908490613783565b6000546001600160a01b031633146120e85760405162461bcd60e51b815260206004820181905260248201527f4f776e61626c653a2063616c6c6572206973206e6f7420746865206f776e65726044820152606401610b62565b600260015414156136355760405162461bcd60e51b815260206004820152601f60248201527f5265656e7472616e637947756172643a207265656e7472616e742063616c6c006044820152606401610b62565b6002600155565b61115c8133613855565b613650828261247f565b610e675760008281526002602090815260408083206001600160a01b03851684529091529020805460ff191660011790556136883390565b6001600160a01b0316816001600160a01b0316837f2f8788117e7eff1d82e926ec794901d17c78024a50270940304540a733656f0d60405160405180910390a45050565b6136d6828261247f565b15610e675760008281526002602090815260408083206001600160a01b0385168085529252808320805460ff1916905551339285917ff6391f5c32d9c69d2a47ea670b442974b53935d1edc7fd64eb21e047a839171b9190a45050565b600080546001600160a01b038381166001600160a01b0319831681178455604051919092169283917f8be0079c531659141344cd1fd0a4f28419497f9722a3daafe3b4186f6b6457e09190a35050565b60006137d8826040518060400160405280602081526020017f5361666545524332303a206c6f772d6c6576656c2063616c6c206661696c6564815250856001600160a01b03166138ae9092919063ffffffff16565b8051909150156119db57808060200190518101906137f69190613d2e565b6119db5760405162461bcd60e51b815260206004820152602a60248201527f5361666545524332303a204552433230206f7065726174696f6e20646964206e6044820152691bdd081cdd58d8d9595960b21b6064820152608401610b62565b61385f828261247f565b610e675761386c816138c5565b6138778360206138d7565b604051602001613888929190613fc4565b60408051601f198184030181529082905262461bcd60e51b8252610b62916004016141d9565b60606138bd8484600085613ab9565b949350505050565b6060610b0a6001600160a01b03831660145b606060006138e683600261437b565b6138f19060026142f0565b67ffffffffffffffff81111561391757634e487b7160e01b600052604160045260246000fd5b6040519080825280601f01601f191660200182016040528015613941576020820181803683370190505b509050600360fc1b8160008151811061396a57634e487b7160e01b600052603260045260246000fd5b60200101906001600160f81b031916908160001a905350600f60fb1b816001815181106139a757634e487b7160e01b600052603260045260246000fd5b60200101906001600160f81b031916908160001a90535060006139cb84600261437b565b6139d69060016142f0565b90505b6001811115613a6a576f181899199a1a9b1b9c1cb0b131b232b360811b85600f1660108110613a1857634e487b7160e01b600052603260045260246000fd5b1a60f81b828281518110613a3c57634e487b7160e01b600052603260045260246000fd5b60200101906001600160f81b031916908160001a90535060049490941c93613a6381614406565b90506139d9565b50831561293d5760405162461bcd60e51b815260206004820181905260248201527f537472696e67733a20686578206c656e67746820696e73756666696369656e746044820152606401610b62565b606082471015613b1a5760405162461bcd60e51b815260206004820152602660248201527f416464726573733a20696e73756666696369656e742062616c616e636520666f6044820152651c8818d85b1b60d21b6064820152608401610b62565b600080866001600160a01b03168587604051613b369190613fa8565b60006040518083038185875af1925050503d8060008114613b73576040519150601f19603f3d011682016040523d82523d6000602084013e613b78565b606091505b5091509150613b8987838387613b94565b979650505050505050565b60608315613c00578251613bf9576001600160a01b0385163b613bf95760405162461bcd60e51b815260206004820152601d60248201527f416464726573733a2063616c6c20746f206e6f6e2d636f6e74726163740000006044820152606401610b62565b50816138bd565b6138bd8383815115613c155781518083602001fd5b8060405162461bcd60e51b8152600401610b6291906141d9565b6040805161016081018252600080825260208201819052918101829052606081018290526080810182905260a0810182905260c0810182905260e081018290526101008101829052610120810182905261014081019190915290565b80356001600160a01b0381168114613ca257600080fd5b919050565b600060208284031215613cb8578081fd5b61293d82613c8b565b60008060408385031215613cd3578081fd5b613cdc83613c8b565b946020939093013593505050565b60008060408385031215613cd3578182fd5b600080600060608486031215613d10578081fd5b613d1984613c8b565b95602085013595506040909401359392505050565b600060208284031215613d3f578081fd5b815161293d81614472565b600060208284031215613d5b578081fd5b5035919050565b60008060408385031215613d74578182fd5b82359150613d8460208401613c8b565b90509250929050565b60008060408385031215613d9f578182fd5b823591506020830135613db181614472565b809150509250929050565b60008060408385031215613dce578182fd5b50508035926020909101359150565b60008060008060008060c08789031215613df5578182fd5b86359550602087013594506040870135935060608701359250613e1a60808801613c8b565b915060a087013561ffff81168114613e30578182fd5b809150509295509295509295565b600060208284031215613e4f578081fd5b81356001600160e01b03198116811461293d578182fd5b6000815180845260208085019450808401835b83811015613eb357613ea08783518051825260208082015190830152604090810151910152565b6060969096019590820190600101613e79565b509495945050505050565b8051825260208082015190830152604080820151908301526060808201516001600160a01b0316908301526080908101511515910152565b80518252602081015160208301526040810151613f1e60408401826001600160a01b03169052565b50606081015160608301526080810151608083015260a0810151613f4660a084018215159052565b5060c081015160c083015260e0810151613f6860e084018263ffffffff169052565b506101008181015163ffffffff81168483015250506101208181015163ffffffff81168483015250506101408181015161ffff8116848301525b50505050565b60008251613fba8184602087016143da565b9190910192915050565b7f416363657373436f6e74726f6c3a206163636f756e7420000000000000000000815260008351613ffc8160178501602088016143da565b7001034b99036b4b9b9b4b733903937b6329607d1b601791840191820152835161402d8160288401602088016143da565b01602801949350505050565b6020808252825182820181905260009190848201906040850190845b8181101561407a5783516001600160a01b031683529284019291840191600101614055565b50909695505050505050565b6020808252825182820181905260009190848201906040850190845b8181101561407a578351835292840192918401916001016140a2565b6020808252825182820181905260009190848201906040850190845b8181101561407a5761410c838551805182526020808201516001600160a01b0316908301526040908101511515910152565b92840192606092909201916001016140da565b60208152600061293d6020830184613e66565b6040815260006141456040830185613e66565b90508260208301529392505050565b6020808252825182820181905260009190848201906040850190845b8181101561407a57614183838551613ebe565b9284019260a09290920191600101614170565b6020808252825182820181905260009190848201906040850190845b8181101561407a576141c5838551613ef6565b9284019261016092909201916001016141b2565b60208152600082518060208401526141f88160408501602087016143da565b601f01601f19169190910160400192915050565b60208082526006908201526527379029bab160d11b604082015260600190565b815181526020808301516001600160a01b03169082015260408083015115159082015260608101610b0a565b6020808252825182820182905280516040840181905260009291820190839060608601905b808310156142a757835167ffffffffffffffff16825292840192600192909201919084019061427d565b509695505050505050565b81518152602080830151908201526040808301519082015260608101610b0a565b60a08101610b0a8284613ebe565b6101608101610b0a8284613ef6565b600082198211156143035761430361445c565b500190565b600063ffffffff8083168185168083038211156143275761432761445c565b01949350505050565b60008261434b57634e487b7160e01b81526012600452602481fd5b500490565b600062ffffff808316818516818304811182151516156143725761437261445c565b02949350505050565b60008160001904831182151516156143955761439561445c565b500290565b6000828210156143ac576143ac61445c565b500390565b600067ffffffffffffffff838116908316818110156143d2576143d261445c565b039392505050565b60005b838110156143f55781810151838201526020016143dd565b83811115613fa25750506000910152565b6000816144155761441561445c565b506000190190565b60006000198214156144315761443161445c565b5060010190565b600063ffffffff808316818114156144525761445261445c565b6001019392505050565b634e487b7160e01b600052601160045260246000fd5b801515811461115c57600080fdfea2646970667358221220cb9d856b64c7d002cfc127ce9d3f246cd293a795a89c9cfe4d7d45aed52312d164736f6c63430008040033",
  "linkReferences": {},
  "deployedLinkReferences": {}
}