{
  "_format": "hh-sol-artifact-1",
  "contractName": "PublicResolver",
  "sourceName": "contracts/PublicResolver.sol",
  "abi": [
    {
      "inputs": [
        {
          "internalType": "contract ENS",
          "name": "_ensAddr",
          "type": "address"
        }
      ],
      "stateMutability": "nonpayable",
      "type": "constructor"
    },
    {
      "anonymous": false,
      "inputs": [
        {
          "indexed": true,
          "internalType": "bytes32",
          "name": "node",
          "type": "bytes32"
        },
        {
          "indexed": true,
          "internalType": "uint256",
          "name": "contentType",
          "type": "uint256"
        }
      ],
      "name": "ABIChanged",
      "type": "event"
    },
    {
      "anonymous": false,
      "inputs": [
        {
          "indexed": true,
          "internalType": "bytes32",
          "name": "node",
          "type": "bytes32"
        },
        {
          "indexed": false,
          "internalType": "address",
          "name": "a",
          "type": "address"
        }
      ],
      "name": "AddrChanged",
      "type": "event"
    },
    {
      "anonymous": false,
      "inputs": [
        {
          "indexed": true,
          "internalType": "bytes32",
          "name": "node",
          "type": "bytes32"
        },
        {
          "indexed": false,
          "internalType": "bytes32",
          "name": "hash",
          "type": "bytes32"
        }
      ],
      "name": "ContentChanged",
      "type": "event"
    },
    {
      "anonymous": false,
      "inputs": [
        {
          "indexed": true,
          "internalType": "bytes32",
          "name": "node",
          "type": "bytes32"
        },
        {
          "indexed": false,
          "internalType": "bytes",
          "name": "hash",
          "type": "bytes"
        }
      ],
      "name": "MultihashChanged",
      "type": "event"
    },
    {
      "anonymous": false,
      "inputs": [
        {
          "indexed": true,
          "internalType": "bytes32",
          "name": "node",
          "type": "bytes32"
        },
        {
          "indexed": false,
          "internalType": "string",
          "name": "name",
          "type": "string"
        }
      ],
      "name": "NameChanged",
      "type": "event"
    },
    {
      "anonymous": false,
      "inputs": [
        {
          "indexed": true,
          "internalType": "bytes32",
          "name": "node",
          "type": "bytes32"
        },
        {
          "indexed": false,
          "internalType": "bytes32",
          "name": "x",
          "type": "bytes32"
        },
        {
          "indexed": false,
          "internalType": "bytes32",
          "name": "y",
          "type": "bytes32"
        }
      ],
      "name": "PubkeyChanged",
      "type": "event"
    },
    {
      "anonymous": false,
      "inputs": [
        {
          "indexed": true,
          "internalType": "bytes32",
          "name": "node",
          "type": "bytes32"
        },
        {
          "indexed": false,
          "internalType": "string",
          "name": "indexedKey",
          "type": "string"
        },
        {
          "indexed": false,
          "internalType": "string",
          "name": "key",
          "type": "string"
        }
      ],
      "name": "TextChanged",
      "type": "event"
    },
    {
      "inputs": [
        {
          "internalType": "bytes32",
          "name": "_node",
          "type": "bytes32"
        }
      ],
      "name": "addr",
      "outputs": [
        {
          "internalType": "address",
          "name": "",
          "type": "address"
        }
      ],
      "stateMutability": "view",
      "type": "function"
    },
    {
      "inputs": [
        {
          "internalType": "bytes32",
          "name": "_node",
          "type": "bytes32"
        }
      ],
      "name": "content",
      "outputs": [
        {
          "internalType": "bytes32",
          "name": "",
          "type": "bytes32"
        }
      ],
      "stateMutability": "view",
      "type": "function"
    },
    {
      "inputs": [
        {
          "internalType": "bytes32",
          "name": "_node",
          "type": "bytes32"
        }
      ],
      "name": "getAll",
      "outputs": [
        {
          "internalType": "address",
          "name": "_addr",
          "type": "address"
        },
        {
          "internalType": "bytes32",
          "name": "_content",
          "type": "bytes32"
        },
        {
          "internalType": "bytes",
          "name": "_multihash",
          "type": "bytes"
        },
        {
          "internalType": "bytes32",
          "name": "_x",
          "type": "bytes32"
        },
        {
          "internalType": "bytes32",
          "name": "_y",
          "type": "bytes32"
        },
        {
          "internalType": "string",
          "name": "_name",
          "type": "string"
        }
      ],
      "stateMutability": "view",
      "type": "function"
    },
    {
      "inputs": [
        {
          "internalType": "bytes32",
          "name": "_node",
          "type": "bytes32"
        }
      ],
      "name": "multihash",
      "outputs": [
        {
          "internalType": "bytes",
          "name": "",
          "type": "bytes"
        }
      ],
      "stateMutability": "view",
      "type": "function"
    },
    {
      "inputs": [
        {
          "internalType": "bytes32",
          "name": "_node",
          "type": "bytes32"
        }
      ],
      "name": "name",
      "outputs": [
        {
          "internalType": "string",
          "name": "",
          "type": "string"
        }
      ],
      "stateMutability": "view",
      "type": "function"
    },
    {
      "inputs": [
        {
          "internalType": "bytes32",
          "name": "_node",
          "type": "bytes32"
        }
      ],
      "name": "pubkey",
      "outputs": [
        {
          "internalType": "bytes32",
          "name": "x",
          "type": "bytes32"
        },
        {
          "internalType": "bytes32",
          "name": "y",
          "type": "bytes32"
        }
      ],
      "stateMutability": "view",
      "type": "function"
    },
    {
      "inputs": [
        {
          "internalType": "bytes32",
          "name": "_node",
          "type": "bytes32"
        },
        {
          "internalType": "uint256",
          "name": "_contentType",
          "type": "uint256"
        },
        {
          "internalType": "bytes",
          "name": "_data",
          "type": "bytes"
        }
      ],
      "name": "setABI",
      "outputs": [],
      "stateMutability": "nonpayable",
      "type": "function"
    },
    {
      "inputs": [
        {
          "internalType": "bytes32",
          "name": "_node",
          "type": "bytes32"
        },
        {
          "internalType": "address",
          "name": "_addr",
          "type": "address"
        }
      ],
      "name": "setAddr",
      "outputs": [],
      "stateMutability": "nonpayable",
      "type": "function"
    },
    {
      "inputs": [
        {
          "internalType": "bytes32",
          "name": "_node",
          "type": "bytes32"
        },
        {
          "internalType": "address",
          "name": "_addr",
          "type": "address"
        },
        {
          "internalType": "bytes32",
          "name": "_content",
          "type": "bytes32"
        },
        {
          "internalType": "bytes",
          "name": "_multihash",
          "type": "bytes"
        },
        {
          "internalType": "bytes32",
          "name": "_x",
          "type": "bytes32"
        },
        {
          "internalType": "bytes32",
          "name": "_y",
          "type": "bytes32"
        },
        {
          "internalType": "string",
          "name": "_name",
          "type": "string"
        }
      ],
      "name": "setAll",
      "outputs": [],
      "stateMutability": "nonpayable",
      "type": "function"
    },
    {
      "inputs": [
        {
          "internalType": "bytes32",
          "name": "_node",
          "type": "bytes32"
        },
        {
          "internalType": "bytes32",
          "name": "_hash",
          "type": "bytes32"
        }
      ],
      "name": "setContent",
      "outputs": [],
      "stateMutability": "nonpayable",
      "type": "function"
    },
    {
      "inputs": [
        {
          "internalType": "bytes32",
          "name": "_node",
          "type": "bytes32"
        },
        {
          "internalType": "bytes",
          "name": "_hash",
          "type": "bytes"
        }
      ],
      "name": "setMultihash",
      "outputs": [],
      "stateMutability": "nonpayable",
      "type": "function"
    },
    {
      "inputs": [
        {
          "internalType": "bytes32",
          "name": "_node",
          "type": "bytes32"
        },
        {
          "internalType": "string",
          "name": "_name",
          "type": "string"
        }
      ],
      "name": "setName",
      "outputs": [],
      "stateMutability": "nonpayable",
      "type": "function"
    },
    {
      "inputs": [
        {
          "internalType": "bytes32",
          "name": "_node",
          "type": "bytes32"
        },
        {
          "internalType": "bytes32",
          "name": "_x",
          "type": "bytes32"
        },
        {
          "internalType": "bytes32",
          "name": "_y",
          "type": "bytes32"
        }
      ],
      "name": "setPubkey",
      "outputs": [],
      "stateMutability": "nonpayable",
      "type": "function"
    },
    {
      "inputs": [
        {
          "internalType": "bytes32",
          "name": "_node",
          "type": "bytes32"
        },
        {
          "internalType": "string",
          "name": "_key",
          "type": "string"
        },
        {
          "internalType": "string",
          "name": "_value",
          "type": "string"
        }
      ],
      "name": "setText",
      "outputs": [],
      "stateMutability": "nonpayable",
      "type": "function"
    },
    {
      "inputs": [
        {
          "internalType": "bytes32",
          "name": "_node",
          "type": "bytes32"
        },
        {
          "internalType": "string",
          "name": "_key",
          "type": "string"
        }
      ],
      "name": "text",
      "outputs": [
        {
          "internalType": "string",
          "name": "",
          "type": "string"
        }
      ],
      "stateMutability": "view",
      "type": "function"
    }
  ],
  "bytecode": "0x608060405234801561001057600080fd5b506040516113f93803806113f983398101604081905261002f91610054565b600080546001600160a01b0319166001600160a01b0392909216919091179055610082565b600060208284031215610065578081fd5b81516001600160a01b038116811461007b578182fd5b9392505050565b611368806100916000396000f3fe608060405234801561001057600080fd5b50600436106100f55760003560e01c80637737221311610097578063c869023311610066578063c86902331461022c578063d5fa2b001461026c578063e89401a11461027f578063ed80e1f71461029257600080fd5b806377372213146101e05780639f3a206d146101f3578063aa4cb54714610206578063c3d014d61461021957600080fd5b80633b3b57de116100d35780633b3b57de1461015957806359d1d43c1461019a578063623195b0146101ba578063691f3431146101cd57600080fd5b806310f13a8c146100fa57806329cd62ea1461010f5780632dff694114610122575b600080fd5b61010d6101083660046110c0565b6102b7565b005b61010d61011d366004611050565b6103ed565b610146610130366004610f4e565b6000908152600160208190526040909120015490565b6040519081526020015b60405180910390f35b610182610167366004610f4e565b6000908152600160205260409020546001600160a01b031690565b6040516001600160a01b039091168152602001610150565b6101ad6101a836600461107b565b6104f9565b6040516101509190611208565b61010d6101c836600461112a565b6105be565b6101ad6101db366004610f4e565b6106f6565b61010d6101ee36600461107b565b61079b565b61010d610201366004610f95565b6108a4565b61010d61021436600461107b565b610987565b61010d61022736600461102f565b610a83565b61025761023a366004610f4e565b600090815260016020526040902060038101546004909101549091565b60408051928352602083019190915201610150565b61010d61027a366004610f66565b610b71565b6101ad61028d366004610f4e565b610c74565b6102a56102a0366004610f4e565b610c94565b604051610150969594939291906111b6565b6000546040516302571be360e01b815260048101859052849133916001600160a01b03909116906302571be39060240160206040518083038186803b1580156102ff57600080fd5b505afa158015610313573d6000803e3d6000fd5b505050506040513d601f19601f820116820180604052508101906103379190610f2b565b6001600160a01b0316146103665760405162461bcd60e51b815260040161035d90611249565b60405180910390fd5b81600160008681526020019081526020016000206005018460405161038b919061119a565b908152602001604051809103902090805190602001906103ac929190610e0b565b50837fd8c9334b1a9c2f9da342a0a2b32629c1a229b6445dad78947f674b44444a755084856040516103df92919061121b565b60405180910390a250505050565b6000546040516302571be360e01b815260048101859052849133916001600160a01b03909116906302571be39060240160206040518083038186803b15801561043557600080fd5b505afa158015610449573d6000803e3d6000fd5b505050506040513d601f19601f8201168201806040525081019061046d9190610f2b565b6001600160a01b0316146104935760405162461bcd60e51b815260040161035d90611249565b60408051808201825284815260208082018581526000888152600183528490209251600384015551600490920191909155815185815290810184905285917f1d6f5e03d3f63eb58751986629a5439baee5079ff04f345becb66e23eb154e4691016103df565b6060600160008481526020019081526020016000206005018260405161051f919061119a565b90815260200160405180910390208054610538906112c9565b80601f0160208091040260200160405190810160405280929190818152602001828054610564906112c9565b80156105b15780601f10610586576101008083540402835291602001916105b1565b820191906000526020600020905b81548152906001019060200180831161059457829003601f168201915b5050505050905092915050565b6000546040516302571be360e01b815260048101859052849133916001600160a01b03909116906302571be39060240160206040518083038186803b15801561060657600080fd5b505afa15801561061a573d6000803e3d6000fd5b505050506040513d601f19601f8201168201806040525081019061063e9190610f2b565b6001600160a01b0316146106645760405162461bcd60e51b815260040161035d90611249565b82610670600182611276565b16156106985760405162461bcd60e51b8152602060048201526000602482015260440161035d565b6000848152600160209081526040808320868452600601825290912083516106c292850190610e0b565b50604051839085907faa121bbeef5f32f5961a2a28966e769023910fc9479059ee3495d4c1a696efe390600090a350505050565b6000818152600160205260409020600201805460609190610716906112c9565b80601f0160208091040260200160405190810160405280929190818152602001828054610742906112c9565b801561078f5780601f106107645761010080835404028352916020019161078f565b820191906000526020600020905b81548152906001019060200180831161077257829003601f168201915b50505050509050919050565b6000546040516302571be360e01b815260048101849052839133916001600160a01b03909116906302571be39060240160206040518083038186803b1580156107e357600080fd5b505afa1580156107f7573d6000803e3d6000fd5b505050506040513d601f19601f8201168201806040525081019061081b9190610f2b565b6001600160a01b0316146108415760405162461bcd60e51b815260040161035d90611249565b6000838152600160209081526040909120835161086692600290920191850190610e0b565b50827fb7d29e911041e8d9b843369e890bcb72c9388692ba48b65ac54e7214c4c348f7836040516108979190611208565b60405180910390a2505050565b6000546040516302571be360e01b815260048101899052889133916001600160a01b03909116906302571be39060240160206040518083038186803b1580156108ec57600080fd5b505afa158015610900573d6000803e3d6000fd5b505050506040513d601f19601f820116820180604052508101906109249190610f2b565b6001600160a01b03161461094a5760405162461bcd60e51b815260040161035d90611249565b6109548888610b71565b61095e8887610a83565b6109688886610987565b6109738885856103ed565b61097d888361079b565b5050505050505050565b6000546040516302571be360e01b815260048101849052839133916001600160a01b03909116906302571be39060240160206040518083038186803b1580156109cf57600080fd5b505afa1580156109e3573d6000803e3d6000fd5b505050506040513d601f19601f82011682018060405250810190610a079190610f2b565b6001600160a01b031614610a2d5760405162461bcd60e51b815260040161035d90611249565b60008381526001602090815260409091208351610a5292600790920191850190610e0b565b50827fc0b0fc07269fc2749adada3221c095a1d2187b2d075b51c915857b520f3a5021836040516108979190611208565b6000546040516302571be360e01b815260048101849052839133916001600160a01b03909116906302571be39060240160206040518083038186803b158015610acb57600080fd5b505afa158015610adf573d6000803e3d6000fd5b505050506040513d601f19601f82011682018060405250810190610b039190610f2b565b6001600160a01b031614610b295760405162461bcd60e51b815260040161035d90611249565b600083815260016020819052604091829020018390555183907f0424b6fe0d9c3bdbece0e7879dc241bb0c22e900be8b6c168b4ee08bd9bf83bc906108979085815260200190565b6000546040516302571be360e01b815260048101849052839133916001600160a01b03909116906302571be39060240160206040518083038186803b158015610bb957600080fd5b505afa158015610bcd573d6000803e3d6000fd5b505050506040513d601f19601f82011682018060405250810190610bf19190610f2b565b6001600160a01b031614610c175760405162461bcd60e51b815260040161035d90611249565b60008381526001602090815260409182902080546001600160a01b0319166001600160a01b038616908117909155915191825284917f52d7d861f09ab3d26239d492e8968629f95e9e318cf0b73bfddc441522a15fd29101610897565b6000818152600160205260409020600701805460609190610716906112c9565b60008181526001602081905260408220805491810154600790910180546001600160a01b03909316939192606092918291849190610cd1906112c9565b80601f0160208091040260200160405190810160405280929190818152602001828054610cfd906112c9565b8015610d4a5780601f10610d1f57610100808354040283529160200191610d4a565b820191906000526020600020905b815481529060010190602001808311610d2d57829003601f168201915b50505060008a8152600160205260409020600381015460048201546002909201805495995090975090955092610d82925090506112c9565b80601f0160208091040260200160405190810160405280929190818152602001828054610dae906112c9565b8015610dfb5780601f10610dd057610100808354040283529160200191610dfb565b820191906000526020600020905b815481529060010190602001808311610dde57829003601f168201915b5050505050905091939550919395565b828054610e17906112c9565b90600052602060002090601f016020900481019282610e395760008555610e7f565b82601f10610e5257805160ff1916838001178555610e7f565b82800160010185558215610e7f579182015b82811115610e7f578251825591602001919060010190610e64565b50610e8b929150610e8f565b5090565b5b80821115610e8b5760008155600101610e90565b600082601f830112610eb4578081fd5b813567ffffffffffffffff80821115610ecf57610ecf611304565b604051601f8301601f19908116603f01168101908282118183101715610ef757610ef7611304565b81604052838152866020858801011115610f0f578485fd5b8360208701602083013792830160200193909352509392505050565b600060208284031215610f3c578081fd5b8151610f478161131a565b9392505050565b600060208284031215610f5f578081fd5b5035919050565b60008060408385031215610f78578081fd5b823591506020830135610f8a8161131a565b809150509250929050565b600080600080600080600060e0888a031215610faf578283fd5b873596506020880135610fc18161131a565b955060408801359450606088013567ffffffffffffffff80821115610fe4578485fd5b610ff08b838c01610ea4565b955060808a0135945060a08a0135935060c08a0135915080821115611013578283fd5b506110208a828b01610ea4565b91505092959891949750929550565b60008060408385031215611041578182fd5b50508035926020909101359150565b600080600060608486031215611064578283fd5b505081359360208301359350604090920135919050565b6000806040838503121561108d578182fd5b82359150602083013567ffffffffffffffff8111156110aa578182fd5b6110b685828601610ea4565b9150509250929050565b6000806000606084860312156110d4578283fd5b83359250602084013567ffffffffffffffff808211156110f2578384fd5b6110fe87838801610ea4565b93506040860135915080821115611113578283fd5b5061112086828701610ea4565b9150509250925092565b60008060006060848603121561113e578283fd5b8335925060208401359150604084013567ffffffffffffffff811115611162578182fd5b61112086828701610ea4565b60008151808452611186816020860160208601611299565b601f01601f19169290920160200192915050565b600082516111ac818460208701611299565b9190910192915050565b60018060a01b038716815285602082015260c0604082015260006111dd60c083018761116e565b85606084015284608084015282810360a08401526111fb818561116e565b9998505050505050505050565b602081526000610f47602083018461116e565b60408152600061122e604083018561116e565b8281036020840152611240818561116e565b95945050505050565b60208082526013908201527227bbb732b91034b9903737ba1039b2b73232b960691b604082015260600190565b60008282101561129457634e487b7160e01b81526011600452602481fd5b500390565b60005b838110156112b457818101518382015260200161129c565b838111156112c3576000848401525b50505050565b600181811c908216806112dd57607f821691505b602082108114156112fe57634e487b7160e01b600052602260045260246000fd5b50919050565b634e487b7160e01b600052604160045260246000fd5b6001600160a01b038116811461132f57600080fd5b5056fea26469706673582212208de528712c7b7144799c2ec901b3f89eb33857e69210580143bfe8168cf772fd64736f6c63430008040033",
  "linkReferences": {},
  "deployedLinkReferences": {}
}