{
  "_format": "hh-sol-artifact-1",
  "contractName": "PublicResolver",
  "sourceName": "contracts/PublicResolver.sol",
  "abi": [
    {
      "inputs": [
        {
          "internalType": "contract ENS",
          "name": "_ensAddr",
          "type": "address"
        }
      ],
      "stateMutability": "nonpayable",
      "type": "constructor"
    },
    {
      "anonymous": false,
      "inputs": [
        {
          "indexed": true,
          "internalType": "bytes32",
          "name": "node",
          "type": "bytes32"
        },
        {
          "indexed": true,
          "internalType": "uint256",
          "name": "contentType",
          "type": "uint256"
        }
      ],
      "name": "ABIChanged",
      "type": "event"
    },
    {
      "anonymous": false,
      "inputs": [
        {
          "indexed": true,
          "internalType": "bytes32",
          "name": "node",
          "type": "bytes32"
        },
        {
          "indexed": false,
          "internalType": "address",
          "name": "a",
          "type": "address"
        }
      ],
      "name": "AddrChanged",
      "type": "event"
    },
    {
      "anonymous": false,
      "inputs": [
        {
          "indexed": true,
          "internalType": "bytes32",
          "name": "node",
          "type": "bytes32"
        },
        {
          "indexed": false,
          "internalType": "bytes32",
          "name": "hash",
          "type": "bytes32"
        }
      ],
      "name": "ContentChanged",
      "type": "event"
    },
    {
      "anonymous": false,
      "inputs": [
        {
          "indexed": true,
          "internalType": "bytes32",
          "name": "node",
          "type": "bytes32"
        },
        {
          "indexed": false,
          "internalType": "bytes",
          "name": "hash",
          "type": "bytes"
        }
      ],
      "name": "MultihashChanged",
      "type": "event"
    },
    {
      "anonymous": false,
      "inputs": [
        {
          "indexed": true,
          "internalType": "bytes32",
          "name": "node",
          "type": "bytes32"
        },
        {
          "indexed": false,
          "internalType": "string",
          "name": "name",
          "type": "string"
        }
      ],
      "name": "NameChanged",
      "type": "event"
    },
    {
      "anonymous": false,
      "inputs": [
        {
          "indexed": true,
          "internalType": "bytes32",
          "name": "node",
          "type": "bytes32"
        },
        {
          "indexed": false,
          "internalType": "bytes32",
          "name": "x",
          "type": "bytes32"
        },
        {
          "indexed": false,
          "internalType": "bytes32",
          "name": "y",
          "type": "bytes32"
        }
      ],
      "name": "PubkeyChanged",
      "type": "event"
    },
    {
      "anonymous": false,
      "inputs": [
        {
          "indexed": true,
          "internalType": "bytes32",
          "name": "node",
          "type": "bytes32"
        },
        {
          "indexed": false,
          "internalType": "string",
          "name": "indexedKey",
          "type": "string"
        },
        {
          "indexed": false,
          "internalType": "string",
          "name": "key",
          "type": "string"
        }
      ],
      "name": "TextChanged",
      "type": "event"
    },
    {
      "inputs": [
        {
          "internalType": "bytes32",
          "name": "_node",
          "type": "bytes32"
        }
      ],
      "name": "addr",
      "outputs": [
        {
          "internalType": "address",
          "name": "",
          "type": "address"
        }
      ],
      "stateMutability": "view",
      "type": "function"
    },
    {
      "inputs": [
        {
          "internalType": "bytes32",
          "name": "_node",
          "type": "bytes32"
        }
      ],
      "name": "content",
      "outputs": [
        {
          "internalType": "bytes32",
          "name": "",
          "type": "bytes32"
        }
      ],
      "stateMutability": "view",
      "type": "function"
    },
    {
      "inputs": [
        {
          "internalType": "bytes32",
          "name": "_node",
          "type": "bytes32"
        }
      ],
      "name": "getAll",
      "outputs": [
        {
          "internalType": "address",
          "name": "_addr",
          "type": "address"
        },
        {
          "internalType": "bytes32",
          "name": "_content",
          "type": "bytes32"
        },
        {
          "internalType": "bytes",
          "name": "_multihash",
          "type": "bytes"
        },
        {
          "internalType": "bytes32",
          "name": "_x",
          "type": "bytes32"
        },
        {
          "internalType": "bytes32",
          "name": "_y",
          "type": "bytes32"
        },
        {
          "internalType": "string",
          "name": "_name",
          "type": "string"
        }
      ],
      "stateMutability": "view",
      "type": "function"
    },
    {
      "inputs": [
        {
          "internalType": "bytes32",
          "name": "_node",
          "type": "bytes32"
        }
      ],
      "name": "multihash",
      "outputs": [
        {
          "internalType": "bytes",
          "name": "",
          "type": "bytes"
        }
      ],
      "stateMutability": "view",
      "type": "function"
    },
    {
      "inputs": [
        {
          "internalType": "bytes32",
          "name": "_node",
          "type": "bytes32"
        }
      ],
      "name": "name",
      "outputs": [
        {
          "internalType": "string",
          "name": "",
          "type": "string"
        }
      ],
      "stateMutability": "view",
      "type": "function"
    },
    {
      "inputs": [
        {
          "internalType": "bytes32",
          "name": "_node",
          "type": "bytes32"
        }
      ],
      "name": "pubkey",
      "outputs": [
        {
          "internalType": "bytes32",
          "name": "x",
          "type": "bytes32"
        },
        {
          "internalType": "bytes32",
          "name": "y",
          "type": "bytes32"
        }
      ],
      "stateMutability": "view",
      "type": "function"
    },
    {
      "inputs": [
        {
          "internalType": "bytes32",
          "name": "_node",
          "type": "bytes32"
        },
        {
          "internalType": "uint256",
          "name": "_contentType",
          "type": "uint256"
        },
        {
          "internalType": "bytes",
          "name": "_data",
          "type": "bytes"
        }
      ],
      "name": "setABI",
      "outputs": [],
      "stateMutability": "nonpayable",
      "type": "function"
    },
    {
      "inputs": [
        {
          "internalType": "bytes32",
          "name": "_node",
          "type": "bytes32"
        },
        {
          "internalType": "address",
          "name": "_addr",
          "type": "address"
        }
      ],
      "name": "setAddr",
      "outputs": [],
      "stateMutability": "nonpayable",
      "type": "function"
    },
    {
      "inputs": [
        {
          "internalType": "bytes32",
          "name": "_node",
          "type": "bytes32"
        },
        {
          "internalType": "address",
          "name": "_addr",
          "type": "address"
        },
        {
          "internalType": "bytes32",
          "name": "_content",
          "type": "bytes32"
        },
        {
          "internalType": "bytes",
          "name": "_multihash",
          "type": "bytes"
        },
        {
          "internalType": "bytes32",
          "name": "_x",
          "type": "bytes32"
        },
        {
          "internalType": "bytes32",
          "name": "_y",
          "type": "bytes32"
        },
        {
          "internalType": "string",
          "name": "_name",
          "type": "string"
        }
      ],
      "name": "setAll",
      "outputs": [],
      "stateMutability": "nonpayable",
      "type": "function"
    },
    {
      "inputs": [
        {
          "internalType": "bytes32",
          "name": "_node",
          "type": "bytes32"
        },
        {
          "internalType": "bytes32",
          "name": "_hash",
          "type": "bytes32"
        }
      ],
      "name": "setContent",
      "outputs": [],
      "stateMutability": "nonpayable",
      "type": "function"
    },
    {
      "inputs": [
        {
          "internalType": "bytes32",
          "name": "_node",
          "type": "bytes32"
        },
        {
          "internalType": "bytes",
          "name": "_hash",
          "type": "bytes"
        }
      ],
      "name": "setMultihash",
      "outputs": [],
      "stateMutability": "nonpayable",
      "type": "function"
    },
    {
      "inputs": [
        {
          "internalType": "bytes32",
          "name": "_node",
          "type": "bytes32"
        },
        {
          "internalType": "string",
          "name": "_name",
          "type": "string"
        }
      ],
      "name": "setName",
      "outputs": [],
      "stateMutability": "nonpayable",
      "type": "function"
    },
    {
      "inputs": [
        {
          "internalType": "bytes32",
          "name": "_node",
          "type": "bytes32"
        },
        {
          "internalType": "bytes32",
          "name": "_x",
          "type": "bytes32"
        },
        {
          "internalType": "bytes32",
          "name": "_y",
          "type": "bytes32"
        }
      ],
      "name": "setPubkey",
      "outputs": [],
      "stateMutability": "nonpayable",
      "type": "function"
    },
    {
      "inputs": [
        {
          "internalType": "bytes32",
          "name": "_node",
          "type": "bytes32"
        },
        {
          "internalType": "string",
          "name": "_key",
          "type": "string"
        },
        {
          "internalType": "string",
          "name": "_value",
          "type": "string"
        }
      ],
      "name": "setText",
      "outputs": [],
      "stateMutability": "nonpayable",
      "type": "function"
    },
    {
      "inputs": [
        {
          "internalType": "bytes32",
          "name": "_node",
          "type": "bytes32"
        },
        {
          "internalType": "string",
          "name": "_key",
          "type": "string"
        }
      ],
      "name": "text",
      "outputs": [
        {
          "internalType": "string",
          "name": "",
          "type": "string"
        }
      ],
      "stateMutability": "view",
      "type": "function"
    }
  ],
  "bytecode": "0x60806040523480156200001157600080fd5b506040516200210738038062002107833981810160405281019062000037919062000095565b806000806101000a81548173ffffffffffffffffffffffffffffffffffffffff021916908373ffffffffffffffffffffffffffffffffffffffff1602179055505062000123565b6000815190506200008f8162000109565b92915050565b600060208284031215620000a857600080fd5b6000620000b8848285016200007e565b91505092915050565b6000620000ce82620000e9565b9050919050565b6000620000e282620000c1565b9050919050565b600073ffffffffffffffffffffffffffffffffffffffff82169050919050565b6200011481620000d5565b81146200012057600080fd5b50565b611fd480620001336000396000f3fe608060405234801561001057600080fd5b50600436106100f55760003560e01c80637737221311610097578063c869023311610066578063c86902331461027e578063d5fa2b00146102af578063e89401a1146102cb578063ed80e1f7146102fb576100f5565b8063773722131461020e5780639f3a206d1461022a578063aa4cb54714610246578063c3d014d614610262576100f5565b80633b3b57de116100d35780633b3b57de1461016257806359d1d43c14610192578063623195b0146101c2578063691f3431146101de576100f5565b806310f13a8c146100fa57806329cd62ea146101165780632dff694114610132575b600080fd5b610114600480360381019061010f9190611919565b610330565b005b610130600480360381019061012b9190611822565b6104ce565b005b61014c600480360381019061014791906116b3565b610667565b6040516101599190611ba7565b60405180910390f35b61017c600480360381019061017791906116b3565b610687565b6040516101899190611b1d565b60405180910390f35b6101ac60048036038101906101a791906118c5565b6106c7565b6040516101b99190611c0d565b60405180910390f35b6101dc60048036038101906101d79190611998565b61078c565b005b6101f860048036038101906101f391906116b3565b610964565b6040516102059190611c0d565b60405180910390f35b610228600480360381019061022391906118c5565b610a0c565b005b610244600480360381019061023f9190611718565b610b8b565b005b610260600480360381019061025b9190611871565b610cdf565b005b61027c600480360381019061027791906117e6565b610e5e565b005b610298600480360381019061029391906116b3565b610fcd565b6040516102a6929190611bc2565b60405180910390f35b6102c960048036038101906102c491906116dc565b61100d565b005b6102e560048036038101906102e091906116b3565b6111b6565b6040516102f29190611beb565b60405180910390f35b610315600480360381019061031091906116b3565b61125e565b60405161032796959493929190611b38565b60405180910390f35b823373ffffffffffffffffffffffffffffffffffffffff1660008054906101000a900473ffffffffffffffffffffffffffffffffffffffff1673ffffffffffffffffffffffffffffffffffffffff166302571be3836040518263ffffffff1660e01b81526004016103a19190611ba7565b60206040518083038186803b1580156103b957600080fd5b505afa1580156103cd573d6000803e3d6000fd5b505050506040513d601f19601f820116820180604052508101906103f1919061168a565b73ffffffffffffffffffffffffffffffffffffffff1614610447576040517f08c379a000000000000000000000000000000000000000000000000000000000815260040161043e90611c66565b60405180910390fd5b81600160008681526020019081526020016000206005018460405161046c9190611b06565b9081526020016040518091039020908051906020019061048d92919061143d565b50837fd8c9334b1a9c2f9da342a0a2b32629c1a229b6445dad78947f674b44444a755084856040516104c0929190611c2f565b60405180910390a250505050565b823373ffffffffffffffffffffffffffffffffffffffff1660008054906101000a900473ffffffffffffffffffffffffffffffffffffffff1673ffffffffffffffffffffffffffffffffffffffff166302571be3836040518263ffffffff1660e01b815260040161053f9190611ba7565b60206040518083038186803b15801561055757600080fd5b505afa15801561056b573d6000803e3d6000fd5b505050506040513d601f19601f8201168201806040525081019061058f919061168a565b73ffffffffffffffffffffffffffffffffffffffff16146105e5576040517f08c379a00000000000000000000000000000000000000000000000000000000081526004016105dc90611c66565b60405180910390fd5b604051806040016040528084815260200183815250600160008681526020019081526020016000206003016000820151816000015560208201518160010155905050837f1d6f5e03d3f63eb58751986629a5439baee5079ff04f345becb66e23eb154e468484604051610659929190611bc2565b60405180910390a250505050565b600060016000838152602001908152602001600020600101549050919050565b60006001600083815260200190815260200160002060000160009054906101000a900473ffffffffffffffffffffffffffffffffffffffff169050919050565b606060016000848152602001908152602001600020600501826040516106ed9190611b06565b9081526020016040518091039020805461070690611e2c565b80601f016020809104026020016040519081016040528092919081815260200182805461073290611e2c565b801561077f5780601f106107545761010080835404028352916020019161077f565b820191906000526020600020905b81548152906001019060200180831161076257829003601f168201915b5050505050905092915050565b823373ffffffffffffffffffffffffffffffffffffffff1660008054906101000a900473ffffffffffffffffffffffffffffffffffffffff1673ffffffffffffffffffffffffffffffffffffffff166302571be3836040518263ffffffff1660e01b81526004016107fd9190611ba7565b60206040518083038186803b15801561081557600080fd5b505afa158015610829573d6000803e3d6000fd5b505050506040513d601f19601f8201168201806040525081019061084d919061168a565b73ffffffffffffffffffffffffffffffffffffffff16146108a3576040517f08c379a000000000000000000000000000000000000000000000000000000000815260040161089a90611c66565b60405180910390fd5b6000836001856108b39190611d70565b16146108f4576040517f08c379a00000000000000000000000000000000000000000000000000000000081526004016108eb90611c86565b60405180910390fd5b81600160008681526020019081526020016000206006016000858152602001908152602001600020908051906020019061092f9291906114c3565b5082847faa121bbeef5f32f5961a2a28966e769023910fc9479059ee3495d4c1a696efe360405160405180910390a350505050565b606060016000838152602001908152602001600020600201805461098790611e2c565b80601f01602080910402602001604051908101604052809291908181526020018280546109b390611e2c565b8015610a005780601f106109d557610100808354040283529160200191610a00565b820191906000526020600020905b8154815290600101906020018083116109e357829003601f168201915b50505050509050919050565b813373ffffffffffffffffffffffffffffffffffffffff1660008054906101000a900473ffffffffffffffffffffffffffffffffffffffff1673ffffffffffffffffffffffffffffffffffffffff166302571be3836040518263ffffffff1660e01b8152600401610a7d9190611ba7565b60206040518083038186803b158015610a9557600080fd5b505afa158015610aa9573d6000803e3d6000fd5b505050506040513d601f19601f82011682018060405250810190610acd919061168a565b73ffffffffffffffffffffffffffffffffffffffff1614610b23576040517f08c379a0000000000000000000000000000000000000000000000000000000008152600401610b1a90611c66565b60405180910390fd5b81600160008581526020019081526020016000206002019080519060200190610b4d92919061143d565b50827fb7d29e911041e8d9b843369e890bcb72c9388692ba48b65ac54e7214c4c348f783604051610b7e9190611c0d565b60405180910390a2505050565b863373ffffffffffffffffffffffffffffffffffffffff1660008054906101000a900473ffffffffffffffffffffffffffffffffffffffff1673ffffffffffffffffffffffffffffffffffffffff166302571be3836040518263ffffffff1660e01b8152600401610bfc9190611ba7565b60206040518083038186803b158015610c1457600080fd5b505afa158015610c28573d6000803e3d6000fd5b505050506040513d601f19601f82011682018060405250810190610c4c919061168a565b73ffffffffffffffffffffffffffffffffffffffff1614610ca2576040517f08c379a0000000000000000000000000000000000000000000000000000000008152600401610c9990611c66565b60405180910390fd5b610cac888861100d565b610cb68887610e5e565b610cc08886610cdf565b610ccb8885856104ce565b610cd58883610a0c565b5050505050505050565b813373ffffffffffffffffffffffffffffffffffffffff1660008054906101000a900473ffffffffffffffffffffffffffffffffffffffff1673ffffffffffffffffffffffffffffffffffffffff166302571be3836040518263ffffffff1660e01b8152600401610d509190611ba7565b60206040518083038186803b158015610d6857600080fd5b505afa158015610d7c573d6000803e3d6000fd5b505050506040513d601f19601f82011682018060405250810190610da0919061168a565b73ffffffffffffffffffffffffffffffffffffffff1614610df6576040517f08c379a0000000000000000000000000000000000000000000000000000000008152600401610ded90611c66565b60405180910390fd5b81600160008581526020019081526020016000206007019080519060200190610e209291906114c3565b50827fc0b0fc07269fc2749adada3221c095a1d2187b2d075b51c915857b520f3a502183604051610e519190611beb565b60405180910390a2505050565b813373ffffffffffffffffffffffffffffffffffffffff1660008054906101000a900473ffffffffffffffffffffffffffffffffffffffff1673ffffffffffffffffffffffffffffffffffffffff166302571be3836040518263ffffffff1660e01b8152600401610ecf9190611ba7565b60206040518083038186803b158015610ee757600080fd5b505afa158015610efb573d6000803e3d6000fd5b505050506040513d601f19601f82011682018060405250810190610f1f919061168a565b73ffffffffffffffffffffffffffffffffffffffff1614610f75576040517f08c379a0000000000000000000000000000000000000000000000000000000008152600401610f6c90611c66565b60405180910390fd5b816001600085815260200190815260200160002060010181905550827f0424b6fe0d9c3bdbece0e7879dc241bb0c22e900be8b6c168b4ee08bd9bf83bc83604051610fc09190611ba7565b60405180910390a2505050565b6000806001600084815260200190815260200160002060030160000154600160008581526020019081526020016000206003016001015491509150915091565b813373ffffffffffffffffffffffffffffffffffffffff1660008054906101000a900473ffffffffffffffffffffffffffffffffffffffff1673ffffffffffffffffffffffffffffffffffffffff166302571be3836040518263ffffffff1660e01b815260040161107e9190611ba7565b60206040518083038186803b15801561109657600080fd5b505afa1580156110aa573d6000803e3d6000fd5b505050506040513d601f19601f820116820180604052508101906110ce919061168a565b73ffffffffffffffffffffffffffffffffffffffff1614611124576040517f08c379a000000000000000000000000000000000000000000000000000000000815260040161111b90611c66565b60405180910390fd5b816001600085815260200190815260200160002060000160006101000a81548173ffffffffffffffffffffffffffffffffffffffff021916908373ffffffffffffffffffffffffffffffffffffffff160217905550827f52d7d861f09ab3d26239d492e8968629f95e9e318cf0b73bfddc441522a15fd2836040516111a99190611b1d565b60405180910390a2505050565b60606001600083815260200190815260200160002060070180546111d990611e2c565b80601f016020809104026020016040519081016040528092919081815260200182805461120590611e2c565b80156112525780601f1061122757610100808354040283529160200191611252565b820191906000526020600020905b81548152906001019060200180831161123557829003601f168201915b50505050509050919050565b600080606060008060606001600088815260200190815260200160002060000160009054906101000a900473ffffffffffffffffffffffffffffffffffffffff169550600160008881526020019081526020016000206001015494506001600088815260200190815260200160002060070180546112db90611e2c565b80601f016020809104026020016040519081016040528092919081815260200182805461130790611e2c565b80156113545780601f1061132957610100808354040283529160200191611354565b820191906000526020600020905b81548152906001019060200180831161133757829003601f168201915b5050505050935060016000888152602001908152602001600020600301600001549250600160008881526020019081526020016000206003016001015491506001600088815260200190815260200160002060020180546113b490611e2c565b80601f01602080910402602001604051908101604052809291908181526020018280546113e090611e2c565b801561142d5780601f106114025761010080835404028352916020019161142d565b820191906000526020600020905b81548152906001019060200180831161141057829003601f168201915b5050505050905091939550919395565b82805461144990611e2c565b90600052602060002090601f01602090048101928261146b57600085556114b2565b82601f1061148457805160ff19168380011785556114b2565b828001600101855582156114b2579182015b828111156114b1578251825591602001919060010190611496565b5b5090506114bf9190611549565b5090565b8280546114cf90611e2c565b90600052602060002090601f0160209004810192826114f15760008555611538565b82601f1061150a57805160ff1916838001178555611538565b82800160010185558215611538579182015b8281111561153757825182559160200191906001019061151c565b5b5090506115459190611549565b5090565b5b8082111561156257600081600090555060010161154a565b5090565b600061157961157484611ccb565b611ca6565b90508281526020810184848401111561159157600080fd5b61159c848285611dea565b509392505050565b60006115b76115b284611cfc565b611ca6565b9050828152602081018484840111156115cf57600080fd5b6115da848285611dea565b509392505050565b6000813590506115f181611f59565b92915050565b60008151905061160681611f59565b92915050565b60008135905061161b81611f70565b92915050565b600082601f83011261163257600080fd5b8135611642848260208601611566565b91505092915050565b600082601f83011261165c57600080fd5b813561166c8482602086016115a4565b91505092915050565b60008135905061168481611f87565b92915050565b60006020828403121561169c57600080fd5b60006116aa848285016115f7565b91505092915050565b6000602082840312156116c557600080fd5b60006116d38482850161160c565b91505092915050565b600080604083850312156116ef57600080fd5b60006116fd8582860161160c565b925050602061170e858286016115e2565b9150509250929050565b600080600080600080600060e0888a03121561173357600080fd5b60006117418a828b0161160c565b97505060206117528a828b016115e2565b96505060406117638a828b0161160c565b955050606088013567ffffffffffffffff81111561178057600080fd5b61178c8a828b01611621565b945050608061179d8a828b0161160c565b93505060a06117ae8a828b0161160c565b92505060c088013567ffffffffffffffff8111156117cb57600080fd5b6117d78a828b0161164b565b91505092959891949750929550565b600080604083850312156117f957600080fd5b60006118078582860161160c565b92505060206118188582860161160c565b9150509250929050565b60008060006060848603121561183757600080fd5b60006118458682870161160c565b93505060206118568682870161160c565b92505060406118678682870161160c565b9150509250925092565b6000806040838503121561188457600080fd5b60006118928582860161160c565b925050602083013567ffffffffffffffff8111156118af57600080fd5b6118bb85828601611621565b9150509250929050565b600080604083850312156118d857600080fd5b60006118e68582860161160c565b925050602083013567ffffffffffffffff81111561190357600080fd5b61190f8582860161164b565b9150509250929050565b60008060006060848603121561192e57600080fd5b600061193c8682870161160c565b935050602084013567ffffffffffffffff81111561195957600080fd5b6119658682870161164b565b925050604084013567ffffffffffffffff81111561198257600080fd5b61198e8682870161164b565b9150509250925092565b6000806000606084860312156119ad57600080fd5b60006119bb8682870161160c565b93505060206119cc86828701611675565b925050604084013567ffffffffffffffff8111156119e957600080fd5b6119f586828701611621565b9150509250925092565b611a0881611da4565b82525050565b611a1781611db6565b82525050565b6000611a2882611d2d565b611a328185611d43565b9350611a42818560208601611df9565b611a4b81611f1c565b840191505092915050565b6000611a6182611d38565b611a6b8185611d54565b9350611a7b818560208601611df9565b611a8481611f1c565b840191505092915050565b6000611a9a82611d38565b611aa48185611d65565b9350611ab4818560208601611df9565b80840191505092915050565b6000611acd601383611d54565b9150611ad882611f2d565b602082019050919050565b6000611af0600083611d54565b9150611afb82611f56565b600082019050919050565b6000611b128284611a8f565b915081905092915050565b6000602082019050611b3260008301846119ff565b92915050565b600060c082019050611b4d60008301896119ff565b611b5a6020830188611a0e565b8181036040830152611b6c8187611a1d565b9050611b7b6060830186611a0e565b611b886080830185611a0e565b81810360a0830152611b9a8184611a56565b9050979650505050505050565b6000602082019050611bbc6000830184611a0e565b92915050565b6000604082019050611bd76000830185611a0e565b611be46020830184611a0e565b9392505050565b60006020820190508181036000830152611c058184611a1d565b905092915050565b60006020820190508181036000830152611c278184611a56565b905092915050565b60006040820190508181036000830152611c498185611a56565b90508181036020830152611c5d8184611a56565b90509392505050565b60006020820190508181036000830152611c7f81611ac0565b9050919050565b60006020820190508181036000830152611c9f81611ae3565b9050919050565b6000611cb0611cc1565b9050611cbc8282611e5e565b919050565b6000604051905090565b600067ffffffffffffffff821115611ce657611ce5611eed565b5b611cef82611f1c565b9050602081019050919050565b600067ffffffffffffffff821115611d1757611d16611eed565b5b611d2082611f1c565b9050602081019050919050565b600081519050919050565b600081519050919050565b600082825260208201905092915050565b600082825260208201905092915050565b600081905092915050565b6000611d7b82611de0565b9150611d8683611de0565b925082821015611d9957611d98611e8f565b5b828203905092915050565b6000611daf82611dc0565b9050919050565b6000819050919050565b600073ffffffffffffffffffffffffffffffffffffffff82169050919050565b6000819050919050565b82818337600083830152505050565b60005b83811015611e17578082015181840152602081019050611dfc565b83811115611e26576000848401525b50505050565b60006002820490506001821680611e4457607f821691505b60208210811415611e5857611e57611ebe565b5b50919050565b611e6782611f1c565b810181811067ffffffffffffffff82111715611e8657611e85611eed565b5b80604052505050565b7f4e487b7100000000000000000000000000000000000000000000000000000000600052601160045260246000fd5b7f4e487b7100000000000000000000000000000000000000000000000000000000600052602260045260246000fd5b7f4e487b7100000000000000000000000000000000000000000000000000000000600052604160045260246000fd5b6000601f19601f8301169050919050565b7f4f776e6572206973206e6f742073656e64657200000000000000000000000000600082015250565b50565b611f6281611da4565b8114611f6d57600080fd5b50565b611f7981611db6565b8114611f8457600080fd5b50565b611f9081611de0565b8114611f9b57600080fd5b5056fea26469706673582212200020c7a6d1d78d280d271f63be6b6db5bb2e41c7c3913ad1cdcb3f2d7787b42c64736f6c63430008040033",
  "linkReferences": {},
  "deployedLinkReferences": {}
}